:100000000C945E100C94072C0C94E02B0C9486102E
:100010000C9486100C9486100C94862C0C948610EC
:100020000C9486100C9486100C9486100C948610F8
:100030000C9486100C9486100C9486100C948610E8
:100040000C94992B0C9486100C94542C0C942E2CFC
:100050000C9486100C9486100C9486100C948610C8
:100060000C949D2C0C9486102048454C5020202048
:100070002020202020202020202074686973206CFC
:1000800069737400207769746820444941475F4D63
:100090004F444520444941475F53454E534F5253C7
:1000A0002E002053656E736F722074657374732015
:1000B000284844432C20544D502C20544D50415638
:1000C000472C20414E414C4F472C20534554544C13
:1000D000452C20535445502C2054494D494E472916
:1000E0003A206275696C640020534C454550205B92
:1000F000735D2020202020202020736C65657020F7
:100100006C696B6520746865206C6F676765722029
:10011000666F722073207365636F6E647320286D41
:100120006561737572652063757272656E742900FE
:100130002044532020202020202020202020202068
:100140002020312D57697265206275733A207075D1
:100150006C6C2D75702C2073656E736F72732C2010
:100160004352432C2074656D7065726174757265BD
:10017000730020464C415348525720202020202015
:100180002020202077726974652F65726173652065
:1001900074657374206F6E20746865204C415354ED
:1001A00020736563746F722C206F6E6C79206966A2
:1001B00020626C616E6B0020464C41534820202029
:1001C0002020202020202020205732355136342076
:1001D00049442C207374617475732C20706F77659B
:1001E000722D646F776E2C206C6F6720636F6E7357
:1001F000697374656E63790020525443414C4152D7
:100200004D202020202020202020616C61726D2054
:100210002D3E20494E542070696E202D3E2077617E
:100220006B65206C696E652C20656E6420746F2090
:10023000656E6400205254435351572020202020E3
:100240002020202020204D43552063727973746153
:100250006C207673205254432028312E30323420C3
:100260006B487A206F6E20494E542F535157290006
:1002700020525443202020202020202020202020F5
:1002800020204453333233312074696D652C20664D
:100290006C6167732C2074656D7065726174757222
:1002A000652C206167696E670020454550524F4DAF
:1002B00020202020202020202020206C6F676765D0
:1002C0007220636F6E66696775726174696F6E2CF8
:1002D0002063616C6962726174696F6E732C206354
:1002E0006F756E74657273002042542020202020A8
:1002F00020202020202020202020626C7565746F33
:100300006F7468206D6F64756C652053544154455B
:100310002070696E00204C4544532020202020206E
:1003200020202020202020626C696E6B7320677271
:1003300065656E2C207468656E20726564002050BF
:10034000494E532020202020202020202020202023
:1003500065766572792070696E3A206469726563AA
:1003600074696F6E2C2070756C6C2D75702C206C00
:100370006576656C0020584F4E206E202F20584F18
:100380004646206E20202070696E206E2028302D79
:10039000313929206173206F75747075742C206851
:1003A000696768202F206C6F770020493243202036
:1003B0002020202020202020202020206275732053
:1003C0007363616E3A2077686F20616E7377657230
:1003D000732C2077686F206973206D697373696E61
:1003E000670020504F5745522020202020202020F9
:1003F00020202020332E3356207261696C20286221
:10040000616E646761702920616E6420626174743A
:100410006572792072656164696E6700204D43558D
:100420002020202020202020202020202020636841
:100430006970207369676E61747572652C206675CA
:100440007365732C207265736574206361757365C1
:100450000020414C4C202020202020202020202043
:100460002020206576657279206E6F6E2D6465732D
:100470007472756374697665207465737420696E2F
:100480002074686973206275696C642C20746865D7
:100490006E20612073756D6D617279000A436F6D16
:1004A0006D616E64732028616E7920636173653BB2
:1004B000205B785D206F7074696F6E616C293A0003
:1004C000202053796E7461783A20584F4E206E2068
:1004D0002F20584F4646206E2C206E203D20302E77
:1004E0002E3139202831342E2E3137203D20413015
:1004F0002E2E41332900204C4F57002048494748B1
:1005000000202050696E200020204E6F74653A2034
:10051000302F31206172652074686520636F6E73BF
:100520006F6C65205541525420616E642031382F24
:1005300031392074686520493243206275732E007A
:10054000202D2D2D2D2D2D2D2D2D2D000A2D2D2D38
:100550002D2D2D2D2D2D2D200020205B696E666FF9
:100560005D200020205B4641494C5D200020205B3F
:100570005741524E5D200020205B504153535D2077
:10058000002020002020284D435520637279737489
:10059000616C20616761696E7374207468652052B4
:1005A00054433A20736565205254435351572900F0
:1005B00020627974657300467265652052414D2052
:1005C0006E6F77006C617374207265736574207749
:1005D000617320612062726F776E2D6F75743A209F
:1005E000636865636B207468652063656C6C20616B
:1005F0006E642074686520626F6F737420636F6E21
:10060000766572746572002028636C65617265643A
:100610002062792074686520626F6F746C6F61640A
:100620006572290020706F7765722D6F6E002065EE
:10063000787465726E616C002062726F776E2D6FD8
:10064000757400207761746368646F670052657326
:10065000657420636175736520284D435553522995
:10066000006275696C7420666F722074686520374B
:100670002E33373238204D487A2063727973746193
:100680006C0020487A00465F435055202861732053
:100690006275696C742900424F4420342E33562011
:1006A0006F6E206120332E335620626F6172643A80
:1006B0002074686520636869702069732068656CC0
:1006C0006420696E20726573657400342E33205681
:1006D00000424F44206F66663A206120736167676D
:1006E000696E672063656C6C2063616E20636F7256
:1006F000727570742074686520666C617368206F11
:100700007220454550524F4D0064697361626C65BB
:100710006400424F4420312E38563A2074686520D8
:10072000666C617368206D617920626520777269FB
:100730007474656E2062656C6F7720697473206DC8
:10074000696E696D756D20766F6C746167650031D7
:100750002E38205600424F4420322E3756206173E7
:100760002074686520626F617264207365747469B7
:100770006E67732061736B00322E37205600427211
:100780006F776E2D6F7574206C6576656C00200038
:1007900020004675736573206C6F772F68696768F2
:1007A0002F657874006E6F7420616E2041546D6502
:1007B0006761333238503A2077726F6E6720636812
:1007C0006970206F722077726F6E6720626F61723E
:1007D000642073657474696E670041546D65676168
:1007E00033323820286E6F6E2D50293A2072756E84
:1007F000732C2062757420736C656570206375724C
:1008000072656E742069732068696768657200415B
:10081000546D656761333238502C206173206669EE
:100820007474656400200020005369676E617475FC
:100830007265004D43550063656C6C20766F6C7477
:100840006167652066696E650063656C6C206C6F1E
:100850007720283C312E31352056290063656C6C99
:100860002062656C6F7720302E3920563A207265F1
:10087000706C61636520697400626174746572797B
:100880002063616C6962726174696F6E20636F6E60
:1008900073697374656E7420776974682074686511
:1008A00020646976696465720063616C6962726173
:1008B00074696F6E20616E64206E6F6D696E616C1D
:1008C0002064697669646572206469736167726522
:1008D00065206279203E323020253A2063686563C6
:1008E0006B2056312F563200206D560042617474D1
:1008F000657279202863616C69627261746564292C
:1009000000626174746572792063616C69627261FE
:1009100074696F6E206E6F74207365742028563171
:100920002F5632293A20746865206C6F67676572AC
:10093000206C6F67732072617720636F756E7473BC
:1009400000206D56004261747465727920286E6FC4
:100950006D696E616C206469762E29006D564000C9
:100960002020006D56400043616C696272617469B9
:100970006F6E2056312F5632004261747465727961
:100980002C2072617720636F756E74007261696CE0
:10099000206661722066726F6D20332E33563A20C6
:1009A000636865636B2074686520626F6F73742081
:1009B000636F6E766572746572007261696C207027
:1009C000726573656E7420616E64206E656172205D
:1009D000332E335600206D562020282B2D31302009
:1009E000252900332E3356207261696C20286261FC
:1009F0006E646761702900504F57455200202000F7
:100A00002020286E6F206C6F67207374617274658C
:100A10006429003078004C6F67207369676E6174D9
:100A2000757265006D5640002020006D5640006EC6
:100A30006F7420736574002063616C696272617405
:100A4000696F6E202E2E2E2E2E2E2E2E2E2E2E2026
:100A50000020204100636F756E74657220736C6FA7
:100A60007473206E6576657220696E697469616C55
:100A7000697365643A2072756E2074686520696ECA
:100A8000697469616C697A657220736B65746368F7
:100A9000005265636F7264732073696E63652072C0
:100AA000657365740074696D65207A6F6E65206F7B
:100AB0007574206F662072616E67653A2074686590
:100AC000206C6F676765722066616C6C7320626171
:100AD000636B20746F205554430054696D65207A10
:100AE0006F6E6500696E74657276616C206F7574E7
:100AF000206F662072616E67653A20746865206CAD
:100B00006F676765722066616C6C73206261636BEE
:100B100020746F203630302073002073004D6561E3
:100B2000737572656D656E7420696E746572766139
:100B30006C00454550524F4D20286C6F67676572B9
:100B400020636F6E66696775726174696F6E2C20C1
:100B500072656164206F6E6C792900204100204429
:100B6000533138423230780020544D503131390001
:100B7000205248002048444374656D700020566F31
:100B80006C74003A007600534441206F7220534346
:100B90004C2068656C64206C6F773A20746865201F
:100BA0004932432062757320697320737475636BD7
:100BB00000494E542F535157206973204C4F573AD8
:100BC00020616E2052544320616C61726D20666C0E
:100BD0006167206973207365743B2061736C656580
:100BE0007020746869732073696E6B73207E313076
:100BF0003020754100202020493243002068656183
:100C0000646572002020204100202020726564204D
:100C10004C45440020202042542053544154450068
:100C2000202020666C6173682043530020202067D9
:100C30007265656E204C454400202020666C61730F
:100C40006820737570706C7900202020312D5769F1
:100C500072650020202052544320494E542F535196
:100C60005720286C6F77203D20616C61726D207079
:100C7000656E64696E672900202072656164732067
:100C8000002020696E7075742020002020696E2B72
:100C900070756C6C0020206F757470757420002066
:100CA000002020440020204449445230200020509D
:100CB000494E44200020504F5254442000202044EC
:100CC00044524420002050494E43200020504F52AF
:100CD0005443200020204444524320002050494ED9
:100CE00042200020504F52544220002020444452C1
:100CF00042200050494E53006D6F64756C65207240
:100D000065706F727473206120636F6E6E656374BB
:100D1000696F6E00535441544520626C696E6B6973
:100D20006E673A206D6F64756C65206164766572DC
:100D3000746973696E672C206E6F7420636F6E6EBA
:100D40006563746564006E6F20636F6E6E656374B7
:100D5000696F6E20286F72206E6F206D6F64756CE6
:100D600065206669747465642900206F66203230DE
:100D70002072656164730053544154452070696E5C
:100D8000206869676800424C5545544F4F544800ED
:100D900064617461206265796F6E64207468652097
:100DA000636F756E7465723A207265636F726473F7
:100DB000207772697474656E206166746572206153
:100DC00020636F756E7465722072657365742C2074
:100DD0006F722061206C6F737420696E6372656D31
:100DE000656E74006E65787420736C6F742069731F
:100DF000206572617365643A20636F756E74657205
:100E000020616E64206461746120616772656500B1
:100E10006C61737420636F756E74656420726563B2
:100E20006F726420686F6C64732064617461002069
:100E30006461797329002028006C61737420636FEA
:100E4000756E746564207265636F726420697320C7
:100E5000626C616E6B3A20636F756E7465722061AF
:100E600068656164206F66207468652064617461E0
:100E70000020732073696E63652032303030004C7F
:100E8000617374207265636F72642074696D6500AC
:100E9000636F756E74657220636C61696D73206D2C
:100EA0006F7265207468616E2074686520666C617D
:100EB000736820686F6C64730020252900206279B4
:100EC000746573202800466C6173682075736564CF
:100ED00000202F20005265636F726473202F206200
:100EE000797465732065616368006E6F207369674C
:100EF0006E617475726520696E20454550524F4D84
:100F000020286E6F206C6F67207374617274656443
:100F1000292E0020204C6F673A20002020466C616B
:100F20007368206C65667420696E20646565702046
:100F3000706F7765722D646F776E2E0077616B65C9
:100F4000732066726F6D206465657020706F7765C1
:100F5000722D646F776E2028423968202D3E204123
:100F600042682900202869676E6F7265642077687F
:100F7000696C652061736C65657029003078004983
:100F80006E20706F7765722D646F776E20535231CB
:100F900020726561647300206B422F732900206DFD
:100FA000732020280052656164203332206B420098
:100FB0006E6F2070726F74656374696F6E20626902
:100FC0007473207365740051453D303A20575023A7
:100FD0002F484F4C442320617265206C6976652050
:100FE00070696E73206F6E2074686973206368691E
:100FF000700051453D313A20666163746F72792DFE
:101000006669786564206F6E20746869732070610A
:1010100072743B204E4556455220697373756520A6
:101020007175616420696E737472756374696F6E33
:10103000730053525031207365743A207374617495
:101040007573207265676973746572206C6F636B6A
:10105000656400535250302073657400626C6F6396
:101060006B2070726F74656374696F6E20284250D4
:1010700029207365743A2077726974657320746FE0
:101080002070617274206F662074686520617272CE
:101090006179206661696C0042555359207365740B
:1010A0002077697468206E6F7468696E6720727546
:1010B0006E6E696E67002000200053746174757352
:1010C000205352312F5352322F535233002020736A
:1010D000686F72742047543030312D00556E69713D
:1010E00075652049442028626F6172642049442953
:1010F00000307800446576696365204944202841C2
:101100004268290057696E626F6E6420573235510C
:1011100036342028454620343020313729006E6F80
:1011200020616E737765723A20666C617368207512
:101130006E706F776572656420284434292C2043D3
:1011400053206F722053504920776972696E672C63
:10115000206F72206368697020616273656E74002D
:10116000204D42290020202800200020004A45442C
:1011700045432049440053504920464C41534820A0
:10118000573235513634006F746865722064657665
:101190006963657320616E73776572202865787066
:1011A0006563746564206F6E6C792077697468205C
:1011B0006164642D6F6E20626F6172647329003AFE
:1011C000206120544D5031313920776974682041B5
:1011D000444430206E6F74207469656420746F20FD
:1011E000474E442028736F6C646572206272696494
:1011F0006765206F72206F70656E2070696E292E92
:10120000002020536F6D657468696E6720616E738E
:101210007765727320617420307800544D503131FD
:10122000392074656D7065726174757265206174C2
:10123000203078343820284144443020746F2047CF
:101240004E442900484443313038302074656D7075
:10125000657261747572652F524820617420307810
:1012600034300044533332333120525443206174BC
:10127000203078363800203078002020416E737797
:101280006572696E673A0053444120616E64205371
:10129000434C2069646C6520686967682028707514
:1012A0006C6C2D7570732070726573656E74290097
:1012B000534441206F722053434C206973206C6F5C
:1012C0007720776974682074686520627573206977
:1012D000646C653A20612064657669636520686F97
:1012E0006C64732069742C206F7220612070756C9F
:1012F0006C2D7570206973206D697373696E67005A
:1013000049324320425553002043202875706461C0
:1013100074656420657665727920363420732C20DC
:101320002B2D33204329005254432074656D706582
:1013300072617475726500202861626F7574203067
:101340002E312070706D2070657220737465702965
:10135000004167696E67206F666673657400616E31
:1013600020616C61726D20666C616720697320700A
:10137000656E64696E6720286E6F726D616C207295
:101380006967687420616674657220612077616B9B
:10139000652D75703B20746865206C6F676765729A
:1013A00020636C6561727320697429004242535155
:1013B000572073657420286C65667420736F2062F3
:1013C0007920746865206C6F676765722773206386
:1013D0006C6F636B20636865636B3B206861726D43
:1013E0006C657373207769746820494E54434E3D91
:1013F000312900494E54434E20636C6561723A2096
:10140000494E542F535157206973206120737175D1
:1014100061726520776176652C20616C61726D73F5
:101420002063616E6E6F742077616B6520746865F0
:10143000206C6F67676572003332206B487A206FCB
:10144000757470757420656E61626C65643A2069AC
:101450007420636F7374732063757272656E742089
:10146000616E64206973206E6F742075736564000B
:101470004F5346207365743A20746865206F736318
:10148000696C6C61746F722073746F707065642026
:10149000617420736F6D6520706F696E74202870A1
:1014A0006F776572206C6F7373292C20736F2074B3
:1014B00068652074696D65206D61792062652077AB
:1014C000726F6E6700204132460020413146002095
:1014D0004253590020454E33326B487A00204F5317
:1014E000460030780053746174757320304668008C
:1014F0002041324945002041314945002053515790
:101500002D6F75740020494E54434E0020424253C3
:1015100051570020454F5343286F7363206F666611
:10152000206F6E20626174746572792900307800D2
:10153000436F6E74726F6C2030456800636C6F632C
:101540006B2069732072756E6E696E6700736563D8
:101550006F6E647320646964206E6F7420616476BA
:10156000616E636520696E20312E3120733A206FE1
:101570007363696C6C61746F722073746F707065E3
:101580006400525443206461746520706C6175730B
:1015900069626C6520286E6F74206265666F726583
:1015A0002074686973206275696C64290052544321
:1015B000206561726C696572207468616E20746860
:1015C000697320736B657463682773206275696C37
:1015D0006420646174653A2074686520636C6F638D
:1015E0006B206973206E6F742073657400525443CE
:1015F00020696E2031322D686F7572206D6F6465C1
:101600003A20746865206C6F676765722061737338
:10161000756D65732032342D686F75720030003A35
:101620000030003A003000200030002D0030002D46
:101630000054696D65202861732073746F7265644E
:10164000290052544320646F6573206E6F742061CB
:101650006E737765720052544320445333323331F2
:1016600000494E542F535157206C696E65207265A6
:10167000616368657320443200636C6F636B206F35
:101680006666206279206D6F7265207468616E20D5
:101690003220253A206275696C7420666F7220745E
:1016A00068652077726F6E6720636C6F636B2C20A8
:1016B0006F722077726F6E67206372797374616CDA
:1016C00000636C6F636B206F666620627920302E3A
:1016D00030352D3220253A206372797374616C2085
:1016E0006F72206C6F6164696E6720636170616303
:1016F00069746F72733F006372797374616C206FE9
:101700006E206672657175656E63792028726573E7
:101710006F6C7574696F6E207E322070706D202B37
:10172000206372797374616C20746F6C6572616E82
:10173000636529002070706D290020487A202028D8
:10174000004D435520636C6F636B00207573202838
:1017500034303030303030206578706563746564C3
:1017600029003430393620656467657320746F6FE3
:101770006B006E6F2073717561726520776176659D
:10178000206F6E20494E542F53515720287468659E
:1017900020616C61726D20706174682069732074BF
:1017A000657374656420627920525443414C415200
:1017B0004D29006E6F20525443004D435520434C39
:1017C0004F434B20767320525443002020416C61DC
:1017D000726D2072656769737465727320616E64DF
:1017E00020636F6E74726F6C20726573746F7265B4
:1017F0006420746F2077686174207468657920773D
:101800006572652E00636C656172696E6720413197
:10181000462072656C656173657320746865206C21
:10182000696E6500616C61726D2070756C6C7320FF
:101830007468652077616B65206C696E65206C6FDC
:101840007700206D732028323030302D3330303027
:101850002065787065637465642900416C61726D00
:1018600020666972656420616674657200616C61EE
:10187000726D20646964206E6F742070756C6C20CA
:10188000494E542F535157206C6F7720696E203585
:1018900020733A20746865206C6F676765722077E3
:1018A0006F756C64206E657665722077616B65007C
:1018B000494E542F5351572077617320616C7265E4
:1018C000616479206C6F77206265666F7265206154
:1018D000726D696E67006E6F20525443005254431C
:1018E00020414C41524D202D3E2057414B45204C2C
:1018F000494E4500312D576972652073656E736FCF
:10190000727320726561640020202838352E3030D3
:1019100030204320706F7765722D6F6E2076616C7A
:1019200075653A20636F6E76657273696F6E2064B9
:101930006964206E6F742072756E2900206269746C
:101940000020432020207265736F6C7574696F6E80
:101950002000736372617463687061642043524352
:10196000206572726F720073637261746368706174
:10197000642043524320424144003A200020205337
:10198000656E736F722000612073656E736F7220D5
:1019900069732070617261736974652D706F77650A
:1019A0007265643A20746865206C6F6767657220A1
:1019B000646F6573206E6F7420737570706F7274CE
:1019C0002069740070726573656E63652070756C54
:1019D0007365206275742074686520736561726335
:1019E0006820666F756E64206E6F7468696E67003C
:1019F00053656E736F727320666F756E6400524F1D
:101A00004D20435243206572726F723A206E6F69A7
:101A10007379206275732C206C6F6E67206361622E
:101A20006C65206F72207765616B2070756C6C2D12
:101A30007570002020756E6B6E6F776E2066616D1D
:101A4000696C790020204453313853323020284EBD
:101A50004F5420737570706F7274656420627920C2
:101A6000746865206C6F6767657229002020445395
:101A7000313842323000202043524320424144005A
:101A80002020435243206F6B003A200020205365F2
:101A90006E736F7220006E6F2070726573656E6377
:101AA000652070756C73653A206E6F2073656E7378
:101AB0006F72206F6E2074686520627573006275A6
:101AC000732070756C6C656420757020286578745F
:101AD00065726E616C20342E376B20707265736591
:101AE0006E742900627573206C6F77207769746853
:101AF000206E6F2070756C6C2D75703A206E6F20A3
:101B0000342E376B2070756C6C2D7570206669747F
:101B10007465642C206F72206E6F7468696E672024
:101B2000636F6E6E6563746564004C4F570068693F
:101B300067680049646C6520627573206C65766522
:101B40006C00312D574952452042555320284453AB
:101B500031384232302900005EBCE2613FDD83C291
:101B60009C7E20A3FD1F41009D23BE46DB65F88CB3
:101B700011AF32CA57E9740A3E20003D3D3D3D3D5C
:101B80003D3D3D3D3D3D3D3D3D3D3D3D3D3D3D3D85
:101B90003D3D3D3D3D3D3D3D3D3D3D3D3D3D3D3D75
:101BA0003D3D3D3D3D3D3D3D3D3D3D3D3D00526565
:101BB00061642D6F6E6C793A20454550524F4D2C23
:101BC00020666C617368206C6F6720616E642052C0
:101BD00054432074696D6520617265206E6F7420B6
:101BE0006368616E6765642E0032323A32343A318E
:101BF000340020004F63742020372032303236000A
:101C00004275696C742000207465737473004754C6
:101C1000444701475430303100312E36004F637451
:101C2000202037203230323600424F4152440020CB
:101C3000202D2D2000312E3600476C6163696572BE
:101C400054656D7020444941474E4F5354494353A6
:101C500020003D3D3D3D3D3D3D3D3D3D3D3D3D3D0E
:101C60003D3D3D3D3D3D3D3D3D3D3D3D3D3D3D3DA4
:101C70003D3D3D3D3D3D3D3D3D3D3D3D3D3D3D3D94
:101C80003D3D3D3D006E6F206175746F6D617469FF
:101C90006320636865636B3A20746865204C454433
:101CA0007320617265206A756467656420627920BB
:101CB000657965002020477265656E20626C696EEB
:101CC0006B7320332074696D65732C207468656EA6
:101CD0002072656420332074696D65732E2057610E
:101CE0007463682074686520626F6172642E004CB2
:101CF00045445300736563746F7220657261736548
:101D0000643A206C65667420626C616E6B2C206195
:101D10007320666F756E6400206279746573206E3F
:101D20006F742065726173656400206D73202834C0
:101D300035207479702C20343030206D6178292C56
:101D40002000536563746F72206572617365007063
:101D5000616765207772697474656E20616E6420B6
:101D600072656164206261636B002062616420625D
:101D700079746573002075732C20005061676520AD
:101D800070726F6772616D00777269746520656E3D
:101D900061626C6520646964206E6F742073657481
:101DA0002057454C006C61737420736563746F72C7
:101DB00020626C616E6B2C207361666520746F20ED
:101DC00074657374006C61737420736563746F72EF
:101DD000206973204E4F5420626C616E6B3A207202
:101DE00065667573696E6720746F207772697465B4
:101DF00020286974206D617920686F6C64206C6F95
:101E00006720646174612900464C41534820575251
:101E10004954452F455241534520286C6173742025
:101E2000736563746F722900706F7765722D646FCC
:101E3000776E20616E64205254432077616B652D6C
:101E4000757020776F726B00206D73202854696D58
:101E50006572302073746F707320696E20706F77B5
:101E600065722D646F776E292E0020206D696C6C71
:101E70006973282920616476616E6365642000209F
:101E8000204177616B6520616761696E2028776FFB
:101E90006B656E206279207468652052544320611E
:101EA0006C61726D292E002061206865616C746818
:101EB00079207265763032207265616473207E36D7
:101EC0002075412074686572652E290020202849FC
:101ED0006E20736572696573207769746820746811
:101EE00065204141412063656C6C2C20746865203D
:101EF00072656164696E67206973207E322E327864
:101F00002074686520332E3356207261696C20631B
:101F1000757272656E743B0020732E205265616489
:101F2000207468652063757272656E74206E6F77B9
:101F30002E002020536C656570696E6720006E6FFF
:101F4000205254433A206E6F7468696E6720776F31
:101F5000756C642077616B652074686520626F61C1
:101F6000726400534C4545500054797065204845D3
:101F70004C502E00556E6B6E6F776E20636F6D6DDB
:101F8000616E6420286F72206E6F7420696E2074F9
:101F9000686973206275696C64292E200020204EC8
:101FA0006F742072756E20627920414C4C3A204645
:101FB0004C41534852572028777269746573292C15
:101FC00020534C4545502C204C4544532E205365FE
:101FD0006E736F722074657374733A20444941477D
:101FE0005F53454E534F52532E0020204C6F6F6B62
:101FF00020666F72205B4641494C5D2061626F76BE
:10200000653A2065616368206F6E6520736179733E
:1020100020776861742077617320657870656374D8
:1020200065642E0020732E002020546F6F6B2000FB
:102030002020204641494C20002020205741524E6C
:102040002000202050415353200053554D4D415204
:1020500059000A3E200000000000240027002A004A
:1020600000000000250028002B00000000002300D5
:1020700026002900040404040404040402020202E9
:102080000202030303030303020203010204081014
:1020900020408001020408102001020408102040A2
:1020A0008040000000090003020000040508000051
:1020B00000000000000000000000C82D11241FBE19
:1020C000CFEFD8E0DEBFCDBF11E0A0E0B1E0E8E3A4
:1020D000FDE602C005900D92AE3DB107D9F723E0B1
:1020E000AEEDB1E001C01D92A736B207E1F710E1F5
:1020F000CEE5D0E104C02197FE010E948636CD35A1
:10210000D107C9F70E94012E0C949A360C94000056
:102110008091050120E4829FC00111248660809394
:102120007C0080917A00806480937A0080917A00AC
:1021300086FDFCCF80917800909179000895CF932F
:10214000DF932AE832E0F901D901DD91DD2359F06E
:10215000D03249F5F901D0812F5F3F4FD032D1F312
:10216000DD3209F4F901208120532A3038F560E08E
:1021700070E0CB01C19120ED2C0F2A30B0F4AAE021
:10218000B0E09B01AC010E9467362C2FCC0F330BC3
:1021900020533109032E000C440B550B620F731FA3
:1021A000841F951FE7CF9D01CECFDD3239F4909586
:1021B0008095709561957F4F8F4F9F4FDF91CF91A5
:1021C0000895843081F028F48230E9F08330F9F00A
:1021D0000895883071F0893091F08530B9F480919C
:1021E00080008F7D03C0809180008F778093800076
:1021F00008958091B0008F778093B000089580910A
:10220000B0008F7DF9CF84B58F7784BD089584B5F4
:102210008F7DFBCFCF93DF93282F30E0F901EE5570
:10222000FF4D8491F901E557FF4DD491F901EC5828
:10223000FF4DC491CC23A1F081110E94E110EC2F3D
:10224000F0E0EE0FFF1FE659FF4DA591B491EC9120
:10225000ED2381E090E009F480E0DF91CF910895D3
:1022600080E090E0FACF1F93CF93DF93282F30E0E8
:10227000F901EE55FF4D8491F901E557FF4DD491D9
:10228000F901EC58FF4DC491CC23A9F0162F811110
:102290000E94E110EC2FF0E0EE0FFF1FE05AFF4D1F
:1022A000A591B4918FB7F894EC91111108C0D09515
:1022B000DE23DC938FBFDF91CF911F910895DE2B3A
:1022C000F8CFCF93DF9390E0FC01E557FF4D2491C9
:1022D0008C589F4DFC0184918823C9F090E0880FB1
:1022E000991FFC01EA5AFF4DA591B491FC01E05AF7
:1022F000FF4DC591D49161110DC09FB7F8948C9199
:10230000209582238C938881282328839FBFDF9187
:10231000CF910895623051F49FB7F8943C91822F89
:10232000809583238C93E8812E2BEFCF8FB7F89481
:10233000EC912E2B2C938FBFEACF000084309105B7
:1023400078F09C01220F331FC90107972031310516
:1023500028F0AEEEBBEE0E9451360D970197F1F7D3
:102360000895CF92DF92EF92FF926FB7F894809129
:10237000340290913502A0913602B091370250910B
:10238000330226B535B3432F417030FF04C041E01E
:102390002F3F09F440E06FBF6C017D0137E0CC0CAA
:1023A000DD1CEE1CFF1C3A95D1F7C50ED11CE11CBB
:1023B000F11CC81AD90AEA0AFB0A880F991FAA1F3A
:1023C000BB1FC81AD90AEA0AFB0A63E0CC0CDD1C61
:1023D000EE1CFF1C6A95D1F730E0AEEAB8E00E942F
:1023E0005136672F782F892F99276C0D7D1D8E1DF3
:1023F0009F1D442321F06255774F8F4F9F4FFF90D1
:10240000EF90DF90CF9008958F929F92AF92BF92FE
:10241000CF92DF92EF92FF924B015C010E94B111CB
:102420006B017C010E94B1116C197D098E099F0915
:10243000683E734081059105A8F321E0821A910856
:10244000A108B10888EEC80E83E0D81EE11CF11C7B
:1024500081149104A104B10429F7FF90EF90DF905B
:10246000CF90BF90AF909F908F9008952FB7F89422
:10247000609134027091350280913602909137025A
:102480002FBF08950895089508950895AF92BF92BB
:10249000CF92DF92EF92FF920F931F93CF93DF9330
:1024A0006C017B018B01040F151FEB015E01AE185F
:1024B000BF08C017D10759F06991D601ED91FC9181
:1024C0000190F081E02DC6010995892B79F7C501AE
:1024D000DF91CF911F910F91FF90EF90DF90CF9000
:1024E000BF90AF900895FC01538D448D252F30E0AF
:1024F000842F90E0821B930B541710F0CF96089511
:1025000001970895FC01918D828D981761F0A28D3D
:10251000AE0FBF2FB11D5D968C91928D9F5F9F7303
:10252000928F90E008958FEF9FEF0895FC01918DB9
:10253000828D981731F0828DE80FF11D858D90E026
:1025400008958FEF9FEF0895FC01918D228D892FC3
:1025500090E0805C9F4F821B91098F7399270895AB
:102560008AEB92E00E94A41221E0892B09F420E07A
:10257000822F089580E090E0892B29F00E94B0120C
:1025800081110C9400000895FC01A48DA80FB92FAF
:10259000B11DA35ABF4F2C91848D90E001968F738B
:1025A0009927848FA689B7892C93A089B1898C91AA
:1025B000837080648C93938D848D981306C00288F9
:1025C000F389E02D80818F7D80830895EF92FF92C3
:1025D0000F931F93CF93DF93EC0181E0888F9B8D46
:1025E0008C8D98131AC0E889F989808185FF15C000
:1025F0009FB7F894EE89FF896083E889F989808123
:102600008370806480839FBF81E090E0DF91CF91F1
:102610001F910F91FF90EF900895F62E0B8D10E013
:102620000F5F1F4F0F731127E02E8C8D8E110CC082
:102630000FB607FCFACFE889F989808185FFF5CFCD
:10264000CE010E94C412F1CFEB8DEC0FFD2FF11DD6
:10265000E35AFF4FF0829FB7F8940B8FEA89FB890A
:1026600080818062CFCF0F931F93CF93DF938C0134
:10267000D0E0C0E0F801EC0FFD1F6491662341F04B
:102680008AEB92E00E94E612892B11F02196F2CF9C
:10269000CE01DF91CF911F910F910895682F8AEBA2
:1026A00092E00C94E612CF93DF93EC01888D88239F
:1026B000B9F0AA89BB89E889F9898C9185FD03C0A5
:1026C000808186FD0DC00FB607FCF7CF8C9185FF8A
:1026D000F2CF808185FFEDCFCE010E94C412E9CFF9
:1026E000DF91CF9108954115510529F4EAE7F0E013
:1026F00080818F7780836A307105B9F0CB01880FB4
:10270000991F880F991F807267706860682B88E135
:102710000FB6F894A895809360000FBE6093600098
:10272000E0E6F0E0808180648083232BD9F483B7D6
:10273000817F846083BFF89483B7816083BF85B74E
:10274000806685BF8F7D85BF7894889583B78E7F9F
:1027500083BF7894452B29F4EAE7F0E08081806814
:102760008083089583B7817F846083BFF89483B7A3
:10277000816083BF7894889583B78E7F83BF789478
:10278000E9CFDC0180E0615090F09D919827E92F1E
:10279000EF70F0E0E95AF44E2491E92FE295EF70E2
:1027A000F0E0E959F44EE491822F8E27ECCF0895A2
:1027B0000F931F93CF93DF93FC011081C181D281CE
:1027C000F8948981812B89838A81012F0095802348
:1027D0008A8383E090E00E949D1189818023898310
:1027E0008AE090E00E949D11C881789485E390E092
:1027F0000E949D111C2381E009F480E0DF91CF91BC
:102800001F910F9108951F93CF93DF93FC011081C7
:10281000C181D281912F909560FF16C0F8948A8172
:1028200089238A838981812B89838AE090E00E94B1
:102830009D118A81182B1A83789487E390E0DF91A9
:10284000CF911F910C949D11F8948A8189238A83DA
:102850008981812B898381E490E00E949D118A8186
:10286000182B1A83789485E090E0E9CFEF92FF92DD
:102870000F931F93CF93DF93EC01E62E08E010E057
:10288000FF24F39461E08E2D8F2109F460E0CE01E6
:102890000E940314FF0C01501109A1F7F894E9817B
:1028A000FA8191818881809589238183E981FA81E8
:1028B000928188818095892382837894DF91CF915A
:1028C0001F910F91FF90EF900895FF920F931F9328
:1028D000CF93DF93FC011081C181D281F89489816B
:1028E000012F00958023898378948DE7F82EFA9440
:1028F000FF2061F182E090E00E949D118881812398
:10290000B1F3F8948A8180238A838981812B89831A
:10291000789480EE91E00E949D11F8948981802343
:10292000898386E490E00E949D1188811823C1E08C
:1029300009F0C0E078948AE991E00E949D118C2F03
:10294000DF91CF911F910F91FF900895C0E0F7CFD5
:102950002091FE01260F3327331F21323105ECF47D
:1029600020916002FC0190E080E0243069F082E078
:102970000895A091FE012191AC0142525E4FA40F37
:10298000B52FB11D2C930196861798F38091FE0107
:10299000680F6093FE0180E0089581E00895109231
:1029A000600281E080935F021092580261E082E150
:1029B0000E94331161E083E10E943311E9EBF0E002
:1029C00080818E7F808380818D7F80838CE1809366
:1029D000B80085E48093BC000895CF93DF9391E025
:1029E000909327028823B9F0C091B800D091BA0023
:1029F0008091BC008A7B8093BC0060E082E10E94F1
:102A0000331160E083E10E9433110E94CF14D09310
:102A1000BA00C093B800DF91CF910895CF92DF92B2
:102A2000EF92FF920F931F93CF93DF93D091890280
:102A300081E0D13208F097C0C09188020E94B111A4
:102A40006B017C0180916002811167C082E08093FC
:102A5000600281E080935F028FEF80935E0288E6E0
:102A600092E090935D0280935C0210925B02D0939F
:102A70005A021092590280915902CC0FC82BC09370
:102A8000590280915802813009F07CC0109258029E
:102A9000809159028093BB00809162029091630201
:102AA000A0916402B0916502892B8A2B8B2BA1F037
:102AB0000E94B111009162021091630220916402A0
:102AC000309165026C197D098E099F090617170759
:102AD0002807390708F442C08091BC0083FDD8CF95
:102AE00085EC8093BC000E94B1116B017C01809148
:102AF0006002823009F448C080915E028F3F09F481
:102B000065C080915E02803209F462C080915E02ED
:102B1000803309F45FC084E026C080916202909106
:102B20006302A0916402B0916502892B8A2B8B2BE2
:102B300009F488CF0E94B1110091620210916302E2
:102B400020916402309165026C197D098E099F09FC
:102B5000061717072807390708F074CF809161021C
:102B60000E94ED1485E01092670210928902109283
:102B70006602DF91CF911F910F91FF90EF90DF9050
:102B8000CF90089585EEADCF80916202909163025F
:102B9000A0916402B0916502892B8A2B8B2B09F4DA
:102BA000A6CF0E94B11100916202109163022091A0
:102BB0006402309165026C197D098E099F09061720
:102BC00017072807390708F092CFC8CF80E0CBCF8E
:102BD00082E0C9CF83E0C7CFCF92DF92EF92FF921E
:102BE0000F931F93CF93C82F813208F094C00E9497
:102BF000B1116B017C0180916002811167C081E09D
:102C00008093600280935F029FEF90935E0228E3BF
:102C100032E030935D0220935C0210925B029C0FC5
:102C200090935A028093590280915902806D80934B
:102C3000590280915802813009F06FC010925802F9
:102C40000E94B1116B017C01809159028093BB00FD
:102C50008091620290916302A0916402B09165023A
:102C6000892B8A2B8B2BA1F00E94B111009162025B
:102C70001091630220916402309165026C197D0904
:102C80008E099F09061717072807390708F43FC060
:102C90008091BC0083FDD8CF85EC8093BC000E945E
:102CA000B1116B017C01809160028130C1F1809192
:102CB0005B028C1710F4C0915B028C2FCF911F9197
:102CC0000F91FF90EF90DF90CF9008958091620276
:102CD00090916302A0916402B0916502892B8A2BC6
:102CE0008B2B09F488CF0E94B111009162021091E0
:102CF000630220916402309165026C197D098E098E
:102D00009F09061717072807390708F074CF809125
:102D100061020E94ED14C0E0D0CF85EEBECF80915D
:102D2000620290916302A0916402B0916502892BC6
:102D30008A2B8B2B09F4B7CF0E94B111009162024C
:102D40001091630220916402309165026C197D0933
:102D50008E099F09061717072807390708F0A3CF20
:102D6000D6CF0895E091260280912502E81730F42D
:102D7000F0E0E85CFD4F808190E008958FEF9FEFD9
:102D8000089590912602809125022FEF3FEF98172A
:102D900048F4E92FF0E0E85CFD4F208130E09F5FD0
:102DA00090932602C90108958091250290912602F0
:102DB000891B990B0895CF92DF92EF92FF920F93A8
:102DC0001F93CF93DF937C01CB018A012091660290
:102DD000222389F0EB016B01C40ED51ECC15DD0555
:102DE00069F06991D701ED91FC910190F081E02D9E
:102DF000C7010995F3CF642F0E94A814C801DF9181
:102E0000CF911F910F91FF90EF90DF90CF90089599
:102E1000CF93DF931F92CDB7DEB76983209166020F
:102E20002223F9F020918902203258F021E030E08D
:102E3000FC013383228390E080E00F90DF91CF91FB
:102E4000089580916702E82FF0E0E859FD4F9981DD
:102E500090838F5F809367028093890281E090E086
:102E6000ECCF61E0CE0101960E94A814F7CF0F933A
:102E70001F93CF93DF938C0181E08093660288E6F5
:102E800080938802109267021092890267E087E5BA
:102E900093E00E940817E8010C5F1F4F699187E5D6
:102EA00093E00E940817C017D107C1F7DF91CF91B7
:102EB0001F910F910C940E1581E08093660288E4B7
:102EC00080938802109267021092890261E087E580
:102ED00093E00E94081764E087E593E00E940817DA
:102EE00060E287E593E00E9408170E940E1591E0CA
:102EF000811190E0892F089590E080E00895CF93AC
:102F0000C62F91E09093660298E690938802109203
:102F1000670210928902682F87E593E00E940817E4
:102F20006C2F87E593E00E940817CF910C940E1543
:102F3000982F92959F708F702AE0929F800D112498
:102F4000089591E090936602809388021092670240
:102F5000109289020E940E1591E0811190E0892F54
:102F600008958EBD00000DB407FEFDCF8EB5089507
:102F7000DF92EF92FF920F931F93CF93DF93EB01BA
:102F8000D82E7A01890160E086E00E94331183E047
:102F90000E94B1178D2D0E94B1178D2F0E94B1177D
:102FA0008C2F0E94B117E7010E0D1F1D80E00E94BB
:102FB000B1178993C017D107C9F761E086E0DF91A7
:102FC000CF911F910F91FF90EF90DF900C943311F0
:102FD000CF9361E084E00E94331160E086E00E94BC
:102FE00033118BEA0E94B11780E00E94B11780E094
:102FF0000E94B11780E00E94B11780E00E94B117D3
:10300000C82F61E086E00E94331182E390E00E94C5
:103010009D118C2FCF910895CF93C82F60E086E04B
:103020000E9433118C2F0E94B11780E00E94B117CB
:10303000C82F61E086E00E9433118C2FCF91089554
:103040008F929F92AF92BF92CF92DF92EF92FF92B8
:103050004B015C010E9436126B017C010E9436120A
:103060006C197D098E099F09681579058A059B05EC
:1030700078F485E00E940C1880FDF0CF81E0FF908D
:10308000EF90DF90CF90BF90AF909F908F9008957A
:1030900080E0F5CFCF93C82F60E086E00E94331127
:1030A0008C2F0E94B11761E086E0CF910C94331110
:1030B000FC0101900020E9F73197AF01481B590B43
:1030C000BC018AEB92E00C94461282E491E00C94ED
:1030D0005818CF93DF930E943313EC010E946518B8
:1030E0008C0F9D1FDF91CF910895CF93DF93EB015C
:1030F0008130D1F038F0823029F189E595E00E94E5
:1031000033130DC087E795E00E94331380912B02A3
:1031100090912C02019690932C0280932B02CE0169
:10312000DF91CF910C9469188DE695E00E943313DE
:1031300080912D0290912E02019690932E02809301
:103140002D02EDCF83E695E00E94331380912F028C
:103150009091300201969093300280932F02DFCF3E
:10316000CF93DF93EC018CE495E00E943313CE0102
:103170000E94331380E495E0DF91CF910C9469189D
:103180008CE994E00E94691881E594E00E94691836
:103190008CE194E00E94691882EE93E00E94691825
:1031A0008AEA93E00E94691885E793E00E94691813
:1031B0008EE393E00E94691885E193E00E9469180C
:1031C00088EE92E00E94691889EA92E00E946918EC
:1031D00080E792E00E94691884E392E00E946918F7
:1031E00088EF91E00E94691887EB91E00E946918CE
:1031F00082E791E00E94691880E391E00E946918DB
:1032000088EE90E00E94691882EA90E00E946918B6
:1032100084E890E00E94691888E690E00C946918B0
:103220008F929F92AF92BF920F931F93CF93DF9392
:10323000CDB7DEB7A1970FB6F894DEBF0FBECDBFF6
:1032400019A2423008F44AE08E010F5D1F4F842E10
:10325000912CB12CA12CA50194010E941036E62FCF
:10326000B901CA01EA30F4F4E05DD801EE938D01B2
:10327000232B242B252B79F790E080E0109719F071
:10328000CD010E945818A1960FB6F894DEBF0FBE6C
:10329000CDBFDF91CF911F910F91BF90AF909F90C5
:1032A0008F900895E95CE1CF0C941019AB01682F61
:1032B00070E090E080E00C945419CF93DF936AE0C3
:1032C00070E00E945619EC010E9465188C0F9D1F3A
:1032D000DF91CF910895CF93C82F803118F480E308
:1032E0000E944E1360E170E08C2FCF910C94561920
:1032F000CF93DF9380E093E10E94B01860E082E119
:103300000E94611160E083E10E94611182E10E94EC
:103310000A11892B09F07BC060EB72E182E00E9408
:1033200075181092260210922502109267021092D0
:1033300089020E94CF1484E492E190932402809346
:10334000230285E492E190932202809321028AE78E
:1033500092E10E943313C8E0D0E08C2F0E94A117A5
:10336000882381F086E792E10E9433138C2F0E941C
:103370006B198C2F877F803429F0C83619F0C73538
:1033800009F0DF5FCF5FC83741F70E94651888E614
:103390000E94A117811145C082E063E672E10E949C
:1033A000751880E40E94A11781113DC082E064E499
:1033B00072E10E94751888E40E94A117811135C03E
:1033C00082E06BE172E10E94751888E40E94A11707
:1033D000811114C0C9E48C2F0E94A117882359F0D1
:1033E00081E092E10E9433138C2F0E946B198FEBC6
:1033F00091E10E946918CF5FCC3469F7DD23B9F001
:1034000067E871E183E0DF91CF910C94751883E157
:103410000E940A11892B09F47FCF67E872E180E0EE
:103420007ECF80E0BACF80E0C2CF80E0CACFDF910C
:10343000CF910895CF93DF93FC0101900020E9F72D
:103440003197E81BF90BEF01DD27AE01BC018AE8DB
:1034500092E00E948C36892B31F4C657DD4F98815B
:103460009F7D81E009F080E0DF91CF910895CF92B8
:10347000DF92EF92FF92CF93DF9397FF19C06B011A
:103480007C018DE20E944E13EC0166277727CB0169
:103490006C197D098E099F094AE00E9410198C0F52
:1034A0009D1FDF91CF91FF90EF90DF90CF90089517
:1034B0004AE0DF91CF91FF90EF90DF90CF900C9496
:1034C0001019BC01990F880B990B0C94371ACF93E4
:1034D000DF930E94611AEC010E9465188C0F9D1FFA
:1034E000DF91CF910895DF92EF92FF920F931F9398
:1034F000CF93DF9383EF9CE00E94B0188BEE9CE0AB
:103500000E94331384B10E946B1983EE9CE00E94E9
:10351000331385B10E946B198CED9CE00E9433132C
:1035200083B10E946B1984ED9CE00E94331387B134
:103530000E946B198CEC9CE00E94331388B10E94AE
:103540006B1985EC9CE00E94331386B10E946B19C5
:103550008DEB9CE00E9433138AB10E946B1985EBBE
:103560009CE00E9433138BB10E946B198EEA9CE0A1
:103570000E94331389B10E946B1985EA9CE00E9476
:10358000331380917E000E946B190E9465180EEE25
:10359000D0E0C0E01C2FFE01E557FF4DF490FE0186
:1035A000EC58FF4D849190E0880F991FFC01EA5A76
:1035B000FF4DA591B491DC90DF20FC01E05AFF4D56
:1035C000A591B491EC9081EA9CE00E9433136AE0EB
:1035D00070E08C2F0E945619CA3020F48FE99CE0CD
:1035E0000E94331385E99CE0D11006C0FE208BE8D1
:1035F0009CE011F481E89CE00E94331388E79CE092
:103600000E943313812F0E940A110E94611A83E5E0
:103610009CE01230C1F089E49CE01330A1F089E312
:103620009CE0143081F08CE29CE0153061F080E287
:103630009CE0163041F084E19CE0173021F01A3014
:1036400021F489E09CE00E9433130C3F70F184E088
:103650009CE00E943313CE010E970E94611A8CEFFA
:103660009BE00E9433130E94651821960F5F023081
:1036700009F090CF82E00E940A11892B29F461EBB6
:103680007BE081E00E94751882E10E940A11892B7B
:1036900089F467E87BE082E0DF91CF911F910F9181
:1036A000FF90EF90DF900C9475180230E0F685EFF4
:1036B0009BE0D7CF83E10E940A11892B51F3DF9160
:1036C000CF911F910F91FF90EF90DF900895DF92BF
:1036D000EF92FF920F931F93CF93DF938B019C0187
:1036E000043111052105310558F080EC94E0DF919B
:1036F000CF911F910F91FF90EF90DF900C9469187C
:10370000D42F7C01D72EC62F02501109210931096F
:10371000003111052105310520F088E095E00E9477
:10372000691861E08C2F0E9461116D2F8C2F0E940F
:10373000331181E095E00E9433136C2F7D2DC7017A
:103740000E94371A8BEF94E0D111D1CF86EF94E02D
:10375000CECFBC0190E080E04AE00C9410194F926B
:103760005F926F927F928F929F92AF92BF92CF9211
:10377000DF92EF92FF920F931F93CF936B017C0127
:10378000742EAC019B010E94DB35882399F085E4FF
:1037900091E0CF911F910F91FF90EF90DF90CF902C
:1037A000BF90AF909F908F907F906F905F904F9061
:1037B0000C94581846015701E894B7F82FEF3FEFE3
:1037C0004FE75FE7C501B4010E94DB3581110DC0F1
:1037D0002FEF3FEF4FE75FE7C501B4010E940A34C6
:1037E00018161CF489E491E0D4CF2FEF3FEF4FE798
:1037F0005FE4C701B6010E94693518161CF48DE418
:1038000091E0C7CF2FEF3FEF4FE75FECC701B60165
:103810000E940A3487FDF3CF20E030E0A901C70100
:10382000B6010E940A3410E000E087FF08C08DE274
:103830000E944E138C01F7FAF094F7F8F094C0E070
:1038400060E070E080E09FE37C1641F020E030E033
:1038500040E251E40E940F34CF5FF6CFA7019601FA
:103860000E949E332B013C010E9488344B015C0175
:103870004AE00E9410197C01E00EF11ECC2399F160
:10388000C501B4010E94B7349B01AC01C301B20170
:103890000E949D334B015C018EE20E944E13E80EA4
:1038A000F91EC15000F120E030E040E251E4C501D2
:1038B000B4010E946E352B013C010E9488344B01FB
:1038C000CB010E94A91BE80EF91EB40190E080E034
:1038D0000E94B7349B01AC01C301B2010E949D3329
:1038E0004B015C01DECFC701CF911F910F91FF907B
:1038F000EF90DF90CF90BF90AF909F908F907F9090
:103900006F905F904F900895EF92FF920F931F93E7
:10391000CF93DF93EC0185E89BE00E9433138D2F5A
:1039200082958F7090E00E94A91B83E89BE00E9423
:103930003313C0FF04C08DE79BE00E943313C1FF27
:1039400004C084E79BE00E943313C2FF04C080E7F9
:103950009BE00E943313C3FF04C088E69BE00E94F3
:103960003313C4FF0DC08EE59BE00E943313CE01DC
:10397000892F992786958770992701960E94A91B00
:1039800010E000E080E2E82EF12CC701002E02C01A
:10399000880F991F0A94E2F78C239D23892B49F005
:1039A0008BE59BE00E9433136AE070E0802F0E9459
:1039B00056190F5F1F4F0430110539F7DF91CF9172
:1039C0001F910F91FF90EF900895BF92CF92DF92D9
:1039D000EF92FF920F931F93CF93DF93EC01B62EDC
:1039E000C72E8D85811105C0CE010E9465148111FD
:1039F0000EC01B861D861C8680E0DF91CF911F9133
:103A00000F91FF90EF90DF90CF90BF90089560EFFF
:103A1000CE010E94361401E0E12CD12C11E0CE0140
:103A20000E94D813F82ECE010E94D81391E0F9120B
:103A300018C0813099F51134E0F2DB86D11002C054
:103A400081E08D878B818823A1F22396EB2DFC2DBD
:103A5000CF01089629912193E817F907D9F781E05A
:103A6000CCCFEE2DF0E0F8120FC08B851817A0F424
:103A7000DE01AE0FBF1F13968C91802379F4F12CD9
:103A8000193008F41C87D12EEC0FFD1F8381902F75
:103A90009095892383830AC08113F1CFFE01EE0D37
:103AA000F11D8381802B8383FF24F3946F2DCE013E
:103AB0000E9403141F5F000F11F4E39401E087E0FC
:103AC0008E1508F0ACCFB7CFEF92FF920F931F93F4
:103AD000CF93DF93062FE72E142F91E09093660289
:103AE00098E6909388021092670210928902682FDC
:103AF00087E593E00E9408170E940E15811117C0F8
:103B0000812F0E94EC151092260280932502181333
:103B10000EC0F02EC02FDE2D87E593E00E94C11667
:103B200089938C2F8F198117B8F381E001C080E051
:103B3000DF91CF911F910F91FF90EF90089591E049
:103B40009093660298E69093880210926702109212
:103B50008902682F87E593E00E9408170E940E15DE
:103B600081E00E94EC1510922602809325028823A2
:103B700029F087E593E00E94C11608958FEF08951C
:103B800085ED8093BC008091620290916302A091C8
:103B90006402B09165020796A11DB11D23E0B695A0
:103BA000A795979587952A95D1F72091BC0024FD7C
:103BB00003C0109260020895409162025091630226
:103BC0006091640270916502452B462B472B69F387
:103BD0000097A105B10541F023E12A95F1F700C056
:103BE0000197A109B109E1CF809161020C94ED1414
:103BF0000F931F93CF93DF9300D0CDB7DEB78C0127
:103C00000E9495338983C80101960E9495338A8367
:103C100089819A810F900F90DF91CF911F910F9121
:103C20000895CF92DF92EF92FF920F931F93CF935D
:103C3000DF93EB017B0124E0E20EF11C8B016C01B0
:103C4000C61AD70AC601800F911F0E949533F8014A
:103C500081938F01EE15FF05A9F7CE01DF91CF917A
:103C60001F910F91FF90EF90DF90CF900895CF9329
:103C7000DF93EC0181E895E00E943313CE010E94AE
:103C80003313CE010E948433EC0180E20E944E1374
:103C90002196CA31D10514F48EE2F8CF80E2DF918B
:103CA000CF910C944E135F926F927F928F929F925E
:103CB000AF92BF92CF92DF92EF92FF920F931F933A
:103CC000CF93DF93CDB7DEB76F970FB6F894DEBF13
:103CD0000FBECDBF82E49BE10E94B01860E083E09C
:103CE0000E94611160E083E00E94331162E070E0A5
:103CF00080E090E00E94041283E00E940A118C018F
:103D000083E39BE10E94371E012B09F480C08EE201
:103D10009BE10E9469186EEB7AE180E00E947518C1
:103D200060E083E00E946111EEE8F0E2E491E98353
:103D3000E7E7F0E2E491F0E0EE0FFF1FE659FF4DF8
:103D4000859194919B838A831C861E861D861B8683
:103D50001A86198618861F821E821D821C82CE0139
:103D600001960E946514882309F478C01C861E867B
:103D70001D861B861A86198618861F821E821D8242
:103D80001C82F12C8E01085E1F4F5E0180E2A80E9E
:103D9000B11CB801CE0101960E94E51C882309F4EC
:103DA0006BC0F3948CE89AE10E9433136AE070E0F0
:103DB0008F2D0E94561989E89AE10E9433136801F9
:103DC000F60181916F010E946B19CA14DB04C1F7DF
:103DD00067E0C8010E94C113D82EEF8C80E89AE1F9
:103DE000DE1411F086E79AE10E943313888D883241
:103DF000D9F58CE69AE10E9433130E946518DE140F
:103E000041F26EEF79E182E00E947518C2CF8AE23A
:103E10009BE10E94691864EE7AE183E00E947518C4
:103E200060E083E00E94611160E083E00E94331152
:103E30006F960FB6F894DEBF0FBECDBFDF91CF9166
:103E40001F910F91FF90EF90DF90CF90BF90AF90B8
:103E50009F908F907F906F905F90089566E97AE1D0
:103E600083E00E947518E4CF803119F484E49AE16C
:103E7000C2CF83E39AE1BFCF80EF99E10E94371E62
:103E80008F2D0E945D1964EC79E181E0FF2049F3F8
:103E9000CE0101960E9465146CECCE0101960E9441
:103EA000361464EBCE0101960E943614CE010196C1
:103EB0000E94D813811105C067E879E181E00E9472
:103EC0007518CE0101960E9465146CECCE01019626
:103ED0000E94361464E4CE0101960E94361460E21A
:103EE00073E080E090E00E9404121C861E861D860E
:103EF0001B861A86198618861F821E821D821C82C6
:103F0000B12C6E01F0E2CF0ED11CB801CE010196AA
:103F10000E94E51C882309F489C0B394CE01019660
:103F20000E94651465E5CE0101960E943614780161
:103F3000F70161917F01CE0101960E943614CE14E3
:103F4000DF04B1F76EEBCE0101960E9436147E01BC
:103F5000FFE0EF0EF11C5E2C6F2C38E0832E912CCD
:103F6000A12C77247394CE0101960E94D81381115D
:103F7000A728770C81E0881A9108A9F7F701A19288
:103F80007F01E017F10749F768E0852D962D0E9423
:103F9000C113E82EFF888DE799E10E9433136AE090
:103FA00070E08B2D0E9456198AE799E10E94331325
:103FB000EF1451F087E699E10E94691862E579E112
:103FC00082E00E947518A1CFEF84F888B7010F2C0A
:103FD000000C880B990B0E94B93420E030E040E8D7
:103FE0005DE30E946E3544E00E94AF1B81E499E1DD
:103FF0000E9433138B8990E025E0959587952A954B
:10400000E1F78370992709960E94611A8CE399E180
:104010000E943313F0E5EF16F5E0FF0621F488E087
:1040200099E10E9433130E9465186FCF64EF78E125
:1040300080E017CF4F925F926F927F928F929F9204
:10404000AF92BF92CF92DF92EF92FF920F931F93A6
:10405000CF93DF93CDB7DEB728970FB6F894DEBFC6
:104060000FBECDBF8DED98E10E94B01888E60E948A
:10407000A117182F66ED78E1882309F47CC08EE043
:104080000E949F1D082F44E0BE016F5F7F4F87E0B5
:104090000E94641D80E00E949F1D8F770E949817E8
:1040A00090E89E839F83988790E003966CE370E08E
:1040B0000E94FC356AE00E94F03540E1849F900147
:1040C0001124922B9D83CE0105960E9437178FE015
:1040D0000E949F1D682F6C7F8FE00E947F17602FCA
:1040E0006F7B65608EE00E947F1762E082E00E9435
:1040F000611182E00E940A114C010E9436122B01CC
:104100003C010E94361264197509860997096838BE
:1041100073418105910508F048C082E00E940A11B0
:10412000892B79F70E9436126B017C018FE00E9487
:104130009F1D682F6C7F8FE00E947F1762E070E008
:1041400080E090E00E94041282E00E940A115C016B
:10415000CE0101960E943717602F8EE00E947F17D4
:10416000892829F460EB78E181E00E94751811112B
:104170001EC06DE678E182E00E94751828960FB6A1
:10418000F894DEBF0FBECDBFDF91CF911F910F918D
:10419000FF90EF90DF90CF90BF90AF909F908F9067
:1041A0007F906F905F904F90089510E0BBCF8BE5AC
:1041B00098E10E94371EC701B60164197509860986
:1041C00097094AE050E00E94541982E498E10E9465
:1041D000691864E278E180E00E94751882E0AB28FB
:1041E00009F080E065E078E10E9475188BEC97E1BA
:1041F0000E946918C3CF4F925F926F927F928F9205
:104200009F92AF92BF92CF92DF92EF92FF92CF93A5
:10421000DF938AEB97E10E94B01888E60E94A1170D
:10422000F82E63EB77E1882309F456C08EE00E94F4
:104230009F1DE82E68E48EE00E947F1762E082E016
:104240000E9461110E9436124B015C0182E00E94C3
:104250000A11892B09F051C00E9436126819790998
:104260008A099B09653671058105910578F3F12C62
:104270000E94B1112B013C01FF20D1F0C1E0D0E13F
:104280002197B1F00E9436124B015C0182E00E943E
:104290000A11892B09F043C00E9436126819790966
:1042A0008A099B09633371058105910578F3F12C27
:1042B0000E94B1114B015C016E2D8EE00E947F17B0
:1042C0008FE00E949F1D682F6C7F8FE00E947F17F8
:1042D000F11037C062E777E182E0DF91CF91FF9084
:1042E000EF90DF90CF90BF90AF909F908F907F9096
:1042F0006F905F904F900C94751882E00E940A11A5
:10430000019709F0B5CF0E943612681979098A0918
:104310009B09653671058105910578F3A8CF82E088
:104320000E940A11019709F0ABCF0E94361268195A
:1043300079098A099B09633371058105910578F331
:10434000B6CF84189508A608B708C501B4010E9425
:10435000B73420E034E244E75AE40E940F3420E00E
:1043600030E040E85FE30E949D3320E034E244E720
:1043700059E40E946E356B017C0182E697E10E9450
:10438000371E4AE050E0C501B4010E9454198BE485
:1043900097E10E94691881E497E10E94371E20E0AE
:1043A00034E244E759E4C701B6010E940F3420E02B
:1043B00030E040E85FE30E949E3320E030E041EED1
:1043C0005AE40E946E3540E00E94AF1B8AE397E1F9
:1043D0000E94331340E0C701B6010E94AF1B84E383
:1043E00097E10E946918E894F7F820E030E04AEF7E
:1043F00053E4C701B6010E940A3487FF09C067EF82
:1044000076E180E00E94751861E676E180E065CF94
:1044100020E030E44CE956E4C701B6010E940A34BA
:1044200087FF04C061EC76E181E0ECCF69E776E1DB
:1044300082E0E8CF4F925F926F927F928F929F922D
:10444000AF92BF92CF92DF92EF92FF920F931F93A2
:10445000CF93DF93CDB7DEB72A970FB6F894DEBFC0
:104460000FBECDBF86E596E10E94B01847E0BE01C1
:104470006F5F7F4F80E00E94641D81111CC062E469
:1044800076E182E00E9475182A960FB6F894DEBF96
:104490000FBECDBFDF91CF911F910F91FF90EF9095
:1044A000DF90CF90BF90AF909F908F907F906F9054
:1044B0005F904F9008958F810E949817A82E882EA4
:1044C000912C84010053184F8E818F710E94981790
:1044D000D82E8D818F730E949817C82E8B818F7371
:1044E0000E949817E82E8A818F770E949817F82EDD
:1044F00089818F770E949817B82E81E396E10E94F8
:10450000371EC8010E94611A8FE296E10E943313A0
:1045100069E06D1520F08DE296E10E9433136AE0A8
:1045200070E08D2D0E9456198BE296E10E943313A4
:1045300089E08C1520F089E296E10E9433136AE04D
:1045400070E08C2D0E94561987E296E10E94331389
:1045500099E09E1520F085E296E10E9433136AE00F
:1045600070E08E2D0E94561983E296E10E9433136B
:1045700069E06F1520F081E296E10E9433136AE052
:1045800070E08F2D0E9456198FE196E10E9433133F
:1045900089E08B1520F08DE196E10E9433138B2D7D
:1045A0000E945D198B8186FF05C06DEE75E181E08B
:1045B0000E947518F4013396F695E795F695E79500
:1045C0002A2D30E0ADE6B1E00E945136AB01BC01CE
:1045D0004E0F5F1F611D711D8D2D8150990BFC01C8
:1045E000EE0FFF1FEA5FFE4F80819181092E000CC4
:1045F000AA0BBB0B840F951FA61FB71F8C0D911D17
:10460000A11DB11D9C01AD01215031094109510984
:1046100062E06D1530F403701127012B11F49C0139
:10462000AD0160E871E581E090E00E94E0352B018A
:104630003C012E2D30E0A0E1BEE00E945136460E36
:10464000571E681E791E2F2D30E0ACE3B0E00E94AB
:10465000513673016201C60ED71EE81EF91ECB0C3F
:10466000D11CE11CF11C41E5A42E41E0B42E11E067
:1046700000E043E050E0B50186E791E00E948C360F
:104680000F5F892B09F4102F83E0A80EB11C0C30AA
:1046900081F78AE791E00E946633082F8DE791E069
:1046A0000E946633FC01DC01A05DB7402DE631E0DD
:1046B0000E946036AF014D5C574057FF02C04D5F0E
:1046C0005F4F55954795559547954A01550FAA084F
:1046D000BB08860E971EA81EB91E812F8150990B0C
:1046E000DC01AA0FBB1FAA5FBE4F8D919C91092EC2
:1046F000000CAA0BBB0B880D991DAA1DBB1D800FBA
:10470000911DA11DB11D9C01AD012150310941092F
:104710005109133030F0E370FF27EF2B11F49C01A7
:10472000AD0160E871E581E090E00E94E0356058FD
:10473000714581409109C616D706E806F9060CF0C6
:10474000F1C06DEA75E182E00E9475186CE474E0D6
:1047500080E090E00E94041241E0BE01665F7F4F5E
:1047600080E00E94641D99818A859813DFC06DE402
:1047700075E182E00E9475188EE00E949F1D082F4F
:104780008FE00E949F1D182F80E395E10E94371E45
:104790008DE295E10E943313802F0E946B1907FF71
:1047A00004C083E195E10E943313902F9074F92E99
:1047B00006FF04C08CE095E10E943313602F647003
:1047C000E62E85E095E102FD02C08CEF94E10E94A7
:1047D000331300FF04C086EF94E10E94331301FFFE
:1047E00004C080EF94E10E9433130E94651885EEA7
:1047F00094E10E94371E82EE94E10E943313812FD0
:104800000E946B1917FF04C08DED94E10E943313D1
:10481000012F087013FF04C084ED94E10E9433134C
:1048200012FF04C08FEC94E10E94331310FF04C008
:104830008AEC94E10E94331311FF04C085EC94E1EB
:104840000E9433130E94651817FF05C060E774E1EA
:1048500081E00E947518002329F068E374E181E08B
:104860000E947518E11005C063EF73E181E00E94BA
:104870007518FF2029F06CEA73E183E00E94751837
:10488000137029F06EE573E183E00E94751880E1F2
:104890000E949F1D182F81E593E10E94371E812FF2
:1048A000110F990B0E94611A87E393E10E94691826
:1048B00042E0BE01685F7F4F81E10E94641D69850F
:1048C00070E086E0759567958A95E1F7072E000CF4
:1048D000880B990B0E94B93420E030E040E85EE399
:1048E0000E946E356B017C016885062E000C770BEB
:1048F000880B990B0E94B9349B01AC01C701B6012A
:104900000E949E336B017C0187E293E10E94371E77
:1049100042E0C701B6010E94AF1B88E093E10E940C
:104920006918B2CD62E875E180E00ECF6CE375E105
:1049300080E020CF4F925F926F927F928F929F92F2
:10494000AF92BF92CF92DF92EF92FF920F931F939D
:10495000CF93DF93CDB7DEB7CC54D1090FB6F8941F
:10496000DEBF0FBECDBF86E791E10E94B01861E0C7
:1049700084E00E94331162E070E080E090E00E94E9
:1049800004120E94E817082F60E086E00E943311AD
:104990008FE90E94B11780E00E94B117F82E80E0E5
:1049A0000E94B117E82E80E00E94B117182F61E035
:1049B00086E00E9433118DE691E10E94371E8F2D13
:1049C0000E946B198BE691E10E9433138E2D0E9499
:1049D0006B1989E691E10E943313812F0E946B19B4
:1049E00080EF810F8131D8F485E691E10E94331385
:1049F000812F8451990B9C0161E070E080E090E090
:104A000004C0660F771F881F991F2A95D2F74AE0C6
:104A100050E00E94541980E691E10E9433130E94F5
:104A200065188FEF8F0D8E3FE8F06EE171E182E047
:104A30000E947518C45BDF4F0FB6F894DEBF0FBE3F
:104A4000CDBFDF91CF911F910F91FF90EF90DF903D
:104A5000CF90BF90AF909F908F907F906F905F901E
:104A60004F9008959FEE81E0F91207C0E0E481E0E5
:104A7000EE1203C0173109F480E064E071E10E9496
:104A8000751884EF90E10E94371E81EF90E10E943B
:104A90003313802F0E946B190E94651860E086E036
:104AA0000E9433118BE40E94B11780E00E94B1177D
:104AB00080E00E94B11780E00E94B11780E00E9460
:104AC000B1177E01F1E4EF0EF11C470128E0820EE0
:104AD000911C6701570180E00E94B117F601819394
:104AE0006F01E815F905B9F761E086E00E9433111E
:104AF0008CED90E10E94371EF70181917F010E94A9
:104B00006B19CE14DF04C1F78DEC90E10E943313D2
:104B1000F50185810E946B19F50186810E946B1950
:104B2000F50187810E946B190E94651885E00E943B
:104B30000C18182F85E30E940C18F82E85E10E94AE
:104B40000C18E82E8AEB90E10E94371E812F0E94FC
:104B50006B1988EB90E10E9433138F2D0E946B1923
:104B600086EB90E10E9433138E2D0E946B190E94F8
:104B7000651810FF05C068E970E181E00E947518B2
:104B8000812F8C7129F06CE570E182E00E9475182C
:104B900017FF05C063E570E181E00E947518FF2DE5
:104BA000F170EF2EF0FE05C062E370E181E00E943B
:104BB000751862EF7FE0F1FC02C067EC7FE083E0F4
:104BC0000E9475181C7939F4E11005C060EB7FE094
:104BD00080E00E9475180E94B1114B015C01C12C4C
:104BE000D12C760120E430E0AE014F5F5F4FC7016A
:104BF000B6010E94B81720E4C20ED11CE11CF11CC2
:104C0000C11480E8D806E104F10461F70E94B111F3
:104C10006B017C01C818D908EA08FB0885EA9FE007
:104C20000E94371EC701B60128EE33E040E050E095
:104C30000E941036CA01B9014AE050E00E9454199E
:104C40008EE99FE00E94331360E070E084EF91E012
:104C5000A70196010E941036CA01B9014AE050E04E
:104C60000E94541987E99FE00E94691889EB0E940D
:104C70004A188AE090E00E949D1185E00E940C187D
:104C8000F82E0E94E817182F8FE79FE00E94371E2A
:104C90008CE79FE00E9433138F2D0E946B1984E6EE
:104CA0009FE00E94691882E0011301C080E06CE37C
:104CB0007FE00E94751883EB90E00E94F81D7C0154
:104CC00083E19FE00E9433139FEFE916F90661F438
:104CD0008AEE9EE00E94691889EB0E944A188BE1D7
:104CE0009FE00E946918A6CEC7010E94841C0E9402
:104CF0006518C70181709927C82EE1FE03C0CC2436
:104D0000C394C80EE2FCC394E3FCC394E4FE05C064
:104D10008F2D869587708F5FC80EE5FCC394E6FCE7
:104D2000C394E7FCC394F0FCC394EF2CFF24E294FB
:104D30008FE0E82284E0E2E0EE16F10409F486E078
:104D4000CC0CC80E10E000E0812C912C5401BE0167
:104D5000675B7F4FC8010E94111E2D968CAD9DADE3
:104D6000AEADBFAD2D978F3FFFEF9F07AF07BF07DA
:104D700021F0880E991EAA1EBB1E0C5F1F4F08371C
:104D8000110529F7BE01675B7F4F88E790E00E941D
:104D9000111E2D968CAD9DADAEADBFAD2D97881A71
:104DA000990AAA0ABB0A85ED9EE00E94371E4AE0D6
:104DB00050E0C501B4010E94541981ED9EE00E94AB
:104DC00033138C2D0E945D19D12CF12CE12CA501FF
:104DD0009401C701B6010E94E0352B013C0186EC2D
:104DE0009EE00E94371E4AE050E0C301B2010E94DB
:104DF00054198DEB9EE00E943313C301B2010E944F
:104E0000B73420E030E048EC52E40E946E3520E0F8
:104E100030E040E054E30E946E3542E00E94AF1B58
:104E200089EB9EE00E94691860E97EE082E021E063
:104E30004216510420E86206710408F049C089282E
:104E40008A288B2871F1C301B2016C197D098E0982
:104E50009F0924E030E0AE01475B5F4F0E94B81726
:104E60002D96CCACDDACEEACFFAC2D978FE79EE081
:104E70000E94371E4AE050E0C701B6010E94541953
:104E800081E79EE00E9433138FEFC816D806E8062C
:104E9000F80609F50E94651869E37EE082E00E9449
:104EA000751824E030E0AE01475B5F4FC301B201EB
:104EB0000E94B8172D968CAD9DADAEADBFAD2D97B0
:104EC0008F3F9F4FAF4FBF4F01F564EE7DE080E015
:104ED0000E94751801CF86E39EE00E943313C7013C
:104EE000B60120E831E541E050E00E941036CA01E9
:104EF000B9014AE050E00E9454198FE29EE00E94FE
:104F0000691860E17EE080E0CACF60E97DE081E081
:104F1000DFCFCF93DF9386E89DE00E94B018D4E105
:104F2000C0E087E00E940A11C80F65E070E080E0F1
:104F300090E00E940412D150A1F787E79DE00E9403
:104F4000371E6AE070E08C2F0E9456198AE69DE0B9
:104F50000E94691868EF7CE0C43131F066E47DE0BE
:104F6000CC2311F064E17DE083E0DF91CF910C94DC
:104F700075184F925F926F927F928F929F92AF922D
:104F8000BF92CF92DF92EF92FF920F931F93CF9336
:104F9000DF9300D000D0CDB7DEB782E39BE00E9464
:104FA000B018BE016F5F7F4F85EB90E00E94111E2D
:104FB000C980DA80EB80FC808DE19BE00E94371E87
:104FC0004AE050E0C701B6010E9454198AE19BE013
:104FD0000E94691821E0C21AD108E108F10880E8AE
:104FE000C81681E5D80681E0E806F10428F064EEF1
:104FF0007AE081E00E9475188EEF90E00E94F81D23
:105000008C018AED9AE00E94371EC8010E94671A3F
:10501000045F1F4F0B31110528F065EA7AE081E04B
:105020000E94751810E000E0B12CC12CD12C760143
:10503000BE016F5F7F4FC8010E94111E89819A8156
:10504000AB81BC818F3F2FEF9207A207B20709F413
:1050500091C0C80ED91EEA1EFB1E0C5F1F4F0837F9
:10506000110531F7BE016F5F7F4F88E790E00E9426
:10507000111E49805A806B807C8081E99AE00E94F1
:10508000371EC701B60164197509860997094AE0F8
:105090000E9410190E946518BB2029F065E57AE08E
:1050A00081E00E94751803E910E0712CC8010E948C
:1050B000F81D4C01C80102960E94F81D7C01C80130
:1050C00004960E94F81D5C01C80106960E94F81D16
:1050D0006C0181E59AE00E9433136AE070E0872D4D
:1050E0000E94561987E39AE00E943313EC14FD04E2
:1050F00029F08FEFE816F80609F03FC08FE29AE03A
:105100000E9469187394085F1F4F24E07212CECF7B
:1051100083EB90E00E94F81DF82EE92E082F192F3E
:1051200086E19AE00E94371E83E19AE00E943313E1
:105130008E2D0E946B198F2D0E946B190F3F100747
:10514000A9F580E09AE00E9469180F900F900F90E7
:105150000F90DF91CF911F910F91FF90EF90DF9013
:10516000CF90BF90AF909F908F907F906F905F9007
:105170004F900895BB24B39470CFC4010E94611A6C
:105180008BE29AE00E943313C7010E94611A88E201
:105190009AE00E943313C5010E94611A84E29AE0EA
:1051A0000E943313C6010E94671AACCF8DEF99E0BD
:1051B0000E943313C8010E94841C0E946518C5CF49
:1051C0004F925F926F927F928F929F92AF92BF9217
:1051D000CF92DF92EF92FF920F931F93CF93DF93C3
:1051E00087EF99E00E94B0188EE480937C008FEFE7
:1051F0008093040165E070E080E090E00E9404127A
:10520000C12CD12C760180E090917A00906490932B
:105210007A0090917A0096FDFCCF882341F020918E
:10522000780030917900C20ED31EE11CF11C8F5F13
:10523000813151F794E0F594E794D794C7949A9507
:10524000D1F7C114D104E104F10451F064EB7BE225
:1052500081E190E0A70196010E94323669017A014E
:1052600083EE99E00E94371EC701B6010E94371AEB
:1052700085ED99E00E94691885E5C81A8BE0D80A87
:10528000E108F1088FE1C81683E0D806E104F104D3
:1052900008F032C16AEB79E080E00E9475188091D5
:1052A0000401833069F0C3E0C09305010E948810B7
:1052B00065E070E080E090E00E940412C093040179
:1052C0000E948810C5E1C12CD12C76010E94881063
:1052D000092E000CAA0BBB0BC80ED91EEA1EFB1E22
:1052E000C150A1F7C701B6010E94B93420E030E0F7
:1052F00048EA51E40E940F344B015C0189E799E0D0
:105300000E94371E41E0C501B4010E94AF1B0E94FC
:1053100065188BE890E00E94F81DEC018DE890E0A4
:105320000E94F81D8C018FE890E00E94F81D6C012E
:1053300081E990E00E94F81D7C0187E699E00E94D7
:10534000371ECE010E94611A83E699E00E94331352
:10535000C8010E94611A80E699E00E943313C601D9
:105360000E94611A8CE599E00E943313C7010E94E4
:10537000671A0E151F0509F4C3C00F3F100709F483
:10538000BFC08FEFE816F80609F4BAC0B6016C1B6F
:105390007D0B072E000C880B990B0E94B9342B0152
:1053A0003C01B801012E000C880B990B0E94B93406
:1053B0009B01AC01C501B4010E949D339B01AC016E
:1053C000C301B2010E946E352B013C01B701601B85
:1053D000710B072E000C880B990B0E94B9349B01AE
:1053E000AC01C301B2010E940F346B017C01BE010C
:1053F000DD0F880B990B0E94B9349B01AC01C701EA
:10540000B6010E949E330E9481346B017C0120E032
:1054100030E849E854E4C501B4010E946E3520E04B
:1054200030E040EC50E40E946E3520E030EC4FE775
:1054300054E40E940F340E9481342B013C0185E426
:1054400099E00E94371EC301B2010E94371A81E41D
:1054500099E00E94691861E079E0F7FC5FC08CEE8A
:1054600098E00E94371EC701B6010E94371A88EEE5
:1054700098E00E9469184601570184189508A6080B
:10548000B708B7FE08C0B094A09490948094811C93
:10549000911CA11CB11CC301B20125E030E040E029
:1054A00050E00E94323669EA78E081E0281539053B
:1054B0004A055B051CF069E778E080E00E947518FA
:1054C00084E8C81683E0D806E104F104F4F46CE53E
:1054D00078E082E0DF91CF911F910F91FF90EF90E4
:1054E000DF90CF90BF90AF909F908F907F906F9004
:1054F0005F904F900C9475186CE879E082E0CDCE07
:10550000CC24CA94DC2C760182CF8EE7C81684E0C6
:10551000D806E104F10424F469E478E081E0DACF0C
:1055200067E378E080E0D6CFFF920F931F93CF938D
:10553000DF9300D0CDB7DEB783E398E00E94B018C8
:1055400011E2F0E0E0E010935700F490E2E0F0E0C8
:10555000109357000491E4E0F0E010935700149189
:1055600089E298E00E94371E8F2D0E946B1987E216
:1055700098E00E943313802F0E946B1985E298E017
:105580000E943313812F0E946B190E9465188EE1CF
:10559000F8120CC0053951F46FE078E080E01F305C
:1055A00041F06AED77E081E0143119F065EA77E0C7
:1055B00082E00E94751819E0F0E0E0E010935700D7
:1055C000F490E3E0F0E0109357000491E2E0F0E0A3
:1055D00010935700149182E997E00E94371E8F2D97
:1055E0000E946B1980E997E00E943313802F0E947C
:1055F0006B198EE897E00E943313812F0E946B197C
:105600000E9465188EE797E00E94371E17701630CB
:1056100009F478C0173009F47DC0153009F081C055
:1056200088E797E00E94691865E577E080E00E94CE
:10563000751886E896E00E94371E60E070E880E703
:1056400090E00E94371A82E896E00E94691861E6AD
:1056500076E080E00E9475188DE496E00E94371E87
:10566000809129020E946B191091290213FF04C036
:1056700083E496E00E94331312FF04C088E396E0AF
:105680000E94331311FF04C08EE296E00E94331390
:1056900084E296E010FD04C0111104C087E096E09A
:1056A0000E9433130E9465188091290282FF05C071
:1056B00064EC75E081E00E947518209163033091DD
:1056C00064032115310511F427E633E08E010F5FE5
:1056D0001F4F021B130B87EB95E00E94371EC8017A
:1056E0000E94611A80EB95E00E94691884E895E0B9
:1056F0000E9469180F900F90DF91CF911F910F9129
:10570000FF9008958FE497E00E94691862E177E0C6
:1057100081E08DCF89E097E00E94691861ED76E025
:10572000F7CF8BEC96E00E94691867E976E082E09B
:105730007ECF1F920F920FB60F9211244F935F935B
:105740006F937F938F939F934091340250913502D2
:10575000609136027091370280913302909132024B
:10576000983019F51092320290913202973008F178
:10577000855E8D3700F18D574D5F5F4F6F4F7F4FC7
:105780008093330240933402509335026093360283
:10579000709337029F918F917F916F915F914F919D
:1057A0000F900FBE0F901F9018959F5F909332023D
:1057B000DBCF845EDECF4E5F5F4F6F4F7F4FE0CF1A
:1057C0001F920F920FB60F9211242F933F934F9376
:1057D0005F936F937F938F939F93AF93BF93EF9359
:1057E000FF93E0910201F09103010995FF91EF9180
:1057F000BF91AF919F918F917F916F915F914F91E9
:105800003F912F910F900FBE0F901F9018951F92F0
:105810000F920FB60F9211242F933F934F935F93E4
:105820006F937F938F939F93AF93BF93EF93FF9368
:10583000E0910001F09101010995FF91EF91BF9175
:10584000AF919F918F917F916F915F914F913F9118
:105850002F910F900FBE0F901F9018951F920F92CF
:105860000FB60F9211242F933F934F935F936F9333
:105870007F938F939F93AF93BF93EF93FF938AEBA5
:1058800092E00E94C412FF91EF91BF91AF919F915E
:105890008F917F916F915F914F913F912F910F90D9
:1058A0000FBE0F901F9018951F920F920FB60F9278
:1058B00011242F938F939F93EF93FF93E091CA024C
:1058C000F091CB028081E091D002F091D10282FD73
:1058D0001BC090818091D3028F5F8F732091D4027F
:1058E000821741F0E091D302F0E0E654FD4F958F2E
:1058F0008093D302FF91EF919F918F912F910F9001
:105900000FBE0F901F9018958081F4CF1F920F92B9
:105910000FB60F9211248F930FB6F894A89580912B
:105920006000886180936000109260000FBE8F91CC
:105930000F900FBE0F901F9018951F920F920FB6E9
:105940000F9211242F933F934F935F936F937F9305
:105950008F939F93AF93BF93EF93FF938091B90081
:10596000887F803609F44AC0F0F5883209F4A7C070
:1059700018F5803109F49BC0B8F4882309F405C1F7
:10598000883009F494C0FF91EF91BF91AF919F913E
:105990008F917F916F915F914F913F912F910F90D8
:1059A0000FBE0F901F901895883109F488C080327F
:1059B00051F780935E0214C0803409F4A5C040F40E
:1059C0008033B9F38833F9F680935E0285ECBCC06E
:1059D000803509F489C0883509F49EC0883499F669
:1059E0000E94C01DD0CF883909F494C038F588379B
:1059F00029F050F4883611F0803729F683E080933F
:105A000060021092200257C0883809F483C08039A0
:105A100019F0803809F0B7CF80912002803208F069
:105A200079C0E091200281E08E0F80932002809166
:105A3000BB00F0E0E050FE4F80833DC0803B39F07A
:105A4000E0F4803A09F485C0883A09F09CCF84E0FC
:105A5000809360021092FF011092FE01E0912302F8
:105A6000F091240209958091FE0181110FC081E01F
:105A70008093FE011092DE0109C0803C09F4A6CF9C
:105A8000883C09F4A3CF883B09F07DCFE091FF016A
:105A900081E08E0F8093FF01F0E0E252FE4F8081A3
:105AA0008093BB009091FF018091FE0131C08091F5
:105AB00059028093BB0085EC8093BC0064CF909129
:105AC0005B0280915A029817B8F580915C02909120
:105AD0005D02E0915B0221E02E0F20935B02E80F54
