:100000000C9407100C942F100C942F100C942F109C
:100010000C942F100C942F100C94B32B0C942F10C5
:100020000C942F100C942F100C942F100C942F1054
:100030000C942F100C942F100C942F100C942F1044
:100040000C94142B0C942F100C94812B0C945B2B80
:100050000C942F100C942F100C942F100C942F1024
:100060000C94CA2B0C942F102048454C5020202073
:100070002020202020202020202074686973206CFC
:100080006973740020444941475F4D4F4445204403
:100090004941475F424F4152442E0020426F6172F6
:1000A000642074657374732028454550524F4D2C5D
:1000B000205254432C20464C4153482C2044532C6E
:1000C00020534C4545502C2050494E532C20584F1E
:1000D0004E2F584F46462C204C4544532C2042541A
:1000E000293A206275696C6420776974680020542D
:1000F000494D494E4720202020202020202020202C
:10010000686F77206C6F6E67206561636820726529
:100110006164696E672074616B6573207468652023
:100120006C6F676765720020505752205B735D20CB
:100130005B70705D205B745D20706F776572206FFF
:100140006E2C20726561642041732065766572793A
:10015000207365636F6E6420666F72207420732055
:1001600028363029002053544550205B735D205BB6
:1001700070705D2020202073656E736F72206F7524
:10018000747075742076732074696D65206166746F
:10019000657220706F7765722D6F6E0020202020B1
:1001A00020202020202020202020202020207070AF
:1001B00020286469676974732C20313233203D2014
:1001C00041312B41322B4133292C2072207472692A
:1001D000616C732E2044656661756C74203020312B
:1001E000323320330020534554544C45205B735D1B
:1001F000205B70705D205B725D20736574746C654C
:100200002D74696D652073776565703A2073656E2E
:10021000736F72206F6E2041732C20706F77657240
:1002200065642066726F6D2070696E730020414EA8
:10023000414C4F47202020202020202020202041FA
:10024000302E2E41333A20636F756E74732C206DFF
:10025000562C206E6F6973652C206F70656E206F51
:10026000722064726976656E0020544D5041564785
:10027000205B6E5D20202020202020544D50313105
:1002800039206E6F697365207673206176657261BF
:1002900067696E6720302F382F33322F36342C2089
:1002A0006E20726F756E64732028333029002054DD
:1002B0004D50205B6E5D202020202020202020201B
:1002C000544D50313139204944732C20636F6E6690
:1002D00069672C206F666673657420616E64206E9A
:1002E0002072656164696E67730020484443484525
:1002F0004154202020202020202020204844433129
:10030000303830206865617465723A20646F6573B7
:10031000207468652073656E736F722072657370E8
:100320006F6E643F0020484443205B6E5D202020B8
:1003300020202020202020484443313038302049DC
:1003400044732C20636F6E66696720616E64206E53
:100350002072656164696E67732077697468206EC6
:100360006F6973650020493243202020202020201F
:1003700020202020202020627573207363616E3A54
:100380002077686F20616E73776572732C207768B1
:100390006F206973206D697373696E670020504F19
:1003A00057455220202020202020202020202033AC
:1003B0002E3356207261696C202862616E64676119
:1003C000702920616E642062617474657279207294
:1003D000656164696E6700204D4355202020202010
:1003E000202020202020202020636869702073694D
:1003F000676E61747572652C2066757365732C2049
:1004000072657365742063617573650020414C4C9F
:100410002020202020202020202020202020657641
:10042000657279206E6F6E2D646573747275637476
:10043000697665207465737420696E2074686973C9
:10044000206275696C642C207468656E206120736D
:10045000756D6D617279000A436F6D6D616E6473C5
:100460002028616E7920636173653B205B785D2095
:100470006F7074696F6E616C293A00202D2D2D2DDF
:100480002D2D2D2D2D2D000A2D2D2D2D2D2D2D2DEC
:100490002D2D200020205B696E666F5D20002020DE
:1004A0005B4641494C5D200020205B5741524E5D28
:1004B000200020205B504153535D2000202000206D
:1004C000204120312E31205620636F756E74206FCD
:1004D000662031303233206A757374206D65616E29
:1004E00073207468652070696E2069732061626F83
:1004F000766520312E3120562E0020202763616C36
:1005000027207573657320746865206C6F67676555
:10051000722773204130312F41303220706F696E65
:1005200074733B20276E6F6D2720617373756D6543
:1005300073206120332E3320562066756C6C207337
:1005400063616C652E002020202020686967682088
:10055000696D706564616E636500202020202064F1
:10056000726976656E202873656E736F723F29001D
:1005700020202020206F70656E202F206E6F742049
:1005800064726976656E00202020202020002020E3
:1005900000206D56206E6F6D00206D562063616CDB
:1005A00000202000202000202020002020410020CA
:1005B0002070696E2020636F756E7428564343293E
:1005C00020736420202020206D5620202020202011
:1005D00020202020636F756E7428312E315629201B
:1005E00020776974682070756C6C2D75702020768A
:1005F0006572646963740020206472697665732093
:10060000626172656C79206D6F7665732E002020B3
:10061000612070696E206E6F7468696E6720647205
:1006200069766573206A756D707320746F207468C5
:1006300065207261696C2077697468207468652030
:1006400070756C6C2D75703B20612070696E206137
:100650002073656E736F720020204561636820709F
:10066000696E206173206120706C61696E20696E13
:100670007075742C207468656E20776974682074B6
:10068000686520696E7465726E616C2070756C6C43
:100690002D757020666F722061206D6F6D656E74B0
:1006A0003A004845414445522041302E2E41330006
:1006B0006E6F20706F7765722070696E7320676946
:1006C00076656E007468652073656E736F72207056
:1006D000696E2063616E6E6F7420616C736F20624F
:1006E00065206120706F7765722070696E00736598
:1006F0006E736F722070696E206D75737420626501
:1007000020302E2E330041002B002020736F206FED
:100710006E6C79207468652070617274206F662039
:1007200074686520736574746C652074696D6520E8
:100730006265796F6E642074686F7365207265619D
:1007400064696E677320636F737473206177616B84
:10075000652074696D652E002020546865206C6FDB
:100760006767657220706F776572732074686520A3
:1007700073656E736F72206265666F726520726555
:100780006164696E6720746865204932432073652F
:100790006E736F727320287365652054494D494EFE
:1007A00047292C00736574746C652074696D65202D
:1007B000666F756E6400736574746C652074696D22
:1007C00065204E4F5420636F6E6669726D65643AA2
:1007D00020746865206C6576656C2073697473207D
:1007E00061742061207261696C00202874776963EC
:1007F0006520746861742C20666F72206D61726769
:10080000696E20616E6420636F6C64292E00202065
:100810005375676765737465642041785F53455409
:10082000544C455F4D533A2000206D732E0020201C
:1008300053686F727465737420736574746C65208B
:1008400077697468696E20746F6C6572616E636538
:100850003A20006E6F742077697468696E20746F37
:100860006C6572616E6365206576656E20617420CB
:100870003220733A207374696C6C20736574746CE5
:10088000696E67206174203220732C206F72206E95
:100890006F6973696572207468616E207468652081
:1008A000746F6C6572616E63650020202020206E7D
:1008B0006F00202020202079657300202000202058
:1008C00000202020202000202020002020000A20BE
:1008D00020202074206D73202020636F756E74209B
:1008E00061742074202020636F756E742061742001
:1008F00033207320202064657620636F756E74202A
:100900002020776F727374206465762020207769C9
:100910007468696E00646F6E65002E2E000A2020D8
:100920004D6561737572696E672074206D733A202E
:10093000002020507574207468652073656E736F95
:100940007220776865726520697473206F757470A2
:100950007574206973206D69642D72616E676520FE
:1009600028652E672E20756E646572207761746528
:10097000722920616E64207265706561742E006C4E
:100980006576656C2061742061207261696C202835
:10099000302056206F7220564343293A20736574E5
:1009A000746C656420616E642064656164206C6FA2
:1009B0006F6B207468652073616D650020636F75CF
:1009C0006E7473202833207364206F662061206466
:1009D0006966666572656E63652C206174206C655E
:1009E00061737420312900546F6C6572616E6365A8
:1009F00000206D5620286E6F6D696E616C29002095
:100A00006D56202863616C290020203D2000206362
:100A10006F756E74732C20736420004C6576656C62
:100A2000206174203320730020252E002020526185
:100A300074696F6D65747269632073656E736F722C
:100A40003A20746865207374656164792064726FFC
:100A5000702069732061206761696E206572726F12
:100A600072206F662000206D5629002025206F66B9
:100A700020564343202864726F70207E0020636FED
:100A8000756E7473203D2000537570706C792C2046
:100A90007374656164792028332073290020252030
:100AA0006F66205643430020636F756E7473203D5C
:100AB0002000537570706C792C20617420353020C3
:100AC0006D7300206D696E2E20446F206E6F742050
:100AD000746F756368207468652073656E736F72D8
:100AE000206F722069747320776972696E67206D58
:100AF00065616E7768696C652E00202054616B65B6
:100B0000732061626F7574200020732E0020747250
:100B100069616C73207065722074696D653B206536
:100B2000616368206F6E6520636F6D7061726564CC
:100B3000207769746820697473206F776E207265FE
:100B40006164696E6720617420002E20002C207083
:100B50006F77657265642066726F6D200020205388
:100B6000656E736F722072656164206F6E20410044
:100B7000534554544C452054494D45205357454501
:100B800050002020284D4355206372797374616CA6
:100B900020616761696E73742074686520525443E4
:100BA0003A207365652052544353515729002062FF
:100BB0007974657300467265652052414D206E6FF1
:100BC00077006C617374207265736574207761734C
:100BD00020612062726F776E2D6F75743A206368A2
:100BE00065636B207468652063656C6C20616E645E
:100BF0002074686520626F6F737420636F6E766512
:100C000072746572002028636C656172656420628D
:100C1000792074686520626F6F746C6F61646572AF
:100C2000290020706F7765722D6F6E0020657874D3
:100C300065726E616C002062726F776E2D6F7574D5
:100C400000207761746368646F6700526573657430
:100C500020636175736520284D4355535229006206
:100C600075696C7420666F722074686520372E3346
:100C7000373238204D487A206372797374616C0082
:100C800020487A00465F43505520286173206275E2
:100C9000696C742900424F4420342E3356206F6E05
:100CA000206120332E335620626F6172643A2074C3
:100CB000686520636869702069732068656C6420CA
:100CC000696E20726573657400342E3320560042BD
:100CD0004F44206F66663A20612073616767696ED2
:100CE000672063656C6C2063616E20636F72727540
:100CF00070742074686520666C617368206F722060
:100D0000454550524F4D0064697361626C656400E3
:100D1000424F4420312E38563A2074686520666C64
:100D2000617368206D6179206265207772697474DF
:100D3000656E2062656C6F7720697473206D696ED3
:100D4000696D756D20766F6C7461676500312E3842
:100D5000205600424F4420322E37562061732074B3
:100D6000686520626F6172642073657474696E6770
:100D7000732061736B00322E3720560042726F77FA
:100D80006E2D6F7574206C6576656C0020002000F8
:100D90004675736573206C6F772F686967682F6578
:100DA0007874006E6F7420616E2041546D656761C8
:100DB000333238503A2077726F6E672063686970FB
:100DC000206F722077726F6E6720626F617264208D
:100DD00073657474696E670041546D656761333281
:100DE0003820286E6F6E2D50293A2072756E732C44
:100DF0002062757420736C6565702063757272650E
:100E00006E74206973206869676865720041546D6B
:100E1000656761333238502C2061732066697474C1
:100E2000656400200020005369676E617475726507
:100E3000004D43550063656C6C20766F6C74616780
:100E4000652066696E650063656C6C206C6F772049
:100E5000283C312E31352056290063656C6C2062A8
:100E6000656C6F7720302E3920563A207265706C91
:100E700061636520697400626174746572792063CE
:100E8000616C6962726174696F6E20636F6E736901
:100E90007374656E74207769746820746865206463
:100EA0006976696465720063616C69627261746914
:100EB0006F6E20616E64206E6F6D696E616C206470
:100EC000697669646572206469736167726565201B
:100ED0006279203E323020253A20636865636B20BA
:100EE00056312F563200206D56004261747465727F
:100EF00079202863616C696272617465642900629B
:100F00006174746572792063616C6962726174697D
:100F10006F6E206E6F7420736574202856312F56C3
:100F200032293A20746865206C6F67676572206C9F
:100F30006F67732072617720636F756E7473002022
:100F40006D56004261747465727920286E6F6D6908
:100F50006E616C206469762E29006D564000202059
:100F6000006D56400043616C6962726174696F6E16
:100F70002056312F563200426174746572792C20EC
:100F800072617720636F756E74007261696C2066A0
:100F900061722066726F6D20332E33563A2063687B
:100FA00065636B2074686520626F6F737420636F74
:100FB0006E766572746572007261696C207072651C
:100FC00073656E7420616E64206E65617220332ECD
:100FD000335600206D562020282B2D313020252916
:100FE00000332E3356207261696C202862616E6472
:100FF0006761702900504F5745520020206177618A
:101000006B652074696D653A20746865206C6F6744
:1010100067657220706F77657273206974206F6ED8
:10102000206265666F7265207468657365207265FD
:101030006164696E67732E002020412073776974A4
:10104000636865642073656E736F72206E65656496
:10105000696E67206C657373207468616E207468B4
:1010600065206C6173742066696775726520636FB3
:10107000737473206E6F20657874726100206D73D5
:10108000004265666F72652074686520616E616CF0
:101090006F672070696E7300206D7300416E616C24
:1010A0006F672070696E2028726566207377697497
:1010B00063682900206D7300426174746572792041
:1010C0002872656620737769746368290020202878
:1010D0006E6F20616E737765722900206D73005406
:1010E0004D5031313920726561642C203820617691
:1010F00067002020286E6F20616E7377657229006B
:10110000206D73004844433130383020726561648B
:101110000054494D494E472028706572206C6F6716
:10112000676572206D6561737572656D656E742992
:10113000006F746865722064657669636573206109
:101140006E737765722028657870656374656420B6
:101150006F6E6C792077697468206164642D6F6E9E
:1011600020626F6172647329003A206120544D50EF
:1011700031313920776974682041444430206E6FE2
:1011800074207469656420746F20474E442028736E
:101190006F6C64657220627269646765206F72208B
:1011A0006F70656E2070696E292E002020536F6D60
:1011B000657468696E6720616E737765727320610C
:1011C0007420307800544D503131392074656D7081
:1011D00065726174757265206174203078343820CE
:1011E000284144443020746F20474E44290048442D
:1011F00043313038302074656D706572617475727A
:10120000652F5248206174203078343000445333C5
:101210003233312052544320617420307836380004
:10122000203078002020416E73776572696E673ACE
:101230000053444120616E642053434C2069646C28
:10124000652068696768202870756C6C2D757073EF
:101250002070726573656E742900534441206F726B
:101260002053434C206973206C6F77207769746832
:1012700020746865206275732069646C653A20612A
:101280002064657669636520686F6C647320697497
:101290002C206F7220612070756C6C2D7570206928
:1012A00073206D697373696E67004932432042553C
:1012B00053004844433130383020726561647320F4
:1012C000636F6E73697374656E746C790052482035
:1012D00070696E6E656420617420616E20656E6455
:1012E0003A2073656E736F722073617475726174E6
:1012F0006564206F72207765740074656D70657227
:101300006174757265206F7574206F6620746865EE
:101310002065787065637465642072616E6765002E
:10132000736F6D65207265616473206661696C65B9
:10133000643A20636865636B2074686520493243B2
:1013400020776972696E670048756D6964697479A0
:10135000202552480054656D706572617475726520
:10136000204300206661696C6564002C20002072B7
:10137000656164696E67732C20323530206D73208F
:101380006170617274002020007468652073656E5E
:10139000736F72207265706F72747320697473203A
:1013A000737570706C792062656C6F7720322E389F
:1013B000205600686561746572206C656674206FE4
:1013C0006E3A2072656164696E67732072756E2073
:1013D0007761726D20616E64206974206472617738
:1013E000732063757272656E74006E6F7420696E1F
:1013F0002073657175656E7469616C206D6F6465CD
:101400003A20746865206C6F6767657227732034B3
:101410002D6279746520726561642067657473203C
:1014200054206F6E6C79002020425453543A205659
:1014300044443C322E385600202048454154455201
:10144000204F4E00202054206F7220524800202050
:1014500073657175656E7469616C20542B52480018
:10146000307800436F6E66696775726174696F6E7C
:10147000203032680053657269616C206E756D6250
:101480006572004944732061726520546578617308
:1014900020496E737472756D656E74732048444391
:1014A000313038302028353434392F313035302937
:1014B00000202F203078003078004D616E75666115
:1014C0006374757265722F6465766963652049443B
:1014D000004844433130383020646F6573206E6FAC
:1014E0007420616E737765722061742030783430B7
:1014F00000484443313038302054454D5045524126
:1015000054555245202F205248002E2E0020207284
:10151000616E6765200020206E6F69736520002072
:1015200020736420006D65616E20006C6566742018
:10153000696E2073687574646F776E2F6F6E652D9A
:1015400073686F742C206E6F7420667265652D72DF
:10155000756E6E696E6700544D50313139206F6E73
:10156000652D73686F7420636F6E76657273696F33
:101570006E7320776F726B00736F6D6520636F6E93
:1015800076657273696F6E73206661696C6564203D
:101590006F722074696D6564206F75740029202056
:1015A0007E313235206578706563746564002E2E57
:1015B00000206D73202800436F6E76657273696F2B
:1015C0006E2074696D650054656D70657261747527
:1015D0007265204300206661696C6564002C200000
:1015E000206F6E652D73686F742072656164696E1B
:1015F0006773207769746820382061766572616747
:1016000065732028746865206C6F6767657227733F
:101610002064656661756C742900202000202028F4
:10162000756E69717565204944202F207573657248
:101630002064617461290020002000454550524F0C
:101640004D20312F322F3300612074656D7065722B
:101650006174757265206F666673657420697320A6
:1016600070726F6772616D6D65643A206576657240
:10167000792072656164696E672069732073686997
:1016800066746564206279206974002043005465A3
:101690006D7065726174757265206F6666736574CE
:1016A0002030376800667265652D72756E6E696EE2
:1016B0006720287E3136207541293A2074686520DC
:1016C0006C6F67676572207061726B73206974203C
:1016D000696E2073687574646F776E0020204156C0
:1016E000473D0020204D4F443D31300020204D4FDC
:1016F000443D3131206F6E652D73686F740020207A
:101700004D4F443D30312073687574646F776E00BF
:1017100020204D4F443D303020636F6E74696E75EC
:101720006F757300307800436F6E6669677572611C
:1017300074696F6E2030316800756E65787065630E
:10174000746564206465766963652049443A206E57
:101750006F74206120544D503131372F544D50312A
:10176000313900544D503131782066616D696C79A2
:101770002049442028544D5031313920726561642C
:101780007320307832313137290029002020287227
:1017900065762000307800446576696365204944A9
:1017A0002030466800544D5031313920646F6573E4
:1017B000206E6F7420616E737765722061742030C3
:1017C00078343800544D5031313920484947482049
:1017D00041434355524143592054454D5045524190
:1017E00054555245000A3E20003D3D3D3D3D3D3DA6
:1017F0003D3D3D3D3D3D3D3D3D3D3D3D3D3D3D3D19
:101800003D3D3D3D3D3D3D3D3D3D3D3D3D3D3D3D08
:101810003D3D3D3D3D3D3D3D3D3D3D0052656164AD
:101820002D6F6E6C793A20454550524F4D2C2066F5
:101830006C617368206C6F6720616E642052544342
:101840002074696D6520617265206E6F7420636815
:10185000616E6765642E0032323A32343A313100BB
:1018600020004F637420203720323032360042751A
:10187000696C742000207465737473004754444786
:1018800001475430303100312E36004F6374202030
:101890003720323032360053454E534F52530020DA
:1018A000202D2D2000312E3600476C616369657252
:1018B00054656D7020444941474E4F53544943533A
:1018C00020003D3D3D3D3D3D3D3D3D3D3D3D3D3DA2
:1018D0003D3D3D3D3D3D3D3D3D3D3D3D3D3D3D3D38
:1018E0003D3D3D3D3D3D3D3D3D3D3D3D3D3D3D3D28
:1018F0003D3D3D3D002020486561746572206F6666
:10190000662E2052656164696E67732074616B6531
:101910002061206D696E757465206F722074776F19
:1019200020746F2072657475726E20746F20616D03
:101930006269656E742E006E6F20636C6561722043
:10194000726973653A207765616B206865617465BB
:10195000722C207374726F6E672061697220666CDE
:101960006F772C206F7220612073656E736F722009
:101970007468617420646F6573206E6F7420726583
:1019800073706F6E640074656D70657261747572EA
:101990006520726F736520776974682074686520AC
:1019A0006865617465723A207468652073656E734A
:1019B0006F7220726573706F6E6473002025002053
:1019C0002D3E200048756D696469747920626566F2
:1019D0006F72652F616674657200204300202D3E92
:1019E000200054656D706572617475726520626562
:1019F000666F72652F6166746572002020486561AC
:101A0000746572206F6E20666F72203135207320EE
:101A1000286974206F6E6C79206865617473207713
:101A200068696C6520636F6E76657274696E672C89
:101A300020736F20697420636F6E766572747320F3
:101A4000666C6174206F7574292E2E2E00484443F5
:101A50003130383020646F6573206E6F7420616E92
:101A6000737765720048444331303830204845412F
:101A700054455200636F6D70617265207468652013
:101A8000276E6F6973652720636F6C756D6E3B20E1
:101A9000544D503131395F415645524147494E47C7
:101AA00020696E20746865206C6F676765722073AB
:101AB000656C6563747320746865207365747469FC
:101AC0006E670020206561636820737465702075FF
:101AD00070206D756C7469706C69657320746865CD
:101AE000206177616B652074696D65206F66206584
:101AF00076657279206D6561737572656D656E745A
:101B00002062792061626F757420342E002020508D
:101B100069636B20746865206665776573742061FE
:101B2000766572616765732077686F7365206E6F85
:101B30006973652069732062656C6F7720776861CF
:101B400074207468652064617461206E65656473D7
:101B50003A0020204F6E65204C5342206973203795
:101B60002E38206D432E20417665726167696E675D
:101B7000206C6F77657273204E4F495345206F6E0E
:101B80006C792C206E6F7420746865202B2D302E9C
:101B90003120432061636375726163792E002020D8
:101BA00028737172742838293D322E3833206966C3
:101BB00020746865206E6F69736520776572652093
:101BC000776869746529004E6F6973652072617466
:101BD000696F20302F382061766700736F6D652044
:101BE000636F6E76657273696F6E73206661696C80
:101BF00065640020636F6E76657273696F6E732023
:101C00006661696C65642E00202000202000202081
:101C100000202000202000202000202020307800FC
:101C200020002020000A20206176672020636F6E4C
:101C30006669672020636F6E76206D732020206DAB
:101C400065616E204320202020207364206D432096
:101C500020206E6F697365206D43202020702D70E9
:101C6000206D430020202E2E2E200020732E204B8E
:101C70006565702074686520626F6172642073749A
:101C8000696C6C20616E64206F7574206F662064CF
:101C900072616674732E0020726F756E6473206FAC
:101CA0006620302C20382C20333220616E642036A0
:101CB000342061766572616765732C2061626F758F
:101CC000742000202000544D5031313920646F655C
:101CD00073206E6F7420616E737765720020204DE3
:101CE000696E696D756D203520726F756E64733B1A
:101CF000206174206C6561737420333020617265DB
:101D0000206E656564656420746F20636F6D70611B
:101D10007265207468652073657474696E67732ECC
:101D200000544D50313139204E4F49534520767380
:101D300020415645524147494E47007768657265D4
:101D40002074686520637572766520666C617474B2
:101D5000656E732069732074686520736574746C94
:101D6000652074696D653B20534554544C45206D86
:101D70006561737572657320697420776974682072
:101D8000617665726167696E67002020002020001F
:101D9000202000202020202074206D73202020206F
:101DA000636F756E7420202020206D5600202873EC
:101DB000696E676C6520636F6E76657273696F6EAE
:101DC00073293A0020616674657220706F776572BE
:101DD000696E672000202041005354455020524531
:101DE00053504F4E5345002020506F776572206F3F
:101DF00066662E00202020002020200020202000C9
:101E000020200020202020207320202073656E7366
:101E10006F7220636F756E7420202020206D562015
:101E20002020737570706C79202520564343002064
:101E3000732E20416E79206B65792073746F7073F7
:101E40002E00206576657279207365636F6E64205D
:101E5000666F7220757020746F2000206F6E2C20CA
:101E600072656164696E6720410020200053454E11
:101E7000534F5220504F574552204F4E00547970C7
:101E8000652048454C502E00556E6B6E6F776E2066
:101E9000636F6D6D616E6420286F72206E6F7420A9
:101EA000696E2074686973206275696C64292E20DC
:101EB00000202070696E73206361727279207468EB
:101EC000652073656E736F72292C20484443484522
:101ED00041542C205057522E20426F61726420745E
:101EE000657374733A20444941475F424F415244FD
:101EF0002E0020204E6F742072756E206279204172
:101F00004C4C3A20544D50415647202861626F7521
:101F1000742061206D696E757465292C20534554B9
:101F2000544C452F5354455020286E6565642074E9
:101F30006F206B6E6F772077686963680020204C94
:101F40006F6F6B20666F72205B4641494C5D20616C
:101F5000626F76653A2065616368206F6E652073F5
:101F60006179732077686174207761732065787078
:101F700065637465642E0020732E002020546F6FFB
:101F80006B20002020204641494C20002020205773
:101F900041524E2000202050415353200053554DB4
:101FA0004D415259000A3E20000000000024002745
:101FB000002A0000000000250028002B000000007F
:101FC000002300260029000404040404040404027D
:101FD00002020202020303030303030202030102DB
:101FE00004081020408001020408102001020408A7
:101FF000102040804000000009000302000004059A
:10200000080000000000000000000000F52C112472
:102010001FBECFEFD8E0DEBFCDBF11E0A0E0B1E042
:10202000E0EBF0E702C005900D92A83DB107D9F7AB
:1020300023E0A8EDB1E001C01D92A036B207E1F7A0
:1020400010E1C7E0D0E104C02197FE010E944238B0
:10205000C630D107C9F70E942E2D0C9456380C9427
:1020600000001F93CF93DF93382FCB01BA01E3E831
:10207000F2E020E0DF01FD01ED011991AE01112335
:1020800031F0103251F5FD011D911032E1F32F5F57
:102090003213F0CF1D3209F43196208120532A30BB
:1020A00038F560E070E0CB01C19120ED2C0F2A30B3
:1020B000B0F4AAE0B0E09B01AC010E9423382C2FC1
:1020C000CC0F330B20533109032E000C440B550B5E
:1020D000620F731F841F951FE7CFDA01CCCF1D322B
:1020E00039F490958095709561957F4F8F4F9F4FF4
:1020F000DF91CF911F910895E3E8F2E09F012F5FF8
:102100003F4F80818F7D11F59F012F5F3F4F808171
:102110008032F1F0DF018D91882311F18032D1F40A
:10212000DF018D918032C1F08823D1F080E041E061
:1021300050E0919120ED290F243080F4922F9A01E4
:1021400001C0220F9A95EAF7822BF3CFF901D6CF7F
:10215000F901DACFFD01DECFFD01E2CF811101C02F
:102160008EE00895843081F028F48230E9F08330E5
:10217000F9F00895883071F0893091F08530B9F424
:10218000809180008F7D03C0809180008F77809345
:10219000800008958091B0008F778093B0000895FB
:1021A0008091B0008F7DF9CF84B58F7784BD08957D
:1021B00084B58F7DFBCFCF93DF93282F30E0F901DB
:1021C000EB50F04E8491F901E252F04ED491F901B6
:1021D000E953F04EC491CC23A1F081110E94B210BA
:1021E000EC2FF0E0EE0FFF1FE354F04EA591B491F9
:1021F000EC91ED2381E090E009F480E0DF91CF9154
:10220000089580E090E0FACF1F93CF93DF93282FBB
:1022100030E0F901EB50F04E8491F901E252F04EBA
:10222000D491F901E953F04EC491CC23A9F0162FB3
:1022300081110E94B210EC2FF0E0EE0FFF1FED5461
:10224000F04EA591B4918FB7F894EC91111108C09C
:10225000D095DE23DC938FBFDF91CF911F9108953E
:10226000DE2BF8CFCF93DF9390E0FC01E252F04EEB
:1022700024918953904EFC0184918823C9F090E009
:10228000880F991FFC01E755F04EA591B491FC0110
:10229000ED54F04EC591D49161110DC09FB7F894E3
:1022A0008C91209582238C938881282328839FBF3B
:1022B000DF91CF910895623051F49FB7F8943C912B
:1022C000822F809583238C93E8812E2BEFCF8FB7BD
:1022D000F894EC912E2B2C938FBFEACF883020F00E
:1022E0008D3008F48DE08E502091010190E4299FFB
:1022F000900111248770822B80937C0080917A005A
:10230000806480937A0080917A0086FDFCCF809172
:102310007800909179000895CF92DF92EF92FF922A
:102320006FB7F89480912D0290912E02A0912F0208
:10233000B091300250912C0226B535B3432F417035
:1023400030FF04C041E02F3F09F440E06FBF6C0153
:102350007D0137E0CC0CDD1CEE1CFF1C3A95D1F75B
:10236000C50ED11CE11CF11CC81AD90AEA0AFB0AE5
:10237000880F991FAA1FBB1FC81AD90AEA0AFB0AAD
:1023800063E0CC0CDD1CEE1CFF1C6A95D1F730E03D
:10239000AEEAB8E00E941438672F782F892F99276A
:1023A0006C0D7D1D8E1D9F1D442321F06255774FBE
:1023B0008F4F9F4FFF90EF90DF90CF9008958F92B7
:1023C0009F92AF92BF92CF92DF92EF92FF926B01FA
:1023D0007C010E948C114B015C01C114D104E10409
:1023E000F104B9F00E948C11681979098A099B09D6
:1023F000683E73408105910580F321E0C21AD1083F
:10240000E108F10888EE880E83E0981EA11CB11C3B
:10241000E4CFFF90EF90DF90CF90BF90AF909F9070
:102420008F9008952FB7F89460912D0270912E022D
:1024300080912F02909130022FBF08950895089542
:10244000AF92BF92CF92DF92EF92FF920F931F93C2
:10245000CF93DF936C017B018B01040F151FEB0100
:102460005E01AE18BF08C017D10759F06991D601B7
:10247000ED91FC910190F081E02DC6010995892B29
:1024800079F7C501DF91CF911F910F91FF90EF90E8
:10249000DF90CF90BF90AF900895FC01538D448D95
:1024A000252F30E0842F90E0821B930B541710F0FF
:1024B000CF96089501970895FC01918D828D98170C
:1024C00061F0A28DAE0FBF2FB11D5D968C91928DE4
:1024D0009F5F9F73928F90E008958FEF9FEF089515
:1024E000FC01918D828D981731F0828DE80FF11DDE
:1024F000858D90E008958FEF9FEF0895FC01918DF9
:10250000228D892F90E0805C9F4F821B91098F73F1
:102510009927089583EB92E00E947E1221E0892B97
:1025200009F420E0822F089580E090E0892B29F0C3
:102530000E948A1281110C9400000895FC01A48D60
:10254000A80FB92FB11DA35ABF4F2C91848D90E0D5
:1025500001968F739927848FA689B7892C93A089B8
:10256000B1898C91837080648C93938D848D981342
:1025700006C00288F389E02D80818F7D80830895D5
:10258000EF92FF920F931F93CF93DF93EC0181E0C3
:10259000888F9B8D8C8D98131AC0E889F98980816A
:1025A00085FF15C09FB7F894EE89FF896083E8899D
:1025B000F98980818370806480839FBF81E090E08F
:1025C000DF91CF911F910F91FF90EF900895F62E1C
:1025D0000B8D10E00F5F1F4F0F731127E02E8C8DB6
:1025E0008E110CC00FB607FCFACFE889F9898081FB
:1025F00085FFF5CFCE010E949E12F1CFEB8DEC0F3F
:10260000FD2FF11DE35AFF4FF0829FB7F8940B8F17
:10261000EA89FB8980818062CFCF0F931F93CF938C
:10262000DF938C01D0E0C0E0F801EC0FFD1F649156
:10263000662341F083EB92E00E94C012892B11F0D7
:102640002196F2CFCE01DF91CF911F910F91089586
:10265000682F83EB92E00C94C012CF93DF93EC01D0
:10266000888D8823B9F0AA89BB89E889F9898C917A
:1026700085FD03C0808186FD0DC00FB607FCF7CF36
:102680008C9185FFF2CF808185FFEDCFCE010E9436
:102690009E12E9CFDF91CF9108952091F801260F86
:1026A0003327331F21323105ECF420915902FC010C
:1026B00090E080E0243069F082E00895A091F80174
:1026C0002191AC0148525E4FA40FB52FB11D2C9340
:1026D0000196861798F38091F801680F6093F801CE
:1026E00080E0089581E008951092590281E080937E
:1026F00058021092510261E082E10E94041161E0EF
:1027000083E10E940411E9EBF0E080818E7F8083F9
:1027100080818D7F80838CE18093B80085E48093F5
:10272000BC000895CF93DF9391E09093210288231A
:10273000B9F0C091B800D091BA008091BC008A7BFA
:102740008093BC0060E082E10E94041160E083E1BC
:102750000E9404110E947413D093BA00C093B80071
:10276000DF91CF9108958F929F92AF92BF92CF92B7
:10277000DF92EF92FF920F931F93CF93DF9310910D
:102780008202113208F0CEC0D82FC09181020E947F
:102790008C116B017C0180915902811166C082E02D
:1027A00080935902D09358028FEF8093570281E6AD
:1027B00092E0909356028093550210925402109327
:1027C00053021092520280915202CC0FC82BC09338
:1027D000520280915102813009F080C01092510262
:1027E000809152028093BB0080915B0290915C02C9
:1027F000A0915D02B0915E02892B8A2B8B2BA1F0F8
:102800000E948C1100915B0210915C0220915D028C
:1028100030915E026C197D098E099F090617170712
:102820002807390708F442C08091BC0083FDD8CF47
:1028300085EC8093BC000E948C116B017C0180911F
:102840005902823009F44CC0809157028F3F09F43D
:102850006BC080915702803209F468C080915702A2
:10286000803309F465C084E026C080915B029091BA
:102870005C02A0915D02B0915E02892B8A2B8B2BAA
:1028800009F489CF0E948C1180905B0290905C02C9
:10289000A0905D02B0905E026C197D098E099F09BF
:1028A00086169706A806B90608F075CF80915A02D9
:1028B0000E94921385E010926002109282021092A0
:1028C0005F02DF91CF911F910F91FF90EF90DF900A
:1028D000CF90BF90AF909F908F90089585EEA9CF35
:1028E00080915B0290915C02A0915D02B0915E02CA
:1028F000892B8A2B8B2B09F4A2CF0E948C1100917B
:102900005B0210915C0220915D0230915E026C19B5
:102910007D098E099F09061717072807390708F050
:102920008ECFC4CF81E0C7CF80E0C5CF82E0C3CFD8
:1029300083E0C1CFCF92DF92EF92FF920F931F936C
:10294000CF93DF93D82FC62F613208F096C00E9434
:102950008C116B017C0180915902811169C081E069
:1029600080935902809358029FEF9093570221E37E
:1029700032E03093560220935502109254029C0F7D
:10298000909353028093520280915202DD0FD82B14
:10299000D093520280915102813009F070C01092A0
:1029A00051020E948C116B017C0180915202809334
:1029B000BB0080915B0290915C02A0915D02B0919E
:1029C0005E02892B8A2B8B2BA1F00E948C11009127
:1029D0005B0210915C0220915D0230915E026C19E5
:1029E0007D098E099F09061717072807390708F47C
:1029F00040C08091BC0083FDD8CF85EC8093BC00A3
:102A00000E948C116B017C01809159028130C9F1C7
:102A1000809154028C1710F4C09154028C2FDF91D6
:102A2000CF911F910F91FF90EF90DF90CF9008957D
:102A300080915B0290915C02A0915D02B0915E0278
:102A4000892B8A2B8B2B09F486CF0E948C11009145
:102A50005B0210915C0220915D0230915E026C1964
:102A60007D098E099F09061717072807390708F0FF
:102A700072CF80915A020E949213C0E0CFCF85EEB0
:102A8000BDCF80915B0290915C02A0915D02B091FC
:102A90005E02892B8A2B8B2B09F4B6CF0E948C11F6
:102AA00000915B0210915C0220915D0230915E0208
:102AB0006C197D098E099F09061717072807390722
:102AC00008F0A2CFD6CF0895E091200280911F0296
:102AD000E81730F4F0E0EF5CFD4F808190E008955E
:102AE0008FEF9FEF08959091200280911F022FEFAA
:102AF0003FEF981748F4E92FF0E0EF5CFD4F20819D
:102B000030E09F5F90932002C901089580911F02D9
:102B100090912002891B990B0895CF92DF92EF923A
:102B2000FF920F931F93CF93DF937C01CB018A0118
:102B300020915F02222389F0EB016B01C40ED51EA8
:102B4000CC15DD0569F06991D701ED91FC910190FB
:102B5000F081E02DC7010995F3CF642F0E944D133A
:102B6000C801DF91CF911F910F91FF90EF90DF90FF
:102B7000CF900895CF93DF931F92CDB7DEB76983CF
:102B800020915F022223F9F020918202203258F036
:102B900021E030E0FC013383228390E080E00F905D
:102BA000DF91CF91089580916002E82FF0E0EF5916
:102BB000FD4F998190838F5F8093600280938202A2
:102BC00081E090E0ECCF61E0CE0101960E944D13D0
:102BD000F7CF682F80E593E00C94BA15CF93DF937D
:102BE000EC0181E080935F0280E480938102109287
:102BF00060021092820262E080E593E00E94BA15C2
:102C00008D2F90E00E94E915CE0199270E94E915C9
:102C100081E00E94B31391E0811190E0892FDF9150
:102C2000CF910895CF93DF93EC0181E080935F0211
:102C300088E480938102109260021092820261E027
:102C400080E593E00E94BA158D2F90E00E94E9156F
:102C5000CE0199270E94E91581E00E94B31391E00B
:102C6000811190E0892FDF91CF91089590E080E06D
:102C7000089591E090935F02809381021092600228
:102C80001092820281E00E94B31391E0811190E0E2
:102C9000892F08950F931F938EE480937C008FEF0C
:102CA0008093000165E070E080E090E00E94DF1119
:102CB00080E000E010E0980190917A009064909399
:102CC0007A0090917A0096FDFCCF882341F06091C4
:102CD000780070917900060F171F211D311D8F5F3D
:102CE000813151F7A901980184E0559547953795B1
:102CF00027958A95D1F7211531054105510531F008
:102D000064EB7BE281E190E00E94F537CA01B901F2
:102D10001F910F91089598B18095892388B90895DE
:102D2000CF92DF92EF92FF921F93CF93DF93182FF2
:102D3000C62F0E946E11D0E0C12CD12C7601812FBC
:102D40000E946E11092E000CAA0BBB0BC80ED91ED7
:102D5000EA1EFB1EDF5FCD13F2CFC701B6010E9452
:102D60003D366B017C016C2F70E090E080E00E94AA
:102D70003D369B01AC01C701B6010E949335DF913E
:102D8000CF911F91FF90EF90DF90CF900895CF9358
:102D900090910001981771F0C82F8093010186E08F
:102DA0000E946E1165E070E080E090E00E94DF110B
:102DB000C0930001CF9108954F925F926F927F92DE
:102DC0008F929F92AF92BF92CF92DF92EF92FF923B
:102DD0000F931F93CF93DF938C016A017B01FC015A
:102DE000C081D1812196D183C08342805380648089
:102DF0007580A3019201CB01B6010E9421354B01E0
:102E00005C01BE0190E080E00E943B369B01AC017A
:102E1000C501B4010E949335A30192010E9422359D
:102E20009B01AC01F8012283338344835583C7019E
:102E3000B6010E942135A50194010E94F2369B0142
:102E4000AC01F80166817781808591850E942235E9
:102E5000F8016683778380879187A7019601628551
:102E60007385848595850E94ED3618162CF4F8013B
:102E7000C286D386E486F586A7019601F8016685A9
:102E80007785808991890E948E3587FF05C0F8017A
:102E9000C686D786E08AF18ADF91CF911F910F9184
:102EA000FF90EF90DF90CF90BF90AF909F908F906A
:102EB0007F906F905F904F900895FC011182108277
:102EC000128213821482158216821782108611864E
:102ED0008AEC92EFA9E4B1E782879387A487B5874C
:102EE0008AEC92EFA9E4B1EF86879787A08BB18B2C
:102EF0000895FC0101900020E9F73197AF01481BCC
:102F0000590BBC0183EB92E00C9420128CE791E00A
:102F10000C947917CF93DF930E940D13EC010E945C
:102F200086178C0F9D1FDF91CF910895CF93DF936C
:102F3000EB018130D1F038F0823029F184E994E05E
:102F40000E940D130DC082EB94E00E940D1380913E
:102F500024029091250201969093250280932402E9
:102F6000CE01DF91CF910C948A1788EA94E00E94F9
:102F70000D138091260290912702019690932702CB
:102F800080932602EDCF8EE994E00E940D1380918C
:102F90002802909129020196909329028093280299
:102FA000DFCF843038F06EEE76E082E00E94961734
:102FB00080E00895262F30E002C0359527958A9548
:102FC000E2F720FF03C064EC76E0EFCF611103C0AD
:102FD00060EB76E0EACF81E00895CF93DF93EC01D8
:102FE00087E894E00E940D13CE010E940D138BE739
:102FF00094E0DF91CF910C948A1787E594E00E94CA
:103000008A178CE094E00E948A1787ED93E00E9473
:103010008A178DE993E00E948A1785E693E00E9463
:103020008A1785E293E00E948A178AEE92E00E9456
:103030008A178EEA92E00E948A1789E692E00E943F
:103040008A178DE292E00E948A1785EE91E00E9435
:103050008A178CE991E00E948A1785E691E00E9428
:103060008A1787E291E00E948A178EEE90E00E9414
:103070008A178BE990E00E948A1784E890E00E940A
:103080008A1788E690E00C948A178F929F92AF92ED
:10309000BF920F931F93CF93DF93CDB7DEB7A19766
:1030A0000FB6F894DEBF0FBECDBF19A2423008F4B0
:1030B0004AE08E010F5D1F4F842E912CB12CA12C64
:1030C000A50194010E94D337E62FB901CA01EA3065
:1030D000F4F4E05DD801EE938D01232B242B252BF6
:1030E00079F790E080E0109719F0CD010E947917F0
:1030F000A1960FB6F894DEBF0FBECDBFDF91CF9182
:103100001F910F91BF90AF909F908F900895E95CB1
:10311000E1CFCF93DF93FC0101900020E9F73197D5
:10312000E81BF90BEF01DD27AE01BC0183E892E05B
:103130000E944838892B31F4CD57DD4F98819F7D0F
:1031400081E009F080E0DF91CF910895CF92DF9286
:10315000EF92FF92CF93DF9397FF19C06B017C0131
:103160008DE20E942813EC0166277727CB016C19AA
:103170007D098E099F094AE00E9445188C0F9D1F0A
:10318000DF91CF91FF90EF90DF90CF9008954AE0CC
:10319000DF91CF91FF90EF90DF90CF900C94451886
:1031A000BC01990F880B990B0C94A618BC0190E0F8
:1031B00080E04AE00C9445184F925F926F927F92A4
:1031C0008F929F92AF92BF92CF92DF92EF92FF9237
:1031D0000F931F93CF936B017C01742EAC019B0165
:1031E0000E94A537882399F08FE791E0CF911F9136
:1031F0000F91FF90EF90DF90CF90BF90AF909F9096
:103200008F907F906F905F904F900C94791746014C
:103210005701E894B7F82FEF3FEF4FE75FE7C5019D
:10322000B4010E94A53781110DC02FEF3FEF4FE78A
:103230005FE7C501B4010E948E3518161CF483E8BF
:1032400091E0D4CF2FEF3FEF4FE75FE4C701B60126
:103250000E94ED3618161CF487E891E0C7CF2FEFD7
:103260003FEF4FE75FECC701B6010E948E3587FD47
:10327000F3CF20E030E0A901C701B6010E948E35EE
:1032800010E000E087FF08C08DE20E9428138C0147
:10329000F7FAF094F7F8F094C0E060E070E080E0B6
:1032A0009FE37C1641F020E030E040E251E40E94D0
:1032B0009335CF5FF6CFA70196010E9422352B01EF
:1032C0003C010E940C364B015C014AE00E9445180B
:1032D0007C01E00EF11ECC2399F1C501B4010E94DE
:1032E0003B369B01AC01C301B2010E9421354B0169
:1032F0005C018EE20E942813E80EF91EC15000F115
:1033000020E030E040E251E4C501B4010E94F23611
:103310002B013C010E940C364B01CB010E94D618B8
:10332000E80EF91EB40190E080E00E943B369B015C
:10333000AC01C301B2010E9421354B015C01DECF1B
:10334000C701CF911F910F91FF90EF90DF90CF9029
:10335000BF90AF909F908F907F906F905F904F90B5
:1033600008950C94DC188F929F92AF92BF92CF92E7
:10337000DF92EF92FF921F93CF93DF936B017C015B
:10338000142FD22F9F770E940536C1E02AE0822EAB
:10339000912CA12CB12C6A3071058105910544F066
:1033A000A50194010E94F537CA01B901CF5FF3CF9F
:1033B00020E030E0A901C701B6010E948E3587FDEB
:1033C000CF5FDD2319F081E08D0FC80FC11728F4FE
:1033D00080E20E942813CF5FF9CF4D2F50E0C70144
:1033E000B601DF91CF911F91FF90EF90DF90CF90CA
:1033F000BF90AF909F908F900C94B119AF92BF92F5
:10340000CF92DF92EF92FF920F931F93CF93DF93B0
:103410007C018B0181E080935F0280E480938102D4
:10342000109260021092820260E080E593E00E94B8
:10343000BA1581E00E94B313882361F080E0DF9128
:10344000CF911F910F91FF90EF90DF90CF90BF90A1
:10345000AF9008956FE070E080E090E00E94DF118F
:1034600064E080E40E949A141092200280931F026C
:10347000843021F780E593E00E947315A82E80E543
:1034800093E00E9473156C0180E593E00E94731530
:10349000B82E80E593E00E947315EC01E114F1046D
:1034A000F9F060E07A2D6C297D2990E080E00E949F
:1034B0003B3620E030E040E857E30E94F23620E05F
:1034C00030E045E253E40E94F23620E030E040E292
:1034D00052E40E942135F7016083718382839383D4
:1034E00001151105C9F060E07B2D6C2B7D2B90E060
:1034F00080E00E943B3620E030E040E857E30E9445
:10350000F23620E030E048EC52E40E94F236F80156
:10351000608371838283938381E091CFCF93DF9324
:10352000EB0191E090935F0298E4909381021092F6
:10353000600210928202682F80E593E00E94BA1523
:1035400081E00E94B313882321F080E0DF91CF91C6
:10355000089562E088E40E949A14109220028093F9
:103560001F02823091F780E593E00E947315188264
:10357000898380E593E00E94731528813981822B2D
:10358000932B9983888381E0E1CF4F925F926F9272
:103590007F928F929F92AF92BF92CF92DF92EF92E3
:1035A000FF921F93CF93DF9300D000D0CDB7DEB74B
:1035B0004B015A010E941216182F882399F00E947D
:1035C00012122B013C0165E070E080E090E00E9467
:1035D000DF11BE016D5F7F4F81E00E948E1A811165
:1035E00016C010E0812F0F900F900F900F90DF9179
:1035F000CF911F91FF90EF90DF90CF90BF90AF9051
:103600009F908F907F906F905F904F9008958B81E7
:103610009C8195FD0CC00E941212641975098609DF
:1036200097096D3D75408105910568F2DACF0E94DA
:1036300012126B017C01BE016F5F7F4F80E00E9420
:103640008E1A182F882369F28114910499F06981E8
:103650007A81072E000C880B990B0E943D3620E0E2
:1036600030E040E05CE30E94F236F4016083718355
:1036700082839383A114B10409F4B4CFC418D5088C
:10368000E608F708F501C082D182E282F382AACF70
:10369000CF93DF93EB0191E090935F0290E49093DE
:1036A00081021092600210928202682F80E593E0FE
:1036B0000E94BA1581E00E94B313882321F080E0B4
:1036C000DF91CF91089562E080E40E949A141092F5
:1036D000200280931F02823091F780E593E00E94E0
:1036E00073151882898380E593E00E947315288101
:1036F0003981822B932B9983888381E0E1CFCF920C
:10370000DF92EF92FF92CF93DF93C12CD12C760101
:1037100091E0C82FD0E09E010C2C02C03595279572
:103720000A94E2F720FF10C0911104C088E097E0EE
:103730000E940D1386E097E00E940D134AE0C70136
:10374000B6010E94451890E08FEFC81AD80AE80A1F
:10375000F80A84E0C816D104E104F104E1F6DF912F
:10376000CF91FF90EF90DF90CF900895CF93C82F27
:10377000803118F480E30E9428136C2F70E090E0F1
:1037800080E040E1CF910C944518CF93DF938AEA13
:1037900092E10E94ED1760E082E10E94321160E048
:1037A00083E10E94321182E10E94DB10892B09F033
:1037B0007BC06AE572E182E00E94961710922002B7
:1037C00010921F0210926002109282020E947413E3
:1037D0008EE192E190931E0280931D028FE192E1AF
:1037E00090931C0280931B0284E292E10E940D13CD
:1037F000C8E0D0E08C2F0E943916882381F080E247
:1038000092E10E940D138C2F0E94B61B8C2F877F94
:10381000803429F0C83619F0C73509F0DF5FCF5F73
:10382000C83741F70E94861788E60E943916811131
:1038300045C082E06DE072E10E94961780E40E942C
:10384000391681113DC082E06EEE71E10E9496173B
:1038500088E40E943916811135C082E065EC71E17F
:103860000E94961788E40E943916811114C0C9E499
:103870008C2F0E943916882359F08BEA91E10E941F
:103880000D138C2F0E94B61B89E691E10E948A17C6
:10389000CF5FCC3469F7DD23B9F061E371E183E0F8
:1038A000DF91CF910C94961783E10E94DB10892B56
:1038B00009F47FCF61E372E180E07ECF80E0BACF90
:1038C00080E0C2CF80E0CACFDF91CF910895CF933F
:1038D000C82F892F0E94B61B8C2FCF910C94B61B3A
:1038E00085ED8093BC0080915B0290915C02A09179
:1038F0005D02B0915E020796A11DB11D23E0B69551
:10390000A795979587952A95D1F72091BC0024FD1E
:1039100003C010925902089540915B0250915C02DD
:1039200060915D0270915E02452B462B472B69F337
:103930000097A105B10541F023E12A95F1F700C0F8
:103940000197A109B109E1CF80915A020C94921319
:103950000F931F93CF93DF9300D0CDB7DEB78C01C9
:103960000E9419358983C80101960E9419358A83FE
:1039700089819A810F900F90DF91CF911F910F91C4
:1039800008954F925F926F927F928F929F92AF9223
:10399000BF92CF92DF92EF92FF920F931F93CF933C
:1039A000DF934A015B01690198E0899F700111244E
:1039B000C70187569F4F0E94A81CEC01C70189567A
:1039C0009F4F0E94A81C3C01C7018B569F4F0E942D
:1039D000A81C8C01C7018D569F4F0E94A81C7C011A
:1039E000C017D10709F46DC00F3F100709F469C073
:1039F000CF3FDC0709F465C0B301681B790B072EC4
:103A0000000C880B990B0E943D362B013C01B8013C
:103A1000012E000C880B990B0E943D369B01AC01D6
:103A2000C501B4010E9421359B01AC01C301B20163
:103A30000E94F2362B013C01BE01601B710B072E68
:103A4000000C880B990B0E943D369B01AC01C30111
:103A5000B2010E9493352B013C01B701FF0C880B8A
:103A6000990B0E943D369B01AC01C301B2010E943B
:103A700022350E940536C114D10449F597FF10C0C4
:103A800020E030E44EE455E4C501B4010E94F23672
:103A900020E030EC4FE754E40E9493350E94053655
:103AA000DF91CF911F910F91FF90EF90DF90CF901A
:103AB000BF90AF909F908F907F906F905F904F904E
:103AC00008956FEF7FEFCB01C114D104C9F28B01D0
:103AD0009C010095109520953095002737FD0395A2
:103AE000112722273327F6010083C8CFCF93DF9316
:103AF000EC018CEB94E00E940D13CE010E940D139B
:103B0000CE010E941035EC0180E20E94281321961C
:103B1000CA31D10514F48EE2F8CF80E2DF91CF9163
:103B20000C9428134F925F926F927F928F929F9284
:103B3000AF92BF92CF92DF92EF92FF92CF93DF933B
:103B400000D000D000D0CDB7DEB781E191E10E9476
:103B5000ED170E9412124B015C0170E060E090E0F2
:103B600080E00E94FE198E830E9412126B017C017C
:103B7000C818D908EA08FB080E9412122B013C0160
:103B800050E040E070E060E080E29CE00E94C51AF6
:103B90008D830E9412124B015C0184189508A608BF
:103BA000B70880E294E00E9412168FEF8093000124
:103BB0000E9412122B013C0183E00E94C71665E1AE
:103BC00086E00E9490160E9412129B01AC012419FB
:103BD00035094609570929833A834B835C830E9440
:103BE00012122B013C0181E00E94C71665E18EE0B4
:103BF0000E9490160E9412129B01AC0124193509F3
:103C00004609570929013A0184E091E10E94761D95
:103C10004AE0C701B6010E94451880E091E10E9488
:103C20000D133E81311104C082EF90E10E940D130B
:103C30000E9486178FED90E10E94761D4AE0C50133
:103C4000B4010E9445188BED90E10E940D134D8147
:103C5000411104C08DEC90E10E940D130E94861763
:103C600088EB90E10E94761D4AE069817A818B8120
:103C70009C810E94451884EB90E10E948A178CE990
:103C800090E10E94761D4AE0C301B2010E944518EE
:103C900088E990E10E948A1781E890E10E94761DF0
:103CA000C80CD91CEA1CFB1C69817A818B819C8120
:103CB0006C0D7D1D8E1D9F1D4AE00E9445188DE7ED
:103CC00090E10E948A1788E390E10E948A178BEFA7
:103CD0009FE026960FB6F894DEBF0FBECDBFDF91F2
:103CE000CF91FF90EF90DF90CF90BF90AF909F90DB
:103CF0008F907F906F905F904F900C948A174F92A7
:103D00005F926F927F928F929F92AF92BF92CF926B
:103D1000DF92EF92FF920F931F93CF93DF9385EF84
:103D20009FE00E94ED170E944A166B017C0181EE14
:103D30009FE00E94761DC701B6010E94A61883ED80
:103D40009FE00E948A1785E5C81A8BE0D80AE1082F
:103D5000F1088FE1C81683E0D806E104F10408F009
:103D60000EC168EB7FE080E00E94961783E00E941E
:103D7000C71665E186E00E9490164B015C0187E75B
:103D80009FE00E94761D41E0C501B4010E94DC184D
:103D90000E9486178BE890E00E94A81C7C018DE8A9
:103DA00090E00E94A81C6C018FE890E00E94A81C83
:103DB0008C0181E990E00E94A81CEC0185E69FE05F
:103DC0000E94761DC7010E94D01881E69FE00E94E4
:103DD0000D13C6010E94D0188EE59FE00E940D13BE
:103DE000C8010E94D0188AE59FE00E940D13CE0101
:103DF0000E94D0180E948617CC16DD0609F4C3C0B5
:103E00008FEFC816D80609F4BEC0CF3FDC0709F40F
:103E1000BAC0B8016E197F09072E000C880B990BE8
:103E20000E943D362B013C01B6010D2C000C880B85
:103E3000990B0E943D369B01AC01C501B4010E9463
:103E400021359B01AC01C301B2010E94F2362B0166
:103E50003C01BE016C197D09072E000C880B990BE3
:103E60000E943D369B01AC01C301B2010E94933513
:103E70002B013C01B701FF0C880B990B0E943D36CA
:103E80009B01AC01C301B2010E9422350E9405369C
:103E90006B017C0120E030E849E854E4C501B4013D
:103EA0000E94F23620E030E040EC50E40E94F2360E
:103EB00020E030EC4FE754E40E9493350E94053631
:103EC0002B013C0183E49FE00E94761DC301B201F7
:103ED0000E94A6188FE39FE00E948A176FEF7EE092
:103EE000F7FC5FC08AEE9EE00E94761DC701B60116
:103EF0000E94A61886EE9EE00E948A17460157018E
:103F000084189508A608B708B7FE08C0B094A09416
:103F100090948094811C911CA11CB11CC301B2011E
:103F200025E030E040E050E00E94F53767EA7EE0AF
:103F300081E0281539054A055B051CF067E77EE03E
:103F400080E00E94961784E8C81683E0D806E10452
:103F5000F104F4F46AE57EE082E0DF91CF911F91F5
:103F60000F91FF90EF90DF90CF90BF90AF909F9018
:103F70008F907F906F905F904F900C9496176AE8A7
:103F80007FE082E0F1CECC24CA94DC2C760182CF93
:103F90008EE7C81684E0D806E104F10424F467E44F
:103FA0007EE081E0DACF65E37EE080E0D6CFFF926D
:103FB0000F931F93CF93DF9300D0CDB7DEB781E38C
:103FC0009EE00E94ED1711E2F0E0E0E01093570050
:103FD000F490E2E0F0E0109357000491E4E0F0E0A8
:103FE00010935700149187E29EE00E94761D8F2D5A
:103FF0000E94B61B85E29EE00E940D13802F0E9456
:10400000B61B83E29EE00E940D13812F0E94B61B17
:104010000E9486178EE1F8120CC0053951F46DE04C
:104020007EE080E01F3041F068ED7DE081E01431FA
:1040300019F063EA7DE082E00E94961719E0F0E053
:10404000E0E010935700F490E3E0F0E010935700A5
:104050000491E2E0F0E010935700149180E99DE0B4
:104060000E94761D8F2D0E94B61B8EE89DE00E9457
:104070000D13802F0E94B61B8CE89DE00E940D134B
:10408000812F0E94B61B0E9486178CE79DE00E943C
:10409000761D1770163009F478C0173009F47DC00A
:1040A000153009F081C086E79DE00E948A1763E51C
:1040B0007DE080E00E94961784E89CE00E94761DD7
:1040C00060E070E880E790E00E94A61880E89CE03D
:1040D0000E948A176FE57CE080E00E9496178BE4CF
:1040E0009CE00E94761D809123020E94B61B1091D5
:1040F000230213FF04C081E49CE00E940D1312FF11
:1041000004C086E39CE00E940D1311FF04C08CE202
:104110009CE00E940D1382E29CE010FD04C011118E
:1041200004C085E09CE00E940D130E9486178091D8
:10413000230282FF05C062EC7BE081E00E949617BB
:1041400020915C0330915D032115310511F420E6C7
:1041500033E08E010F5F1F4F021B130B85EB9BE0BB
:104160000E94761DC8010E94D0188EEA9BE00E9432
:104170008A1782E89BE00E948A170F900F90DF91C8
:10418000CF911F910F91FF9008958DE49DE00E94C3
:104190008A1760E17DE081E08DCF87E09DE00E949D
:1041A0008A176FEC7CE0F7CF89EC9CE00E948A17BD
:1041B00065E97CE082E07ECFCF93DF93FC016081F4
:1041C00071816230710598F0EC016150710990E0E5
:1041D00080E00E943B369B01AC016E817F81888527
:1041E00099850E949335DF91CF910C94653760E0FB
:1041F00070E0CB01DF91CF910895AF92BF92CF9243
:10420000DF92FF920F931F93CF93DF93EB015A013D
:10421000F22E0E94761D85E295E10E940D130F2D6E
:1042200010E06A817B818C819D81A8010E94B11977
:104230008FE195E10E940D1368018FEFC81AD80A2B
:10424000CE010E94DC20A6010E94B11986E195E111
:104250000E940D13C5010E94DC2025ED34E045EBE2
:104260005FE30E949335A6010E94B1198DE095E1AC
:104270000E940D136A857B858C859D85A8010E940F
:10428000B1198AE095E10E940D136E857F858889BA
:1042900099894F2D0E94DC18DF91CF911F910F91CA
:1042A000FF90DF90CF90BF90AF900C9486178F92C5
:1042B0009F92AF92BF92CF92DF92EF92FF921F93A5
:1042C000CF93DF93CDB7DEB7CA54D1090FB6F894B8
:1042D000DEBF0FBECDBF6C0184EC97E10E94ED17ED
:1042E000BE01615C7F4F8FE00E948E1A811118C061
:1042F00065EA77E182E00E949617C65BDF4F0FB652
:10430000F894DEBF0FBECDBFDF91CF911F91FF901C
:10431000EF90DF90CF90BF90AF909F908F900895D7
:1043200087E997E10E94761D84E997E10E940D13C9
:1043300021968EAD9FAD21970E94671C8CE897E176
:104340000E940D1321968FAD219782958F7090E07A
:104350000E94D6188AE897E10E948A1721968EADAE
:104360009FAD21979F708731914009F059C163E655
:1043700077E180E00E949617BE016F5B7F4F81E07E
:104380000E948E1A87E297E10E94761D84E297E1EF
:104390000E940D1323968EAD9FAD23970E94671C3C
:1043A00023961FAD239716951695137080E197E11C
:1043B00051F08EEF96E1113031F08CEE96E1133032
:1043C00011F083EE96E10E940D138CED96E10E94B0
:1043D0000D1323968EAD9FAD239725E09695879577
:1043E0002A95E1F7837099270E94D6180E948617B4
:1043F000111105C065EA76E181E00E949617BE01C1
:104400006D5B7F4F87E00E948E1A882339F18EE81A
:1044100096E10E94761D25966EAD7FAD2597072EFD
:10442000000C880B990B0E943D3620E030E040E004
:104430005CE30E94F23644E050E00E94B1198BE840
:1044400096E10E948A1725968EAD9FAD2597892B00
:1044500029F068E476E181E00E949617BE016B5B6B
:104460007F4F85E00E948E1A882391F1BE01695B1F
:104470007F4F86E00E948E1A882351F1BE01675B50
:104480007F4F88E00E948E1A882311F18BE396E11A
:104490000E94761D27968EAD9FAD27970E94671CC0
:1044A00089E396E10E940D1329968EAD9FAD299761
:1044B0000E94671C87E396E10E940D132B968EAD38
:1044C0009FAD2B970E94671C8DE196E10E948A1791
:1044D000CE0101960E945D17CE0143960E945D17A2
:1044E000CE0185960E945D17F12CE12C10E0812C05
:1044F000912C5401AE01495C5F4FBE01655C7F4F5A
:1045000080E29CE00E94C51A81118EC01F5F8FEF70
:10451000E81AF80A3C2D2D2D85EFC81681E0D80643
:1045200014F034EF21E0832F922F8230910514F4A0
:1045300082E090E0E816F906ECF280E294E00E9456
:1045400012168AE196E10E940D1389819A810E94D8
:10455000D61880EE95E10E940D13112379F08DEDB0
:1045600095E10E940D13612F70E090E080E04AE039
:104570000E94451885ED95E10E940D130E94861753
:1045800024E0AE014D5E5F4FBE016F5F7F4F87EC51
:1045900095E10E94FD2087EB95E10E94761D6FA1B9
:1045A00078A589A59AA541E050E00E94B11981EB58
:1045B00095E10E940D136FA578A989A99AA950E0E9
:1045C00040E00E94B1198EEA95E10E940D136BA99B
:1045D0007CA98DA99EA950E040E00E94B1198DE907
:1045E00095E10E948A1768E775E182E0111103C026
:1045F00067E575E180E00E949617BE01695C7F4F18
:1046000081E00E948E1A28AD822F8695869590E0D3
:1046100083709927892B99F180E06BE275E16BCE6D
:1046200069E377E182E0A6CE89819A81892B71F0D6
:10463000A50194016BAD7CAD8DAD9EAD0E94213581
:10464000AB01BC01CE0143960E94DC164BAD5CADC4
:104650006DAD7EADCE0101960E94DC166FA978ADDE
:1046600089AD9AAD0E943B36AB01BC01CE01859667
:104670000E94DC168BAC9CACADACBEAC48CF82E0EB
:10468000CCCF4F925F926F927F928F929F92AF9218
:10469000BF92CF92DF92EF92FF921F93CF93DF935F
:1046A000CDB7DEB7CC55D1090FB6F894DEBF0FBE3B
:1046B000CDBF6C0181EF94E10E94ED17BE016F5AEE
:1046C0007F4F8EEF0E94481B81111CC061ED74E189
:1046D00082E00E949617C45ADF4F0FB6F894DEBFEF
:1046E0000FBECDBFDF91CF911F91FF90EF90DF9074
:1046F000CF90BF90AF909F908F907F906F905F9082
:104700004F900895BE016D5A7F4F8FEF0E94481B56
:104710008AEB94E10E94761D87EB94E10E940D13D1
:1047200063968EAD9FAD63970E94671C81EB94E109
:104730000E940D1365968EAD9FAD65970E94671C14
:104740000E94861763968EAD9FAD6397893494451A
:1047500009F053C165968EAD9FAD65978035904148
:1047600009F04BC180E063E874E10E949617BE0136
:10477000695A7F4F8BEF0E94481B882339F1BE0195
:10478000675A7F4F8CEF0E94481B8823F9F0BE01C7
:10479000655A7F4F8DEF0E94481B8823B9F085E74B
:1047A00094E10E94761D69968EAD9FAD69970E9437
:1047B000671C6B968EAD9FAD6B970E94671C6D96C4
:1047C0008FAD6D970E94B61B0E948617BE016B5A73
:1047D0007F4F82E00E94481B83E694E10E94761D91
:1047E00080E694E10E940D1367968EAD9FAD6797AA
:1047F0000E94671C67968EAD9FAD679794FFFFC0C0
:104800008EE494E10E940D1367968EAD9FAD67977D
:1048100095FF04C088E394E10E940D1367968EAD66
:104820009FAD679793FF04C087E294E10E940D1348
:104830000E94861767968EAD9FAD679794FD05C061
:104840006AEE73E182E00E94961767968EAD9FAD87
:10485000679795FF05C063EB73E181E00E949617AF
:1048600067968EAD9FAD679793FF05C069E873E1CA
:1048700082E00E949617CE0101960E945D17CE013C
:1048800043960E945D17CE0185960E945D17CE016A
:10489000C7960E945D17F12CE12C10E0412C512CA1
:1048A000320153014201BE01675B7F4FCE01835B42
:1048B0009F4F0E94FE198111A5C01F5F8FEFE81A5C
:1048C000F80A3C2D2D2D85EFC81681E0D80614F08E
:1048D00034EF21E0832F922F8230910514F482E08F
:1048E00090E0E816F906FCF286E893E10E940D13C9
:1048F00089819A810E94D6188EE693E10E940D1359
:10490000112379F08BE693E10E940D13612F70E083
:1049100090E080E04AE00E94451883E693E10E941F
:104920000D130E94861723E0AE014B5D5F4FBE0161
:104930006F5F7F4F85E593E10E94FD2022E0AE018D
:10494000495C5F4FBE016D5E7F4F88E493E10E943A
:10495000FD20112329F060E273E182E00E949617A6
:1049600089819A81892BE9F0CB80DC80ED80FE8003
:1049700020E030E040E252ECC701B6010E948E35E3
:1049800087FD0AC020E030E040E752E4C701B601ED
:104990000E94ED3618162CF46AEF72E181E00E9455
:1049A00096178B899C89892BE9F0CD88DE88EF8862
:1049B000F88C20E030E040E05FE3C701B6010E94E0
:1049C0008E35181654F42DEC3CEC47EC52E4C7013C
:1049D000B6010E94ED3687FD05C06DEC72E181E005
:1049E0000E94961789819A81892B09F474CE11113E
:1049F00072CE62EB72E180E06CCE82E0B4CE84E4F1
:104A000094E100CF89819A81892B01F1A50194015C
:104A100061966CAD7DAD8EAD9FAD61970E942135E5
:104A2000AB01BC01CE0185960E94DC16A301920168
:104A30002D966CAD7DAD8EAD9FAD2D970E9421352D
:104A4000AB01BC01CE01C7960E94DC1661964CAD4D
:104A50005DAD6EAD7FAD6197CE0101960E94DC1613
:104A60002D964CAD5DAD6EAD7FAD2D97CE014396CD
:104A70000E94DC1661968CAC9DACAEACBFAC61976D
:104A80002D964CAC5DAC6EAC7FAC2D976AEF70E0B0
:104A900080E090E00E94DF1111CF2F923F924F9261
:104AA0005F926F927F928F929F92AF92BF92CF92BE
:104AB000DF92EF92FF920F931F93CF93DF93CDB7C7
:104AC000DEB7C756D1400FB6F894DEBF0FBECDBFDC
:104AD000362ED72E7C01C85ADE4F4883C855D140A8
:104AE000B22EC32E80E79BE00E94ED17C85ADE4F1E
:104AF0006881C855D140832D0E94D117CB59DE4F14
:104B00008883C556D140882309F442C4C801AB2D1F
:104B1000BC2D8B309105A105B10524F08AE090E011
:104B2000A0E0B0E0C35ADE4F88839983AA83BB8399
:104B3000CD55D140181619061A061B0664F021E05F
:104B400030E040E050E0C35ADE4F288339834A8387
:104B50005B83CD55D1401EE0130D8EE1E2E0F1E024
:104B6000DE01AF50BF4F01900D928A95E1F78DE5C0
:104B70009BE00E940D13632D7D2DC7010E94A61896
:104B80008DE49BE00E940D13C85ADE4F8881C85502
:104B9000D1400E947F1B8AE49BE00E940D13C35A00
:104BA000DE4F688179818A819B81CD55D1400E94F9
:104BB000A6188DE09BE00E940D1383E090E00E9418
:104BC000D01889E09BE00E948A178AEF9AE00E9441
:104BD0000D13A0E6BAEEC35ADE4F288139814A810F
:104BE0005B81CD55D1400E9423380E943D3620E0A4
:104BF00030E64AE657E40E94933541E050E00E94D7
:104C0000B11983EC9AE00E948A1760E0812F0E941C
:104C1000321160E0812F0E940411C85ADE4F888152
:104C2000C855D1400E948B1687B1C85ADE4F3881D3
:104C3000C855D140832B87B981E00E94C71688B13F
:104C4000C85ADE4F4881C855D140842B88B962E3E9
:104C500070E080E090E00E94DF1100E0C85ADE4F73
:104C60005881C855D140252F30E0A901002E02C03F
:104C7000559547950A94E2F740FD02C00F5FF5CFC6
:104C8000025F65E1802F0E9490162B013C0166E8CF
:104C90007BE080E090E00E94DF11CE018B5B9E4FB5
:104CA0000E945D1760E1F62E65E1812F0E9490164B
:104CB000AB01BC01CE018B5B9E4F0E94DC16FA94C7
:104CC000F110F2CF65E1802F0E9490164B015C013C
:104CD000C85ADE4F8881C855D1400E948B160E9469
:104CE0004A16C75ADE4F688379838A839B83C955E6
:104CF000D14081E00E94C71620E030EC4FE754E439
:104D0000C501B4010E9493359B01AC0160E070E0E5
:104D100080E89FE30E94213520E030E048EC52E437
:104D20000E94F2366B017C0182EB9AE00E94761DB4
:104D300041E050E0C301B2010E94B11987EA9AE054
:104D40000E940D1320E030E048EC52E4C301B201B0
:104D50000E94F23620E030EC4FE754E40E94933595
:104D600042E050E00E94B1198DE99AE00E948A1752
:104D700088E89AE00E94761D41E050E0C501B40148
:104D80000E94B1198DE79AE00E940D13A7019601C8
:104D900060E070E088EC92E40E94213542E050E04F
:104DA0000E94B1198BE69AE00E940D13C75ADE4F9C
:104DB000688179818A819B81C955D1400E943D36A5
:104DC000A70196010E94F23620E030E048EC52E460
:104DD0000E94933550E040E00E94B11986E69AE0C7
:104DE0000E948A178CE29AE00E940D1342E050E084
:104DF000C701B6010E94B11988E29AE00E948A17A1
:104E00008BE19AE00E94761DC95BDE4F6881798153
:104E10008A819B81C754D14042E050E00E94B11981
:104E20008EE09AE00E940D13CE018B5B9E4F0E9494
:104E3000DC2042E050E00E94B11989E09AE00E9433
:104E40000D13C95BDE4F488159816A817B81C7544C
:104E5000D1409E01295A3E4F832D0E94C11C0E94C1
:104E6000A618C95ADE4F8881C755D140882309F456
:104E700014C18FEF99E00E948A17CE018B5B9E4F81
:104E80000E94DC2025ED34E045EB5FE30E94F23622
:104E900020E030E040E450E40E94F236CF59DE4F8B
:104EA000688379838A839B83C156D14020E030E0B8
:104EB00040E85FE30E948E3587FF0CC080E090E001
:104EC000A0E8BFE3CF59DE4F88839983AA83BB83D1
:104ED000C156D14087EE99E00E94761D42E050E035
:104EE000CF59DE4F688179818A819B81C156D1403B
:104EF0000E94B1198CEB99E00E948A17C95BDE4FC2
:104F0000C880D980EA80FB80C754D14020E030E0DF
:104F100040E450E4C701B6010E948E35181654F4DF
:104F200020E030E04FE754E4C701B6010E94ED36BF
:104F300087FDB6C06FE779E081E00E94961781E3B4
:104F400099E00E948A178DE199E00E940D13DE011D
:104F5000AF50BF4FC75ADE4FB983A883C955D14060
:104F6000CA59DE4FB983A883C656D140312C212CB3
:104F7000CE01815F9E4F0E945D17CE018F5D9E4FD7
:104F80000E945D17CE018D5C9E4F0E945D1700E070
:104F9000412C512C3201802F90E0B0E0A0E0C35AA8
:104FA000DE4F288139814A815B81CD55D1408217FE
:104FB0009307A407B5070CF079C0C85ADE4F888163
:104FC000C855D1400E948B1668EE73E080E090E0F7
:104FD0000E94DF1188B1C85ADE4F3881C855D140D0
:104FE000832B88B90E9412124B015C01CA59DE4F13
:104FF000A881B981C656D1406D917C9190E080E046
:105000000E94DF1165E1812F0E9490166B017C01E7
:105010000E941212681979098A099B09683B7B4032
:1050200081059105A8F365E1812F0E9490164B013F
:105030005C01C85ADE4F8881C855D1400E948B164A
:10504000B701A601CE018F5D9E4F0E94DC16B5010F
:10505000A401CE018D5C9E4F0E94DC16A501940137
:10506000C701B6010E9421356B017C01BC01A6017C
:10507000CE01815F9E4F0E94DC16C701B6019F776B
:10508000A30192015F770E94ED36181614F07301A8
:1050900062010F5F260137017ECF81EF99E0EBCEF1
:1050A000CB59DE4F1882C556D1404DCFF101EE0FDE
:1050B000FF1FEE0FFF1FA1E0B0E0AC0FBD1FAE0F52
:1050C000BF1FCD5DDE4F488159816A817B81C3520C
:1050D000D1404D935D936D937C931397CB5CDE4FE2
:1050E000488159816A817B81C553D140DC964D93BB
:1050F0005D936D937C93DF97A5EBB0E0AC0FBD1F84
:10510000AE0FBF1FCF5EDE4F488159816A817B8120
:10511000C151D1404D935D936D937C93139729E7D3
:1051200030E02C0F3D1FE20FF31F4082518262825C
:105130007382F101EE0FFF1F41EF50E04C0F5D1F36
:10514000E40FF51F808191810E94D6188AE199E0D1
:105150000E940D135FEF251A350ACA59DE4F888168
:105160009981C656D1400296CA59DE4F99838883E9
:10517000C656D1409FE02916310409F0F9CE85E1E9
:1051800099E00E948A178EEC98E00E948A17DE014F
:1051900011966D014E01BDE38B0E911CFE01EB5487
:1051A000FF4F5F019E0127583F4F7901C75ADE4FDD
:1051B00008811981C955D140025E1F4F39018BEC1E
:1051C00098E00E940D13C75ADE4FA881B981C955D6
:1051D000D1406D917D91C75ADE4FB983A883C955DF
:1051E000D14090E080E00E943B3620E046E00E9403
:1051F000B31987EC98E00E940D13F601619171914B
:10520000819191916F0122E04AE00E94B31981ECF3
:1052100098E00E940D13D4016D917D918D919D9127
:105220004D0122E04AE00E94B3198EEB98E00E9403
:105230000D13F50161917191819191915F0122E0CE
:105240004AE00E94B3198BEB98E00E940D13D30142
:105250002D903D904D905D903D0122E04AE0C201CD
:10526000B1010E94B319C201B1019F77CF59DE4F3E
:10527000288139814A815B81C156D1400E948E3597
:105280001816ACF182EB98E00E940D130E9486176D
:10529000C75ADE4FE881F981C955D140E017F107BF
:1052A00009F08DCF3EE0C32ED12C0FEF1FEFD701B9
:1052B000D8966D917D918D919C91DB979F77CF5979
:1052C000DE4F288139814A815B81C156D1400E94DD
:1052D0008E3518167CF0C6010197B4E0EB1AF10880
:1052E00086018F3F980709F46DC06C01E0CF8AEA10
:1052F00098E0CACF63E578E082E00F3F1007A9F19C
:105300008EE298E00E940D13000F111F21EF30E094
:105310002C0F3D1F020F131FD8010D911C91C801C6
:105320000E94D61889E298E00E948A178EE098E0E1
:105330000E940D13C801880F991F8A30910510F43F
:105340008AE090E00E94D6188AEE97E00E948A17C1
:10535000CB59DE4FB881C556D14066EB77E081E08E
:10536000B11103C064EA77E080E00E94961788E5F7
:1053700097E00E948A178AE097E00E948A1797B107
:10538000C85ADE4F8881C855D1408095892387B996
:10539000C959DE4F0FB6F894DEBF0FBECDBFDF9107
:1053A000CF911F910F91FF90EF90DF90CF90BF9022
:1053B000AF909F908F907F906F905F904F903F90B5
:1053C0002F90089510E000E09BCF4F925F926F9274
:1053D0007F928F929F92AF92BF92CF92DF92EF9285
:1053E000FF920F931F93CF93DF93CDB7DEB76797ED
:1053F0000FB6F894DEBF0FBECDBF82EA96E00E94E2
:10540000ED1788E596E00E948A178EE096E00E94EC
:105410008A1787EF95E00E948A178FEA95E00E942D
:105420008A17812C912C5401782C1EE0180D60E015
:10543000812F0E94321160E0812F0E94041165E0EB
:1054400070E080E090E00E94DF1181E00E94C716CA
:10545000CE0101960E945D17812F0E946E1100E21D
:10546000812F0E946E11BC01990F880B990B0E942D
:105470003D36AB01BC01CE0101960E94DC16015005
:1054800079F783E00E94C71665E1812F0E9490168C
:105490006C8B7D8B8E8B9F8B81E00E94C71662E0A8
:1054A000812F0E94321163E070E080E090E00E9462
:1054B000DF1168E0812F0E9490166B017C0160E093
:1054C000812F0E94321160E0812F0E9404114B81D4
:1054D0005C816D817E819E012D5E3F4F872D0E94F4
:1054E000C11C2B013C018BEA95E00E940D134AE0A0
:1054F000C501B4010E94451887EA95E00E940D138A
:105500006B817C818D819E8121E047E00E94B319EF
:1055100084EA95E00E940D13CE0101960E94DC20E2
:1055200022E045E00E94B31981EA95E00E940D1344
:10553000C301B2010E943D3620E045E00E94B3194C
:105540008B89882309F45DC089E995E00E940D13D9
:105550008EE895E00E940D1321E048E06C897D897A
:105560008E899F890E94B31987E895E00E940D13E8
:1055700021E047E0C701B6010E94B3192B813C81AD
:105580004D815E81C701B6010E9421356B017C010E
:1055900020E030E046E953E40E94ED361816A4F509
:1055A00080E795E00E940D130E9486178FEF881AFE
:1055B000980AA80AB80A84E088169104A104B104E4
:1055C00009F032CF8AEF94E00E948A178FEB94E0C3
:1055D0000E948A1767960FB6F894DEBF0FBECDBF44
:1055E000DF91CF911F910F91FF90EF90DF90CF90BF
:1055F000BF90AF909F908F907F906F905F904F90F3
:10560000089581E995E0A2CF20E030E040EA51E43E
:10561000C701B6010E948E3587FF03C08AE595E079
:10562000C1CF86E495E0BECF1F920F920FB60F92C6
:1056300011244F935F936F937F938F939F93409128
:105640002D0250912E0260912F02709130028091B4
:105650002C0290912B02983019F510922B02909108
:105660002B02973008F1855E8D3700F18D574D5F25
:105670005F4F6F4F7F4F80932C0240932D025093CA
:105680002E0260932F02709330029F918F917F9131
:105690006F915F914F910F900FBE0F901F901895D3
:1056A0009F5F90932B02DBCF845EDECF4E5F5F4F18
:1056B0006F4F7F4FE0CF1F920F920FB60F921124C2
:1056C0002F933F934F935F936F937F938F939F930A
:1056D000AF93BF93EF93FF9383EB92E00E949E12F0
:1056E000FF91EF91BF91AF919F918F917F916F91BA
:1056F0005F914F913F912F910F900FBE0F901F9090
:1057000018951F920F920FB60F9211242F938F931B
:105710009F93EF93FF93E091C302F091C4028081C5
:10572000E091C902F091CA0282FD1BC09081809174
:10573000CC028F5F8F732091CD02821741F0E091F0
:10574000CC02F0E0ED54FD4F958F8093CC02FF9199
:10575000EF919F918F912F910F900FBE0F901F90FF
:1057600018958081F4CF1F920F920FB60F921124DB
:105770008F930FB6F894A89580916000886180930C
:105780006000109260000FBE8F910F900FBE0F90BF
:105790001F9018951F920F920FB60F9211242F93FE
:1057A0003F934F935F936F937F938F939F93AF93A9
:1057B000BF93EF93FF938091B900887F803609F4FF
:1057C0004AC0F0F5883209F4A7C018F5803109F411
:1057D0009BC0B8F4882309F405C1883009F494C04B
:1057E000FF91EF91BF91AF919F918F917F916F91B9
:1057F0005F914F913F912F910F900FBE0F901F908F
:105800001895883109F488C0803251F78093570287
:1058100014C0803409F4A5C040F48033B9F3883350
:10582000F9F68093570285ECBCC0803509F489C035
:10583000883509F49EC0883499F60E94701CD0CF38
:10584000883909F494C038F5883729F050F488363F
:1058500011F0803729F683E08093590210921A02E2
:1058600057C0883809F483C0803919F0803809F0AE
:10587000B7CF80911A02803208F079C0E0911A0205
:1058800081E08E0F80931A028091BB00F0E0E65019
:10589000FE4F80833DC0803B39F0E0F4803A09F44C
:1058A00085C0883A09F09CCF84E080935902109219
:1058B000F9011092F801E0911D02F0911E02099584
:1058C0008091F80181110FC081E08093F80110925E
:1058D000D80109C0803C09F4A6CF883C09F4A3CFC5
:1058E000883B09F07DCFE091F90181E08E0F809334
:1058F000F901F0E0E852FE4F80818093BB00909167
:10590000F9018091F80131C0809152028093BB006F
:1059100085EC8093BC0064CF909154028091530237
:105920009817B8F58091550290915602E091540273
:1059300021E02E0F20935402E80FF92FF11D8081F2
:10594000E5CF2091550230915602E091540281E05A
:105950008E0F809354028091BB00E20FF32FF11D54
:1059600080839091540280915302981788F285E8C1
:10597000D0CF2091550230915602E091540281E03F
:105980008E0F809354028091BB00E20FF32FF11D24
:10599000808380915802811150CF81E08093510221
:1059A00084EA8093BC00109259021ACF85EC809350
:1059B000BC001092590280911A02803230F4E091BA
:1059C0001A02F0E0E650FE4F108260911A0270E079
:1059D000E0911B02F0911C028AEF91E00995109270
:1059E0001A02FECE1092570228CFE3EBF2E01382A8
:1059F000128288EE93E0A0E0B0E084839583A683D2
:105A0000B7832CE531E03183208325EC30E0358706
:105A1000248724EC30E03787268720EC30E0318B78
:105A2000208B21EC30E0338B228B22EC30E0358B65
:105A3000248B26EC30E0378B268B118E128E138E42
:105A4000148EE0E5F3E01382128284839583A683AB
:105A5000B7838EE691E0918380830895CF93DF939F
:105A6000CDB7DEB7C052D1400FB6F894DEBF0FBE3F
:105A7000CDBF789484B5836084BD85B5836085BDD2
:105A800080916E00816080936E0092E0909381001F
:105A9000809180008160809380008091B10084605B
:105AA0008093B1008091B00081608093B00085E860
:105AB00080937A001092C10084B78093230214BEB1
:105AC000E091C302F091C4029083E091BF02F09193
:105AD000C0021082E091C102F091C20287E080838F
