:100000000C943A060C94E6390C940D3A0C94620662
:100010000C9462060C9462060C94E7310C94620610
:100020000C9462060C9462060C9462060C946206B0
:100030000C9462060C9462060C9462060C946206A0
:100040000C94443A0C9462060C9496380C94C8387C
:100050000C9462060C9462060C9462060C94620680
:100060000C94E1350C94620654696D653A00577240
:100070006F6E6720666F726D61743A004E657874BA
:100080002057616B6575703A000000050009000E8D
:100090000014001B0023002C00360041004D0058C6
:1000A000005F0064008403E8031A044C047E04B07B
:1000B00004E204140546057805AA05DC050E064091
:1000C00006546869732073797374656D206861766E
:1000D00065206E6F20475053206F7220497269640B
:1000E00069756D206D6F64656D20696E7374616CE8
:1000F0006C65640A00546869732073797374656D64
:100100002068617665206E6F204972696469756D3B
:10011000206D6F64656D20696E7374616C6C6564CD
:100120000A00290A0020202866756C6C2000426FA6
:100130006172642049443A0047543030312D004602
:100140006C6173682074696D656F75740A00466C24
:10015000617368206E6F7420726573706F6E64696E
:100160006E670A004D656D6F72792066756C6C0A5A
:1001700000466C6173682077726974652D656E61E5
:10018000626C65206661696C65640A00466C617327
:100190006820737461747573205352312F53523237
:1001A0003A005741524E494E473A20666C61736897
:1001B00020626C6F636B2070726F74656374696F1B
:1001C0006E206163746976652C207772697465733B
:1001D000206D6179206661696C0A004E6F74653A22
:1001E00020666C61736820514520697320636C65DB
:1001F00061722C205750232F484F4C4423206172AA
:1002000065206C6976650A005741524E494E473A5F
:1002100020666C6173682053525031207365742CD2
:100220002073746174757320726567697374657285
:10023000206C6F636B65640A005741524E494E470C
:100240003A20666C61736820535250302073657495
:100250000A0048454C50004C6F6767696E6720691B
:10026000732053555350454E44454420756E746970
:100270006C207468656E2E0A004F74686572776929
:10028000736520636C65617220746865206C6F67AC
:1002900020776974682052432E0A00546F207265DB
:1002A000636F766572207468656D2C2072652D66AB
:1002B0006C61736820746865206669726D7761721D
:1002C0006520746861742077726F74652074686546
:1002D0006D20616E642064756D70204245464F52FA
:1002E0004520636C656172696E672E0A0054686907
:1002F00073206275696C642043414E4E4F542072E6
:100300006561642074686F7365207265636F7264E1
:10031000732E0A0074686973206275696C642773B0
:10032000207369676E61747572653A0073616D70F0
:100330006C65732C207369676E61747572650069F2
:100340006E20666C6173683A004C4F4720464F52EE
:100350004D4154204348414E4745440A00434F4EC7
:1003600054206C6F6720696E20666C6173683A2058
:10037000646F776E6C6F61642069742C207468659B
:100380006E2052432E204C6F6767696E672053556D
:100390005350454E4445442E0A007365636F6E64A6
:1003A000730A00627974657320696E004C4F474888
:1003B0002061626F727465640A00496E74656C2016
:1003C00048455820666F6C6C6F77732E204B6565BF
:1003D000702066726F6D2074686520666972737430
:1003E00020273A2720746F203A30303030303030B8
:1003F0003146460A00666173743A004D49534D41D7
:100400005443483A207265636F72642073697A6559
:100410002062656C6F772069732061206775657352
:10042000732C2064756D70696E6720617400746848
:100430006973206275696C64207369676E61747595
:1004400072653A006C6F67207369676E61747572CC
:10045000653A0074686973206275696C642072651E
:10046000636F72642073697A653A006F660062791F
:100470007465733A0073616D706C65733A004C4F2C
:10048000474820726177206D656D6F7279206475C1
:100490006D700A00206572726E3D00206572723DBB
:1004A000002066617374626175643D00206261754D
:1004B000643D00207369643D0020666C6173683D93
:1004C0000020636F756E743D00207265633D0020EF
:1004D0007369673D002069643D002070726F746F1E
:1004E0003D00332E313200494E464F2066773D00A5
:1004F00046756C6C206F6E3A0046756C6C20696EA8
:10050000206D6F7265207468616E203530207965CA
:100510006172730A004D656D6F72792069732046B0
:10052000554C4C0A00730A006461797320617400B1
:1005300066726565207265636F7264732C004D6529
:100540006D6F72793A002070726F746F3D00332EB8
:1005500031320066773D004C4F474220656E640A99
:10056000004C4F47422061626F727465640A00203C
:10057000666173743D0020626C6F636B73697A65AA
:100580003D0020626C6F636B733D0020746F3D0013
:100590002066726F6D3D00207265633D004C4F47D1
:1005A0004220626567696E207369673D004C4F4762
:1005B0004220656D7074790A004C4F474220656D8A
:1005C0007074790A004C6F6720656D7074790A0049
:1005D00073616D706C657320706572207365636FF5
:1005E0006E6429007365636F6E6473007472616E6C
:1005F000736D697474656420696E00546865207653
:10060000616C7565732062656C6F7720617265201F
:100610006D69737061727365642E2052652D666C0E
:1006200061736820746865206669726D77617265B0
:1006300020746861742077726F7465207468656DCA
:1006400020746F2072656164207468656D2E0A00E5
:100650005741524E494E473A20746865736520727F
:1006600065636F7264732077657265207772697451
:1006700074656E20776974682061206469666665B8
:1006800072656E74206368616E6E656C207365744C
:100690002E0A00434F4E54206C6F673A20646F77E8
:1006A0006E6C6F6164206974207769746820746867
:1006B000652061707020284C4F4742292C206F72B2
:1006C000204C4F4748202B206465636F64655F6C46
:1006D0006F67682E70790A004C4956452074696D21
:1006E000656F75740A004C49564520656E640A00B2
:1006F0006D73004C49564520626567696E206576CA
:10070000657279004C49564500484174656D70C268
:10071000B0430052480054656D70C2B04300566F3C
:100720006C74002020202020202020202020202049
:1007300020202054696D650053616D706C65202325
:100740000054696D65004572726F723A204D6561A3
:10075000737572656D656E74204E4F542073746F9F
:100760007265640A004C6F6720666F726D61742059
:100770006368616E6765643A20636C6561722077B7
:100780006974682052432E204E4F54206C6F676767
:10079000696E672E0A004D656D6F72792072657300
:1007A00065740A00436F756E74206D61786F75749F
:1007B0000A00292C206E6F742073746F7265640AAE
:1007C00000746F004F7574206F662072616E6765EC
:1007D000202800426164206C6F7720766F6C746112
:1007E0006765206D756C7469706C69657220696EDF
:1007F00020454550524F4D2C207573696E6720641B
:10080000656661756C740A0042616420525443202D
:1008100061646A75737420696E74657276616C20A8
:10082000696E20454550524F4D2C207573696E6797
:100830002064656661756C740A00426164207469A5
:100840006D657A6F6E6520696E20454550524F4D3B
:100850002C207573696E67205554430A0042616409
:1008600020696E74657276616C20696E2045455012
:10087000524F4D2C207573696E67206465666175F3
:100880006C740A00434F4E46494755524154494FF4
:100890004E0A00094177616B65206D7320707265A7
:1008A0002F6D6561732F706F73742C206D61783AB2
:1008B00020006D730A0020746F74616C0009417729
:1008C000616B65206D73207072652F6D6561732F8C
:1008D000706F73742C206C6173743A0073206163C1
:1008E00063756D756C61746564290A00095254431F
:1008F0002061646A75737465642062793A004E659C
:1009000076657200094C6173742074696D652063AB
:100910006865636B3A0064617973290A0025206F6A
:100920007665720064617973202864726F700009C3
:10093000457870656374656420626174746572796A
:10094000206C6966653A00646179732072756E6E19
:10095000696E670A0009536573696F6E207374616D
:1009600072743A006661696C656420617474656DC7
:1009700070747320286C617465737420636F646590
:10098000206C617374290A002C004E6F206572720E
:100990006F72730A000953656E736F72206572720D
:1009A0006F72733A0020204669726D77617265201C
:1009B0006275696C743A002020525443207265615C
:1009C00064733A004552524F523A205254432063C6
:1009D0006C6F636B206E6F74207365740A004261E4
:1009E00074742E3A004E614E0A0048756D69646950
:1009F00074793A00C2B0430A004E614E0A00546551
:100A00006D70657261747572652028544D50313176
:100A100039293A00C2B0430A004E614E0A005465BB
:100A20006D70657261747572652028484443313079
:100A30003830293A004D6561737572656D656E7465
:100A400020636F756E743A004E657874206D656131
:100A5000737572656D656E743A004D65617375727C
:100A6000656D656E7420696E74657276616C3A00AE
:100A70007329002057616974696E6720636F6D6D1B
:100A8000616E64732028666F72006F6666006F6E19
:100A9000006D73206865617465723D006D7320643C
:100AA000726966743D006D73206D61783D006D73F1
:100AB000206D65616E3D00206475723D00206E3DC5
:100AC00000626174746572790066756C6C0074699B
:100AD0006D650073746F7000434F4E5420656E64F3
:100AE00020726561736F6E3D00730A0020743D00D3
:100AF000434F4E54206E3D00207265633D006F668B
:100B000066006F6E00434F4E5420626567696E2029
:100B10006865617465723D00434F4E54206E656593
:100B2000647320616E20656D707479206C6F673A14
:100B300020646F776E6C6F61642069742C20746818
:100B4000656E2052430A00536C656570696E672EAE
:100B50002E2E0A004461696C7920636F646500552C
:100B60007365204E4C207465726D696E61746564A6
:100B700020636F6D6D7300556E7265636F676E698C
:100B80007A656420636F6D6D616E643A00434F4E09
:100B9000542069646C650A004C4F5720564F4C54E2
:100BA0004147450A00435249544943414C4C59007E
:100BB00048412054454D500054454D502B5248005B
:100BC000525443006D656D6F72792064657465637E
:100BD0007465640A004E6F004D4200475446570149
:100BE000475430303100332E3132004F63742020AF
:100BF000372032303236000F10200C010000000088
:100C0000000000000000000041300041310041328E
:100C10000041330000000009000302000004050841
:100C200000000000000000000000000102040810A5
:100C30002040800102040810200102040810204016
:100C400080400404040404040404020202020202B8
:100C5000030303030303020203000000002500282E
:100C6000002B0000000000240027002A0000710F64
:100C70005C33F83811241FBECFEFD8E0DEBFCDBF04
:100C800012E0A0E0B1E0E0E7FAE702C005900D92C3
:100C9000A834B107D9F724E0A8E4B2E001C01D925E
:100CA000A737B207E1F716E0CAE3D6E004C0219700
:100CB000FE010E94B23CC733D107C9F70E94353A02
:100CC0000C94363D0C9400000895DC01ED91FC91EC
:100CD0000190F081E02D0994FC01662359F12481F3
:100CE0003581C9010196428153818417950710F51A
:100CF000A081B181A20FB31F958384836930C1F4B1
:100D000080E28C93A081B18124813581A9014F5F5C
:100D10005F4F55834483A20FB31F8C9380819181D1
:100D20000480F581E02DE80FF91F108281E008951D
:100D30006C93F4CF80E008950F931F93CF93DF93CC
:100D40008C01EB016991C8010E946C068111FACFF8
:100D5000DF91CF911F910F9108958F929F92AF9243
:100D6000BF92CF92DF92EF92FF920F93CF93DF93D8
:100D7000CDB7DEB72E970FB6F894DEBF0FBECDBF4E
:100D80006C01CB01BA0159012AE0AE014F5F5F4F00
:100D90004A010E94EE3CF40101900020E9F73197EE
:100DA0007F01E818F908F601638581E090E06111A0
:100DB00002C090E080E09501281B390BE216F30693
:100DC00044F4602FC6010E946C063FEFE31AF30A59
:100DD000EACF662319F0C6010E946C06F60113865D
:100DE000B401C6010E949C062E960FB6F894DEBF91
:100DF0000FBECDBFDF91CF910F91FF90EF90DF90AD
:100E0000CF90BF90AF909F908F900895FC0180810C
:100E100091810C94203D1F93CF93DF93EC01162F0B
:100E20000E940607811729F0612F888199810E940D
:100E3000283DCE01DF91CF911F910895EF92FF924F
:100E40000F931F93CF93DF9300D0CDB7DEB78C0104
:100E50007B019A838983FB016081CE0101960E9408
:100E60000B070F5F1F4F1A830983F7016181CE01C2
:100E700001960E940B07C7010F900F90DF91CF9151
:100E80001F910F91FF90EF900895AF92BF92CF9274
:100E9000DF92EF92FF920F931F93CF93DF9300D0D7
:100EA000CDB7DEB78B016B0124E0C20ED11C7B01F4
:100EB0005C01A61AB70AC5018E0D9F1D9A8389830E
:100EC000F70161917F01CE0101960E940B07EC149E
:100ED000FD0489F7C8010F900F90DF91CF911F910A
:100EE0000F91FF90EF90DF90CF90BF90AF9008955B
:100EF000EF92FF920F931F93CF93DF9300D0CDB764
:100F0000DEB78C017B019A838983FB016081CE016E
:100F100001960E940B070F5F1F4F1A830983F70189
:100F20006181CE0101960E940B07C7010F900F90BF
:100F3000DF91CF911F910F91FF90EF900895DC0109
:100F4000ED91FC910190F081E02D09948EBD00009F
:100F50000DB407FEFDCF8EB5089520917904309130
:100F60007A0490E0A9014F7055274817590759F0A6
:100F700044E0220F331F4A95E1F7282B392B309399
:100F80007A042093790480917704909178048F3FBC
:100F9000980729F001969093780480937704089538
:100FA000CF93DF93D82FC0E0CD17B1F061E08AE096
:100FB0000E94CD3B62E370E080E090E00E94EA3A5C
:100FC00060E08AE00E94CD3B62E370E080E090E068
:100FD0000E94EA3ACF5FE8CFDF91CF910895CF9397
:100FE000C82F60E470E086E293E00E94DE3262E0A7
:100FF00070E086E293E00E949F0760E170E0CC23FE
:1010000011F060E370E086E293E00E949F0770E0D9
:1010100060E086E293E00E949F0786E293E0CF9132
:101020000C945933EF92FF920F931F93CF93DF935A
:101030007C0100E211E0D0E0C0E043E050E0B80104
:10104000C7010E94D63C892B41F48C2FDF91CF91B0
:101050001F910F91FF90EF90089521960D5F1F4F04
:10106000C530D10551F78FEFF1CFDB01FA018230A6
:1010700009F441C030F48823C1F0813049F180E0A7
:101080000895833009F44AC08430C9F71D921D9237
:101090001D921C9213978FEF90E0A0E0B0E0808348
:1010A0009183A283B38381E0089541E050E060E042
:1010B00070E04D935D936D937C93139780E891E579
:1010C000A1E0B0E080839183A283B38381E008959F
:1010D00041E050E060E070E04D935D936D937C9350
:1010E000139788E190E0A0E0B0E080839183A28331
:1010F000B38381E0089544EF5FEF6FEF7FEF4D938F
:101100005D936D937C9313978EE090E0A0E0B0E048
:1011100080839183A283B38381E0089541E050E00E
:1011200060E070E04D935D936D937C9313978DE633
:1011300091E0A0E0B0E080839183A283B38381E05B
:101140000895FC0140835183628373833583248334
:10115000809157029091580297838683809155021F
:1011600090915602918780878091070190910801A4
:10117000938782870895382FFC01CA012E2F231BE5
:10118000261788F42191AC01522728E0CA01880F64
:10119000991F57FF04C041E2842740E19427215062
:1011A000AC01A1F7EBCF08950F931F93CF93DF937B
:1011B00000D000D0CDB7DEB78C019A838983CE01F1
:1011C00001960E9406078B830F5F1F4F1A830983C6
:1011D000CE0101960E9406078C838B819C810F9023
:1011E0000F900F900F90DF91CF911F910F91089565
:1011F00083EB90E00E94D40821E08F30904209F008
:1012000020E0822F08950E94F808811102C08CE02E
:1012100008958EE008950F931F93CF93DF9300D02E
:1012200000D0CDB7DEB78C019A838983CE010196B9
:101230000E9406078B830F5F1F4F1A830983CE011D
:1012400001960E9406078C838B819C810F900F90E2
:101250000F900F90DF91CF911F910F910895CF9232
:10126000DF92EF92FF920F931F93CF93DF9300D003
:1012700000D000D0CDB7DEB77E0125E0E20EF11C34
:101280008E010F5F1F4F6C01C01AD10AC601800F7B
:10129000911F9E838D83C7010E940607F8018193E9
:1012A0008F01EE15FF0591F769817A818B819C8111
:1012B00026960FB6F894DEBF0FBECDBFDF91CF915B
:1012C0001F910F91FF90EF90DF90CF900895CF92F4
:1012D000DF92EF92FF92CF93DF93D0E0C0E0C12C7A
:1012E000D12C7601CE010E942F09C60ED71EE81E12
:1012F000F91E2496C837D105A9F7C701B601DF91B9
:10130000CF91FF90EF90DF90CF900895CF92DF9232
:10131000EF92FF920E9467096B017C0188E790E0E1
:101320000E942F09A7019601261B370B480B590B6A
:10133000CA01B901FF90EF90DF90CF900895CF934D
:1013400060E086E00E94CD3B85E30E94A60780E036
:101350000E94A607C82F61E086E00E94CD3B8C2F3B
:10136000CF9108950F931F93CF93DF93EB01182F25
:10137000042F60E086E00E94CD3B802F0E94A607EC
:10138000812F0E94A6078D2F0E94A6078C2FDF9128
:10139000CF911F910F910C94A6078F929F92AF92BD
:1013A000BF92CF92DF92EF92FF920F931F93CF9352
:1013B000DF937A014801590143E00E94B209E70135
:1013C000C12CD12C7601C814D904EA04FB0451F0D5
:1013D00080E00E94A60789938FEFC81AD80AE80A0E
:1013E000F80AF1CF61E086E0DF91CF911F910F9174
:1013F000FF90EF90DF90CF90BF90AF909F908F9035
:101400000C94CD3BCF9360E086E00E94CD3B85E01D
:101410000E94A60780E00E94A607C82F61E086E030
:101420000E94CD3B8C2FCF9108958F929F92AF92C7
:10143000BF92CF92DF92EF92FF9260E086E00E942F
:10144000CD3B8FE90E94A60780E00E94A60780E0BE
:101450000E94A60780E00E94A60790E030E020E00E
:10146000812C912C54018394281739073CF4880C63
:10147000991CAA1CBB1C2F5F3F4FF6CF84E190E064
:10148000C12CD12C7601C394CC0CDD1CEE1CFF1CAE
:101490000197D1F761E086E00E94CD3BC501B40120
:1014A000A70196010E944E3C822FFF90EF90DF90A3
:1014B000CF90BF90AF909F908F9008950F931F9300
:1014C000CF93DF938C0160E086E00E94CD3B8BE4FC
:1014D0000E94A60780E00E94A60780E00E94A6075F
:1014E00080E00E94A60780E00E94A607E801085F4E
:1014F0001F4F80E00E94A6078993C017D107C9F744
:1015000061E086E0DF91CF911F910F910C94CD3B6C
:101510000F931F93CF93DF9300D0CDB7DEB702E0D8
:1015200010E020E030E0AE014F5F5F4F0E94CD0938
:1015300089819A810F900F90DF91CF911F910F9128
:1015400008950F931F93CF93DF9300D000D0CDB7B2
:10155000DEB704E010E020E030E0AE014F5F5F4F07
:101560000E94CD0969817A818B819C810F900F90B7
:101570000F900F90DF91CF911F910F9108958F7071
:101580008A3010F4805D0895895C0895FF920F936E
:101590001F93CF93DF93EC01F62E6DE370E00E9472
:1015A000CB3C009711F0EC012196EFEF60E070E08A
:1015B000CB0100E0F0E019911D3209F442C01B326A
:1015C000D1F31E3209F43FC020ED210F2A3018F567
:1015D000EF158CF7611521EE720725EF820725E0E4
:1015E0009207BCF4AAE0B0E09B01AC010E948B3CE6
:1015F000212F110F330B20533109032E000C440B04
:10160000550B620F731F841F951FE7FDD4CFEF5F4B
:10161000D2CF01E0FACF103271F2E7FDE0E0EF1532
:10162000A4F4611521EE720725EF820725E09207E9
:1016300074F4AAE0B0E09B01AC010E948B3CEF5F28
:10164000EECFF1E0B8CFE0E0B6CF002359F060E094
:101650007CE68AEC98E8F1110EC060E074E985E35D
:1016600097E709C0FF2339F09095809570956195B3
:101670007F4F8F4F9F4FDF91CF911F910F91FF9021
:101680000895CF93DF93EC019E012F5F3F4F888138
:101690008032D1F020E030E0A901E99180ED8E0F99
:1016A0008A30A0F4AAE0B0E00E948B3C2E2FEE0F0F
:1016B000330B20533109032E000C440B550B260F1E
:1016C000371F481F591FE9CFE901DECFCA01B90111
:1016D000DF91CF9108958F929F92AF92BF92CF9258
:1016E000DF92EF92FF929B0150E040E0C12CD12CA1
:1016F0007601421753077CF4FC0181909190CF0151
:10170000092C000CAA08BB08C80CD91CEA1CFB1C3D
:101710004F5F5F4FEECFC90137FD019695958795D5
:10172000092E000CAA0BBB0BBC01CD016C0D7D1D5D
:101730008E1D9F1D032E000C440B550B0E944E3C2A
:10174000C901FF90EF90DF90CF90BF90AF909F9036
:101750008F90089562E082E00E94913B61E08AE010
:101760000E94913B60E08AE00E94CD3B61E085E011
:101770000E94913B60E085E00E94CD3B60E086E006
:101780000E94913B83E00E94473B60E087E00E941B
:10179000913B61E086E00E94913B60E086E00E9420
:1017A000CD3B61E084E00E94913B60E084E00E94D8
:1017B000CD3B60E083E00E94913B60E083E00E94CB
:1017C000CD3B60E08EE00E94913B60E08EE00E94A5
:1017D000CD3B60E08FE00E94913B60E08FE00E9493
:1017E000CD3B60E080E10E94913B60E080E10E949F
:1017F000CD3B60E081E10E94913B60E081E10C948F
:10180000CD3B50E040E064E676E080E00E94B439F1
:1018100060E070E0CB010E94EA3A30E020E050E066
:1018200040E06AE070E085E293E00C949931AF9279
:10183000BF92DF92EF92FF920F931F93CF93DF93AC
:10184000CDB7DEB7AA970FB6F894DEBF0FBECDBFF7
:10185000F82E0E944A3B8E010F5F1F4F5E018BE204
:10186000A80EB11CD02EE12E8F2D0E944A3BF8010C
:10187000819391938F01EA15FB05B1F765E170E063
:101880008D2D9E2D0E946B0BAA960FB6F894DEBF8D
:101890000FBECDBFDF91CF911F910F91FF90EF90C1
:1018A000DF90BF90AF90089586E00C94170C8F9254
:1018B0009F92AF92BF92CF92DF92EF92FF920F93DF
:1018C0001F93FC01C8016217730719F16901330FF7
:1018D000EE08FF084B01072E000CAA08BB08C81829
:1018E000D908EA08FB089A012E1B3F0BD801A61B5A
:1018F000B70B0E946D3C4B015C01DF01A701960113
:101900000E94963C680D791D8A1D9B1D0E944E3CCD
:10191000C9011F910F91FF90EF90DF90CF90BF9082
:10192000AF909F908F900895AF92BF92CF92DF9229
:10193000EF92FF920F931F93CF93DF93EC018B01F4
:1019400006960E940B095C01CE0104960E940B09C9
:101950006C01CE0102960E940B097C01CE010E940F
:101960000B099501A601B7010E94570CDF91CF9199
:101970001F910F91FF90EF90DF90CF90BF90AF90AD
:1019800008950E94540CBC018BE890E00C94940CD8
:10199000EF92FF920F931F93CF93DF93E5EAF0E06E
:1019A00025913491281739070CF04CC0EFEBF0E08B
:1019B00025913491821793070CF041C062E070E0EA
:1019C00041E050E0FB01EB55FF4FC591D491C817A2
:1019D000D9076CF141505109440F551FFA01EB55DD
:1019E000FF4F05911491FA01E757FF4FE590F490EE
:1019F000FB01E757FF4FA591B4919C01201B310BD0
:101A0000AE19BF090E946D3C9E01201B310B032EB5
:101A1000000C440B550B0E944E3CC701820F931FD4
:101A2000DF91CF911F910F91FF90EF9008954F5F3D
:101A30005F4F6E5F7F4F4E30510509F0C3CF84E694
:101A400090E0EECF90E080E0EBCF0E94C10C0C94D0
:101A5000C80CCF93DF9380E890E00E94D4080E94E6
:101A6000C80CEC010E94250D9E01281B390BC901F1
:101A7000DF91CF910895623071058105910560F085
:101A80006D3371058105910548F061317E40810516
:101A9000910530F088E008958FE008958EE0089574
:101AA0008CE00895CF92DF92EF92FF92FC012381A8
:101AB00030E0A0E1BEE00E94753C6B017C01248116
:101AC00030E0ACE3B0E00E94753C6C0D7D1D8E1DD6
:101AD0009F1D2581620F711D811D911DFF90EF904B
:101AE000DF90CF9008956150262F2695422F50E029
:101AF0002EE1629F400D511D1124E62FF0E0E95EBA
:101B0000FD4F2081240F352F311D2250310941E036
:101B100050E0623010F050E040E0240F351F41E00B
:101B200050E0613011F050E040E0240F351F837029
:101B30009927892B19F481E0623008F480E0820F44
:101B4000932F911D08958F929F92AF92BF92CF9243
:101B5000DF92EF92FF920F931F93CF93DF93EA01EF
:101B600059018F3F910514F48053984F4C0120ED9B
:101B7000821A27E0920A640197FE03C023E0C20E96
:101B8000D11CD594C794D594C7949C012370332756
:101B9000232B19F02FEFC21AD20A0E94730DFC01F9
:101BA0008CE3809FB001819F700D1124072E000CE3
:101BB000880B990B0F2C000C000B110BE60EF71E77
:101BC000081F191F20E13EE0D5010E94843CE60E6B
:101BD000F71E081F191FD40120E833E341EE51E03E
:101BE0000E94963C47015801860E971EA81EB91EFA
:101BF000DE01AE0FBF1FAC0DBD1D119720E831E512
:101C000041E050E00E94963C680D791D8A1D9B1DA5
:101C1000DF91CF911F910F91FF90EF90DF90CF90C8
:101C2000BF90AF909F908F9008952F923F924F92C8
:101C30005F926F927F928F929F92AF92BF92CF925C
:101C4000DF92EF92FF920F931F93CF93DF93CDB765
:101C5000DEB764970FB6F894DEBF0FBECDBF2B0181
:101C60003C015A8B498B80E1E5E3F1E0DE011196FE
:101C700001900D928A95E1F78E010F5F1F4F1E01B3
:101C800021E1220E311CF801C190D190E190F19038
:101C90008F01C301B201A70196010E942C3C4B01A8
:101CA0005C019801245031093C8B2B8BC301B2019C
:101CB000681979098A099B09A70196010E942C3CA1
:101CC000EB89FC89208331834283538324013501CE
:101CD00020163106C1F68D819E81AF81B88530E036
:101CE00020E08E36F1E09F07A105B10580F0BC0130
:101CF000CD0161507109810991092DE631E040E083
:101D000050E00E942C3C6D837E838F8398870981ED
:101D10001A81000F111F000F111F020F131FCD801A
:101D2000DE802FEFC21AD20A9CE0792E672DC801FF
:101D30000E94730DF601E81BF90BCF012FEF270D61
:101D40001E161F061CF5E989FA89008371828283B9
:101D5000898583838D858483858264960FB6F89404
:101D6000DEBF0FBECDBFDF91CF911F910F91FF90CE
:101D7000EF90DF90CF90BF90AF909F908F907F902B
:101D80006F905F904F903F902F900895722ECECF1E
:101D90000F931F9360915F027091600280916102C6
:101DA0009091620200916F02109170022091710275
:101DB00030917202601B710B820B930B20E633E0B3
:101DC00040E050E00E942C3CCA01B9011F910F91E4
:101DD0000895CF92DF92EF92FF92CF93DF930E940C
:101DE000290DEC018FEF9FEF1C161D06C4F40E9415
:101DF000250D7C010E94C80E9B01AC01D7010E94F9
:101E0000963C6B017C0124E630E0DE010E94843CBC
:101E10009B01AC01C701B6010E944E3CC901DF9194
:101E2000CF91FF90EF90DF90CF9008956AE00E94ED
:101E30000C3C8295807F890F0895982F92959F7012
:101E40008F702AE0929F800D11240895CF93C82FA0
:101E500068E670E086E293E00E94DE32CC2339F03F
:101E60006FE070E086E293E0CF910C949F076EE004
:101E700070E086E293E0CF910C949F07682F86E292
:101E800093E00E94D43286E293E00E94593391E0BD
:101E9000811190E0892F08950F931F93CF938C01A8
:101EA000C3E0F8010995882349F00E94AD07C150AD
:101EB000C1F780E0CF911F910F91089581E0FACF93
:101EC0008BE990E30E944C0F81110AC080E090E8FA
:101ED0009093580280935702909356028093550234
:101EE0000895E7E7F2E0A5E8B2E0B183A08380EAD5
:101EF00090E093838283158214821782168280E297
:101F00008087118612861386848781E085871C92DC
:101F10000895FC0101900020E9F73197AF01481BBB
:101F2000590BBC0184ED93E00C942539CF93DF93DA
:101F3000EC011F821E8280E28C8788878D85882332
:101F400021F0888199810E94890F1D821C82E8817D
:101F5000F9811082DF91CF910895CF93DF93EC0147
:101F60008C819D810097E9F048815981FA01E80F41
:101F7000F91F319720812A30C1F48230910570F029
:101F80000297480F591FFA0130812C85321306C081
:101F90009D838C836AE0CE010E946C06CE010E9474
:101FA000960FCE01DF91CF9108956C856623C9F31A
:101FB000277F2032B1F3CE010E946C06F2CFEF9260
:101FC000FF920F931F93CF93DF93EC0180E5860F71
:101FD000803148F48A87CE01DF91CF911F910F9114
:101FE000FF90EF9008956B3219F481E08987F3CF69
:101FF0006D3A11F41C86EFCF6E3A39F482E090E02E
:102000009F838E8380E38887F5CF6F3A31F41F82F8
:102010001E8280E28C878887DECF603A21F4CE0171
:102020000E94960FD8CF80E4860F803140F4062EB0
:10203000000C770B605C7F4F7F836E83CCCF80E397
:10204000860F8031B8F4062E000C770B605D7F4F51
:102050008AE0869F7001879FF00C112410E000E059
:102060006AE2CE010E946C060F5F1F4FE016F10678
:10207000BCF7B1CFCE010E946C06CE010E94AD0F1D
:10208000AACF6AE087E792E00C94DF0F0F931F93CB
:10209000CF93DF9300D0CDB7DEB78C011A830983CD
:1020A000CE0101960E9406070F5F1F4F882361F043
:1020B00010928302CE0101960E940607682F87E7DF
:1020C00092E00E94DF0FEACF0F900F90DF91CF9147
:1020D0001F910F910895EF92FF920F931F93CF934B
:1020E000DF93C0E2D1E080E1E82E81E0F82E0BE042
:1020F00011E010928302688187E792E00E94DF0F6F
:1021000069810E94DF0F6A810E94DF0F69E00E94EF
:10211000DF0FF701819191917F01F80121918F01EA
:10212000820F911D0E9446100E9441102396F1E0FB
:10213000CF32DF07F1F6DF91CF911F910F91FF9022
:10214000EF9008959F92AF92BF92CF92DF92EF925D
:10215000FF920F931F93CF93DF93F82E8B01942E52
:10216000E52ED22FC22FC80FC60FC10F10928302C7
:102170006AE387E792E00E94DF0F5C01CD2ED12C4D
:102180008D2F82958F700E94BF0A682FC5010E9413
:10219000DF0F5C018D2F0E94BF0A682FC5010E94CE
:1021A000DF0F5C01812F82958F700E94BF0A682F1C
:1021B000C5010E94DF0F5C01812F0E94BF0A682FBA
:1021C000C5010E94DF0F5C01C80124E09695879548
:1021D0002A95E1F70E94BF0A682FC5010E94DF0F10
:1021E0005C01802F0E94BF0A682FC5010E94DF0F8B
:1021F0008C018F2D82958F700E94BF0A682FC801B5
:102200000E94DF0F8C018F2D0E94BF0A682FC8012A
:102210000E94DF0F092D1E2D7801EC0CFD1CE0162D
:10222000F106C1F0F80181918F01C80F82958F707E
:102230000E94BF0A682F87E792E00E94DF0F6C01BF
:10224000F801319780810E94BF0A682FC6010E9461
:10225000DF0FE5CFC1958C2F82958F700E94BF0A4A
:10226000682F87E792E00E94DF0F8C018C2F0E947D
:10227000BF0A682FC8010E94DF0F6AE0DF91CF918B
:102280001F910F91FF90EF90DF90CF90BF90AF9094
:102290009F900C94DF0FCF92DF92FF920F931F93CA
:1022A000CF93DF93CDB7DEB728970FB6F894DEBF94
:1022B0000FBECDBFF82ECE0101960E945E0A10928D
:1022C000830201E010E00C0F1D1F0F0D111D87E0B0
:1022D0008F15C0F0F80181918F0182958F700E9457
:1022E000BF0A682F87E792E00E94DF0F6C01F801B8
:1022F000319780810E94BF0A682FC6010E94DF0FBC
:10230000F394E5CF10927E0210927D0280E28093DA
:10231000830280937F0228960FB6F894DEBF0FBE2B
:10232000CDBFDF91CF911F910F91FF90DF90CF90A4
:10233000089580E00C944B11CF93DF93EC010E9441
:102340009C06CE01DF91CF910C94AD0F0F931F939C
:10235000CF93DF938C011092830261E571E087E7F0
:1023600092E00E949C11CCE0D0E0C8010C2E02C08B
:10237000969587950A94E2F70E94BF0A682F87E72F
:1023800092E00E94DF0F2497CC3F8FEFD80769F7C8
:1023900010927E0210927D0280E2809383028093ED
:1023A0007F02DF91CF911F910F9108950F931F939B
:1023B000CF93C82F1092830261E571E087E792E026
:1023C0000E949C118C018C2F82958F700E94BF0AF5
:1023D000682FC8010E94DF0F8C018C2F0E94BF0A5A
:1023E000682FC8010E94DF0FFC011782168280E26D
:1023F00084878087CF911F910F9108950F931F932A
:10240000CF93DF938C01EB01FE016491C8010E9420
:102410006C0621968111F8CFC801DF91CF911F91F1
:102420000F910C94AD0F0F931F93CF93DF93182F41
:10243000D92F062FC42F109283026CE287E792E017
:102440000E94DF0FC11119C060E287E792E00E948D
:10245000DF0FE12FFD2F8491882331F0807C8038BD
:1024600009F0CF5F3196F7CFC01738F460E287E705
:1024700092E00E94DF0FCF5FF7CF612F7D2F87E7BC
:1024800092E0DF91CF911F910F910C94FE11CF93A9
:10249000C82F10928302882321F161E477E087E757
:1024A00092E00E94FE114C2F65E08EE197E00E94C1
:1024B00013124C2F67E086E197E00E9413124C2F15
:1024C00065E083E197E00E9413124C2F68E089E0F9
:1024D00097E00E9413126AE087E792E0CF910C9494
:1024E000DF0F68EC87E792E00E94DF0F68E377E098
:1024F0000E94FE116CE20E94DF0F63E277E00E940F
:10250000FE11D1CF8F929F92AF92BF92CF92DF9266
:10251000EF92FF920F931F93CF93DF9300D0CDB72D
:10252000DEB761ED87E792E00E94DF0F62E572E0BF
:102530000E94FE1161ED0E94DF0F6AE00E94DF0F32
:1025400000E611E0F12CE12C9AE0A92EB12C1A83BF
:102550000983CE0101960E9406079FEFE91AF90A46
:102560008432E9F445018E189F08181419041CF0F0
:1025700088248394912CD12CC12C60E287E792E0CF
:102580000E94DF0F8FEFC81AD80AC814D904ACF321
:102590000F5F1F4F011594E01907C9F604C08111A0
:1025A00013C00E9441100E946B100F900F90DF919A
:1025B000CF911F910F91FF90EF90DF90CF90BF9040
:1025C000AF909F908F9008958A3029F40E94411017
:1025D000F12CE12CDDCF10928302682F87E792E087
:1025E0000E94DF0FD5CFCF93C82F8B3A71F461E0F3
:1025F00084E00E94CD3B61E086E00E94CD3B61E03B
:1026000070E080E090E00E94EA3A60E086E00E949C
:10261000CD3B8C2F0E94A60761E086E00E94CD3B57
:10262000C63019F081E0CF9108950E94020A81FD21
:10263000F9CF61E771E087E792E00E94FE1180E048
:10264000F2CF89EB0E94F31261E086E00C94CD3B5F
:10265000CF92DF92EF92FF92CF930E948B3A6B0161
:102660007C01C0E00E948B3A6C197D098E099F099C
:10267000683E734081059105F0F40E94020A8F3F85
:1026800081F4CF5FC63080F06EE471E087E792E0BE
:102690000E94FE1180E0CF91FF90EF90DF90CF90ED
:1026A000089580FF10C0C0E061E070E080E090E03D
:1026B0000E94EA3AD7CF6FE371E087E792E00E9489
:1026C000FE1180E0E8CF81E0E6CFCF93DF930E9458
:1026D000020AD82F0E949F09C82FD7FF06C069E3BE
:1026E00072E087E792E00E94FE11C0FF06C068E03A
:1026F00072E087E792E00E94FE11C1FD06C06BED1B
:1027000071E087E792E00E94FE118D2F8C7331F00B
:1027100062EA71E087E792E00E94FE116CE871E0E6
:1027200087E792E00E94FE118D2F0E94D611109231
:1027300083026FE287E792E00E94DF0F8C2F0E94F6
:10274000D61110927E0210927D0280E28093830265
:1027500080937F02DF91CF910C94411010928302FD
:1027600068E371E087E792E00E94FE1185E00C9437
:102770004B11CF93DF936EE271E087E792E00E9406
:10278000FE110E94AE13C7E7D2E01C8665E271E03D
:10279000CE010E94FE110E9499111C8662E271E036
:1027A000CE010E94FE11FC011782168280E284870E
:1027B0008087DF91CF9108958BEA0E94F3120E94E7
:1027C000B9130C94211365EF70E087E792E00C9445
:1027D000FE1161EC70E087E792E00C94FE111F930C
:1027E000CF93DF9300D0CDB7DEB713E08091100117
:1027F000909111010E942F096093690270936A02FF
:1028000080936B0290936C02615071098109910968
:102810006038714581409105A0F0115039F76DE5A0
:1028200078E087E792E00E94FE1188E592E0A0E060
:10283000B0E08093690290936A02A0936B02B09318
:102840006C0213E080911401909115010E940B0914
:1028500090937602809375020C964B9760F011501E
:1028600089F76AE378E087E792E00E94FE11109210
:1028700076021092750213E0809116019091170173
:102880000E94D408909374028093730201978D364E
:10289000914070F0115081F768E078E087E792E0AE
:1028A0000E94FE118EE190E0909374028093730277
:1028B00013E080911201909113019A838983CE01D4
:1028C00001960E94060780930A018150883158F0D2
:1028D000115079F763ED77E087E792E00E94FE11EF
:1028E00081E080930A010F900F90DF91CF911F91AB
:1028F00008950F931F93CF93DF9300D000D0CDB7EF
:10290000DEB710E000E0C8010E942F09603523EC1B
:10291000720781059105B8F46F5F7F4F8F4F9F4F0E
:1029200069837A838B839C83BE016F5F7F4FC8016D
:102930000E9445070F900F900F900F90DF91CF915D
:102940001F910F9108950C5F1F4F08371105D9F69D
:1029500064EA77E087E792E00E94FE11EBCF5F9296
:102960006F927F928F929F92AF92BF92CF92DF929F
:10297000EF92FF920F931F93CF93DF93EC016A01C5
:102980007B010A8558846E807F80002309F459C03A
:1029900010E021E030E040E050E0F0E0E0E0AAE0CC
:1029A000B0E00E948B3C9B01AC013196E017F1072F
:1029B000B4F3C701B6010E942C3C49015A0121E041
:1029C00030E040E050E0F0E0E0E0AAE0B0E00E945B
:1029D0008B3C9B01AC013196E017F107B4F3C501C4
:1029E000B4010E94FC3BC61AD70AE80AF90A0F5F35
:1029F0001F4F9301201B310B052DB501A401CE0102
:102A00000E94AD066EE2CE010E946C062A8530E07F
:102A100000E3B701A601CE010E94AD061A86CE01E1
:102A2000DF91CF911F910F91FF90EF90DF90CF90AA
:102A3000BF90AF909F908F907F906F905F900C941D
:102A4000AD0F052D93010E94AD06E9CF77FF0EC0B3
:102A50002DE2FC01238770956095509541955F4F5D
:102A60006F4F7F4FFC0111860C94AF14FC01218540
:102A70002223C1F32BE22387F5CFAB01770F660B3F
:102A8000770B0C942615CF93DF93C7E7D2E01C8613
:102A900063E575E0CE010E94FE116EE475E00E94D0
:102AA000FE1166E475E0CE010E94FE1167E070E061
:102AB0000E943D151F821E8280E28C878887DF91ED
:102AC000CF910C9441101F93CF93DF93EC01162FFD
:102AD00082E090E090937E0280937D0280E3809379
:102AE0007F0210928302688170E06053784F87E71D
:102AF00092E00E943D156DE20E94DF0F698170E057
:102B00000E943D156DE20E94DF0F6A8170E00E9415
:102B10003D1560E20E94DF0F6B8170E00E943D1561
:102B20006AE30E94DF0F6C8170E00E943D156AE34A
:102B30000E94DF0F6D8170E00E943D15FC0117823D
:102B4000168280E2848780871123B9F01092830275
:102B500064E571E087E792E00E949C1121E0FC01AE
:102B6000218760917502709176020E943D1569E29D
:102B7000DF91CF911F910C94DF0FDF91CF911F91C7
:102B800008951F93CF93DF9300D000D000D0CDB72E
:102B9000DEB7142FAE014F5F5F4F0E94150E612FFD
:102BA000CE0101960E94631526960FB6F894DEBFFB
:102BB0000FBECDBFDF91CF911F91089563ED87E7E1
:102BC00092E00E94DF0F6AE00E94DF0F64EC79E080
:102BD00087E792E00E94FE1167EB79E087E792E0D9
:102BE0000E94FE1160915F0270916002809161020B
:102BF0009091620241E00E94C1150E94411065EA75
:102C000079E087E792E00E94FE1141E067ED7EECFB
:102C10008CE192E30E94C1150E94411063ED87E7A9
:102C200092E00E94DF0F6AE00C94DF0F68E670E02C
:102C300087E792E00E94FE1161E083E692E00E9445
:102C400063150C944110EF92FF920F931F93CF9353
:102C5000DF9300D000D0CDB7DEB77B013C832B8360
:102C60008B010E5F1F4F50E0FC01E40FF51F208128
:102C70002D33E9F4FC0101900020E9F73197E81BBE
:102C8000F90B4F5F5F4F4E175F0788F463E00E94B8
:102C9000C60A7A836983BE016F5F7F4FC7010E94B6
:102CA0007807BE016D5F7F4FC8010E947807C7019A
:102CB0000E940B09BC0187E792E00E943D156AE57E
:102CC00071E00E949C117C01C8010E940B09BC01AB
:102CD000C7010E943D156AE00E94DF0F0F900F9020
:102CE0000F900F90DF91CF911F910F91FF90EF9078
:102CF00008958F929F92AF92BF92CF92EF920F93CF
:102D0000CF93DF934B015C01D42FC22F109283022B
:102D10006CE287E792E00E94DF0FC1102FC060E2F3
:102D200087E792E00E94DF0FDD2351F0C3E0C01778
:102D300038F560E287E792E00E94DF0FCF5FF7CFC0
:102D400060EC600F87E792E00E94DF0FEE2019F041
:102D500081E08093800260EB6C0F87E792E00E9435
:102D6000DF0FB501A401DF91CF910F91EF90CF90CC
:102D7000BF90AF909F908F900C942615DD2359F350
:102D80006FE571E087E792E0DF91CF910F91EF90CF
:102D9000CF90BF90AF909F908F900C949C11CF924A
:102DA000EF920F93CF93DF93EC011092830264E0D4
:102DB00077E087E792E00E94FE1160E20E94DF0F59
:102DC00060915F0270916002809161029091620255
:102DD00040E00E94C11510928302CE016AE070E0CB
:102DE0000E94183C072E000C880B990BCC24C3942E
:102DF000E12C05E022E040E00E9479166091570244
:102E00007091580241E0611580E8780709F040E0D0
:102E1000072E000C880B990BCC24C394EE24E3946A
:102E200007E022E00E9479166091550270915602E7
:102E3000472F441F4427441F072E000C880B990B73
:102E4000E12C05E021E00E94791660910701709164
:102E5000080141E0611580E8780709F040E0072E9D
:102E6000000C880B990BCC24C394EE24E39408E067
:102E700022E00E94791660EC87E792E00E94DF0F63
:102E80006AE0DF91CF910F91EF90CF900C94DF0F1C
:102E9000CF92DF92EF92FF921F93CF93DF93CDB744
:102EA000DEB72C970FB6F894DEBF0FBECDBF182F3C
:102EB0006A017B01AE014B5F5F4FBE01675F7F4FD1
:102EC0000E943508882391F089859A85AB85BC8559
:102ED000C816D906EA06FB0604F18D819E81AF81F2
:102EE000B8858C159D05AE05BF05BCF0812F90E01F
:102EF000FC01E65EFE4F20812936C9F5DA82C982DF
:102F0000880F991FFC01E05FFE4FBE016F5F7F4F8E
:102F1000808191810E9478071CC064EC77E087E78C
:102F200092E00E94FE1149855A856B857C850E943E
:102F3000261561EC77E00E94FE11FC0114864D819C
:102F40005E816F8178850E94261562EB77E00E9492
:102F5000FE112C960FB6F894DEBF0FBECDBFDF91E9
:102F6000CF911F91FF90EF90DF90CF90089525377C
:102F700079F4DA82C982880F991FFC01E05FFE4F65
:102F8000BE016F5F7F4F808191810E941E07E1CF5C
:102F9000253589F4C982DA82EB82FC82880F991F79
:102FA000FC01E05FFE4FBE016F5F7F4F808191812A
:102FB0000E944507CECF223661F6880F991FFC018B
:102FC000E05FFE4F808191819A8389836C2DCE01D1
:102FD00001960E940B07BDCFAB0170E060E00C943E
:102FE000AF1465E979E087E792E00E94FE118091D5
:102FF000770490917804892B31F46AE879E087E7C7
:1030000092E00C94FE118091790490917A040E94D0
:10301000A61168E879E087E792E00E94FE116091CE
:103020007704709178040E94EC1764E679E00C94C0
:10303000FE11CF93DF93811528E0920738F5EC015C
:1030400086E00E94F312882309F1BE0190E080E03F
:103050002CE0660F771F881F991F2A95D1F740E251
:103060000E94B20961E086E00E94CD3BBE0187E785
:1030700092E00E94EC1763E671E00E949C116AE006
:103080000E94DF0FDF91CF910C94281380E0DF9135
:10309000CF9108954F925F926F927F928F929F92FD
:1030A000AF92BF92CF92DF92EF92FF920F931F9356
:1030B000CF93DF936B017C01B42EA52E280139013B
:1030C000DC01CB01840D951DA61DB71D0097A048FE
:1030D000B105C0F064E671E087E792E00E94FE115E
:1030E00080E0DF91CF911F910F91FF90EF90DF90E3
:1030F000CF90BF90AF909F908F907F906F905F9098
:103100004F900895CB019F700097B1F5D701CB0187
:103110004CE0B695A795979587954A95D1F70E946B
:103120001918882309F443C0812C992493944114DD
:1031300051046104710409F451C0C6019927840146
:10314000081B190B4016510608F4820186E00E9404
:10315000F312882361F142E0C701B6010E94B2096F
:10316000CB2DDA2D5E01A00EB11ECA15DB0509F1CB
:1031700089910E94A607F9CFA3019801280F391F52
:10318000411D511DDA01C90181309041A105B105F0
:1031900058F2D701CB012CE0B695A7959795879566
:1031A0002A95D1F701960E9419188111BDCF80E0B0
:1031B00098CF61E086E00E94CD3B0E9428138823CF
:1031C000B1F330E020E0C00ED11EE21EF31EBC2E93
:1031D000AD2E401A510A620A730AA9CF81E081CF4D
:1031E000CF92DF92EF92FF92CF93DF936B017C013E
:1031F00061ED87E792E00E94DF0F63E77AE00E94CB
:10320000FE11EC01C701B60128EE33E040E050E0CA
:103210000E942C3CBA01A901CE010E94AF1460E7C4
:103220007AE00E94FE1161ED0E94DF0F6AE0DF91FB
:10323000CF91FF90EF90DF90CF900C94DF0FAF9283
:10324000BF92CF92DF92EF92FF920F931F93CF9393
:10325000DF9300D0CDB7DEB75B018C01000F111FEB
:10326000005F1E4F9C01255F3E4F6901FC01E65E39
:10327000FE4F7F01C6018B509140A816B9060CF491
:103280005BC0F60121916F01F80180819181820F6D
:10329000911D0E9446106AE671E087E792E00E9465
:1032A0009C11F70181917F01893681F4F8018081B9
:1032B00091810E940B09BC0187E792E00E943D15B5
:1032C0006AE00E94DF0F0E5F1F4FD4CF853771F485
:1032D000F801808191810E94D408BC0187E792E0C7
:1032E0000E94EC176AE00E94DF0FEDCF853579F47C
:1032F000F801808191810E942F09AB01BC0187E711
:1033000092E00E94AF146AE00E94DF0FDCCF8236A9
:10331000D1F6F801808191819A838983CE0101964B
:103320000E940607682F70E087E792E00E943D1533
:103330006AE00E94DF0FC7CF0F900F90DF91CF910F
:103340001F910F91FF90EF90DF90CF90BF90AF90C3
:1033500008952F923F924F925F926F927F928F9239
:103360009F92AF92BF92CF92DF92EF92FF920F9314
:10337000CF93DF93CDB7DEB72A970FB6F894DEBFB1
:103380000FBECDBF8A878BEA0E94F3120E94860986
:1033900069837A838B839C830E94F80863E976E0D3
:1033A000811157C180915402882361F060E576E075
:1033B00087E792E00E94FE116BEF75E087E792E0ED
:1033C0000E94FE1129813A814B815C81232B242BA1
:1033D000252B09F43CC131E039874A85423009F098
:1033E000198689850E9447125A85412C512C320139
:1033F0004394513021F449805A806B807C800E9434
:103400008B3A6D837E838F839887ACE0B0E0A30115
:1034100092010E948B3C4B015C018AE0282E312CEA
:1034200089819A81AB81BC8184159505A605B70574
:1034300098F0C501B4016C5071098109910981149A
:103440009104A0E8AA06B10408F473C064E671E030
:1034500087E792E00E94FE110E948B3A6B017C018B
:103460002D813E814F815885C21AD30AE40AF50A9C
:1034700049815A816B817C8187E792E00E94AF1479
:103480006CEE75E00E94FE1162EB0E94DF0F9E83DE
:103490008D83C701B6012AE030E040E050E00E9491
:1034A0002C3CBA01A9018D819E810E94AF1464EE6B
:1034B00075E00E94FE11C114D104E104F104F1F0A1
:1034C00065E172E087E792E00E949C119E838D8304
:1034D000A8EEB3E029813A814B815C810E948B3C4C
:1034E000A70196010E942C3CBA01A9018D819E8101
:1034F0000E94AF1460ED75E00E94FE110E94411021
:103500002A960FB6F894DEBF0FBECDBFDF91CF91E4
:103510000F91FF90EF90DF90CF90BF90AF909F9072
:103520008F907F906F905F904F903F902F900C9472
:1035300021130E94A10A6B017C01BA85B23079F097
:103540001092830268EC87E792E00E94DF0FB301DC
:10355000A2010E94AF146DE671E00E949C1140E050
:10356000C701B6010E94C11510928302C501B401C2
:1035700068507109810991090E94880AB1010E946D
:10358000183C072E000C880B990BC984E12C05E030
:1035900022E040E00E947916C501B401665071092D
:1035A000810991090E94880A41E0811520E892076B
:1035B00009F040E0BC01990F880B990BC984EE24F7
:1035C000E39407E022E00E947916C501B40164503B
:1035D0007109810991090E94880A492F441F4427D3
:1035E000441FBC01990F880B990BC984E12C05E09D
:1035F00021E00E947916C501B40162507109810968
:1036000091090E94880A41E0811530E8930709F08A
:1036100040E0BC01990F880B990BC984EE24E39418
:1036200008E022E00E94791660EC87E792E00E94B1
:10363000DF0F6AE00E94DF0F4FEF441A540A640A5A
:10364000740A5CE0850E911CA11CB11CE9CE65ECEE
:1036500075E087E792E00E94FE1152CF0F931F930F
:10366000CF93DF938BEA0E94F312C7E7D2E01C8668
:1036700067EE74E0CE010E94FE1162EE74E00E94DB
:10368000FE116AED74E0CE010E94FE1167E070E069
:103690000E943D1565ED74E0CE010E94FE110E946E
:1036A00099111C866FEC74E0CE010E94FE1183EB31
:1036B00090E00E94D4080E94A6111C8669EC74E078
:1036C000CE010E94FE118C010E940309482F50E098
:1036D00070E060E0C8010E94AF1461EC74E0CE01BC
:1036E0000E94FE118C010E948609AB01BC01C80139
:1036F0000E94AF1469EB74E0CE010E94FE1140E01D
:1037000050E060E870E00E94AF1463EB74E0CE011B
:103710000E94FE110E94AE131C866CEA74E0CE017A
:103720000E94FE1140E052EC61E070E00E94AF1494
:1037300061EA74E0CE010E94FE1140E054E863E0CB
:1037400070E00E94AF146BE974E0CE010E94FE119C
:103750008091790490917A040E94A6111C8664E9F4
:1037600074E0CE010E94FE1160917704709178049C
:103770000E94EC171F821E8280E28C8788870E943D
:103780004110DF91CF911F910F910C942113EF9273
:10379000FF920F931F93CF93DF9300D0CDB7DEB787
:1037A00083EB90E00E94D4088C010E948609672B6D
:1037B000682B692BC1F00F3F1007A9F081E00F3093
:1037C00090E1190709F480E0809354020F3080E102
:1037D0001807B9F40F900F90DF91CF911F910F91BF
:1037E000FF90EF9008958FE090E19A838983BE0166
:1037F0006F5F7F4F83EB90E00E941E071092540290
:10380000E9CF0F3090E2190751F46DE573E087E7D7
:1038100092E00E94FE1181E080934902DBCF63EDCC
:1038200087E792E00E94DF0F6AE00E94DF0F69E401
:1038300073E087E792E00E94FE116FE373E087E791
:1038400092E00E94FE117C010E948609AB01BC013E
:10385000C7010E94AF146CE273E00E94FE11C80120
:103860000E94A6110E94411064E173E087E792E094
:103870000E94FE118FE090E10E94A6110E9441106B
:103880006DEE72E087E792E00E94FE116BE972E054
:1038900087E792E00E94FE1169E772E087E792E015
:1038A0000E94FE1167E572E087E792E00E94FE1138
:1038B00063ED87E792E00E94DF0F6AE00E94DF0F6E
:1038C00081E08093490286CF80918402882321F091
:1038D00080E791E00C94890F089581E0809349027C
:1038E00080918402882321F084E791E00C94890F71
:1038F00008951F93CF93DF9344E050E06AE771E0AF
:1039000084ED93E00E942539CBEDDBE0FE011491BC
:10391000812F82958F700E94BF0A682F880F770BC6
:1039200084ED93E00E946506812F0E94BF0A682FF4
:10393000880F770B84ED93E00E9465062196FCE0EA
:10394000C431DF0719F76AE070E084ED93E0DF919E
:10395000CF911F910C946506CF93C82F862F0E949C
:10396000260F6C2F86E293E00E94613286E293E09C
:10397000CF910C9459331F93CF93DF93182FEB0102
:1039800068E470E086E293E00E94DE32612F86E216
:1039900093E00E9461326D2F86E293E00E946132D3
:1039A0006C2F86E293E00E94613286E293E00E94EF
:1039B000593391E0811190E0892FDF91CF911F91D0
:1039C000089560E274E081E00C94BB1C8AE391E30B
:1039D0000E944C0F811106C080E090E8909308018E
:1039E000809307010C94E11CCF92DF92EF92FF923B
:1039F000CF93DF930E9416166AE57AE087E792E09C
:103A00000E94FE114091690250916A0260916B021E
:103A100070916C020E94AF146FE771E00E949C11DC
:103A200068E47AE087E792E00E94FE1161E089E5B0
:103A300092E00E9463150E9441100E9486096B016A
:103A40007C0165E37AE087E792E00E94FE11B7010E
:103A5000A6010E94AF1468E20E94DF0FEC01A4E609
:103A6000B0E0A70196010E948B3C2AEA3AEA4AE0BC
:103A700050E00E942C3CBA01A901CE010E94AF1473
:103A800068E871E00E949C114AEA5AEA6AE070E034
:103A90000E94AF146EE971E00E949C110E94600FB9
:103AA0000E94E61C6EE17AE087E792E00E94FE1138
:103AB00080915702909158028115904809F057C0A3
:103AC00069E17AE087E792E00E94FE116EEF79E00B
:103AD00087E792E00E94FE11809107019091080112
:103AE0008115904809F053C069EF79E087E792E0CB
:103AF0000E94FE116AEE79E087E792E00E94FE11D3
:103B0000809155029091560297FF51C065EE79E081
:103B100087E792E00E94FE110E94C10CEC016EED5D
:103B200079E087E792E00E94FE1162EB0E94DF0FCE
:103B30009C01CE016AE070E00E94183CC9010E941D
:103B40003D1563E172E00E949C117C01CE010E9450
:103B5000C80CBC01C7010E943D156DE971E0DF9101
:103B6000CF91FF90EF90DF90CF900C949C1162EB7F
:103B700087E792E00E94DF0F609157027091580230
:103B80000E943D1564E17AE00E94FE119FCF62EB36
:103B900087E792E00E94DF0F6091070170910801B2
:103BA0000E943D1564EF79E00E94FE11A3CF61EB06
:103BB00087E792E00E94DF0F6091550270915602F4
:103BC0000E943D156AE971E00E949C11A5CFCF9239
:103BD000DF92EF92FF92CF93DF930E94F41C8BEA67
:103BE0000E94F3120E94B9130E94211365E579E047
:103BF00087E792E00E94FE1160916F02709170025F
:103C0000809171029091720241E00E94C1150E9460
:103C100041100E94C80E2AE030E040E050E00E94CF
:103C20004E3C69017A0169E087E792E00E94DF0F6C
:103C300061EB0E94DF0FB701A6010E94261567E421
:103C400079E00E94FE116FE279E087E792E00E943E
:103C5000FE11EC010E94E90EBC01CE010E943D154F
:103C600064E279E00E94FE11EC010E94290DBC0182
:103C7000CE010E943D156DE179E00E94FE1161EBDD
:103C80000E94DF0FB701A6010E94261566E179E0C8
:103C90000E94FE1164E079E087E792E00E94FE1145
:103CA00082E890E00E942F09683D7E4C8C4192434F
:103CB00008F4AFC082E890E00E942F0941E00E9422
:103CC000C1150E9441106CEE78E087E792E00E94F7
:103CD000FE117C0186E890E00E940B09BC01C7013F
:103CE0000E943D1561EA71E00E949C117C0188E808
:103CF00090E00E940B09BC01C7010E943D156CEDCC
:103D000078E00E94FE116DEB78E087E792E00E9478
:103D1000FE11FC01148660918504709186040E9456
:103D2000EC1765EA71E00E949C116091810470912A
:103D300082040E94EC1765EA71E00E949C11609178
:103D40007D0470917E040E94EC17FC01178216829C
:103D5000C0E2C487C08766EB78E00E94FE11209124
:103D6000850430918604409181045091820470E072
:103D700060E0420F531F611D711D20917D04309141
:103D80007E04420F531F611D711D0E94AF1462EB30
:103D900078E00E94FE1163E978E087E792E00E94F4
:103DA000FE11FC01148660918304709184040E94CA
:103DB000EC1765EA71E00E949C1160917F0470919C
:103DC00080040E94EC1765EA71E00E949C116091EA
:103DD0007B0470917C040E94EC17FC011782168210
:103DE000C487C0876AE00E94DF0F0E94F11764E871
:103DF00078E087E792E00E94FE1164E070E090E0D6
:103E000080E0DF91CF91FF90EF90DF90CF900C9406
:103E10001F196EEF78E087E792E00E94FE1151CF04
:103E20000E94600F0E94E61C0C94C10CCF92DF929E
:103E3000EF92FF920F931F93CF93DF93CDB7DEB72F
:103E40002C970FB6F894DEBF0FBECDBF8091540201
:103E50008823B9F065E677E087E792E00E94FE11DB
:103E600010E0812F2C960FB6F894DEBF0FBECDBFA9
:103E7000DF91CF911F910F91FF90EF90DF90CF9046
:103E800008958BEA0E94F3120E9486096B017C015F
:103E90000E94101F8C01C114D104E104F10491F1BE
:103EA000ACE0B0E0A70196010E948B3C6B017C0165
:103EB00040915F02509160026091610270916202D4
:103EC0009801CE0101960E94A1080CE010E020E0CC
:103ED00030E0AE014F5F5F4FC701B6010E944A1844
:103EE000182F89EB0E94F312111121C088E00E9463
:103EF000AD0766E477E087E792E00E94FE110E943A
:103F00002113AFCF6FE572E08CE790E00E94450788
:103F10008FE090E19A838983BE016F5F7F4F83EBCF
:103F200090E00E941E07C12CD12C7601C1CF0E94C7
:103F3000791480918402882311F381E00E94A919E9
:103F4000DECFCF92DF92EF92FF926B017C0184ED86
:103F500093E00E94C43726E0B701A60184ED93E008
:103F60000E94313884ED93E00E945737892B29F065
:103F700084ED93E00E947137F5CF62E370E080E05A
:103F800090E0FF90EF90DF90CF900C94EA3ACF92C0
:103F9000DF92EF92FF9284ED93E00E945737892BD6
:103FA00071F084ED93E00E9463378831910561F4EC
:103FB00084ED93E00E94713781E080934802FF9086
:103FC000EF90DF90CF9008954397C9F784ED93E089
:103FD0000E9471370E948B3A6B017C010E948B3AE0
:103FE0006C197D098E099F0960337547810591051C
:103FF00030F784ED93E00E945737892B79F384EDF5
:1040000093E00E94713781319105C9F2489731F7E9
:1040100081E080934802D3CF2F923F924F925F92DC
:104020006F927F928F929F92AF92BF92CF92DF92C8
:10403000EF92FF920F931F93CF93DF93CDB7DEB72D
:10404000A0970FB6F894DEBF0FBECDBF6B017C0109
:1040500029013A018BEA0E94F3120E9486094B0162
:104060005C0183EB90E00E94D4088C0180915402A3
:1040700036E2332E811102C02CE0322EC114D1045D
:10408000E104F10439F021E0C216D10420E8E2068F
:10409000F10428F0C12CD12C90E8E92EF12C6EE728
:1040A00074E087E792E00E94FE1165E774E087E71D
:1040B00092E00E94FE11B501A4010E94AF146AE0D3
:1040C0000E94DF0F6EE674E087E792E00E94FE1127
:1040D000B701A6010E94AF146BE674E00E94FE11C6
:1040E00040E050E060E870E00E94AF146AE00E9497
:1040F000DF0F63E574E087E792E00E94FE114CE079
:1041000050E060E070E00E94AF146AE00E94DF0FB0
:1041100064E474E087E792E00E94FE11C8010E9407
:10412000A6110E9441106EE274E087E792E00E94BF
:10413000FE118FE090E10E94A6110E944110809133
:104140005402882379F06BEF73E087E792E00E94D6
:10415000FE11432D50E070E060E00E94AF146AE071
:104160000E94DF0F411451046104710469F065EF8E
:1041700073E087E792E00E94FE11B301A2010E9462
:10418000AF146AE00E94DF0F6AEB73E087E792E00A
:104190000E94FE1184ED93E00E94C4374114510443
:1041A0006104710421F0C301B2010E94A11F0E94A9
:1041B0008B3A6D8F7E8F8F8F98A310924802CB8A97
:1041C000DC8AED8AFE8A812C912C54010FEF1FEFBF
:1041D000882009F451C08B899C89AD89BE8940979C
:1041E000A105B10508F08CC09B899B8F3C882D8868
:1041F000AE89AC8F9501442755272F8B388F498F77
:104200005A8F0217130761F0198A3F893A8B22E00F
:10421000AE014F5E5F4F70E060E084E00E94A2104C
:104220000B8D132D222D3C8DAE014F5F5F4FC501CD
:10423000B4010E94CD092B8DAE014F5F5F4FB401D9
:1042400080E00E94A21040E1840E911CA11CB11CD0
:104250008B899C89AD89BE894097A109B1098B8B57
:104260009C8BAD8BBE8B0F89188D8C149D04AE0476
:10427000BF0408F4ADCF07C00E94C71F8091480259
:10428000882309F4A8CF80914802811108C020E05A
:1042900050E040E070E060E081E00E94A21045281C
:1042A0004628472831F060E072EC81E090E00E94FF
:1042B000A11F80914802882349F16CEA73E087E7E7
:1042C00092E00E94FE11109248020E942113A096D3
:1042D0000FB6F894DEBF0FBECDBFDF91CF911F9117
:1042E0000F91FF90EF90DF90CF90BF90AF909F9095
:1042F0008F907F906F905F904F903F902F90089598
:10430000B0E1BB8F312C212C1C8E74CF0E948B3AD4
:104310004B015C012D8D3E8D4F8D58A1821A930A61
:10432000A40AB50AB701A60187E792E00E94AF147C
:1043300063EA73E00E94FE1162EB0E94DF0F8C01C2
:10434000C501B4012AE030E040E050E00E942C3C7E
:10435000BA01A901C8010E94AF146AE973E00E9482
:10436000FE11B3CFCF93C92F682F84ED93E00E9445
:10437000E4376C2F84ED93E0CF910C94E4372F92C7
:104380003F924F925F926F927F928F929F92AF92E5
:10439000BF92CF92DF92EF92FF920F931F93CF9332
:1043A000DF93CDB7DEB7E0970FB6F894DEBF0FBE50
:1043B000CDBF2B013C0149015A01EDA2FEA20FA382
:1043C00018A70E9486096115710581059105F9F408
:1043D00069EB75E087E792E00E94FE11E0960FB668
:1043E000F894DEBF0FBECDBFDF91CF911F910F912B
:1043F000FF90EF90DF90CF90BF90AF909F908F9005
:104400007F906F905F904F903F902F900895861609
:104410009706A806B90638F04B015C0121E0821A24
:104420009108A108B10884149504A604B70438F4CF
:104430006DEA75E087E792E00E94FE11CFCF8BEA2C
:104440000E94F3120E940309282F30E050E040E060
:1044500029A73AA74BA75CA7C301B2010E94FC3B66
:104460006DA77EA78FA798ABA501940124193509E4
:10447000460957092F5F3F4F4F4F5F4F69A57AA5F8
:104480008BA59CA50E94FC3B69A37AA38BA39CA34C
:104490006B017C013FEFC30ED11CE11CF11CCD2C44
:1044A000DE2CEF2CFF241601109283026DE975E0DB
:1044B00087E792E00E94FE1183EB90E00E94D4080F
:1044C0000E94A6111092830267E975E087E792E0E7
:1044D0000E94FE1149A55AA56BA57CA50E94AF14A8
:1044E00060E975E087E792E00E94FE11B301A20146
:1044F0000E94AF146BE875E087E792E00E94FE111E
:10450000B501A4010E94AF1462E875E087E792E06C
:104510000E94FE11B701A601662777270E94AF14FB
:1045200066E775E087E792E00E94FE1140E051E007
:1045300060E070E00E94AF148DA19EA1AFA1B8A56C
:10454000892B8A2B8B2B79F06FE675E087E792E059
:104550000E94FE11DC011C961C924DA15EA16FA170
:1045600078A50E94AF1410927E0210927D0280E224
:104570008093830280937F020E94411084ED93E038
:104580000E94C4372DA13EA14FA158A52115310588
:104590004105510521F0CA01B9010E94A11F1092E5
:1045A0004802912C812C8214930408F087C08091DA
:1045B00048028111A7C089A19AA1ABA1BCA18F3FDC
:1045C0009105A105B10509F008F454C0E12C81E082
:1045D0006E2C782E0E94C71F6AEA70E084ED93E08B
:1045E0000E94650665E570E084ED93E00E94650633
:1045F000C4010E94B221C3010E94B221D12CC12C5E
:10460000AA24AA94BA2CC614D704B8F50E94C71FCE
:1046100080914802811131C0C3018C199D09FE2C83
:10462000FC18809710F080E2F82E0F2D10E030E09B
:1046300020E06DA57EA58FA598A96C0D7D1D811D1F
:10464000911DAE014F5F5F4F0E94CD094F2C512C41
:10465000A201BE016F5F7F4F84ED93E00E94253978
:10466000A5016F2DCE0101960E94BB085C01C40C10
:10467000D51CC9CFE9A08AA1ABCFC5010E94B22148
:1046800084ED93E00E94C4379FEF891A990A29A10B
:104690003AA14BA15CA131504109510929A33AA388
:1046A0004BA35CA38DA59EA5AFA5B8A99F5FAF4FF7
:1046B000BF4F8DA79EA7AFA7B8AB75CF2DA13EA1C9
:1046C0004FA158A5232B242B252B31F060E072EC51
:1046D00081E090E00E94A11F80914802882359F058
:1046E00061E675E087E792E00E94FE1110924802B1
:1046F0000E94211373CE67E575E087E792E00E9480
:10470000FE11F6CF8DA19EA1AFA1B8A5892B8A2B52
:104710008B2B31F3DBCFCF92DF92EF92FF920F938F
:104720001F93CF93DF9300D000D000D0CDB7DEB77A
:1047300086E0E5E4F1E0DE01119601900D928A95A4
:10474000E1F780E0E82E81E0F82E8E010F5F1F4F29
:1047500093E6C92E92E0D92E68E670E086E293E0F7
:104760000E94DE32F70161917F0186E293E00E94B0
:10477000613286E293E00E94593341E050E068E6FE
:1047800070E086E293E00E94563386E293E00E9456
:104790000832F80191918F0189230E941D0FF601C3
:1047A00081936F01F6E0EF16F1E0FF06A9F6E090C5
:1047B0006802F12C0091670210E02091660230E05F
:1047C0004091650250E06091640270E08091630264
:1047D00090E08053984F0E94A30D60935F02709306
:1047E0006002809361029093620226960FB6F8945D
:1047F000DEBF0FBECDBFDF91CF911F910F91FF9014
:10480000EF90DF90CF9008958F929F92AF92BF92DA
:10481000CF92DF92EF92FF920E948B23C0905F02B3
:10482000D0906002E0906102F09062020E948B3AA8
:104830004B015C0180915F0290916002A091610246
:10484000B09162028C159D05AE05BF0571F40E9402
:104850008B3A681979098A099B096C3D7540810575
:10486000910518F40E948B23E5CFFF90EF90DF9025
:10487000CF90BF90AF909F908F900C948B3A2F92D7
:104880003F924F925F926F927F928F929F92AF92E0
:10489000BF92CF92DF92EF92FF920F931F93CF932D
:1048A000DF93CDB7DEB7C354D1090FB6F894DEBF9E
:1048B0000FBECDBF8BAB0E9486096BA77CA78DA7CF
:1048C0009EA7672B682B692B01F168E17BE087E7E6
:1048D00092E00E94FE11CD5BDF4F0FB6F894DEBF71
:1048E0000FBECDBFDF91CF911F910F91FF90EF9041
:1048F000DF90CF90BF90AF909F908F907F906F9000
:104900005F904F903F902F9008958BEA0E94F31292
:104910008FE090E29A838983BE016F5F7F4F83EBC4
:1049200090E00E941E072BA9222319F081E00E942B
:10493000EF070E9404246B017C0180915F0290913B
:104940006002A0916102B09162028F8F98A3A9A327
:10495000BAA3BE01615E7F4F8CE790E00E944507DD
:104960001092830265E07BE087E792E00E94FE11EF
:104970003BA96EEF7AE0332311F062E07BE00E9406
:10498000FE1168EF7AE087E792E00E94FE114EE0A8
:1049900050E060E070E00E94AF146AE00E94DF0F18
:1049A0000E9467096CAB7DAB8EAB9FABC8AED9AE36
:1049B000EAAEFBAECFA6D8AAE9AAFAAACBA2DCA29D
:1049C000EDA2FEA2CFA2D8A6E9A6FAA6812C912C30
:1049D0005401312C212C0E948B3A2B013C016C1983
:1049E0007D098E099F0981149104A104B10449F045
:1049F00092014FA158A5241B350B2216330608F44B
:104A0000190160385EEE750756E38507910508F0D9
:104A1000E2C128EE33E040E050E00E942C3C2CAF95
:104A20003DAF4EAF5FAF24966CAF7DAF8EAF9FAF03
:104A300024978F8D98A1A9A1BAA1820F931FA41FBB
:104A4000B51F80935F0290936002A0936102B093C0
:104A500062020E94101F98A78FA340915F0250919D
:104A6000600260916102709162029C01CE014396E6
:104A70000E94A10880915F0290916002A091610262
:104A8000B0916202898B9A8BAB8BBC8B22968EADD8
:104A90009FAD22979E8B8D8BAEE0B0E0A501940177
:104AA0000E948B3C8B019C01025F1F4F2F4F3F4F99
:104AB000011511052048310508F4D1C064E671E004
:104AC00087E792E00E94FE1116E68BA19CA1ADA1A2
:104AD000BEA18C199D09AE09BF098BA39CA3ADA3F0
:104AE000BEA30E9404242B013C0120915F0230915F
:104AF000600240916102509162028F8D98A1A9A13C
:104B0000BAA1281B390B4A0B5B0BA8E1BCEF0E9432
:104B1000993C4C185D086E087F08460E571E681EAB
:104B2000791E8CA99DA9AEA9BFA988199909AA09BE
:104B3000BB0989839A83AB83BC83BE016F5F7F4FC0
:104B400088E790E00E94450780E00E94EF070E94FE
:104B5000211381149104A104B10459F48FE090E170
:104B60009A838983BE016F5F7F4F83EB90E00E9441
:104B70001E0781E081149104A104B10409F480E0CE
:104B8000809354021092830268ED7AE087E792E006
:104B90000E94FE11133709F020C163ED7AE087E728
:104BA00092E00E94FE116DEB7AE087E792E00E94AE
:104BB000FE11B501A4010E94AF1467EB7AE00E94D8
:104BC000FE114BA15CA16DA17EA10E94AF146EEA03
:104BD0007AE087E792E00E94FE117C0192E089165C
:104BE0009104A104B10480F0A50194012150310980
:104BF000410951096BA17CA18DA19EA10E942C3C71
:104C00002BA73CA74DA75EA74BA55CA56DA57EA5D0
:104C1000C7010E94AF1466EA7AE087E792E00E943B
:104C2000FE11B1010E94EC176CE97AE087E792E08F
:104C30000E94FE11B301A2010E94261561E97AE0EB
:104C40000E94FE11ABA96AE87AE0AA2311F06EE88F
:104C50007AE00E94FE116AE00E94DF0F3CCE0EE077
:104C600010E020E030E0AE014F5E5F4F0E944A1836
:104C7000882309F4AAC0BFEF8B1A9B0AAB0ABB0AB0
:104C80004BA25CA26DA27EA20E948B3A28AD39ADE8
:104C90004AAD5BAD621B730B840B950B60367A4E8D
:104CA00081059105C8F08CA99DA9AEA9BFA9881955
:104CB0009909AA09BB0989839A83AB83BC83BE0186
:104CC0006F5F7F4F88E790E00E9445070E948B3A14
:104CD00068AF79AF8AAF9BAF0E948B3A2FA538A9F6
:104CE00049A95AA9621B730B840B950B603177425B
:104CF0008105910520F11092830260EF7AE087E749
:104D000092E00E94FE11B501A4010E94AF146CEE66
:104D10007AE00E94FE114CAD5DAD6EAD7FAD0E949C
:104D2000AF1469EE7AE00E94FE118FA198A50E944F
:104D3000CF160E948B3A6FA778AB89AB9AAB84ED04
:104D400093E00E945737892BD9F12FE030E0AE0174
:104D50004F5F5F4F6AE084ED93E00E948039E82F57
:104D6000882341F0DE01A80FB11D9C919D3011F404
:104D7000EFEFE80F41E050E04C0F5D1F4E0F511D6B
:104D8000FA011082BE016F5F7F4F87EA91E00E94B7
:104D9000B83C892BF1F0BE016F5F7F4F80EB91E053
:104DA0000E94B83C892B61F40E948B3A9B01AC01B4
:104DB00020513742410951092FA738AB49AB5AABB3
:104DC0004FA258A669A67AA606CE88E00E94AD0733
:104DD0005BCF13E77ACE14E778CE143739F46EEC54
:104DE0007AE087E792E00E94FE11DDCE163639F4B4
:104DF00069EC7AE087E792E00E94FE11D4CE61EC84
:104E00007AE087E792E00E94FE11CDCECF93DF9348
:104E100000D000D0CDB7DEB70E94670969837A83DE
:104E20008B839C83BE016F5F7F4F88E790E00E9479
:104E300045078FE090E19A838983BE016F5F7F4FC2
:104E400083EB90E00E941E07109254020E948B2375
:104E50000E94C10C9A838983BE016F5F7F4F80E8F7
:104E600090E00E941E071A821982BE016F5F7F4F79
:104E700086E890E00E9478071A821982BE016F5F6F
:104E80007F4F88E890E00E94780710928404109287
:104E900083041092800410927F0410927C0410927C
:104EA0007B0410927A041092790410927804109284
:104EB000770466E977E087E792E00E94FE110F90A1
:104EC0000F900F900F90DF91CF9108954F925F92C6
:104ED0006F927F928F929F92AF92BF92CF92DF920A
:104EE000EF92FF9261362AEE72078105910520F05C
:104EF00060E67AEE80E090E06B017C0188ECC816F9
:104F0000D104E104F10428F488ECC82ED12CE12C62
:104F1000F12C1092830263EF76E087E792E00E9423
:104F2000FE1160E20E94DF0FB701A6010E94AF14DC
:104F300060EF76E00E94FE116AE00E94DF0F81E0E0
:104F40000E9447120E948B3A4B015C010E948B3AEF
:104F5000681979098A099B09603C77428940910563
:104F6000E8F50E948B230E94101F0E94CF1684ED4B
:104F700093E00E94C4370E948B3A2B013C010E94AF
:104F80008B3A64197509860997096C157D058E059C
:104F90009F05E0F684ED93E00E945737892B79F363
:104FA0000E948B3A6B017C010E948B3A6C197D093F
:104FB0008E099F096C3371058105910508F584ED13
:104FC00093E00E945737892B79F384ED93E00E9498
:104FD00071370E948B3A6B017C01E6CF68ED76E079
:104FE00087E792E0FF90EF90DF90CF90BF90AF9077
:104FF0009F908F907F906F905F904F900C94FE11D8
:1050000066EE76E0EDCF4F925F926F927F928F9235
:105010009F92AF92BF92CF92DF92EF92FF92CF9387
:10502000DF9300D000D0CDB7DEB70E948609C12C37
:10503000D12C76016A3A2AEA72072AE082079105A2
:1050400050F42AEAC22EDC2C2AE0E22EF12CC61AF9
:10505000D70AE80AF90A4090690250906A02609003
:105060006B0270906C02C301B2012CE330E040E0AF
:1050700050E00E942C3C69837A838B839C83C70118
:10508000B6010E94FC3B20EA35E040E050E00E947F
:105090002C3C49015A0129813A814B815C81C7012D
:1050A000B6010E94FC3B20E831E541E050E00E945F
:1050B0002C3C820E931EA41EB51E6EE375E087E79E
:1050C00092E00E94FE11B701A6010E94AF1460E3B6
:1050D00075E00E94FE11B501A4010E94AF1468E2C0
:1050E00075E00E94FE11B301A20187E792E00E94E1
:1050F000AF1465E275E00E94FE1165E175E0CD2810
:10510000CE28CF2849F08BE4881687E49806A104BE
:10511000B104C0F069EF74E087E792E00F900F9060
:105120000F900F90DF91CF91FF90EF90DF90CF9095
:10513000BF90AF909F908F907F906F905F904F90B7
:105140000C94FE110E948B2360EF74E087E792E0DD
:105150000E94FE11A501940160E871E581E090E0F4
:105160000E94FC3BC0905F02D0906002E090610220
:10517000F09062026C0D7D1D8E1D9F1D41E00E940E
:10518000C1150F900F900F900F90DF91CF91FF906E
:10519000EF90DF90CF90BF90AF909F908F907F90D7
:1051A0006F905F904F900C9441100E94260F86E202
:1051B00093E00E94593341E050E068E670E086E2F7
:1051C00093E00E94563386E293E00E9408320895ED
:1051D0000F931F93CF93DF938C01C62FD0E080E015
:1051E0000E94D52860E08C7F0E94AC1C68E670E0CD
:1051F00086E293E00E94DE3267E070E086E293E0B0
:105200000E949F07F80185810E94160FBE017695C6
:10521000762F6627779567957727682B86E293E048
:105220000E949F07F80184810E94160FBE0126E0AC
:10523000660F771F2A95E1F760787727682B86E25B
:1052400093E00E949F07F80183810E94160FBE0120
:1052500035E0660F771F3A95E1F760787727682B7E
:1052600086E293E00E949F0760E870E086E293E0A8
:105270000E949F0786E293E00E94593380E00E94DB
:10528000D52860E085600E94AC1C81E00E94D52892
:1052900061E0867FDF91CF911F910F910C94AC1C40
:1052A0004F925F926F927F928F929F92AF92BF9236
:1052B000CF92DF92EF92FF920F931F93CF93DF93E2
:1052C00000D000D000D0CDB7DEB70E948B23409134
:1052D000650250E06091640270E080916302F12CFD
:1052E000E12C10E000E030E020E090E00E94A30D0F
:1052F0004B015C0183E692E00E94520D40906902EE
:1053000050906A0260906B0270906C026B017C019D
:10531000C40CD51CE61CF71CA30192010E942C3C76
:10532000A7019601261B370B480B590B29833A839B
:105330004B835C83C301B2010E943B0D8E83C98005
:10534000DA80EB80FC80C80CD91CEA1CFB1C49E508
:1053500052E0C701B6010E94150E6E8189E592E008
:105360000E94E8283E813F30A9F148E04D83840C3B
:10537000951CA61CB71C89819A81AB81BC81880EC3
:10538000991EAA1EBB1E8C189D08AE08BF080E945D
:105390008B2380915F0290916002A0916102B09195
:1053A00062028C159D05AE05BF05A0F0C80CD91C86
:1053B000EA1CFB1C49E552E0C701B6010E94150E2C
:1053C0006E8189E592E00E94E8289D8191509D833D
:1053D0009111DDCF6CE770E087E792E00E94FE114B
:1053E00061E089E592E00E94631526960FB6F89475
:1053F000DEBF0FBECDBFDF91CF911F910F91FF9008
:10540000EF90DF90CF90BF90AF909F908F907F9064
:105410006F905F904F900C944110CF9380918704D0
:1054200090918804A0918904B0918A0481309E4EA5
:10543000AF4FB04C61F181E09EEEAFEFB0EC8093E6
:10544000870490938804A0938904B0938A041092EF
:1054500086041092850410928404109283041092A2
:105460008204109281041092800410927F041092A2
:105470007E0410927D0410927C0410927B041092A2
:105480007A041092790410927804109277040E94A2
:10549000AA0B61E085E00E94CD3B86E293E00E948A
:1054A000BD3221E048EA51E660E070E086E293E038
:1054B0000E94CF320E940D370E94EF130E948B236F
:1054C0000E94502926E040E052EC61E070E084ED5B
:1054D00093E00E94313849E050E066EB71E084EDE2
:1054E00093E00E9425390E9416168BEA0E94F3125F
:1054F0000E94150AC82F882309F48BC0682F70E01A
:1055000087E792E00E943D1568ED7BE00E94FE1166
:1055100064EC7BE087E792E00E94FE11CC2321F04F
:105520000E94B9130E9465130E94211360EC7BE076
:1055300087E792E00E94FE110E94960F88E60E9483
:105540003E0F882309F46FC00E94641C68EB7BE067
:1055500087E792E00E94FE110E94960F80E40E946D
:105560003E0F882309F462C00E94641C80E00E9400
:10557000EF0760EB7BE087E792E00E94FE110E945C
:10558000960F88E40E943E0F882309F452C00E94BF
:10559000641C0E94E11C0E94C71B80915F029091D5
:1055A0006002A0916102B0916202873D9E4CAC41C5
:1055B000B24338F4C1E0C09353020E94DE15C09399
:1055C0004902809163026091640290E00E94730D31
:1055D00020916502820F911D90936E0280936D025F
:1055E00080915F0290916002A0916102B09162028D
:1055F00080936F0290937002A0937102B093720235
:10560000809149028823C1F061E08AE0CF910C9437
:10561000CD3B65ED7BE087E792E00E94FE1181E0E3
:105620008093490275CF0E946D1C90CF0E946D1C23
:10563000A0CF0E946D1CAFCFCF910895AF92BF92C3
:10564000CF92DF92EF92FF920F931F93CF93DF934E
:1056500000D000D000D0CDB7DEB726E0EBE4F1E01B
:10566000DE01119601900D922A95E1F720E0C22EFD
:1056700021E0D22E7C018E010F5F1F4F5C0186E07E
:10568000A80EB11C68E670E086E293E00E94DE326C
:10569000F60161916F0186E293E00E946132F701A9
:1056A00081917F010E94160FF80161918F0168239B
:1056B00070E086E293E00E949F0786E293E00E94FA
:1056C0005933EA14FB04F1F681E00E94D52861E029
:1056D0008F770E94AC1C26960FB6F894DEBF0FBEE3
:1056E000CDBFDF91CF911F910F91FF90EF90DF9091
:1056F000CF90BF90AF900C948B238F929F92AF92DC
:10570000BF92CF92DF92EF92FF920F931F93CF93AE
:10571000DF9300D000D000D0CDB7DEB78C01CE0132
:1057200001967C0186E0F70111928A95E9F758010C
:10573000F7E0AF0EB11C67014E0186E0880E911CA8
:10574000C5010E94410BF60161936F01F3E0AF0EBA
:10575000B11CC814D904A1F7F80101900020E9F7A1
:105760003197E01BF10B789748F0F80185898A336F
:1057700029F4C80146960E94410B6E83F80184818A
:105780008D33B9F581858D32A1F584858D3289F50A
:105790008785803271F582898A3359F5898189310B
:1057A00040F18A8181508C3020F58B8181508F317E
:1057B00000F58C818931E8F48D818C33D0F48E81B1
:1057C0008C33B8F4C7010E941E2B81E026960FB6D9
:1057D000F894DEBF0FBECDBFDF91CF911F910F9127
:1057E000FF90EF90DF90CF90BF90AF909F908F9001
:1057F00008956EE670E087E792E00E94FE11B8011E
:105800000E949C116AE00E94DF0F80E0DFCF0F93BF
:105810001F93CF93DF9300D000D000D0CDB7DEB779
:105820008C010E948B238091750290917602801BDF
:10583000910B20E13EE0829FB001839F700D929F0B
:10584000700D1124072E000C880B990B00915F023C
:10585000109160022091610230916202600F711F0D
:10586000821F931FAE014F5F5F4F0E94150ECE0146
:1058700001960E941E2B26960FB6F894DEBF0FBE2F
:10588000CDBFDF91CF911F910F9108954F925F92FD
:105890006F927F92AF92BF92CF92DF92EF92FF9280
:1058A0000F931F93CF93DF93CDB7DEB7C254D109C7
:1058B0000FB6F894DEBF0FBECDBF0E94C10C181604
:1058C000190664F065EA7BE087E792E00E94FE112A
:1058D00068E97BE087E792E00E94FE118091060173
:1058E000882309F47BC061E085E00E94CD3B0E94E3
:1058F000F41C8091530281110E94E91360E375E763
:1059000080E090E00E94F01890E3C92E95E7D92E30
:10591000E12CF12C0E948B3A2B013C010E948B3A26
:1059200064197509860997096C157D058E059F0513
:1059300008F067C184ED93E00E945737892B71F31B
:105940002FE330E0AE014F5F5F4F6AE084ED93E0FC
:105950000E9480395C01E1E0F0E0EC0FFD1FE80FF0
:10596000F91F1082CE0101960E941208182F8F3F56
:1059700009F4B2C0E0907502F09076020C810D330C
:1059800061F460E0CE0101960E94C60AAB01BC0141
:10599000812F0E9448170E94EF13812F90E0BC01D5
:1059A0000E941F190D3309F090C0123009F08DC00C
:1059B000C7010E94072C0E9416160E94502910E071
:1059C0000E948B3A2B013C0180ECC82E84EDD82E2E
:1059D000EE24E394F12C1111A1CF8FC30E948B3AD6
:1059E00000914F02109150022091510230915202C9
:1059F000DC01CB01801B910BA20BB30B009721E0C4
:105A0000A207B10520F08FEF9FEFA0E0B0E09093E8
:105A100086048093850420918304309184042817A0
:105A2000390720F490938404809383040E948B3A76
:105A30006B017C010E94161F182F0E948B3ADC011B
:105A4000CB018C199D09AE09BF09009731E0A3076E
:105A5000B10520F08FEF9FEFA0E0B0E090938204BB
:105A60008093810420917F043091800428173907A6
:105A700020F49093800480937F040E948B3A60937B
:105A80004B0270934C0280934D0290934E0281E042
:105A900080934A02112391F061E085E00E94CD3BA2
:105AA00062E370E080E090E00E94EA3A60E085E026
:105AB0000E94CD3BC12CD12C76012CCF83E00E94DB
:105AC000D007C12CD12C760125CF11112EC30E94F5
:105AD00050290E94032874CFBE016F5F7F4F80EC76
