:020000040000FA
:100000000C9418060C94DF380C9406390C944006B6
:100010000C9440060C9440060C94E0300C9440067E
:100020000C9440060C9440060C9440060C94400638
:100030000C9440060C9440060C9440060C94400628
:100040000C943D390C9440060C948F370C94C137B6
:100050000C9440060C9440060C9440060C94400608
:100060000C94DA340C94400654696D653A0057726A
:100070006F6E6720666F726D61743A004E657874BA
:100080002057616B6575703A000000050009000E8D
:100090000014001B0023002C00360041004D0058C6
:1000A000005F0064008403E8031A044C047E04B07B
:1000B00004E204140546057805AA05DC050E064091
:1000C000064132004131004465707468205B6D5D0B
:1000D00000506F77657220666F72006D732900287B
:1000E0007077722041312041322041332C00546816
:1000F00069732073797374656D2068617665206E0D
:100100006F20475053206F72204972696469756D82
:10011000206D6F64656D20696E7374616C6C6564CD
:100120000A00546869732073797374656D2068617F
:100130007665206E6F204972696469756D206D6FF8
:1001400064656D20696E7374616C6C65640A002966
:100150000A0020202866756C6C2000426F61726472
:100160002049443A0047543030312D00466C6173C9
:10017000682074696D656F75740A00466C617368F8
:10018000206E6F7420726573706F6E64696E670A9B
:10019000004D656D6F72792066756C6C0A00466C57
:1001A0006173682077726974652D656E61626C6534
:1001B000206661696C65640A00466C61736820732F
:1001C0007461747573205352312F5352323A005771
:1001D00041524E494E473A20666C61736820626C0A
:1001E0006F636B2070726F74656374696F6E2061EA
:1001F00063746976652C20777269746573206D610C
:1002000079206661696C0A004E6F74653A20666CED
:1002100061736820514520697320636C6561722C9D
:10022000205750232F484F4C442320617265206C87
:100230006976650A005741524E494E473A20666C2E
:100240006173682053525031207365742C2073748D
:1002500061747573207265676973746572206C6F61
:10026000636B65640A005741524E494E473A206617
:100270006C6173682053525030207365740A0048D3
:10028000454C50004C6F6767696E67206973205357
:10029000555350454E44454420756E74696C207426
:1002A00068656E2E0A004F74686572776973652001
:1002B000636C65617220746865206C6F6720776974
:1002C00074682052432E0A00546F207265636F7663
:1002D0006572207468656D2C2072652D666C617383
:1002E0006820746865206669726D77617265207434
:1002F0006861742077726F7465207468656D206121
:100300006E642064756D70204245464F52452063EF
:100310006C656172696E672E0A00546869732062A9
:1003200075696C642043414E4E4F54207265616480
:100330002074686F7365207265636F7264732E0A30
:100340000074686973206275696C6427732073692F
:10035000676E61747572653A0073616D706C657378
:100360002C207369676E617475726500696E206612
:100370006C6173683A004C4F4720464F524D4154D0
:10038000204348414E4745440A00434F4E54206C99
:100390006F6720696E20666C6173683A20646F77BE
:1003A0006E6C6F61642069742C207468656E2052D5
:1003B000432E204C6F6767696E6720535553504535
:1003C0004E4445442E0A007365636F6E64730A00E1
:1003D000627974657320696E004C4F4748206162F2
:1003E0006F727465640A00496E74656C20484558E4
:1003F00020666F6C6C6F77732E204B65657020667E
:10040000726F6D2074686520666972737420273A74
:100410002720746F203A303030303030303146464B
:100420000A00666173743A004D49534D4154434884
:100430003A207265636F72642073697A6520626521
:100440006C6F7720697320612067756573732C204A
:1004500064756D70696E67206174007468697320DB
:100460006275696C64207369676E61747572653A50
:10047000006C6F67207369676E61747572653A000E
:1004800074686973206275696C64207265636F7249
:10049000642073697A653A006F66006279746573E7
:1004A0003A0073616D706C65733A004C4F47482099
:1004B000726177206D656D6F72792064756D700A59
:1004C00000206572726E3D00206572723D002066EC
:1004D000617374626175643D0020626175643D0002
:1004E000207369643D0020666C6173683D00206381
:1004F0006F756E743D00207265633D0020736967FF
:100500003D002069643D002070726F746F3D0033C0
:100510002E313200494E464F2066773D0046756CBD
:100520006C206F6E3A0046756C6C20696E206D6FA2
:100530007265207468616E20353020796561727350
:100540000A004D656D6F72792069732046554C4CD9
:100550000A00730A00646179732061740066726531
:1005600065207265636F7264732C004D656D6F72E8
:10057000793A002070726F746F3D00332E31320073
:1005800066773D004C4F474220656E640A004C4F31
:1005900047422061626F727465640A00206661736D
:1005A000743D0020626C6F636B73697A653D002057
:1005B000626C6F636B733D0020746F3D0020667248
:1005C0006F6D3D00207265633D004C4F47422062D5
:1005D0006567696E207369673D004C4F474220652F
:1005E0006D7074790A004C4F474220656D707479C4
:1005F0000A004C6F6720656D7074790A0073616D35
:10060000706C657320706572207365636F6E64290A
:10061000007365636F6E6473007472616E736D69ED
:100620007474656420696E005468652076616C7529
:1006300065732062656C6F7720617265206D6973E8
:100640007061727365642E2052652D666C617368EB
:1006500020746865206669726D77617265207468C0
:1006600061742077726F7465207468656D20746F93
:100670002072656164207468656D2E0A00574152CE
:100680004E494E473A207468657365207265636F02
:100690007264732077657265207772697474656E11
:1006A0002077697468206120646966666572656E8A
:1006B00074206368616E6E656C207365742E0A0029
:1006C000434F4E54206C6F673A20646F776E6C6FA7
:1006D000616420697420776974682074686520619A
:1006E000707020284C4F4742292C206F72204C4FAD
:1006F0004748202B206465636F64655F6C6F676893
:100700002E70790A004C4956452074696D656F75E5
:10071000740A004C49564520656E640A006D7300EA
:100720004C49564520626567696E20657665727929
:10073000004C495645004465707468205B6D5D004F
:10074000484174656D70C2B0430052480054656DF5
:1007500070C2B04300566F6C74002020202020200F
:100760002020202020202020202054696D65005367
:10077000616D706C6520230054696D65004572726F
:100780006F723A204D6561737572656D656E742088
:100790004E4F542073746F7265640A004C6F67206B
:1007A000666F726D6174206368616E6765643A207C
:1007B000636C65617220776974682052432E204E05
:1007C0004F54206C6F6767696E672E0A004D656D28
:1007D0006F72792072657365740A00436F756E7469
:1007E000206D61786F75740A00292C206E6F74205B
:1007F00073746F7265640A00746F004F7574206FB4
:10080000662072616E6765202800426164206C6F0B
:100810007720766F6C74616765206D756C74697094
:100820006C69657220696E20454550524F4D2C20F1
:100830007573696E672064656661756C740A004241
:100840006164205254432061646A75737420696E38
:1008500074657276616C20696E20454550524F4D2B
:100860002C207573696E672064656661756C740A07
:10087000004261642074696D657A6F6E6520696EEF
:1008800020454550524F4D2C207573696E67205599
:1008900054430A0042616420696E74657276616C2B
:1008A00020696E20454550524F4D2C207573696E5E
:1008B000672064656661756C740A00434F4E464953
:1008C0004755524154494F4E0A00094177616B65C3
:1008D000206D73207072652F6D6561732F706F735B
:1008E000742C206D61783A20006D730A0020746FBB
:1008F00074616C00094177616B65206D73207072C3
:10090000652F6D6561732F706F73742C206C61732C
:10091000743A007320616363756D756C617465640E
:10092000290A00095254432061646A75737465642E
:100930002062793A004E6576657200094C617374E5
:100940002074696D6520636865636B3A0064617942
:1009500073290A0025206F7665720064617973201F
:100960002864726F7000094578706563746564204F
:1009700062617474657279206C6966653A006461BD
:1009800079732072756E6E696E670A00095365731C
:10099000696F6E2073746172743A006661696C6588
:1009A0006420617474656D70747320286C61746563
:1009B000737420636F6465206C617374290A002C62
:1009C000004E6F206572726F72730A000953656E74
:1009D000736F72206572726F72733A0020204669DD
:1009E000726D77617265206275696C743A002020BF
:1009F0005254432072656164733A004552524F521B
:100A00003A2052544320636C6F636B206E6F7420E6
:100A10007365740A00426174742E3A004E614E0A86
:100A2000004E614E0A0048756D69646974793A0038
:100A3000C2B0430A004E614E0A0054656D70657283
:100A400061747572652028544D50313139293A004E
:100A5000C2B0430A004E614E0A0054656D70657263
:100A60006174757265202848444331303830293A22
:100A7000004D6561737572656D656E7420636F7589
:100A80006E743A004E657874206D65617375726599
:100A90006D656E743A004D6561737572656D656E56
:100AA0007420696E74657276616C3A007329002057
:100AB00057616974696E6720636F6D6D616E6473F1
:100AC0002028666F7200536C656570696E672E2E04
:100AD0002E0A004461696C7920636F646500557368
:100AE00065204E4C207465726D696E61746564207A
:100AF000636F6D6D7300556E7265636F676E697AB3
:100B0000656420636F6D6D616E643A0050696E209C
:100B10006E6F7420656E61626C6564206174206321
:100B20006F6D70696C652074696D650A0050696E3F
:100B3000206E6F7420656E61626C65642061742044
:100B4000636F6D70696C652074696D650A004C4F48
:100B50005720564F4C544147450A00435249544987
:100B600043414C4C590048412054454D5000544598
:100B70004D502B524800525443006D656D6F727991
:100B80002064657465637465640A004E6F004D42AD
:100B9000004754465701475430303100332E31322C
:100BA000004F63742020372032303236002F10205F
:100BB0000C000E000000FA00000000000000446578
:100BC000707468205B6D5D0041310041320041333B
:100BD00000000000090003020000040508000000F6
:100BE0000000000000000000010204081020408006
:100BF0000102040810200102040810204080400473
:100C000004040404040404020202020202030303B3
:100C100003030302020300000000250028002B004C
:100C200000000000240027002A0022105532F1376E
:100C300011241FBECFEFD8E0DEBFCDBF12E0A0E091
:100C4000B1E0E2E6F8E702C005900D92A234B107E8
:100C5000D9F724E0A2E4B2E001C01D92A737B207A1
:100C6000E1F716E0C8E1D6E004C02197FE010E943A
:100C7000AB3BC531D107C9F70E942E390C942F3CEC
:100C80000C9400000895DC01ED91FC910190F0813D
:100C9000E02D0994FC01662359F124813581C901B5
:100CA0000196428153818417950710F5A081B18187
:100CB000A20FB31F958384836930C1F480E28C93C3
:100CC000A081B18124813581A9014F5F5F4F558398
:100CD0004483A20FB31F8C93808191810480F5819E
:100CE000E02DE80FF91F108281E008956C93F4CF96
:100CF00080E008950F931F93CF93DF938C01EB0156
:100D00006991C8010E944A068111FACFDF91CF9103
:100D10001F910F9108958F929F92AF92BF92CF92A1
:100D2000DF92EF92FF920F93CF93DF93CDB7DEB7B1
:100D30002E970FB6F894DEBF0FBECDBF6C01CB016E
:100D4000BA0159012AE0AE014F5F5F4F4A010E948C
:100D5000E73BF40101900020E9F731977F01E818A3
:100D6000F908F601638581E090E0611102C090E02E
:100D700080E09501281B390BE216F30644F4602F3E
:100D8000C6010E944A063FEFE31AF30AEACF662340
:100D900019F0C6010E944A06F6011386B401C60185
:100DA0000E947A062E960FB6F894DEBF0FBECDBF16
:100DB000DF91CF910F91FF90EF90DF90CF90BF9098
:100DC000AF909F908F900895FC01808191810C9449
:100DD000193C1F93CF93DF93EC01162F0E94E4067A
:100DE000811729F0612F888199810E94213CCE01D1
:100DF000DF91CF911F910895EF92FF920F931F9370
:100E0000CF93DF9300D0CDB7DEB78C017B019A83FF
:100E10008983FB016081CE0101960E94E9060F5F84
:100E20001F4F1A830983F7016181CE0101960E9449
:100E3000E906C7010F900F90DF91CF911F910F919D
:100E4000FF90EF900895EF92FF920F931F93CF932F
:100E5000DF9300D0CDB7DEB78C017B019A83898305
:100E6000FB016081CE0101960E94E9060F5F1F4FD2
:100E70001A830983F7016181CE0101960E94E90678
:100E8000C7010F900F90DF91CF911F910F91FF90AD
:100E9000EF900895AF92BF92CF92DF92EF92FF92C0
:100EA0000F931F93CF93DF9300D0CDB7DEB78B01A5
:100EB0006B0124E0C20ED11C7B015C01A61AB70AAB
:100EC000C5018E0D9F1D9A838983F70161917F0172
:100ED000CE0101960E94E906EC14FD0489F7C801D1
:100EE0000F900F90DF91CF911F910F91FF90EF9096
:100EF000DF90CF90BF90AF900895DC01ED91FC9111
:100F00000190F081E02D09948EBD00000DB407FE24
:100F1000FDCF8EB508952091790430917A0490E048
:100F2000A9014F7055274817590759F044E0220F7F
:100F3000331F4A95E1F7282B392B30937A042093FD
:100F4000790480917704909178048F3F980729F075
:100F5000019690937804809377040895CF93DF935C
:100F6000D82FC0E0CD17B1F061E08AE00E94C63A08
:100F700062E370E080E090E00E94E33960E08AE0A4
:100F80000E94C63A62E370E080E090E00E94E3399C
:100F9000CF5FE8CFDF91CF910895CF93C82F60E462
:100FA00070E086E293E00E94D73162E070E086E272
:100FB00093E00E947D0760E170E0CC2311F060E3D4
:100FC00070E086E293E00E947D0770E060E086E2D8
:100FD00093E00E947D0786E293E0CF910C94523219
:100FE000EF92FF920F931F93CF93DF937C0108E260
:100FF00011E0D0E0C0E043E050E0B801C7010E943A
:10100000CF3B892B41F48C2FDF91CF911F910F9112
:10101000FF90EF90089521960D5F1F4FC530D105C9
:1010200051F78FEFF1CFDB01FA01823009F441C0B3
:1010300030F48823C1F0813049F180E00895833095
:1010400009F44AC08430C9F71D921D921D921C926A
:1010500013978FEF90E0A0E0B0E080839183A283AC
:10106000B38381E0089541E050E060E070E04D938B
:101070005D936D937C93139780E891E5A1E0B0E0D8
:1010800080839183A283B38381E0089541E050E09F
:1010900060E070E04D935D936D937C93139788E1CE
:1010A00090E0A0E0B0E080839183A283B38381E0ED
:1010B000089544EF5FEF6FEF7FEF4D935D936D9376
:1010C0007C9313978EE090E0A0E0B0E08083918362
:1010D000A283B38381E0089541E050E060E070E0D6
:1010E0004D935D936D937C9313978DE691E0A0E013
:1010F000B0E080839183A283B38381E00895FC01F3
:1011000040835183628373833583248380915702A4
:101110009091580297838683809155029091560250
:101120009187808780910F0190911001938782872A
:101130008091070190910801958784870895382F41
:10114000FC01CA012E2F231B261788F42191AC0124
:10115000522728E0CA01880F991F57FF04C041E2B7
:10116000842740E194272150AC01A1F7EBCF0895EB
:101170000F931F93CF93DF9300D000D0CDB7DEB78E
:101180008C019A838983CE0101960E94E4068B83A9
:101190000F5F1F4F1A830983CE0101960E94E40658
:1011A0008C838B819C810F900F900F900F90DF911B
:1011B000CF911F910F91089583EB90E00E94B808A2
:1011C00021E08F32904209F020E0822F08950E94A2
:1011D000DC08811102C08EE0089580E108950F932C
:1011E0001F93CF93DF9300D000D0CDB7DEB78C0133
:1011F0009A838983CE0101960E94E4068B830F5F58
:101200001F4F1A830983CE0101960E94E4068C8346
:101210008B819C810F900F900F900F90DF91CF9159
:101220001F910F910895CF92DF92EF92FF920F934B
:101230001F93CF93DF9300D000D000D0CDB7DEB79F
:101240007E0125E0E20EF11C8E010F5F1F4F6C0145
:10125000C01AD10AC601800F911F9E838D83C701DA
:101260000E94E406F80181938F01EE15FF0591F7C6
:1012700069817A818B819C8126960FB6F894DEBFB6
:101280000FBECDBFDF91CF911F910F91FF90EF90D7
:10129000DF90CF900895CF92DF92EF92FF92CF939D
:1012A000DF93D0E0C0E0C12CD12C7601CE010E94AA
:1012B0001309C60ED71EE81EF91E2496C837D1059D
:1012C000A9F7C701B601DF91CF91FF90EF90DF90B2
:1012D000CF900895CF92DF92EF92FF920E944B0938
:1012E0006B017C0188E790E00E941309A701960139
:1012F000261B370B480B590BCA01B901FF90EF9021
:10130000DF90CF900895CF9360E086E00E94C63AC8
:1013100085E30E94840780E00E948407C82F61E073
:1013200086E00E94C63A8C2FCF9108950F931F93A9
:10133000CF93DF93EB01182F042F60E086E00E942B
:10134000C63A802F0E948407812F0E9484078D2F28
:101350000E9484078C2FDF91CF911F910F910C94E5
:1013600084078F929F92AF92BF92CF92DF92EF92BB
:10137000FF920F931F93CF93DF937A014801590196
:1013800043E00E949609E701C12CD12C7601C814D4
:10139000D904EA04FB0451F080E00E948407899399
:1013A0008FEFC81AD80AE80AF80AF1CF61E086E0A0
:1013B000DF91CF911F910F91FF90EF90DF90CF9031
:1013C000BF90AF909F908F900C94C63ACF9360E0FF
:1013D00086E00E94C63A85E00E94840780E00E9471
:1013E0008407C82F61E086E00E94C63A8C2FCF9117
:1013F00008958F929F92AF92BF92CF92DF92EF9219
:10140000FF9260E086E00E94C63A8FE90E9484075E
:1014100080E00E94840780E00E94840780E00E94B0
:10142000840790E030E020E0812C912C54018394DB
:10143000281739073CF4880C991CAA1CBB1C2F5F89
:101440003F4FF6CF84E190E0C12CD12C7601C394BC
:10145000CC0CDD1CEE1CFF1C0197D1F761E086E08F
:101460000E94C63AC501B401A70196010E94473BFC
:10147000822FFF90EF90DF90CF90BF90AF909F9022
:101480008F9008950F931F93CF93DF938C0160E0AB
:1014900086E00E94C63A8BE40E94840780E00E94A6
:1014A000840780E00E94840780E00E94840780E037
:1014B0000E948407E801085F1F4F80E00E948407B4
:1014C0008993C017D107C9F761E086E0DF91CF911A
:1014D0001F910F910C94C63A0F931F93CF93DF93F4
:1014E00000D0CDB7DEB702E010E020E030E0AE0182
:1014F0004F5F5F4F0E94B10989819A810F900F90D1
:10150000DF91CF911F910F9108950F931F93CF9368
:10151000DF9300D000D0CDB7DEB704E010E020E0CC
:1015200030E0AE014F5F5F4F0E94B10969817A815F
:101530008B819C810F900F900F900F90DF91CF9136
:101540001F910F9108958F708A3010F4805D089577
:10155000895C0895FF920F931F93CF93DF93EC0163
:10156000F62E6DE370E00E94C43B009711F0EC0191
:101570002196EFEF60E070E0CB0100E0F0E0199120
:101580001D3209F442C01B32D1F31E3209F43FC0B0
:1015900020ED210F2A3018F5EF158CF7611521EE9B
:1015A000720725EF820725E09207BCF4AAE0B0E0BD
:1015B0009B01AC010E94843B212F110F330B205360
:1015C0003109032E000C440B550B620F731F841F4F
:1015D000951FE7FDD4CFEF5FD2CF01E0FACF1032F5
:1015E00071F2E7FDE0E0EF15A4F4611521EE72075A
:1015F00025EF820725E0920774F4AAE0B0E09B0192
:10160000AC010E94843BEF5FEECFF1E0B8CFE0E0A9
:10161000B6CF002359F060E07CE68AEC98E8F1113F
:101620000EC060E074E985E397E709C0FF2339F055
:1016300090958095709561957F4F8F4F9F4FDF916B
:10164000CF911F910F91FF900895CF93DF93EC01FD
:101650009E012F5F3F4F88818032D1F020E030E043
:10166000A901E99180ED8E0F8A30A0F4AAE0B0E0E4
:101670000E94843B2E2FEE0F330B20533109032E93
:10168000000C440B550B260F371F481F591FE9CF7D
:10169000E901DECFCA01B901DF91CF9108958F92A0
:1016A0009F92AF92BF92CF92DF92EF92FF929B01F7
:1016B00050E040E0C12CD12C7601421753077CF456
:1016C000FC0181909190CF01092C000CAA08BB0865
:1016D000C80CD91CEA1CFB1C4F5F5F4FEECFC90141
:1016E00037FD019695958795092E000CAA0BBB0B2B
:1016F000BC01CD016C0D7D1D8E1D9F1D032E000CA8
:10170000440B550B0E94473BC901FF90EF90DF90BF
:10171000CF90BF90AF909F908F90089562E082E04D
:101720000E948A3A61E08AE00E948A3A60E08AE098
:101730000E94C63A61E085E00E948A3A60E085E056
:101740000E94C63A60E086E00E948A3A83E00E94E6
:10175000403A60E087E00E948A3A61E086E00E94B9
:101760008A3A60E086E00E94C63A61E084E00E9426
:101770008A3A60E084E00E94C63A60E083E00E941A
:101780008A3A60E083E00E94C63A60E08FE00E94FF
:101790008A3A60E08FE00E94C63A60E080E10E94F1
:1017A0008A3A60E080E10E94C63A60E081E10E94EE
:1017B0008A3A60E081E10E94C63A60E08EE00E94D1
:1017C0008A3AEEE7F0E080818160808388B1817F92
:1017D00088B987B18E6087B90895809150028111D0
:1017E00010C088B18E6088B90E948439609351021C
:1017F00070935202809353029093540281E080933D
:1018000050020895CF92DF92EF92FF920F931F93B1
:101810000E94ED0B0E9484390091510210915202F6
:101820002091530230915402DC01CB01801B910BBB
:10183000A20BB30B8A3F9105A105B105A0F40AEFF5
:1018400010E020E030E068017901C81AD90AEA0AFC
:10185000FB0AC701B6011F910F91FF90EF90DF9037
:10186000CF900C94E3391F910F91FF90EF90DF9090
:10187000CF90089580914F02811105C088B1817F7A
:1018800088B910925002089580914F028F5F809323
:101890004F020C94ED0B80914F02882319F0815078
:1018A00080934F020C943A0C10924F020E943A0C13
:1018B00050E040E062E476E080E00E94AD3860E015
:1018C00070E0CB010E94E33930E020E050E040E0DE
:1018D0006AE070E085E293E00C949230AF92BF92A0
:1018E000DF92EF92FF920F931F93CF93DF93CDB7C9
:1018F000DEB7AA970FB6F894DEBF0FBECDBFF82EA5
:101900000E94433A8E010F5F1F4F5E018BE2A80ECB
:10191000B11CD02EE12E8F2D0E94433AF801819305
:1019200091938F01EA15FB05B1F765E170E08D2D0C
:101930009E2D0E944F0BAA960FB6F894DEBF0FBEE5
:10194000CDBFDF91CF911F910F91FF90EF90DF906E
:10195000BF90AF90089586E00C946E0C8F929F928A
:10196000AF92BF92CF92DF92EF92FF920F931F93AD
:10197000FC01C8016217730719F16901330FEE0802
:10198000FF084B01072E000CAA08BB08C818D9088D
:10199000EA08FB089A012E1B3F0BD801A61BB70BC8
:1019A0000E94663B4B015C01DF01A70196010E948A
:1019B0008F3B680D791D8A1D9B1D0E94473BC90105
:1019C0001F910F91FF90EF90DF90CF90BF90AF905D
:1019D0009F908F900895AF92BF92CF92DF92EF9237
:1019E000FF920F931F93CF93DF93EC018B01069629
:1019F0000E94EF085C01CE0104960E94EF086C0182
:101A0000CE0102960E94EF087C01CE010E94EF08F1
:101A10009501A601B7010E94AE0CDF91CF911F91F5
:101A20000F91FF90EF90DF90CF90BF90AF9008950F
:101A30000E94AB0CBC018BE890E00C94EB0C81E0B5
:101A40000E94403A65E070E080E090E00C94E33959
:101A500083E00E94403A65E070E080E090E00C9402
:101A6000E339CF93DF93C82F0E94ED0B0E941F0D27
:101A70000E94020C81E1C33028F4EC2FF0E0EE5F0D
:101A8000FD4F80810E946E0CEC010E94280D0E9487
:101A90003A0CCE01DF91CF910895CF93DF93C82FF9
:101AA000D0E0833098F4FE01EE5FFD4F80810E940C
:101AB0006E0C23E0CC0FDD1F2A95E1F7BC01CE01AF
:101AC0008D569F4FDF91CF910C94EB0C81E1EFCFBE
:101AD0000E94ED0B0E941F0D0E94020C80E00E94EC
:101AE0004D0D90930801809307010E94280D0C94DE
:101AF0003A0CEF92FF920F931F93CF93DF93E5EA97
:101B0000F0E025913491281739070CF04CC0EFEB29
:101B1000F0E025913491821793070CF041C062E008
:101B200070E041E050E0FB01EB55FF4FC591D491CF
:101B3000C817D9076CF141505109440F551FFA01DC
:101B4000EB55FF4F05911491FA01E757FF4FE590D0
:101B5000F490FB01E757FF4FA591B4919C01201B26
:101B6000310BAE19BF090E94663B9E01201B310B51
:101B7000032E000C440B550B0E94473BC701820FFC
:101B8000931FDF91CF911F910F91FF90EF900895D8
:101B90004F5F5F4F6E5F7F4F4E30510509F0C3CFEF
:101BA00084E690E0EECF90E080E0EBCF0E94180D4D
:101BB0000C94790DCF93DF9380E890E00E94B808F1
:101BC0000E94790DEC010E94D60D9E01281B390B55
:101BD000C901DF91CF9108956230710581059105AA
:101BE00060F06D3371058105910548F061317E40EB
:101BF0008105910530F088E008958FE008958EE02A
:101C000008958CE00895CF92DF92EF92FF92FC014D
:101C1000238130E0A0E1BEE00E946E3B6B017C01BD
:101C2000248130E0ACE3B0E00E946E3B6C0D7D1D82
:101C30008E1D9F1D2581620F711D811D911DFF90BD
:101C4000EF90DF90CF9008956150262F2695422F78
:101C500050E02EE1629F400D511D1124E62FF0E06F
:101C6000EF5EFD4F2081240F352F311D22503109A9
:101C700041E050E0623010F050E040E0240F351FAA
:101C800041E050E0613011F050E040E0240F351F9A
:101C900083709927892B19F481E0623008F480E081
:101CA000820F932F911D08958F929F92AF92BF92B2
:101CB000CF92DF92EF92FF920F931F93CF93DF9318
:101CC000EA0159018F3F910514F48053984F4C015C
:101CD00020ED821A27E0920A640197FE03C023E0F8
:101CE000C20ED11CD594C794D594C7949C0123707F
:101CF0003327232B19F02FEFC21AD20A0E94240E89
:101D0000FC018CE3809FB001819F700D1124072E90
:101D1000000C880B990B0F2C000C000B110BE60E1E
:101D2000F71E081F191F20E13EE0D5010E947D3BF0
:101D3000E60EF71E081F191FD40120E833E341EE19
:101D400051E00E948F3B47015801860E971EA81E46
:101D5000B91EDE01AE0FBF1FAC0DBD1D119720E8EF
:101D600031E541E050E00E948F3B680D791D8A1DEE
:101D70009B1DDF91CF911F910F91FF90EF90DF900E
:101D8000CF90BF90AF909F908F9008952F923F92E9
:101D90004F925F926F927F928F929F92AF92BF927B
:101DA000CF92DF92EF92FF920F931F93CF93DF9327
:101DB000CDB7DEB764970FB6F894DEBF0FBECDBFC8
:101DC0002B013C015A8B498B80E1EDE3F1E0DE0110
:101DD000119601900D928A95E1F78E010F5F1F4FCA
:101DE0001E0121E1220E311CF801C190D190E19039
:101DF000F1908F01C301B201A70196010E94253B1A
:101E00004B015C019801245031093C8B2B8BC301A1
:101E1000B201681979098A099B09A70196010E94F4
:101E2000253BEB89FC892083318342835383240142
:101E3000350120163106C1F68D819E81AF81B885AE
:101E400030E020E08E36F1E09F07A105B10580F07B
:101E5000BC01CD0161507109810991092DE631E084
:101E600040E050E00E94253B6D837E838F839887FE
:101E700009811A81000F111F000F111F020F131F7C
:101E8000CD80DE802FEFC21AD20A9CE0792E672D1A
:101E9000C8010E94240EF601E81BF90BCF012FEFB9
:101EA000270D1E161F061CF5E989FA890083718229
:101EB0008283898583838D858483858264960FB62A
:101EC000F894DEBF0FBECDBFDF91CF911F910F9170
:101ED000FF90EF90DF90CF90BF90AF909F908F904A
:101EE0007F906F905F904F903F902F900895722E4B
:101EF000CECF0F931F9360915F027091600280912B
:101F000061029091620200916F0210917002209123
:101F1000710230917202601B710B820B930B20E6F1
:101F200033E040E050E00E94253BCA01B9011F9117
:101F30000F910895CF92DF92EF92FF92CF93DF93AC
:101F40000E94DA0DEC018FEF9FEF1C161D06C4F402
:101F50000E94D60D7C010E94790F9B01AC01D70134
:101F60000E948F3B6B017C0124E630E0DE010E9481
:101F70007D3B9B01AC01C701B6010E94473BC901F3
:101F8000DF91CF91FF90EF90DF90CF9008956AE0BE
:101F90000E94053B8295807F890F0895982F929526
:101FA0009F708F702AE0929F800D11240895CF9327
:101FB000C82F68E670E086E293E00E94D731CC2318
:101FC00039F06FE070E086E293E0CF910C947D07EA
:101FD0006EE070E086E293E0CF910C947D07682F6D
:101FE00086E293E00E94CD3186E293E00E94523275
:101FF00091E0811190E0892F08950F931F93CF9363
:102000008C01C3E0F8010995882349F00E948B07F1
:10201000C150C1F780E0CF911F910F91089581E0E9
:10202000FACF84E99FE20E94FD0F81110AC080E08F
:1020300090E89093580280935702909356028093B1
:1020400055020895E7E7F2E0A5E8B2E0B183A08386
:1020500080EA90E09383828315821482178216822D
:1020600080E28087118612861386848781E08587C7
:102070001C920895FC0101900020E9F73197AF010F
:10208000481B590BBC0184ED93E00C941E38CF9390
:10209000DF93EC011F821E8280E28C8788878D850A
:1020A000882321F0888199810E943A101D821C8228
:1020B000E881F9811082DF91CF910895CF93DF936A
:1020C000EC018C819D810097E9F048815981FA01EA
:1020D000E80FF91F319720812A30C1F48230910531
:1020E00070F00297480F591FFA0130812C85321386
:1020F00006C09D838C836AE0CE010E944A06CE0111
:102100000E944710CE01DF91CF9108956C85662320
:10211000C9F3277F2032B1F3CE010E944A06F2CFE5
:10212000EF92FF920F931F93CF93DF93EC0180E523
:10213000860F803148F48A87CE01DF91CF911F91BD
:102140000F91FF90EF9008956B3219F481E0898729
:10215000F3CF6D3A11F41C86EFCF6E3A39F482E07A
:1021600090E09F838E8380E38887F5CF6F3A31F4C8
:102170001F821E8280E28C878887DECF603A21F43E
:10218000CE010E944710D8CF80E4860F803140F402
:10219000062E000C770B605C7F4F7F836E83CCCF65
:1021A00080E3860F8031B8F4062E000C770B605D5B
:1021B0007F4F8AE0869F7001879FF00C112410E00A
:1021C00000E06AE2CE010E944A060F5F1F4FE01650
:1021D000F106BCF7B1CFCE010E944A06CE010E94A3
:1021E0005E10AACF6AE087E792E00C9490100F93FC
:1021F0001F93CF93DF9300D0CDB7DEB78C011A8346
:102200000983CE0101960E94E4060F5F1F4F8823C9
:1022100061F010928302CE0101960E94E406682FBD
:1022200087E792E00E949010EACF0F900F90DF9125
:10223000CF911F910F910895EF92FF920F931F93EB
:10224000CF93DF93C8E2D1E088E1E82E81E0F82E59
:1022500003E111E010928302688187E792E00E9417
:10226000901069810E9490106A810E94901069E02C
:102270000E949010F701819191917F01F8012191C5
:102280008F01820F911D0E94F7100E94F210239679
:10229000F1E0C733DF07F1F6DF91CF911F910F9186
:1022A000FF90EF9008959F92AF92BF92CF92DF92EE
:1022B000EF92FF920F931F93CF93DF93F82E8B0132
:1022C000942EE52ED22FC22FC80FC60FC10F109229
:1022D00083026AE387E792E00E9490105C01CD2EB2
:1022E000D12C8D2F82958F700E94A30A682FC50173
:1022F0000E9490105C018D2F0E94A30A682FC501D7
:102300000E9490105C01812F82958F700E94A30A19
:10231000682FC5010E9490105C01812F0E94A30AC2
:10232000682FC5010E9490105C01C80124E09695B9
:1023300087952A95E1F70E94A30A682FC5010E949C
:1023400090105C01802F0E94A30A682FC5010E9493
:1023500090108C018F2D82958F700E94A30A682F98
:10236000C8010E9490108C018F2D0E94A30A682F33
:10237000C8010E949010092D1E2D7801EC0CFD1C47
:10238000E016F106C1F0F80181918F01C80F829526
:102390008F700E94A30A682F87E792E00E94901036
:1023A0006C01F801319780810E94A30A682FC60151
:1023B0000E949010E5CFC1958C2F82958F700E945E
:1023C000A30A682F87E792E00E9490108C018C2F5F
:1023D0000E94A30A682FC8010E9490106AE0DF9152
:1023E000CF911F910F91FF90EF90DF90CF90BF9012
:1023F000AF909F900C949010CF92DF92FF920F932A
:102400001F93CF93DF93CDB7DEB728970FB6F8941D
:10241000DEBF0FBECDBFF82ECE0101960E94420A4C
:102420001092830201E010E00C0F1D1F0F0D111D13
:1024300087E08F15C0F0F80181918F0182958F7030
:102440000E94A30A682F87E792E00E9490106C0117
:10245000F801319780810E94A30A682FC6010E946B
:102460009010F394E5CF10927E0210927D0280E2EC
:102470008093830280937F0228960FB6F894DEBF84
:102480000FBECDBFDF91CF911F910F91FF90DF90D5
:10249000CF90089580E00C94FC11CF93DF93EC0172
:1024A0000E947A06CE01DF91CF910C945E100F93BB
:1024B0001F93CF93DF938C011092830269E571E043
:1024C00087E792E00E944D12CCE0D0E0C8010C2ECC
:1024D00002C0969587950A94E2F70E94A30A682F96
:1024E00087E792E00E9490102497CC3F8FEFD807A7
:1024F00069F710927E0210927D0280E2809383023F
:1025000080937F02DF91CF911F910F9108950F93D8
:102510001F93CF93C82F1092830269E571E087E77C
:1025200092E00E944D128C018C2F82958F700E9438
:10253000A30A682FC8010E9490108C018C2F0E9462
:10254000A30A682FC8010E949010FC01178216820E
:1025500080E284878087CF911F910F9108950F9318
:102560001F93CF93DF938C01EB01FE016491C801AF
:102570000E944A0621968111F8CFC801DF91CF91C0
:102580001F910F910C945E100F931F93CF93DF93C5
:10259000182FD92F062FC42F109283026CE287E7E1
:1025A00092E00E949010C11119C060E287E792E0AA
:1025B0000E949010E12FFD2F8491882331F0807CC0
:1025C000803809F0CF5F3196F7CFC01738F460E25A
:1025D00087E792E00E949010CF5FF7CF612F7D2FA9
:1025E00087E792E0DF91CF911F910F910C94AF128A
:1025F000CF93C82F10928302882351F168E777E0C8
:1026000087E792E00E94AF124C2F65E085E597E0E6
:102610000E94C4124C2F67E08DE497E00E94C41220
:102620004C2F65E08AE497E00E94C4124C2F68E0CA
:1026300080E497E00E94C4124C2F68E086E397E0A4
:102640000E94C4126AE087E792E0CF910C94901048
:1026500068EC87E792E00E9490106FE677E00E94B6
:10266000AF126CE20E9490106AE577E00E94AF1210
:10267000CBCF8F929F92AF92BF92CF92DF92EF9289
:10268000FF920F931F93CF93DF9300D0CDB7DEB7A8
:1026900061ED87E792E00E9490106FE772E00E9480
:1026A000AF1261ED0E9490106AE00E94901000E667
:1026B00011E0F12CE12C9AE0A92EB12C1A830983A8
:1026C000CE0101960E94E4069FEFE91AF90A8432CE
:1026D000E9F445018E189F08181419041CF0882489
:1026E0008394912CD12CC12C60E287E792E00E9468
:1026F00090108FEFC81AD80AC814D904ACF30F5F32
:102700001F4F011594E01907C9F604C0811113C0C9
:102710000E94F2100E941C110F900F90DF91CF9138
:102720001F910F91FF90EF90DF90CF90BF90AF90EF
:102730009F908F9008958A3029F40E94F210F12C16
:10274000E12CDDCF10928302682F87E792E00E9490
:102750009010D5CFCF93C82F8B3A71F461E084E00D
:102760000E94C63A61E086E00E94C63A61E070E0ED
:1027700080E090E00E94E33960E086E00E94C63A83
:102780008C2F0E94840761E086E00E94C63AC63022
:1027900019F081E0CF9108950E94E60981FDF9CFFB
:1027A0006EE971E087E792E00E94AF1280E0F2CF1D
:1027B00089EB0E94AA1361E086E00C94C63ACF929E
:1027C000DF92EF92FF92CF930E9484396B017C01DC
:1027D000C0E00E9484396C197D098E099F09683E0A
:1027E000734081059105F0F40E94E6098F3F81F462
:1027F000CF5FC63080F06BE771E087E792E00E9420
:10280000AF1280E0CF91FF90EF90DF90CF900895CE
:1028100080FF10C0C0E061E070E080E090E00E94C6
:10282000E339D7CF6CE671E087E792E00E94AF1200
:1028300080E0E8CF81E0E6CFCF93DF930E94E60906
:10284000D82F0E948309C82FD7FF06C066E672E022
:1028500087E792E00E94AF12C0FF06C065E372E016
:1028600087E792E00E94AF12C1FD06C068E072E007
:1028700087E792E00E94AF128D2F8C7331F06FECDE
:1028800071E087E792E00E94AF1269EB71E087E7A1
:1028900092E00E94AF128D2F0E9487121092830245
:1028A0006FE287E792E00E9490108C2F0E948712BF
:1028B00010927E0210927D0280E2809383028093C8
:1028C0007F02DF91CF910C94F2101092830265E6A3
:1028D00071E087E792E00E94AF1285E00C94FC1152
:1028E000CF93DF936BE571E087E792E00E94AF1230
:1028F0000E946514C7E7D2E01C8662E571E0CE0154
:102900000E94AF120E944A121C866FE471E0CE0151
:102910000E94AF12FC011782168280E284878087B2
:10292000DF91CF9108958BEA0E94AA130E94701440
:102930000C94D81362E271E087E792E00C94AF1236
:102940006EEE70E087E792E00C94AF121F93CF9386
:10295000DF9300D0CDB7DEB713E0809118019091DE
:1029600019010E9413096093690270936A028093AF
:102970006B0290936C026150710981099109603872
:10298000714581409105A0F0115039F764E978E074
:1029900087E792E00E94AF1288E592E0A0E0B0E005
:1029A0008093690290936A02A0936B02B0936C02C9
:1029B00013E080911C0190911D010E94EF089093FB
:1029C0007602809375020C964B9760F0115089F750
:1029D00061E778E087E792E00E94AF1210927602FA
:1029E0001092750213E080911E0190911F010E94C8
:1029F000B808909374028093730201978D369140CA
:102A000070F0115081F76FE378E087E792E00E9461
:102A1000AF128EE190E0909374028093730213E002
:102A200080911A0190911B019A838983CE010196AE
:102A30000E94E406809312018150883158F01150B1
:102A400079F76AE078E087E792E00E94AF1281E0D0
:102A5000809312010F900F90DF91CF911F910895F5
:102A60000F931F93CF93DF9300D000D0CDB7DEB785
:102A700010E000E0C8010E941309603523EC7207E2
:102A800081059105B8F46F5F7F4F8F4F9F4F69832A
:102A90007A838B839C83BE016F5F7F4FC8010E9446
:102AA0004A070F900F900F900F90DF91CF911F91D9
:102AB0000F9108950C5F1F4F08371105D9F66BED84
:102AC00077E087E792E00E94AF12EBCF5F926F92C0
:102AD0007F928F929F92AF92BF92CF92DF92EF92AE
:102AE000FF920F931F93CF93DF93EC016A017B0159
:102AF0000A8558846E807F80002309F459C010E055
:102B000021E030E040E050E0F0E0E0E0AAE0B0E0BA
:102B10000E94843B9B01AC013196E017F107B4F3AE
:102B2000C701B6010E94253B49015A0121E030E06E
:102B300040E050E0F0E0E0E0AAE0B0E00E94843B3A
:102B40009B01AC013196E017F107B4F3C501B40164
:102B50000E94F53AC61AD70AE80AF90A0F5F1F4F12
:102B60009301201B310B052DB501A401CE010E945C
:102B70008B066EE2CE010E944A062A8530E000E311
:102B8000B701A601CE010E948B061A86CE01DF9105
:102B9000CF911F910F91FF90EF90DF90CF90BF905A
:102BA000AF909F908F907F906F905F900C945E108D
:102BB000052D93010E948B06E9CF77FF0EC02DE211
:102BC000FC01238770956095509541955F4F6F4F3D
:102BD0007F4FFC0111860C946615FC012185222390
:102BE000C1F32BE22387F5CFAB01770F660B770B91
:102BF0000C94DD15CF93DF93C7E7D2E01C8660E825
:102C000075E0CE010E94AF126BE775E00E94AF1233
:102C100063E775E0CE010E94AF1267E070E00E94AA
:102C2000F4151F821E8280E28C878887DF91CF9106
:102C30000C94F2101F93CF93DF93EC01162F82E0D8
:102C400090E090937E0280937D0280E380937F02E8
:102C500010928302688170E06053784F87E792E0BA
:102C60000E94F4156DE20E949010698170E00E944C
:102C7000F4156DE20E9490106A8170E00E94F415D4
:102C800060E20E9490106B8170E00E94F4156AE38C
:102C90000E9490106C8170E00E94F4156AE30E941B
:102CA00090106D8170E00E94F415FC01178216826D
:102CB00080E2848780871123B9F0109283026CE54B
:102CC00071E087E792E00E944D1221E0FC0121872C
:102CD00060917502709176020E94F41569E2DF91AD
:102CE000CF911F910C949010DF91CF911F91089577
:102CF0001F93CF93DF9300D000D000D0CDB7DEB7C5
:102D0000142FAE014F5F5F4F0E94C60E612FCE01A0
:102D100001960E941A1626960FB6F894DEBF0FBED3
:102D2000CDBFDF91CF911F91089563ED87E792E0CA
:102D30000E9490106AE00E9490106BEF79E087E7A4
:102D400092E00E94AF126EEE79E087E792E00E9477
:102D5000AF1260915F027091600280916102909168
:102D6000620241E00E9478160E94F2106CED79E058
:102D700087E792E00E94AF1241E067ED7EEC8CE1C4
:102D800092E30E9478160E94F21063ED87E792E0CA
:102D90000E9490106AE00C94901068E670E087E75B
:102DA00092E00E94AF1261E083E692E00E941A1660
:102DB0000C94F210EF92FF920F931F93CF93DF9337
:102DC00000D000D0CDB7DEB77B013C832B838B01D5
:102DD0000E5F1F4F50E0FC01E40FF51F20812D33E3
:102DE000E9F4FC0101900020E9F73197E81BF90BA9
:102DF0004F5F5F4F4E175F0788F463E00E94AA0A97
:102E00007A836983BE016F5F7F4FC7010E94FC0612
:102E1000BE016D5F7F4FC8010E94FC06C7010E9482
:102E2000EF08BC0187E792E00E94F41562E671E0CA
:102E30000E944D127C01C8010E94EF08BC01C7012D
:102E40000E94F4156AE00E9490100F900F900F906E
:102E50000F90DF91CF911F910F91FF90EF90089508
:102E60000F931F93CF93DF938C01C62FD42F862F00
:102E70000E94310D28E0C29FB00111246D567F4F92
:102E80002D2F2150330BA901440F551F440F551FFF
:102E9000640F751F9C0143E0C801DF91CF911F9122
:102EA0000F910C94DA168F929F92AF92BF92CF92AD
:102EB000EF920F93CF93DF934B015C01D42FC22F7E
:102EC000109283026CE287E792E00E949010C1109A
:102ED0002FC060E287E792E00E949010DD2351F05E
:102EE000C3E0C01738F560E287E792E00E949010D7
:102EF000CF5FF7CF60EC600F87E792E00E94901001
:102F0000EE2019F081E08093800260EB6C0F87E780
:102F100092E00E949010B501A401DF91CF910F9132
:102F2000EF90CF90BF90AF909F908F900C94DD1555
:102F3000DD2359F367E671E087E792E0DF91CF91F7
:102F40000F91EF90CF90BF90AF909F908F900C9487
:102F50004D12CF92EF920F93CF93DF93EC0110922B
:102F6000830261E377E087E792E00E94AF1260E2BC
:102F70000E94901060915F027091600280916102E6
:102F80009091620240E00E94781610928302CE0176
:102F90006AE070E00E94113B072E000C880B990B31
:102FA000CC24C394E12C05E022E040E00E945317BA
:102FB000609157027091580241E0611580E87807EE
:102FC00009F040E0072E000C880B990BCC24C39429
:102FD000EE24E39407E022E00E945317609155022B
:102FE00070915602472F441F4427441F072E000CA0
:102FF000880B990BE12C05E021E00E9453176091AA
:103000000F017091100141E0611580E8780709F027
:1030100040E0072E000C880B990BCC24C394EE24BF
:10302000E39408E022E00E94531760910701709139
:10303000080141E0611580E8780709F040E0072EBB
:10304000000C880B990BCC24C394E12C08E023E0FE
:103050000E94531760EC87E792E00E9490106AE0AC
:10306000DF91CF910F91EF90CF900C949010CF9271
:10307000DF92EF92FF921F93CF93DF93CDB7DEB72E
:103080002C970FB6F894DEBF0FBECDBF182F6A0184
:103090007B01AE014B5F5F4FBE01675F7F4F0E94B8
:1030A0001308882391F089859A85AB85BC85C8165D
:1030B000D906EA06FB0604F18D819E81AF81B885B1
:1030C0008C159D05AE05BF05BCF0812F90E0FC017D
:1030D000EE5DFE4F20812936C9F5DA82C982880F5C
:1030E000991FFC01E85EFE4FBE016F5F7F4F80813C
:1030F00091810E94FC061CC06BEF77E087E792E0AD
:103100000E94AF1249855A856B857C850E94DD152A
:1031100068EF77E00E94AF12FC0114864D815E815A
:103120006F8178850E94DD1569EE77E00E94AF120D
:103130002C960FB6F894DEBF0FBECDBFDF91CF91B6
:103140001F91FF90EF90DF90CF900895253779F48D
:10315000DA82C982880F991FFC01E85EFE4FBE012A
:103160006F5F7F4F808191810E942307E1CF2535DA
:1031700089F4C982DA82EB82FC82880F991FFC01F4
:10318000E85EFE4FBE016F5F7F4F808191810E949C
:103190004A07CECF223661F6880F991FFC01E85E00
:1031A000FE4F808191819A8389836C2DCE01019697
:1031B0000E94E906BDCFCF92DF92EF92FF92CF93AC
:1031C000DF936B017C0161ED87E792E00E94901034
:1031D0006FEA7AE00E94AF12EC01C701B60128EE57
:1031E00033E040E050E00E94253BBA01A901CE0146
:1031F0000E9466156CEA7AE00E94AF1261ED0E94AF
:1032000090106AE0DF91CF91FF90EF90DF90CF9028
:103210000C949010AB0170E060E00C9466156CECBF
:1032200079E087E792E00E94AF1280917704909155
:103230007804892B31F461EC79E087E792E00C9413
:10324000AF128091790490917A040E9457126FEB2B
:1032500079E087E792E00E94AF1260917704709165
:1032600078040E940A196BE979E00C94AF12CF93AD
:10327000DF93811528E0920738F5EC0186E00E9483
:10328000AA13882309F1BE0190E080E02CE0660FCC
:10329000771F881F991F2A95D1F740E20E9496094F
:1032A00061E086E00E94C63ABE0187E792E00E9494
:1032B0000A196BE671E00E944D126AE00E949010BC
:1032C000DF91CF910C94DF1380E0DF91CF910895CF
:1032D0004F925F926F927F928F929F92AF92BF9226
:1032E000CF92DF92EF92FF920F931F93CF93DF93D2
:1032F0006B017C01B42EA52E28013901DC01CB0124
:10330000840D951DA61DB71D0097A048B105C0F0FE
:1033100061E971E087E792E00E94AF1280E0DF91FF
:10332000CF911F910F91FF90EF90DF90CF90BF90C2
:10333000AF909F908F907F906F905F904F90089587
:10334000CB019F700097B1F5D701CB014CE0B6954A
:10335000A795979587954A95D1F70E9437198823A5
:1033600009F443C0812C99249394411451046104BD
:10337000710409F451C0C60199278401081B190B77
:103380004016510608F4820186E00E94AA138823A1
:1033900061F142E0C701B6010E949609CB2DDA2DFA
:1033A0005E01A00EB11ECA15DB0509F189910E94CC
:1033B0008407F9CFA3019801280F391F411D511D22
:1033C000DA01C90181309041A105B10558F2D70158
:1033D000CB012CE0B695A795979587952A95D1F7BF
:1033E00001960E9437198111BDCF80E098CF61E02E
:1033F00086E00E94C63A0E94DF138823B1F330E0D2
:1034000020E0C00ED11EE21EF31EBC2EAD2E401ACF
:10341000510A620A730AA9CF81E081CF8330A8F4F0
:10342000E82FF0E0E25FFD4F8081882371F06FEDBF
:1034300070E087E792E00E94AF126AEF70E00E94AE
:103440000A196BED70E00C94AF120895EF92FF92A1
:103450000F931F93CF938EE0E82E82E0F82E05E0C5
:1034600012E0C0E0C330D1F0F70180818823B1F0D1
:1034700061ED70E087E792E00E94AF12F801608191
:1034800071810E94AF126AE30E9490108C2F0E94FB
:103490000E1A6AE087E792E00E949010CF5FFFEF7C
:1034A000EF1AFF0A0E5F1F4FC430E1F6CF911F9154
:1034B0000F91FF90EF900895AF92BF92CF92DF925D
:1034C000EF92FF920F931F93CF93DF9300D0CDB76E
:1034D000DEB75B018C01000F111F085E1E4F9C01BF
:1034E0002D5E3E4F6901FC01EE5DFE4F7F01C6017E
:1034F00083519140A816B9060CF45BC0F6012191E6
:103500006F01F80180819181820F911D0E94F71057
:1035100062E771E087E792E00E944D12F701819126
:103520007F01893681F4F801808191810E94EF0842
:10353000BC0187E792E00E94F4156AE00E949010B7
:103540000E5F1F4FD4CF853771F4F80180819181D0
:103550000E94B808BC0187E792E00E940A196AE05D
:103560000E949010EDCF853579F4F801808191812A
:103570000E941309AB01BC0187E792E00E94661527
:103580006AE00E949010DCCF8236D1F6F80180818B
:1035900091819A838983CE0101960E94E406682F67
:1035A00070E087E792E00E94F4156AE00E949010B4
:1035B000C7CF0F900F90DF91CF911F910F91FF9088
:1035C000EF90DF90CF90BF90AF9008952F923F92F1
:1035D0004F925F926F927F928F929F92AF92BF9223
:1035E000CF92DF92EF92FF920F93CF93DF93CDB7FD
:1035F000DEB72A970FB6F894DEBF0FBECDBF8A871D
:103600008BEA0E94AA130E946A0969837A838B83DA
:103610009C830E94DC0860EC76E081116FC1809190
:103620004E02882361F06DE776E087E792E00E9422
:10363000AF1268E276E087E792E00E94AF1229813C
:103640003A814B815C81232B242B252B09F454C117
:1036500031E039874A85423009F0198689850E9410
:10366000F8125A85412C512C32014394513021F4E7
:1036700049805A806B807C800E9484396D837E8370
:103680008F839887AEE0B0E0A30192010E94843B53
:103690004B015C018AE0282E312C89819A81AB8113
:1036A000BC8184159505A605B70598F0C501B40140
:1036B0006E5071098109910981149104A0E8AA064C
:1036C000B10408F473C061E971E087E792E00E94F9
:1036D000AF120E9484396B017C012D813E814F81A4
:1036E0005885C21AD30AE40AF50A49815A816B81C6
:1036F0007C8187E792E00E94661569E176E00E948E
:10370000AF1262EB0E9490109E838D83C701B601B9
:103710002AE030E040E050E00E94253BBA01A901D8
:103720008D819E810E94661561E176E00E94AF1254
:10373000C114D104E104F104F1F060E072E087E724
:1037400092E00E944D129E838D83A8EEB3E0298102
:103750003A814B815C810E94843BA70196010E94C3
:10376000253BBA01A9018D819E810E9466156DEFEE
:1037700075E00E94AF120E94F2102A960FB6F894DC
:10378000DEBF0FBECDBFDF91CF910F91FF90EF90C5
:10379000DF90CF90BF90AF909F908F907F906F9071
:1037A0005F904F903F902F900C94D8130E94850A01
:1037B0006B017C01BA85B23079F01092830268EC1B
:1037C00087E792E00E949010B301A2010E94661563
:1037D00065E771E00E944D1240E0C701B6010E940A
:1037E000781610928302C501B4016A5071098109EB
:1037F00091090E946C0AB1010E94113B072E000C36
:10380000880B990BC984E12C05E022E040E00E947E
:103810005317C501B40168507109810991090E94CB
:103820006C0A41E0811520E8920709F040E0BC01F4
:10383000990F880B990BC984EE24E39407E022E0EA
:103840000E945317C501B40166507109810991099D
:103850000E946C0A492F441F4427441FBC01990F42
:10386000880B990BC984E12C05E021E00E945317D5
:10387000C501B40164507109810991090E946C0A63
:1038800041E0811530E8930709F040E0BC01990F51
:10389000880B990BC984EE24E39408E022E00E948F
:1038A0005317C501B40162507109810991090E9441
:1038B0006C0A41E0811550E8950709F040E0BC0131
:1038C000990F880B990BC984E12C08E023E00E9432
:1038D000531760EC87E792E00E9490106AE00E9424
:1038E00090108FEF481A580A680A780A9EE0890EED
:1038F000911CA11CB11CD1CE62EF75E087E792E06C
:103900000E94AF123ACF0F931F93CF93DF938BEAAE
:103910000E94AA13C7E7D2E01C8664E175E0CE01DD
:103920000E94AF126FE075E00E94AF1267E075E091
:10393000CE010E94AF1267E070E00E94F41562E0D1
:1039400075E0CE010E94AF120E944A121C866CEFF5
:1039500074E0CE010E94AF1283EB90E00E94B808A1
:103960000E9457121C8666EF74E0CE010E94AF12CF
:103970008C010E94E708482F50E070E060E0C80129
:103980000E9466156EEE74E0CE010E94AF128C01AB
:103990000E946A09AB01BC01C8010E94661566EE6F
:1039A00074E0CE010E94AF1240E050E060E870E0A9
:1039B0000E94661560EE74E0CE010E94AF120E9474
:1039C00065141C8669ED74E0CE010E94AF1240E0E0
:1039D00052EC61E070E00E9466156EEC74E0CE017E
:1039E0000E94AF1240E054E863E070E00E94661568
:1039F00068EC74E0CE010E94AF128091790490913E
:103A00007A040E9457121C8661EC74E0CE010E9479
:103A1000AF1260917704709178040E940A191F8296
:103A20001E8280E28C8788870E94F210DF91CF91FE
:103A30001F910F910C94D813EF92FF920F931F9345
:103A4000CF93DF9300D0CDB7DEB783EB90E00E9439
:103A5000B8088C010E946A09672B682B692BC1F09A
:103A60000F3F1007A9F081E00F3290E1190709F428
:103A700080E080934E020F3280E11807B9F40F9076
:103A80000F90DF91CF911F910F91FF90EF900895CC
:103A90008FE290E19A838983BE016F5F7F4F83EB52
:103AA00090E00E94230710924E02E9CF0F3290E27D
:103AB000190751F46AE873E087E792E00E94AF12B9
:103AC00081E080934302DBCF63ED87E792E00E94C1
:103AD00090106AE00E94901066E773E087E792E03A
:103AE0000E94AF126CE673E087E792E00E94AF128B
:103AF0007C010E946A09AB01BC01C7010E946615E6
:103B000069E573E00E94AF12C8010E9457120E943B
:103B1000F21061E473E087E792E00E94AF128FE257
:103B200090E10E9457120E94F2106AE173E087E769
:103B300092E00E94AF1268EC72E087E792E00E9488
:103B4000AF1266EA72E087E792E00E94AF1264E883
:103B500072E087E792E00E94AF1263ED87E792E0A0
:103B60000E9490106AE00E94901081E080934302CE
:103B700086CF80918402882321F088E791E00C941D
:103B80003A10089581E08093430280918402882353
:103B900021F08CE791E00C943A1008951F93CF9395
:103BA000DF9344E050E062E871E084ED93E00E942E
:103BB0001E38C1E9DBE0FE011491812F82958F70E0
:103BC0000E94A30A682F880F770B84ED93E00E9470
:103BD0004306812F0E94A30A682F880F770B84ED7C
:103BE00093E00E9443062196FBE0C13DDF0719F7F1
:103BF0006AE070E084ED93E0DF91CF911F910C9427
:103C00004306CF93C82F862F0E94D70F6C2F86E2D2
:103C100093E00E945A3186E293E0CF910C945232A5
:103C20001F93CF93DF93182FEB0168E470E086E2D7
:103C300093E00E94D731612F86E293E00E945A31CF
:103C40006D2F86E293E00E945A316C2F86E293E05A
:103C50000E945A3186E293E00E94523291E0811133
:103C600090E0892FDF91CF911F91089560E274E079
:103C700081E00C94101E83E390E30E94FD0F8111FC
:103C800006C080E090E89093100180930F010C949F
:103C9000361ECF92DF92EF92FF920F931F93CF9336
:103CA0000E94CD1666E97AE087E792E00E94AF12A3
:103CB0004091690250916A0260916B0270916C02AE
:103CC0000E94661567E871E00E944D1264E87AE090
:103CD00087E792E00E94AF1261E089E592E00E94DE
:103CE0001A160E94F2100E946A096B017C0161E7BA
:103CF0007AE087E792E00E94AF12B701A6010E9426
:103D0000661568E20E9490108C01A4E6B0E0A7015D
:103D100096010E94843B22E934E249E050E00E948F
:103D2000253BBA01A901C8010E94661560E971E04E
:103D30000E944D1242E954E269E070E00E9466156B
:103D400068EA71E00E944D120E9411100E943B1E11
:103D50006AE57AE087E792E00E94AF12809157020D
:103D6000909158028115904809F08DC065E57AE080
:103D700087E792E00E94AF126AE37AE087E792E079
:103D80000E94AF1280910F0190911001811590480F
:103D900009F089C065E37AE087E792E00E94AF12FC
:103DA00066E27AE087E792E00E94AF1280915502C6
:103DB0009091560297FF87C061E27AE087E792E030
:103DC0000E94AF120E94680D8BE0C82E82E0D82EB0
:103DD00007E011E095E0E92E92E0F92EC0E0C33053
:103DE000D9F0F60180818823B9F0F70160817181F3
:103DF00087E792E00E94AF126AE30E949010F801F8
:103E0000808191818115904809F06DC06CE17AE064
:103E100087E792E00E94AF12CF5FFFEFCF1ADF0A71
:103E20000E5F1F4F22E0E20EF11CC430C1F60E946B
:103E3000180D8C0165E17AE087E792E00E94AF12ED
:103E400062EB0E9490109C01C8016AE070E00E9441
:103E5000113BC9010E94F4156EEF71E00E944D12F2
:103E60007C01C8010E94790DBC01C7010E94F415B4
:103E700067EA71E0CF911F910F91FF90EF90DF9073
:103E8000CF900C944D1262EB87E792E00E94901065
:103E900060915702709158020E94F41560E57AE033
:103EA0000E94AF1269CF62EB87E792E00E94901008
:103EB00060910F01709110010E94F41560E37AE0A7
:103EC0000E94AF126DCF61EB87E792E00E949010E5
:103ED00060915502709156020E94F41562EA71E0F9
:103EE0000E944D126FCF63EB87E792E00E94901023
:103EF000F801608171810E94F41565EA71E00E9409
:103F00004D128C2F0E940E1A6AE087E792E00E9401
:103F1000901082CFCF92DF92EF92FF92CF93DF93F8
:103F20000E94491E8BEA0E94AA130E9470140E94EC
:103F3000D8136CE879E087E792E00E94AF126091B5
:103F40006F0270917002809171029091720241E053
:103F50000E9478160E94F2100E94790F2AE030E049
:103F600040E050E00E94473B69017A0169E087E741
:103F700092E00E94901061EB0E949010B701A601A0
:103F80000E94DD156EE779E00E94AF1266E679E0E7
:103F900087E792E00E94AF12EC010E949A0FBC01E9
:103FA000CE010E94F4156BE579E00E94AF12EC019E
:103FB0000E94DA0DBC01CE010E94F41564E579E09F
:103FC0000E94AF1261EB0E949010B701A6010E94FF
:103FD000DD156DE479E00E94AF126BE379E087E7CD
:103FE00092E00E94AF1282E890E00E941309683DBF
:103FF0007E4C8C41924308F4AFC082E890E00E946E
:10400000130941E00E9478160E94F21063E279E001
:1040100087E792E00E94AF127C0186E890E00E9460
:10402000EF08BC01C7010E94F4156BEA71E00E9421
:104030004D127C0188E890E00E94EF08BC01C701A6
:104040000E94F41563E179E00E94AF1264EF78E01A
:1040500087E792E00E94AF12FC011486609185040C
:10406000709186040E940A196FEA71E00E944D1255
:1040700060918104709182040E940A196FEA71E0D4
:104080000E944D1260917D0470917E040E940A1975
:10409000FC0117821682C0E2C487C0876DEE78E00B
:1040A0000E94AF12209185043091860440918104D2
:1040B0005091820470E060E0420F531F611D711D3A
:1040C00020917D0430917E04420F531F611D711DAC
:1040D0000E94661569EE78E00E94AF126AEC78E003
:1040E00087E792E00E94AF12FC011486609183047E
:1040F000709184040E940A196FEA71E00E944D12C7
:1041000060917F04709180040E940A196FEA71E047
:104110000E944D1260917B0470917C040E940A19E8
:10412000FC0117821682C487C0876AE00E94901043
:104130000E940F196BEB78E087E792E00E94AF12C4
:1041400064E070E090E080E0DF91CF91FF90EF902D
:10415000DF90CF900C945C1A65E379E087E792E0FA
:104160000E94AF1251CFCF93DF930E9411100E9493
:104170003B1E0E94180DEC010E94680DCE01DF91DC
:10418000CF910895CF92DF92EF92FF920F931F93FA
:10419000CF93DF93CDB7DEB72E970FB6F894DEBF7F
:1041A0000FBECDBF80914E028823B9F06CE977E055
:1041B00087E792E00E94AF1210E0812F2E960FB693
:1041C000F894DEBF0FBECDBFDF91CF911F910F914D
:1041D000FF90EF90DF90CF9008950E94ED0B8BEA57
:1041E0000E94AA130E946A096B017C010E94B320FD
:1041F0008C01C114D104E104F10491F1AEE0B0E00E
:10420000A70196010E94843B6B017C0140915F02F3
:104210005091600260916102709162029801CE013A
:1042200001960E947F080EE010E020E030E0AE0131
:104230004F5F5F4FC701B6010E946819182F89EBC5
:104240000E94AA13111121C088E00E948B076DE71C
:1042500077E087E792E00E94AF120E94D813ADCFBB
:104260006FE572E08CE790E00E944A078FE290E1F0
:104270009A838983BE016F5F7F4F83EB90E00E943A
:104280002307C12CD12C7601C1CF0E94301580911B
:104290008402882311F381E00E94E61ADECFCF92D8
:1042A000DF92EF92FF926B017C0184ED93E00E941C
:1042B000BD3626E0B701A60184ED93E00E942A37BF
:1042C00084ED93E00E945036892B29F084ED93E031
:1042D0000E946A36F5CF62E370E080E090E0FF90E4
:1042E000EF90DF90CF900C94E339CF92DF92EF9272
:1042F000FF9284ED93E00E945036892B71F084ED9B
:1043000093E00E945C368831910561F484ED93E07E
:104310000E946A3681E080934202FF90EF90DF9026
:10432000CF9008954397C9F784ED93E00E946A36D1
:104330000E9484396B017C010E9484396C197D09CB
:104340008E099F09603375478105910530F784ED2B
:1043500093E00E945036892B79F384ED93E00E941C
:104360006A3681319105C9F2489731F781E080932F
:104370004202D3CF2F923F924F925F926F927F92E1
:104380008F929F92AF92BF92CF92DF92EF92FF9265
:104390000F931F93CF93DF93CDB7DEB7A0970FB6E0
:1043A000F894DEBF0FBECDBF6B017C0129013A013D
:1043B0008BEA0E94AA130E946A094B015C0183EBFD
:1043C00090E00E94B8088C0180914E0236E2332EB4
:1043D000811102C02EE0322EC114D104E104F10497
:1043E00039F021E0C216D10420E8E206F10428F0F9
:1043F000C12CD12C90E8E92EF12C6BEA74E087E710
:1044000092E00E94AF1262EA74E087E792E00E94B5
:10441000AF12B501A4010E9466156AE00E949010D7
:104420006BE974E087E792E00E94AF12B701A60142
:104430000E94661568E974E00E94AF1240E050E007
:1044400060E870E00E9466156AE00E94901060E8E3
:1044500074E087E792E00E94AF124EE050E060E027
:1044600070E00E9466156AE00E94901061E774E0B7
:1044700087E792E00E94AF12C8010E9457120E9483
:10448000F2106BE574E087E792E00E94AF128FE2D2
:1044900090E10E9457120E94F21080914E028823F0
:1044A00079F068E274E087E792E00E94AF12432D52
:1044B00050E070E060E00E9466156AE00E94901093
:1044C000411451046104710469F062E274E087E709
:1044D00092E00E94AF12B301A2010E9466156AE049
:1044E0000E94901067EE73E087E792E00E94AF129F
:1044F00084ED93E00E94BD364114510461047104BF
:1045000021F0C301B2010E944F210E9484396D8FB6
:104510007E8F8F8F98A310924202CB8ADC8AED8A1D
:10452000FE8A812C912C54010FEF1FEF882009F493
:1045300051C08B899C89AD89BE894097A105B10581
:1045400008F08CC09B899B8F3C882D88AE89AC8FEE
:104550009501442755272F8B388F498F5A8F021783
:10456000130761F0198A3F893A8B22E0AE014F5E52
:104570005F4F70E060E084E00E9453110B8D132DBB
:10458000222D3C8DAE014F5F5F4FC501B4010E94EB
:10459000B1092B8DAE014F5F5F4FB40180E00E94E7
:1045A000531140E1840E911CA11CB11C8B899C8984
:1045B000AD89BE894097A109B1098B8B9C8BAD8BCE
:1045C000BE8B0F89188D8C149D04AE04BF0408F4B3
:1045D000ADCF07C00E94752180914202882309F463
:1045E000A8CF80914202811108C020E050E040E055
:1045F00070E060E081E00E9453114528462847287A
:1046000031F060E072EC81E090E00E944F218091F7
:104610004202882349F169ED73E087E792E00E9446
:10462000AF12109242020E94D813A0960FB6F894CF
:10463000DEBF0FBECDBFDF91CF911F910F91FF90D5
:10464000EF90DF90CF90BF90AF909F908F907F9032
:104650006F905F904F903F902F900895B0E1BB8F87
:10466000312C212C1C8E74CF0E9484394B015C01AB
:104670002D8D3E8D4F8D58A1821A930AA40AB50A3A
:10468000B701A60187E792E00E94661560ED73E02E
:104690000E94AF1262EB0E9490108C01C501B40120
:1046A0002AE030E040E050E00E94253BBA01A90139
:1046B000C8010E94661567EC73E00E94AF12B3CF89
:1046C000CF93C92F682F84ED93E00E94DD366C2FC5
:1046D00084ED93E0CF910C94DD362F923F924F9270
:1046E0005F926F927F928F929F92AF92BF92CF9282
:1046F000DF92EF92FF920F931F93CF93DF93CDB78B
:10470000DEB7E0970FB6F894DEBF0FBECDBF2B012A
:104710003C0149015A01EDA2FEA20FA318A70E9475
:104720006A096115710581059105F9F466EE75E078
:1047300087E792E00E94AF12E0960FB6F894DEBFD2
:104740000FBECDBFDF91CF911F910F91FF90EF90E2
:10475000DF90CF90BF90AF909F908F907F906F90A1
:104760005F904F903F902F90089586169706A80669
:10477000B90638F04B015C0121E0821A9108A108CA
:10478000B10884149504A604B70438F46AED75E002
:1047900087E792E00E94AF12CFCF8BEA0E94AA1364
:1047A0000E94E708282F30E050E040E029A73AA710
:1047B0004BA75CA7C301B2010E94F53A6DA77EA783
:1047C0008FA798ABA501940124193509460957090B
:1047D0002F5F3F4F4F4F5F4F69A57AA58BA59CA5D3
:1047E0000E94F53A69A37AA38BA39CA36B017C0179
:1047F0003FEFC30ED11CE11CF11CCD2CDE2CEF2CA5
:10480000FF241601109283026AEC75E087E792E0BC
:104810000E94AF1283EB90E00E94B8080E945712EA
:104820001092830264EC75E087E792E00E94AF1279
:1048300049A55AA56BA57CA50E9466156DEB75E090
:1048400087E792E00E94AF12B301A2010E946615B1
:1048500068EB75E087E792E00E94AF12B501A40112
:104860000E9466156FEA75E087E792E00E94AF123A
:10487000B701A601662777270E94661563EA75E0EF
:1048800087E792E00E94AF1240E051E060E070E004
:104890000E9466158DA19EA1AFA1B8A5892B8A2B78
:1048A0008B2B79F06CE975E087E792E00E94AF12FC
:1048B000DC011C961C924DA15EA16FA178A50E94FF
:1048C000661510927E0210927D0280E28093830230
:1048D00080937F020E94F21084ED93E00E94BD3627
:1048E0002DA13EA14FA158A5211531054105510526
:1048F00021F0CA01B9010E944F2110924202912C6D
:10490000812C8214930408F087C0809142028111A7
:10491000A7C089A19AA1ABA1BCA18F3F9105A10518
:10492000B10509F008F454C0E12C81E06E2C782E1A
:104930000E9475216AEA70E084ED93E00E944306CC
:1049400065E570E084ED93E00E944306C4010E9497
:104950006023C3010E946023D12CC12CAA24AA94F5
:10496000BA2CC614D704B8F50E9475218091420272
:10497000811131C0C3018C199D09FE2CFC18809750
:1049800010F080E2F82E0F2D10E030E020E06DA551
:104990007EA58FA598A96C0D7D1D811D911DAE0171
:1049A0004F5F5F4F0E94B1094F2C512CA201BE01F5
:1049B0006F5F7F4F84ED93E00E941E38A5016F2D3D
:1049C000CE0101960E949F085C01C40CD51CC9CF82
:1049D000E9A08AA1ABCFC5010E94602384ED93E0DA
:1049E0000E94BD369FEF891A990A29A13AA14BA1CD
:1049F0005CA131504109510929A33AA34BA35CA3FF
:104A00008DA59EA5AFA5B8A99F5FAF4FBF4F8DA73E
:104A10009EA7AFA7B8AB75CF2DA13EA14FA158A5BA
:104A2000232B242B252B31F060E072EC81E090E009
:104A30000E944F2180914202882359F06EE875E070
:104A400087E792E00E94AF12109242020E94D813B0
:104A500073CE64E875E087E792E00E94AF12F6CF6C
:104A60008DA19EA1AFA1B8A5892B8A2B8B2B31F3E9
:104A7000DBCFCF92DF92EF92FF920F931F93CF93F2
:104A8000DF9300D000D000D0CDB7DEB786E0EDE4F4
:104A9000F1E0DE01119601900D928A95E1F780E038
:104AA000E82E81E0F82E8E010F5F1F4F93E6C92E8E
:104AB00092E0D92E68E670E086E293E00E94D7315A
:104AC000F70161917F0186E293E00E945A3186E20C
:104AD00093E00E94523241E050E068E670E086E2E6
:104AE00093E00E944F3286E293E00E940131F80188
:104AF00091918F0189230E94CE0FF60181936F015E
:104B0000F6E0EF16F1E0FF06A9F6E0906802F12C5E
:104B10000091670210E02091660230E0409165024A
:104B200050E06091640270E08091630290E08053F5
:104B3000984F0E94540E60935F02709360028093BE
:104B400061029093620226960FB6F894DEBF0FBE04
:104B5000CDBFDF91CF911F910F91FF90EF90DF902C
:104B6000CF900895CF93DF9300D000D0CDB7DEB7BC
:104B70000E944B0969837A838B839C83BE016F5F9C
:104B80007F4F88E790E00E944A078FE290E19A8386
:104B90008983BE016F5F7F4F83EB90E00E94230704
:104BA00010924E020E9439250E94180D9A83898323
:104BB000BE016F5F7F4F80E890E00E9423071A825A
:104BC0001982BE016F5F7F4F86E890E00E94FC066D
:104BD0001A821982BE016F5F7F4F88E890E00E94C1
:104BE000FC061092840410928304109280041092A8
:104BF0007F0410927C0410927B0410927A0410922D
:104C0000790410927804109277046DEC77E087E7CE
:104C100092E00E94AF120F900F900F900F90DF91D3
:104C2000CF9108954F925F926F927F928F929F9251
:104C3000AF92BF92CF92DF92EF92FF92CF93613605
:104C40002AEE72078105910520F060E67AEE80E099
:104C500090E06B017C0188ECC816D104E104F104FA
:104C600028F488ECC82ED12CE12CF12C1092830270
:104C700060E277E087E792E00E94AF1260E20E9474
:104C80009010B701A6010E9466156DE177E00E94C1
:104C9000AF126AE00E94901081E00E94F8120E9418
:104CA000440C0E9484394B015C010E9484396819CC
:104CB00079098A099B09603C774289409105E8F5AA
:104CC0000E9439250E94B3200E94A91784ED93E029
:104CD0000E94BD360E9484392B013C010E94843918
:104CE00064197509860997096C157D058E059F0560
:104CF000E0F684ED93E00E945036892B79F30E9410
:104D000084396B017C010E9484396C197D098E09FC
:104D10009F096C3371058105910548F584ED93E099
:104D20000E945036892B79F384ED93E00E946A3615
:104D30000E9484396B017C01E6CFC0E00E944B0CDD
:104D400065E077E0CC2311F063E177E087E792E05C
:104D5000CF91FF90EF90DF90CF90BF90AF909F905A
:104D60008F907F906F905F904F900C94AF12C1E046
:104D7000E5CF4F925F926F927F928F929F92AF9208
:104D8000BF92CF92DF92EF92FF92CF93DF9300D04A
:104D900000D0CDB7DEB70E946A09C12CD12C7601B4
:104DA000623924E2720729E08207910558F422E96A
:104DB000C22E24E2D22E29E0E22EF12CC61AD70A06
:104DC000E80AF90A4090690250906A0260906B020A
:104DD00070906C02C301B2012CE330E040E050E07F
:104DE0000E94253B69837A838B839C83C701B6012C
:104DF0000E94F53A20EA35E040E050E00E94253B71
:104E000049015A0129813A814B815C81C701B60170
:104E10000E94F53A20E831E541E050E00E94253B50
:104E2000820E931EA41EB51E6BE675E087E792E026
:104E30000E94AF12B701A6010E9466156DE575E0EC
:104E40000E94AF12B501A4010E94661565E575E0E8
:104E50000E94AF12B301A20187E792E00E9466159B
:104E600062E575E00E94AF1262E475E0CD28CE28BD
:104E7000CF2849F08BE4881687E49806A104B10492
:104E8000C0F066E275E087E792E00F900F900F9018
:104E90000F90DF91CF91FF90EF90DF90CF90BF9078
:104EA000AF909F908F907F906F905F904F900C94F9
:104EB000AF120E9439256DE175E087E792E00E940C
:104EC000AF12A501940160E871E581E090E00E94D5
:104ED000F53AC0905F02D0906002E0906102F090DD
:104EE00062026C0D7D1D8E1D9F1D41E00E94781693
:104EF0000F900F900F900F90DF91CF91FF90EF9058
:104F0000DF90CF90BF90AF909F908F907F906F90E9
:104F10005F904F900C94F2100E94D70F86E293E0BE
:104F20000E94523241E050E068E670E086E293E091
:104F30000E944F3286E293E00E94013108950F9360
:104F40001F93CF93DF938C01C62FD0E080E00E94A7
:104F50008C2760E08C7F0E94011E68E670E086E28C
:104F600093E00E94D73167E070E086E293E00E9410
:104F70007D07F80185810E94C70FBE017695762FC7
:104F80006627779567957727682B86E293E00E94DE
:104F90007D07F80184810E94C70FBE0126E0660FDD
:104FA000771F2A95E1F760787727682B86E293E0F0
:104FB0000E947D07F80183810E94C70FBE0135E082
:104FC000660F771F3A95E1F760787727682B86E2BE
:104FD00093E00E947D0760E870E086E293E00E9423
:104FE0007D0786E293E00E94523280E00E948C2787
:104FF00060E085600E94011E81E00E948C2761E0D4
:10500000867FDF91CF911F910F910C94011E4F92DB
:105010005F926F927F928F929F92AF92BF92CF9248
:10502000DF92EF92FF920F931F93CF93DF9300D005
:1050300000D000D0CDB7DEB70E943925409165027F
:1050400050E06091640270E080916302F12CE12CE9
:1050500010E000E030E020E090E00E94540E4B01B0
:105060005C0183E692E00E94030E4090690250903A
:105070006A0260906B0270906C026B017C01C40C40
:10508000D51CE61CF71CA30192010E94253BA70139
:105090009601261B370B480B590B29833A834B8308
:1050A0005C83C301B2010E94EC0D8E83C980DA805B
:1050B000EB80FC80C80CD91CEA1CFB1C49E552E0C3
:1050C000C701B6010E94C60E6E8189E592E00E947A
:1050D0009F273E813F30A9F148E04D83840C951C09
:1050E000A61CB71C89819A81AB81BC81880E991E50
:1050F000AA1EBB1E8C189D08AE08BF080E94392549
:1051000080915F0290916002A0916102B091620271
:105110008C159D05AE05BF05A0F0C80CD91CEA1C76
:10512000FB1C49E552E0C701B6010E94C60E6E8124
:1051300089E592E00E949F279D8191509D83911166
:10514000DDCF6CE770E087E792E00E94AF1261E08C
:1051500089E592E00E941A1626960FB6F894DEBFF3
:105160000FBECDBFDF91CF911F910F91FF90EF90B8
:10517000DF90CF90BF90AF909F908F907F906F9077
:105180005F904F900C94F210CF9380918704909190
:105190008804A0918904B0918A0481309E4EAF4F5B
:1051A000B04C61F181E09EEEAFEFB0EC80938704EC
:1051B00090938804A0938904B0938A041092860483
:1051C0001092850410928404109283041092820439
:1051D000109281041092800410927F0410927E0439
:1051E00010927D0410927C0410927B0410927A0439
:1051F0001092790410927804109277040E948E0B1A
:1052000061E085E00E94C63A86E293E00E94B631F2
:1052100021E048EA51E660E070E086E293E00E9417
:10522000C8310E9406360E94A6140E9439250E94A9
:10523000072826E040E052EC61E070E084ED93E066
:105240000E942A3749E050E061EB71E084ED93E081
:105250000E941E380E94CD168BEA0E94AA130E945B
:10526000F909C82F882309F48DC0682F70E087E7FB
:1052700092E00E94F4156EE87BE00E94AF126AE7AC
:105280007BE087E792E00E94AF12CC2321F00E94DE
:1052900070140E941C140E94D81366E77BE087E715
:1052A00092E00E94AF120E94471088E60E94EF0F22
:1052B000882309F471C00E94B91D6EE67BE087E780
:1052C00092E00E94AF120E94471080E40E94EF0F0C
:1052D000882309F464C00E94B91D80E00E94CD07B4
:1052E00066E67BE087E792E00E94AF120E944710DB
:1052F00088E40E94EF0F882309F454C00E94B91D6E
:105300000E94361E0E94261A0E941C1D80915F0278
:1053100090916002A0916102B0916202873D9E4C23
:10532000AC41B24338F4C1E0C0934D020E949516DF
:10533000C0934302809163026091640290E00E94F6
:10534000240E20916502820F911D90936E0280932E
:105350006D0280915F0290916002A0916102B09114
:10536000620280936F0290937002A0937102B093D7
:105370007202809143028823C1F061E08AE0CF91FC
:105380000C94C63A6BE87BE087E792E00E94AF128C
:1053900081E08093430273CF0E94C21D8ECF0E9492
:1053A000C21D9ECF0E94C21DADCFCF910895AF9276
:1053B000BF92CF92DF92EF92FF920F931F93CF9302
:1053C000DF9300D000D000D0CDB7DEB726E0E3E514
:1053D000F1E0DE01119601900D922A95E1F720E0AF
:1053E000C22E21E0D22E7C018E010F5F1F4F5C0187
:1053F00086E0A80EB11C68E670E086E293E00E94A9
:10540000D731F60161916F0186E293E00E945A3133
:10541000F70181917F010E94C70FF80161918F010F
:10542000682370E086E293E00E947D0786E293E0C5
:105430000E945232EA14FB04F1F681E00E948C27AC
:1054400061E08F770E94011E26960FB6F894DEBFAA
:105450000FBECDBFDF91CF911F910F91FF90EF90C5
:10546000DF90CF90BF90AF900C9439258F929F9290
:10547000AF92BF92CF92DF92EF92FF920F931F9362
:10548000CF93DF9300D000D000D0CDB7DEB78C0132
:10549000CE0101967C0186E0F70111928A95E9F729
:1054A0005801F7E0AF0EB11C67014E0186E0880E8F
:1054B000911CC5010E94250BF60161936F01F3E079
:1054C000AF0EB11CC814D904A1F7F8010190002057
:1054D000E9F73197E01BF10B789748F0F8018589DF
:1054E0008A3329F4C80146960E94250B6E83F80181
:1054F00084818D33B9F581858D32A1F584858D3216
:1055000089F58785803271F582898A3359F58981D9
:10551000893140F18A8181508C3020F58B81815016
:105520008F3100F58C818931E8F48D818C33D0F492
:105530008E818C33B8F4C7010E94D72981E026966A
:105540000FB6F894DEBF0FBECDBFDF91CF911F9194
:105550000F91FF90EF90DF90CF90BF90AF909F9012
:105560008F9008956EE670E087E792E00E94AF1298
:10557000B8010E944D126AE00E94901080E0DFCFD7
:105580000F931F93CF93DF9300D000D000D0CDB7FF
:10559000DEB78C010E9439258091750290917602C8
:1055A000801B910B20E13EE0829FB001839F700D34
:1055B000929F700D1124072E000C880B990B0091FF
:1055C0005F02109160022091610230916202600FCF
:1055D000711F821F931FAE014F5F5F4F0E94C60E67
:1055E000CE0101960E94D72926960FB6F894DEBF09
:1055F0000FBECDBFDF91CF911F910F9108954F92B4
:105600005F926F927F92AF92BF92CF92DF92EF92B2
:10561000FF920F931F93CF93DF93CDB7DEB7C254A2
:10562000D1090FB6F894DEBF0FBECDBF0E94180D92
:105630001816190664F06BE57BE087E792E00E949C
:10564000AF126EE47BE087E792E00E94AF12809198
:105650000601882309F47BC061E085E00E94C63A18
:105660000E94491E80914D0281110E94A01460E3A6
:1056700075E780E090E00E94DB1830E3C32E35E749
:10568000D32EE12CF12C0E9484392B013C010E9485
:10569000843964197509860997096C157D058E058D
:1056A0009F0508F039C184ED93E00E945036892BA4
:1056B00071F32FE330E0AE014F5F5F4F6AE084ED9E
:1056C00093E00E9479385C01E1E0F0E0EC0FFD1F0F
:1056D000E80FF91F1082CE0101960E94F007182FE3
:1056E0008F3F09F4B2C0E0907502F09076020C8111
:1056F0000D3361F460E0CE0101960E94AA0AAB016D
:10570000BC01812F0E9437180E94A614812F90E0BF
:10571000BC010E945C1A0D3309F090C0123009F0F0
:105720008DC0C7010E94C02A0E94CD160E94072882
:1057300010E00E9484392B013C0180ECC82E84EDDE
:10574000D82EEE24E394F12C1111A1CFCFC30E94E7
:1057500084390091490210914A0220914B02309104
:105760004C02DC01CB01801B910BA20BB30B009709
:1057700021E0A207B10520F08FEF9FEFA0E0B0E09D
:10578000909386048093850420918304309184044F
:105790002817390720F490938404809383040E948F
:1057A00084396B017C010E94C220182F0E94843929
:1057B000DC01CB018C199D09AE09BF09009731E0CE
:1057C000A307B10520F08FEF9FEFA0E0B0E090932A
:1057D00082048093810420917F04309180042817F3
:1057E000390720F49093800480937F040E948439C9
:1057F000609345027093460280934702909348025B
:1058000081E080934402112391F061E085E00E94E1
:10581000C63A62E370E080E090E00E94E33960E025
:1058200085E00E94C63AC12CD12C76012CCF83E0B2
:105830000E94AE07C12CD12C760125CF11116EC369
:105840000E9407280E94B92674CFBE016F5F7F4F68
:105850008BEB91E00E94B13B892B31F40E943925FA
:105860000E94C22010E065CF44E050E0BE016F5FAF
:105870007F4F8DEB91E00E94CF3B892BA1F46DE32C
:1058800070E0CE0101960E94C43B009739F001966A
:105890000E94250B0E94122611E04BCF68EE73E0A8
:1058A00080E090E0F7CF44E050E0BE016F5F7F4FB3
:1058B00082EC91E00E94CF3B892B89F445E0A4164D
:1058C000B1043CF0CE0101960E94362A81110E945B
:1058D00007280E9439250E94CD1610E02ACFBE016C
:1058E0006F5F7F4F87EC91E00E94B13B892B21F4E1
:1058F0000E948A1F10E01DCFBE016F5F7F4F89ECB1
:1059000091E00E94B13B892B09F022C16BEC71E060
:1059100087E792E00E944D1280911101811102C02F
:105920000E949A14809163026091640290E00E9448
:10593000240E00916502080F192F111D80916D0230
:1059400090916E028017910709F44CC063ED87E7D0
:1059500092E00E9490106AE00E94901061ED87E74B
:1059600092E00E94901063ED7AE00E94AF1261ED28
:105970000E9490106AE00E94901063ED87E792E029
:105980000E9490106AE00E949010809120019091F6
:10599000210123969FAF8EAF2397CE018F5B9F4F40
:1059A0000E94E406C82E8823C9F00E94790F24E6DD
:1059B00030E040E050E00E94473BD12CF12CE12C3C
:1059C000CA01B901A70196010E94253B672B682BEC
:1059D000692B21F4109211010E949A1410936E0207
:1059E00000936D021092060160E08AE00E94C63AC0
:1059F00060E085E00E94C63A0E943C3660E08BE0A1
:105A00000E94C63A60E08DE00E94C63A61E084E000
:105A10000E94C63A61E086E00E94C63A80B780687C
:105A200080BF0E94072866EC7AE087E792E00E9438
:105A3000AF12109284020E94361E84ED93E00E9401
:105A40007C3780914402882351F10E94843900916F
:105A50004502109146022091470230914802DC0134
:105A6000CB01801B910BA20BB30B009731E0A30776
:105A7000B10520F08FEF9FEFA0E0B0E090937E049F
:105A800080937D0420917B0430917C042817390792
:105A900020F490937C0480937B04109244020E9433
:105AA000540C80E00E94CD380E94843960934902F2
:105AB00070934A0280934B0290934C0260E070E036
:105AC000CB010E94E3390E94063626E040E052EC0A
:105AD00061E070E084ED93E00E942A370E9439254E
