:100000000C94F6050C94A7200C9480200C941E06EA
:100010000C941E060C941E060C9451220C941E0681
:100020000C941E060C941E060C941E060C941E06C0
:100030000C941E060C941E060C941E060C941E06B0
:100040000C9439200C941E060C94F4200C94CE20B1
:100050000C941E060C941E060C941E060C941E0690
:100060000C9426210C941E06413200413100446557
:10007000707468205B6D5D0073290020576169749E
:10008000696E6720636F6D6D616E64732028666FA3
:100090007200426174742E3A004E614E0A004E6145
:1000A0004E0A0048756D69646974793A00C2B043BC
:1000B0000A004E614E0A0054656D70657261747578
:1000C00072652028544D50313139293A00C2B0436D
:1000D0000A004E614E0A0054656D70657261747558
:1000E0007265202848444331303830293A004D6544
:1000F00061737572656D656E7420636F756E743AA9
:10010000004E657874206D6561737572656D656EFE
:10011000743A004D6561737572656D656E74206922
:100120006E74657276616C3A00426164206C6F7720
:1001300020766F6C74616765206D756C7469706C86
:1001400069657220696E20454550524F4D2C2075CF
:1001500073696E672064656661756C740A0042613C
:1001600064205254432061646A75737420696E740C
:10017000657276616C20696E20454550524F4D2C5A
:10018000207573696E672064656661756C740A001A
:100190004261642074696D657A6F6E6520696E20B6
:1001A000454550524F4D2C207573696E672055544C
:1001B000430A0042616420696E74657276616C2046
:1001C000696E20454550524F4D2C207573696E67FE
:1001D0002064656661756C740A00436F756E7420E7
:1001E0006D61786F75740A004572726F723A204DB6
:1001F0006561737572656D656E74204E4F54207322
:10020000746F7265640A004C6F6720666F726D616F
:1002100074206368616E6765643A20636C6561721F
:1002200020776974682052432E204E4F54206C6F03
:100230006767696E672E0A004465707468205B6D9D
:100240005D00484174656D70C2B04300524800546F
:10025000656D70C2B04300566F6C74002020202082
:1002600020202020202020202020202054696D657F
:100270000053616D706C6520230054696D65004DFD
:10028000656D6F72792066756C6C0A004C6F672023
:10029000656D7074790A0073616D706C65732070A0
:1002A0006572207365636F6E6429007365636F6E9A
:1002B0006473007472616E736D697474656420692F
:1002C0006E005468652076616C7565732062656C9C
:1002D0006F7720617265206D6973706172736564F8
:1002E0002E2052652D666C617368207468652066E7
:1002F00069726D7761726520746861742077726FBE
:100300007465207468656D20746F20726561642067
:100310007468656D2E0A005741524E494E473A2087
:100320007468657365207265636F726473207765A6
:100330007265207772697474656E207769746820BD
:100340006120646966666572656E74206368616EBB
:100350006E656C207365742E0A00434F4E54206CFA
:100360006F673A20646F776E6C6F616420697420E8
:1003700077697468207468652061707020284C4F1C
:100380004742292C206F72204C4F4748202B206475
:1003900065636F64655F6C6F67682E70790A0046ED
:1003A000756C6C206F6E3A0046756C6C20696E201F
:1003B0006D6F7265207468616E20353020796561DB
:1003C00072730A004D656D6F72792069732046550E
:1003D0004C4C0A00730A00646179732061740066F2
:1003E000726565207265636F7264732C004D656D74
:1003F0006F72793A00466C61736820777269746530
:100400002D656E61626C65206661696C65640A00C9
:10041000466C617368206E6F7420726573706F6EC6
:1004200064696E670A00466C6173682074696D6563
:100430006F75740A0047543030312D00290A0020AE
:10044000202866756C6C2000426F617264204944FC
:100450003A000000050009000E0014001B002300F4
:100460002C00360041004D0058005F0064008403FA
:10047000E8031A044C047E04B004E20414054605A3
:100480007805AA05DC050E0640064E6578742057EF
:10049000616B6575703A0054696D653A006D73293A
:1004A00000287077722041312041322041332C00E6
:1004B000466C617368207374617475732053523194
:1004C0002F5352323A005741524E494E473A206616
:1004D0006C61736820626C6F636B2070726F7465FF
:1004E0006374696F6E206163746976652C2077721E
:1004F00069746573206D6179206661696C0A004ECC
:100500006F74653A20666C61736820514520697389
:1005100020636C6561722C205750232F484F4C4448
:100520002320617265206C6976650A005741524E3E
:10053000494E473A20666C6173682053525031200F
:100540007365742C207374617475732072656769A8
:1005500073746572206C6F636B65640A0057415257
:100560004E494E473A20666C6173682053525030B2
:10057000207365740A00506F77657220666F720091
:100580004C6F6767696E67206973205355535045F8
:100590004E44454420756E74696C207468656E2EF7
:1005A0000A004F746865727769736520636C6561D2
:1005B0007220746865206C6F6720776974682052B8
:1005C000432E0A00546F207265636F766572207443
:1005D00068656D2C2072652D666C61736820746887
:1005E00065206669726D7761726520746861742038
:1005F00077726F7465207468656D20616E64206425
:10060000756D70204245464F524520636C6561729E
:10061000696E672E0A0054686973206275696C649C
:100620002043414E4E4F5420726561642074686FC0
:100630007365207265636F7264732E0A0074686953
:1006400073206275696C642773207369676E6174C7
:100650007572653A0073616D706C65732C207369F7
:10066000676E617475726500696E20666C6173688F
:100670003A004C4F4720464F524D41542043484189
:100680004E4745440A00434F4E54206C6F67206923
:100690006E20666C6173683A20646F776E6C6F6170
:1006A000642069742C207468656E2052432E204C9F
:1006B0006F6767696E672053555350454E444544F4
:1006C0002E0A0020204669726D776172652062757E
:1006D000696C743A0020205254432072656164733F
:1006E0003A004552524F523A2052544320636C6FA5
:1006F000636B206E6F74207365740A004841205448
:10070000454D500054454D502B5248005254430023
:100710006D656D6F72792064657465637465640AD4
:10072000004E6F004D4200546869732073797374F2
:10073000656D2068617665206E6F20475053206F8D
:1007400072204972696469756D206D6F64656D20F2
:10075000696E7374616C6C65640A00292C206E6F7D
:10076000742073746F7265640A00746F004F75743F
:10077000206F662072616E67652028004C495645DF
:10078000004C4956452074696D656F75740A004CBC
:1007900049564520656E640A006D73004C49564504
:1007A00020626567696E2065766572790057726FA1
:1007B0006E6720666F726D61743A004E6F206572CD
:1007C000726F72730A006661696C6564206174748B
:1007D000656D70747320286C617465737420636F29
:1007E0006465206C617374290A002C000953656EDE
:1007F000736F72206572726F72733A00434F4E4688
:10080000494755524154494F4E0A00094177616B9F
:1008100065206D73207072652F6D6561732F706F29
:1008200073742C206D61783A20006D730A00207477
:100830006F74616C00094177616B65206D73207086
:1008400072652F6D6561732F706F73742C206C61EE
:1008500073743A007320616363756D756C617465C0
:1008600064290A00095254432061646A75737465EF
:10087000642062793A004E6576657200094C6173B6
:10088000742074696D6520636865636B3A00646108
:100890007973290A0025206F766572006461797387
:1008A000202864726F700009457870656374656410
:1008B0002062617474657279206C6966653A0064BF
:1008C0006179732072756E6E696E670A00095365EF
:1008D00073696F6E2073746172743A004D656D6F49
:1008E00072792072657365740A004C4F4742206527
:1008F0006E640A004C4F47422061626F72746564F7
:100900000A0020666173743D0020626C6F636B7334
:10091000697A653D0020626C6F636B733D002074E3
:100920006F3D002066726F6D3D00207265633D0073
:100930004C4F474220626567696E207369673D00CE
:100940004C4F474220656D7074790A004C4F474206
:1009500020656D7074790A007365636F6E64730A45
:1009600000627974657320696E004C4F47482061BE
:10097000626F727465640A00496E74656C20484544
:100980005820666F6C6C6F77732E204B65657020F6
:1009900066726F6D207468652066697273742027B3
:1009A0003A2720746F203A303030303030303146C2
:1009B000460A00666173743A004D49534D415443F1
:1009C000483A207265636F72642073697A652062A9
:1009D000656C6F7720697320612067756573732C70
:1009E0002064756D70696E67206174007468697346
:1009F000206275696C64207369676E6174757265D5
:100A00003A006C6F67207369676E61747572653A3E
:100A10000074686973206275696C64207265636F25
:100A200072642073697A653A006F66006279746552
:100A3000733A0073616D706C65733A004C4F4748B0
:100A400020726177206D656D6F72792064756D70AD
:100A50000A002070726F746F3D00332E31310066D2
:100A6000773D00206572726E3D00206572723D0018
:100A70002066617374626175643D00206261756413
:100A80003D00207369643D0020666C6173683D0021
:100A900020636F756E743D00207265633D002073A6
:100AA00069673D002069643D002070726F746F3D7E
:100AB00000332E313100494E464F2066773D0048C5
:100AC000454C5000546869732073797374656D20C8
:100AD00068617665206E6F204972696469756D2062
:100AE0006D6F64656D20696E7374616C6C65640A0A
:100AF00000536C656570696E672E2E2E0A00446186
:100B0000696C7920636F646500557365204E4C20D5
:100B10007465726D696E6174656420636F6D6D7369
:100B200000556E7265636F676E697A656420636FE6
:100B30006D6D616E643A0050696E206E6F74206551
:100B40006E61626C656420617420636F6D70696CA6
:100B5000652074696D650A0050696E206E6F74209F
:100B6000656E61626C656420617420636F6D70698D
:100B70006C652074696D650A004C4F5720564F4CC8
:100B8000544147450A00435249544943414C4C594A
:100B90000000000000240027002A000000000025BB
:100BA0000028002B000404040404040404020202CC
:100BB0000202020303030303030202030102040807
:100BC00010204080010204081020010204081020B7
:100BD00040804000000009000302000004050800F6
:100BE000000000000000000000000B2311241FBEC5
:100BF000CFEFD8E0DEBFCDBF24E0A8E3B2E001C074
:100C00001D92A836B207E1F712E0A0E0B1E0E4E6F9
:100C1000FBE602C005900D92A833B107D9F715E0A5
:100C2000C6EFD5E004C02197FE010E947435C53F90
:100C3000D107C9F70E945B230C94B0350C940000D7
:100C4000CF92DF92EF92FF926B017C0160E070E245
:100C50008CE190E0A70196010E94083521503109EE
:100C6000410951095695479537952795E0912103FC
:100C7000F091220382E08083211580E13807A8F0FB
:100C8000E0912103F0912203108260E070E18EE098
:100C900090E0A70196010E940835215031094109D1
:100CA00051095695479537952795E0911D03F09189
:100CB0001E033083E0911F03F091200320831092E4
:100CC0002903E0912503F091260386E08083E091DB
:100CD0002303F0912403808188698083E0912303BA
:100CE000F091240380818F7D8083FF90EF90DF90CF
:100CF000CF9008959091100381E0913208F043C0A5
:100D00008091EC028111FCCF80910F0322E02093AF
:100D1000EC0221E02093EB022FEF2093EA022FEE6A
:100D200032E03093E9022093E8021092E7029093B8
:100D3000E6021092E5029091E502880F892B8093DC
:100D4000E5028091E402813029F51092E40280915D
:100D5000E5028093BB008091BC0083FDF8CF85EC59
:100D60008093BC008091EC028230E1F38091EA0232
:100D70008F3F91F08091EA02803281F08091EA0207
:100D8000803371F084E01092EE0210921003109202
:100D9000ED02089585EEE4CF80E0F5CF82E0F3CF59
:100DA00083E0F1CF91E09093ED0280930F031092D6
:100DB000EE02109210030895982F8091EC02811199
:100DC000FCCF81E08093EC028093EB022FEF209325
:100DD000EA0224EC32E03093E9022093E802109218
:100DE000E7022FEF260F2093E6028093E502809121
:100DF000E502990F982B9093E5028091E4028130EF
:100E0000C9F41092E4028091E5028093BB008091C6
:100E1000BC0083FDF8CF85EC8093BC008091EC0290
:100E20008130E1F38091E702861710F46091E702C8
:100E3000862F089585EEF0CF90E0FC01ED52F44F3F
:100E40002491FC01E454F44F3491FC01EB55F44F30
:100E5000E491EE23C9F0222339F0243001F1A8F403
:100E6000223069F1233079F1F0E0EE0FFF1FE556F3
:100E7000F44FA591B4918FB7F894EC91611126C00D
:100E800030953E233C938FBF0895283071F0293070
:100E900091F0253049F7809180008F7D03C08091CB
:100EA00080008F7780938000DFCF8091B0008F77B4
:100EB0008093B000D9CF8091B0008F7DF9CF84B5F9
:100EC0008F7784BDD1CF84B58F7DFBCF3E2BDACF1A
:100ED000CF93DF9390E0FC01E454F44F24918B55C1
:100EE000944FFC0184918823C9F090E0880F991FEA
:100EF000FC01EF56F44FA591B491FC01E556F44F77
:100F0000C591D49161110DC09FB7F8948C91209533
:100F100082238C938881282328839FBFDF91CF91E0
:100F20000895623051F49FB7F8943C91822F8095D8
:100F300083238C93E8812E2BEFCF8FB7F894EC911D
:100F40002E2B2C938FBFEACF883020F08D3008F401
:100F50008DE08E502091210190E4299F9001112471
:100F60008770822B80937C0080917A0080648093CC
:100F70007A0080917A0086FDFCCF80917800909174
:100F800079000895CF92DF92EF92FF926FB7F894B5
:100F90008091B8029091B902A091BA02B091BB02BF
:100FA0005091B70226B535B3432F417030FF04C0CE
:100FB00041E02F3F09F440E06FBF6C017D0137E055
:100FC000CC0CDD1CEE1CFF1C3A95D1F7C50ED11CD4
:100FD000E11CF11CC81AD90AEA0AFB0A880F991FFA
:100FE000AA1FBB1FC81AD90AEA0AFB0A63E0CC0C85
:100FF000DD1CEE1CFF1C6A95D1F730E0AEEAB8E0CC
:101000000E94C934672F782F892F99276C0D7D1D79
:101010008E1D9F1D442321F06255774F8F4F9F4FA8
:10102000FF90EF90DF90CF9008958F929F92AF92B4
:10103000BF92CF92DF92EF92FF926B017C010E94F0
:10104000C2074B015C01C114D104E104F104B9F001
:101050000E94C207681979098A099B09683E734092
:101060008105910580F321E0C21AD108E108F10859
:1010700088EE880E83E0981EA11CB11CE4CFFF907F
:10108000EF90DF90CF90BF90AF909F908F9008959A
:101090002FB7F8946091B8027091B9028091BA02AA
:1010A0009091BB022FBF0895089508950895089563
:1010B000AF92BF92CF92DF92EF92FF920F931F9366
:1010C000CF93DF936C017B018B01040F151FEB01A4
:1010D0005E01AE18BF08C017D10759F06991D6015B
:1010E000ED91FC910190F081E02DC6010995892BCD
:1010F00079F7C501DF91CF911F910F91FF90EF908C
:10110000DF90CF90BF90AF900895FC01538D448D38
:10111000252F30E0842F90E0821B930B541710F0A2
:10112000CF96089501970895FC01918D828D9817AF
:1011300061F0A28DAE0FBF2FB11D5D968C91928D87
:101140009F5F9F73928F90E008958FEF9FEF0895B8
:10115000FC01918D828D981731F0828DE80FF11D81
:10116000858D90E008958FEF9FEF0895FC01918D9C
:10117000228D892F90E0805C9F4F821B91098F7395
:101180009927089581E193E00E94B60821E0892B18
:1011900009F420E0822F089580E090E0892B29F067
:1011A0000E94C20881110C9400000895FC01A48DD6
:1011B000A80FB92FB11DA35ABF4F2C91848D90E079
:1011C00001968F739927848FA689B7892C93A0895C
:1011D000B1898C91837080648C93938D848D9813E6
:1011E00006C00288F389E02D80818F7D8083089579
:1011F000EF92FF920F931F93CF93DF93EC0181E067
:10120000888F9B8D8C8D98131AC0E889F98980810D
:1012100085FF15C09FB7F894EE89FF896083E88940
:10122000F98980818370806480839FBF81E090E032
:10123000DF91CF911F910F91FF90EF900895F62EBF
:101240000B8D10E00F5F1F4F0F731127E02E8C8D59
:101250008E110CC00FB607FCFACFE889F98980819E
:1012600085FFF5CFCE010E94D608F1CFEB8DEC0FB4
:10127000FD2FF11DE35AFF4FF0829FB7F8940B8FBB
:10128000EA89FB8980818062CFCFCF93DF93EC0125
:10129000888D8823B9F0AA89BB89E889F9898C915E
:1012A00085FD03C0808186FD0DC00FB607FCF7CF1A
:1012B0008C9185FFF2CF808185FFEDCFCE010E941A
:1012C000D608E9CFDF91CF910895CF93CFB7F894A7
:1012D00080919B02811127C0EFEAFBE08491E6EC4C
:1012E000FBE09491E82FF0E0EE0FFF1FEF56F44F74
:1012F000A591B491EC91E92321F461E08AE00E9488
:101300001C0761E08AE00E9468078CB580618CBD93
:101310008CB580648CBD61E08DE00E94680761E05F
:101320008BE00E94680780919B028F5F80939B02F5
:10133000CFBFCF91089585ED8093BC008091BC0014
:1013400084FDFCCF1092EC02089520916902260FD3
:101350003327331F21323105ECF42091EC02FC01DC
:1013600090E080E0243069F082E00895A091690265
:101370002191AC01475B5D4FA40FB52FB11D2C939C
:101380000196861798F380916902680F609369024D
:1013900080E0089581E008950895E091C30280916E
:1013A000C202E81730F4F0E0EC53FD4F808190E08A
:1013B00008958FEF9FEF08959091C3028091C2022C
:1013C0002FEF3FEF981748F4E92FF0E0EC53FD4F73
:1013D000208130E09F5F9093C302C90108958091FE
:1013E000C2029091C302891B990B0895CF92DF929C
:1013F000EF92FF920F931F93CF93DF937C01CB016A
:101400008A012091ED02222389F0EB016B01C40EC9
:10141000D51ECC15DD0569F06991D701ED91FC91E0
:101420000190F081E02DC7010995F3CF642F0E9450
:10143000A509C801DF91CF911F910F91FF90EF9007
:10144000DF90CF900895CF93DF931F92CDB7DEB793
:1014500069832091ED022223F9F0209110032032BC
:1014600058F021E030E0FC013383228390E080E0FB
:101470000F90DF91CF9108958091EE02E82FF0E078
:10148000E151FD4F998190838F5F8093EE028093AD
:10149000100381E090E0ECCF61E0CE0101960E9464
:1014A000A509F7CF682F8EEA93E00C94230ACF9317
:1014B000DF93EC0188E40E94D20661E08EEA93E0BB
:1014C0000E94230A6D2F8EEA93E00E94230A6C2F5C
:1014D0008EEA93E00E94230A0E947A0691E081112D
:1014E00090E0892FDF91CF91089590E080E00895FA
:1014F0004115510529F4EAE7F0E080818F77808378
:101500006A307105B9F0CB01880F991F880F991FB8
:10151000807267706860682B88E10FB6F894A895B0
:10152000809360000FBE60936000E0E6F0E0808191
:1015300080648083232BD9F483B7817F846083BF49
:10154000F89483B7816083BF85B7806685BF8F7D40
:1015500085BF7894889583B78E7F83BF7894452B19
:1015600029F4EAE7F0E0808180688083089583B7FA
:10157000817F846083BFF89483B7816083BF789450
:10158000889583B78E7F83BF7894E9CF0E94D20677
:101590000E947A0691E0811190E0892F0895CF93FF
:1015A000C82F88E60E94D2068FE090E0C11102C0E9
:1015B0008EE090E0CF910C94520ACF93C82F862FE3
:1015C0000E94CF0A6C2F8EEA93E00E94230ACF91EB
:1015D0000C947A066150262F2695422F50E02EE17A
:1015E000629F400D511D1124E62FF0E0E95BFE4F94
:1015F0002081240F352F311D2250310941E050E068
:10160000623010F050E040E0240F351F41E050E020
:10161000613011F050E040E0240F351F83709927AE
:10162000892B19F481E0623008F480E0820F932F57
:10163000911D08952F923F924F925F926F927F92E9
:101640008F929F92AF92BF92CF92DF92EF92FF92D2
:101650000F931F93CF93DF93CDB7DEB764970FB689
:10166000F894DEBF0FBECDBF2B013C015A8B498BD6
:1016700080E1E2E2F1E0DE01119601900D928A959F
:10168000E1F78E010F5F1F4F1E0121E1220E311C79
:10169000F801C190D190E190F1908F01C301B201A6
:1016A000A70196010E9408354B015C019801245066
:1016B00031093C8B2B8BC301B201681979098A0966
:1016C0009B09A70196010E940835EB89FC892083BC
:1016D0003183428353832401350120163106C1F63C
:1016E0008D819E81AF81B88530E020E08E36F1E0BB
:1016F0009F07A105B10580F0BC01CD0161507109C2
:10170000810991092DE631E040E050E00E94083562
:101710006D837E838F83988709811A81000F111F43
:10172000000F111F020F131FCD80DE802FEFC21A92
:10173000D20A9CE0792E672DC8010E94EA0AF601C0
:10174000E81BF90BCF012FEF270D1E161F061CF506
:10175000E989FA89008371828283898583838D85F3
:101760008483858264960FB6F894DEBF0FBECDBF2A
:10177000DF91CF911F910F91FF90EF90DF90CF906D
:10178000BF90AF909F908F907F906F905F904F90A1
:101790003F902F900895722ECECF8F929F92AF924E
:1017A000BF92CF92DF92EF92FF920F931F93CF934E
:1017B000DF93EA0159018F3F910514F48053984F4C
:1017C0004C0120ED821A27E0920A640197FE03C0C3
:1017D00023E0C20ED11CD594C794D594C7949C0124
:1017E00023703327232B19F02FEFC21AD20A0E943D
:1017F000EA0AFC018CE3809FB001819F700D1124E7
:10180000072E000C880B990B0F2C000C000B110BF2
:10181000E60EF71E081F191F20E13EE0D5010E94C9
:101820005135E60EF71E081F191FD40120E833E3D7
:1018300041EE51E00E94583547015801860E971E2F
:10184000A81EB91EDE01AE0FBF1FAC0DBD1D119746
:1018500020E831E541E050E00E945835680D791DDF
:101860008A1D9B1DDF91CF911F910F91FF90EF90EB
:10187000DF90CF90BF90AF909F908F900895EF92A0
:10188000FF920F931F93CF93DF93EEE6F4E0259141
:101890003491281739070CF04CC0E8E8F4E02591A2
:1018A0003491821793070CF041C062E070E041E090
:1018B00050E0FB01E259FB4FC591D491C817D907FD
:1018C0006CF141505109440F551FFA01E259FB4F89
:1018D00005911491FA01EE5AFB4FE590F490FB014B
:1018E000EE5AFB4FA591B4919C01201B310BAE1910
:1018F000BF090E9449359E01201B310B032E000CAD
:10190000440B550B0E942A35C701820F931FDF91AC
:10191000CF911F910F91FF90EF9008954F5F5F4F10
:101920006E5F7F4F4E30510509F0C3CF84E690E0E3
:10193000EECF90E080E0EBCF8F929F92AF92BF927C
:10194000EF92FF920F931F93CF93DF93CDB7DEB744
:10195000AA970FB6F894DEBF0FBECDBFB82E0E9477
:10196000A4078E010F5F1F4F4E018BE2880E911C62
:1019700078018B2D0E94A407F701819391937F0139
:10198000E815F905B1F780E090E0DC01F8018190FD
:1019900091908F01092C000CAA08BB08880D991D95
:1019A000AA1DBB1DEE16FF0689F7BC01CD01665FBF
:1019B0007F4F8F4F9F4F25E130E040E050E00E9485
:1019C0002A35C901AA960FB6F894DEBF0FBECDBF67
:1019D000DF91CF911F910F91FF90EF90BF90AF904B
:1019E0009F908F90089580919D02811105C088B1CC
:1019F000817F88B910924402089580914402811138
:101A000010C088B18E6088B90E9448086093400277
:101A100070934102809342029093430281E080934D
:101A200044020895CF92DF92EF92FF920F931F939B
:101A30000E94FD0C0E944808009140021091410252
:101A40002091420230914302DC01CB01801B910BBB
:101A5000A20BB30B8A3F9105A105B105A0F40AEFD3
:101A600010E020E030E068017901C81AD90AEA0ADA
:101A7000FB0AC701B6011F910F91FF90EF90DF9015
:101A8000CF900C9415081F910F91FF90EF90DF906D
:101A9000CF900895CF93DF93EC019E012F5F3F4FCE
:101AA00088818032D1F020E030E0A901E99180ED19
:101AB0008E0F8A30A0F4AAE0B0E00E94BE342E2F30
:101AC000EE0F330B20533109032E000C440B550B42
:101AD000260F371F481F591FE9CFE901DECFCA0182
:101AE000B901DF91CF9108958F708A3010F4805D35
:101AF0000895895C0895CF93C92F682F81E193E001
:101B00000E94F8086C2F81E193E0CF910C94F808C3
:101B1000CF92DF92EF92FF9281E193E00E94B608AC
:101B2000892B71F081E193E00E94A808883191052A
:101B300061F481E193E00E94940881E08093950232
:101B4000FF90EF90DF90CF9008954397C9F781E120
:101B500093E00E9494080E9448086B017C010E9457
:101B600048086C197D098E099F0960337547810506
:101B7000910530F781E193E00E94B608892B79F353
:101B800081E193E00E94940881319105C9F2489760
:101B900031F7D3CFCF93DF93D82FC0E061E08AE055
:101BA0000E941C0762E370E080E090E00E9415084C
:101BB00060E08AE00E941C0762E370E080E090E051
:101BC0000E941508CF5FDC13E9CFDF91CF91089514
:101BD00020916E0430916F0490E0A9014F70552759
:101BE0004817590759F044E0220F331F4A95E1F78F
:101BF000282B392B30936F0420936E0480916C0452
:101C000090916D048F3F980729F0019690936D0491
:101C100080936C0408958EBD00000DB407FEFDCFC7
:101C20008EB50895CF9360E086E00E941C0785E0A2
:101C30000E940B0E80E00E940B0EC82F61E086E030
:101C40000E941C078C2FCF9108950F931F93CF9361
:101C5000DF93EB01182F042F60E086E00E941C0741
:101C6000802F0E940B0E812F0E940B0E8D2F0E9441
:101C70000B0E8C2FDF91CF911F910F910C940B0EB7
:101C8000AF92BF92CF92DF92EF92FF920F931F938A
:101C9000CF93DF935A01680143E00E94250EE501CE
:101CA000CA0CDB1CCC15DD0529F080E00E940B0E70
:101CB0008993F8CF61E086E0DF91CF911F910F917A
:101CC000FF90EF90DF90CF90BF90AF900C941C07E7
:101CD0000F931F93CF93DF9300D0CDB7DEB702E011
:101CE00010E020E030E0AE014F5F5F4F0E94400EF9
:101CF00089819A810F900F90DF91CF911F910F9161
:101D00000895FC01662359F124813581C9010196AA
:101D1000428153818417950710F5A081B181A20FEC
:101D2000B31F958384836930C1F480E28C93A081D2
:101D3000B18124813581A9014F5F5F4F5583448371
:101D4000A20FB31F8C93808191810480F581E02DD7
:101D5000E80FF91F108281E008956C93F4CF80E0C2
:101D600008950E94DC061092C3028093C202089577
:101D70001F93CF93DF93182FEB0188E40E94D206C4
:101D8000612F8EEA93E00E94230A0E947A0688233C
:101D900029F080E0DF91CF911F91089562E070E01B
:101DA00088E490E00E94B10E823099F78EEA93E0C9
:101DB0000E94DC09188289838EEA93E00E94DC0984
:101DC00028813981822B932B9983888381E0E2CF0C
:101DD000CF92DF92EF92FF921F93CF93DF9300D0C9
:101DE00000D0CDB7DEB713E080E29CE00E94570A36
:101DF00081110CC081E00E94E80D1150A9F780E02C
:101E000090E890930A01809309013BC00E94480822
:101E10006B017C010E9448086C197D098E099F099D
:101E20006A3F710581059105F0F565E070E080E09D
:101E300090E00E941508BE016D5F7F4F81E00E9417
:101E4000B80E882371F18B819C8195FFE3CFBE0191
:101E50006F5F7F4F80E00E94B80E811102C084E066
:101E6000CACFA981BA8129E130E00E94513520E230
:101E700030E040E050E00E942A3530930A01209380
:101E8000090180E294E00E94570A0F900F900F9092
:101E90000F90DF91CF911F91FF90EF90DF90CF9047
:101EA000089582E0A8CF83E0A6CFEF92FF920F9330
:101EB0001F93CF93DF93C3E080E40E94D20690E0AB
:101EC00080E00E94520A0E947A0681114AC06FE0A7
:101ED00070E080E090E00E94150864E070E080E42B
:101EE00090E00E94B10E843009F048C08EEA93E081
:101EF0000E94DC09082F8EEA93E00E94DC097C0135
:101F00008EEA93E00E94DC09182F8EEA93E00E948B
:101F1000DC09EC0120E0302F2E293F29A4E7B0E4B2
:101F20000E94C934805A9F4020E030E041E050E0F8
:101F30000E942A35309394022093930220E0312F9F
:101F40002C2B3D2BA8EEB3E00E94C9349093920253
:101F500080939102DF91CF911F910F91FF90EF90AD
:101F6000089585E00E94E80DC15009F0A5CF80E0FA
:101F700090E89093940280939302E8CF86E0F2CFAA
:101F80000E94CF0A0E947A0661E070E088E690E045
:101F90000E94B10E8EEA93E00E94DC090895FF9240
:101FA0000F931F93CF93DF93C82FD0E080E00E9460
:101FB000C00F60E08C7F0E94DD0A88E60E94D20696
:101FC00087E090E00E94520A0CEB12E0F801858154
:101FD0009AE0F92E6F2D0E94E8348295807F980F49
:101FE0009E013695322F2227379527953327A90151
:101FF000492BCA010E94520AF80184816F2D0E9468
:10200000E8348295807F980F9E0156E0220F331F9F
:102010005A95E1F720783327A901492BCA010E947C
:10202000520AF80183816F2D0E94E8348295807FE7
:10203000282F290FCE0165E0880F991F6A95E1F7D7
:1020400080789927822B0E94520A80E890E00E94B3
:10205000520A0E947A0680E00E94C00F60E085600C
:102060000E94DD0A81E00E94C00F61E0867FDF915F
:10207000CF911F910F91FF900C94DD0ABF92CF92E8
:10208000DF92EF92FF920F931F93CF93DF9300D0D5
:1020900000D000D0CDB7DEB786E0E2E3F1E0DE01AC
:1020A000119601900D928A95E1F781E4E82E81E086
:1020B000F82E8E010F5F1F4F94EAC92E92E0D92EA1
:1020C0002AE0B22E88E60E94D206F70161917F01D4
:1020D0008EEA93E00E94230A0E947A0661E088E675
:1020E0000E94DC061092C3028093C2028EEA93E043
:1020F0000E94DC09F80191918F018923982F929514
:102100009F708F709B9D800D1124F60181936F014C
:10211000F7E4EF16F1E0FF06A9F6E090A902F12C32
:102120000091A80210E02091A70230E04091A602A1
:1021300050E06091A50270E08091A40290E080538D
:10214000984F0E94CD0B60939E0270939F028093E4
:10215000A0029093A10226960FB6F894DEBF0FBEA0
:10216000CDBFDF91CF911F910F91FF90EF90DF9046
:10217000CF90BF9008959F92AF92BF92CF92DF927F
:10218000EF92FF920F931F93CF93DF9300D000D075
:1021900000D0CDB7DEB726E0E8E3F1E0DE0111962E
:1021A00001900D922A95E1F721E4C22E21E0D22E72
:1021B0007C018E010F5F1F4F5C0186E0A80EB11CF1
:1021C0003AE0932E88E60E94D206F60161916F01F3
:1021D0008EEA93E00E94230AF70181917F01F801C2
:1021E00021918F01692D0E94E8348295807F890FAB
:1021F000822390E00E94520A0E947A06EA14FB04AD
:1022000009F781E00E94C00F61E08F770E94DD0A2C
:1022100026960FB6F894DEBF0FBECDBFDF91CF91EB
:102220001F910F91FF90EF90DF90CF90BF90AF90F4
:102230009F900C943E10FF920F931F93CF93DF93C8
:10224000EC01F62E6DE370E00E948D35009711F0E1
:10225000EC012196EFEF60E070E0CB0100E0F0E0F0
:1022600019911D3209F442C01B32D1F31E3209F418
:102270003FC020ED210F2A3018F5EF158CF76115BE
:1022800021EE720725EF820725E09207BCF4AAE051
:10229000B0E09B01AC010E94BE34212F110F330B23
:1022A00020533109032E000C440B550B620F731F92
:1022B000841F951FEF3FA1F2EF5FD2CF01E0FACF6D
:1022C000103271F2E7FDE0E0EF15A4F4611521EEA4
:1022D000720725EF820725E0920774F4AAE0B0E0C8
:1022E0009B01AC010E94BE34EF5FEECFF1E0B8CFAE
:1022F000E0E0B6CF002359F060E07CE68AEC98E895
:10230000F1110EC060E074E985E397E709C0FF238F
:1023100039F090958095709561957F4F8F4F9F4FC5
:10232000DF91CF911F910F91FF900895CF92DF928F
:10233000EF92FF920F931F93CF93DF93EB017B01FB
:1023400024E0E20EF11C8B016C01C61AD70AC6010B
:10235000800F911F0E94A834F80181938F01EE1520
:10236000FF05A9F7CE01DF91CF911F910F91FF904B
:10237000EF90DF90CF900895CF92DF92EF92FF928F
:102380000F931F93CF93DF9300D000D0CDB7DEB76C
:1023900010E000E0C12CD12C7601BE016F5F7F4FB1
:1023A000C8010E94961189819A81AB81BC81C80EB7
:1023B000D91EEA1EFB1E0C5F1F4F0837110569F777
:1023C000C701B6010F900F900F900F90DF91CF9142
:1023D0001F910F91FF90EF90DF90CF900895CF92D3
:1023E000DF92EF92FF92CF93DF9300D000D0CDB772
:1023F000DEB70E94BC116B017C01BE016F5F7F4F95
:1024000088E790E00E94961189819A81AB81BC8116
:10241000A7019601281B390B4A0B5B0BCA01B901B6
:102420000F900F900F900F90DF91CF91FF90EF9052
:10243000DF90CF9008950F931F93CF93DF938C017C
:10244000EB010E94A8348883C80101960E94A83439
:102450008983CE01DF91CF911F910F910895CF9382
:10246000DF9300D0CDB7DEB7BE016F5F7F4F0E9414
:102470001B1289819A810F900F90DF91CF9108955F
:102480008F929F92AF92BF92CF92DF92EF92FF9284
:102490000F931F93CF93DF937C01EB0106960E946D
:1024A0002F126C01C70104960E942F128C01C701E4
:1024B00002960E942F125C01C7010E942F12AC01EC
:1024C000CA14DB0419F10D2C000CEE08FF08C5013D
:1024D0000B2C000CAA0BBB0BC81AD90AEA0AFB0A80
:1024E0009801241B350BDE01AA19BB090E9449354E
:1024F0004B015C01DA01A70196010E945835680D75
:10250000791D8A1D9B1D0E942A35E901CE01DF91AC
:10251000CF911F910F91FF90EF90DF90CF90BF90E0
:10252000AF909F908F9008950E94FD0C81E0809362
:10253000210165E070E080E090E00E9415080E94B3
:10254000120D8EE00E949C0CBC0183E990E00E9479
:102550004012909302018093010183E08093210156
:1025600065E070E080E090E00E9415080C94F30CA8
:1025700086E00E949C0CBC018BE890E00C94401219
:10258000CF93DF930E94550F0E94E80E0E94B8126D
:10259000EC010E949412CE01DF91CF910895CF9368
:1025A000DF9300D0CDB7DEB7BE016F5F7F4F0E94D3
:1025B0001B1289819A810F900F90DF91CF9108951E
:1025C000CF93DF9380E890E00E94CF120E943F0CEF
:1025D000EC010E94B8120E943F0C9E01281B390B8F
:1025E000C901DF91CF910895FC0101900020E9F726
:1025F0003197AF01481B590BBC0181E193E00C946A
:102600005808CF93DF93EC011F821E8280E28C87F3
:1026100088878D85882321F0888199810E94F41212
:102620001D821C82E881F9811082DF91CF9108958B
:10263000CF93DF93EC018C819D810097E9F0488175
:102640005981FA01E80FF91F319720812A30C1F42E
:102650008230910570F00297480F591FFA013081BE
:102660002C85321306C09D838C836AE0CE010E94C4
:10267000810ECE010E940113CE01DF91CF9108950A
:102680006C856623C9F3277F2032B1F3CE010E9407
:10269000810EF2CF0F931F93CF93DF938C01EB0149
:1026A000FE016491C8010E94810E21968111F8CF2C
:1026B000C801DF91CF911F910F910C941813CF9205
:1026C000DF92EF92FF92CF930E9448086B017C014A
:1026D000C0E00E9448086C197D098E099F09683E78
:1026E000734081059105F0F40E94120E8F3F81F432
:1026F000CF5FC63080F060E174E08AE594E00E942C
:102700004A1380E0CF91FF90EF90DF90CF90089533
:1027100080FF0BC0C0E061E070E080E090E00E94CC
:102720001508D7CF66E274E0E8CF81E0EBCFCF9316
:10273000C82F8B3A71F461E084E00E941C0761E0CD
:1027400086E00E941C0761E070E080E090E00E945B
:10275000150860E086E00E941C078C2F0E940B0E7B
:1027600061E086E00E941C07C63019F081E0CF913D
:1027700008950E94120E81FDF9CF65EF73E08AE59E
:1027800094E00E944A1380E0F2CF89EB0E949713F5
:1027900061E086E00C941C071F93CF93DF9300D079
:1027A00000D0CDB7DEB713E0BE016F5F7F4F85EB82
:1027B00090E00E94961189819A81AB81BC818093BF
:1027C000450290934602A0934702B09348020197B6
:1027D000A109B10980389145A140B105A0F011507F
:1027E00019F763EB71E08AE594E00E944A1388E5EB
:1027F00092E0A0E0B0E08093450290934602A0935F
:102800004702B093480213E08EEF90E00E942F122F
:102810009093AB028093AA020C964B9760F01150F4
:1028200099F760E971E08AE594E00E944A131092FA
:10283000AB021092AA0213E082E191E00E94CF1253
:1028400090933F0280933E0201978D36914070F045
:10285000115091F76EE571E08AE594E00E944A1309
:102860008EE190E090933F0280933E0213E08DED65
:1028700090E00E94A834809300018150883158F084
:102880001150A9F769E271E08AE594E00E944A13C9
:1028900081E0809300010F900F900F900F90DF91D7
:1028A000CF911F9108950F931F93CF93DF93EC0166
:1028B0008B01F80161918F01CE010E94810E81117F
:1028C000F8CFCE01DF91CF911F910F910C94181387
:1028D000EF92FF920F931F93CF93DF93EC0180E56C
:1028E000860F803148F48A87CE01DF91CF911F9106
:1028F0000F91FF90EF9008956B3219F481E0898772
:10290000F3CF6D3A11F41C86EFCF6E3A39F482E0C2
:1029100090E09F838E8380E38887F5CF6F3A31F410
:102920001F821E8280E28C878887DECF603A21F486
:10293000CE010E940113D8CF80E4860F803140F48D
:10294000062E000C770B605C7F4F7F836E83CCCFAD
:1029500080E3860F8031B8F4062E000C770B605DA3
:102960007F4F8AE0869F7001879FF00C112410E052
:1029700000E06AE2CE010E94810E0F5F1F4FE01659
:10298000F106BCF7B1CFCE010E94810ECE010E94AC
:102990001813AACFAF92BF92CF92DF92EF92FF921D
:1029A0001F93CF93DF93CDB7DEB728970FB6F89478
:1029B000DEBF0FBECDBF182F60E086E00E941C076F
:1029C0008BE40E940B0E80E00E940B0E80E00E94C0
:1029D0000B0E80E00E940B0E80E00E940B0ECE01D9
:1029E00001966C015E0199E0A90EB11C760180E0B0
:1029F0000E940B0EF60181936F01EA15FB05B9F7F2
:102A000061E086E00E941C0710926604E10EF11C52
:102A1000F701D1907F018D2D82958F700E94740DEA
:102A2000682F8AE594E00E9468145C018D2D0E9455
:102A3000740D682FC5010E9468141F5F183041F79C
:102A4000109261041092600480E280936604809387
:102A5000620428960FB6F894DEBF0FBECDBFDF919B
:102A6000CF911F91FF90EF90DF90CF90BF90AF90EC
:102A700008951092660465E374E08AE594E00E948C
:102A80004A1385E00C94CA14CF93DF9368E474E092
:102A90008AE594E00E944A130E943915CAE5D4E001
:102AA0001C866FE374E0CE010E944A1380E00E940E
:102AB000CA141C866CE374E0CE010E944A13FC0128
:102AC0001782168280E284878087DF91CF910895F4
:102AD0000F931F93CF93C82F1092660468E971E09B
:102AE0008AE594E00E9453148C018C2F82958F709C
:102AF0000E94740D682FC8010E9468148C018C2FED
:102B00000E94740D682FC8010E946814FC0117828E
:102B1000168280E284878087CF911F910F9108955C
:102B20000F931F93CF93DF938C011092660468E993
:102B300071E08AE594E00E945314CCE0D0E0C80133
:102B40000C2E02C0969587950A94E2F70E94740DA8
:102B5000682F8AE594E00E9468142497CC3F8FEF99
:102B6000D80769F7109261041092600480E28093A4
:102B7000660480936204DF91CF911F910F910895B5
:102B80009F92AF92BF92CF92DF92EF92FF920F93FC
:102B90001F93CF93DF93F82E8B01942EE52ED22F27
:102BA000C22FC80FC60FC10F109266046AE38AE5F0
:102BB00094E00E9468145C01CD2ED12C8D2F82955B
:102BC0008F700E94740D682FC5010E9468145C010B
:102BD0008D2F0E94740D682FC5010E9468145C013E
:102BE000812F82958F700E94740D682FC5010E94FD
:102BF00068145C01812F0E94740D682FC5010E942A
:102C000068145C01C80124E0969587952A95E1F740
:102C10000E94740D682FC5010E9468145C01802F0A
:102C20000E94740D682FC5010E9468148C0180E019
:102C30000E94740D682FC8010E9468148C018F2DAA
:102C40000E94740D682FC8010E946814092D1E2D62
:102C50007801EC0CFD1CE016F106C1F0F801819141
:102C60008F01C80F82958F700E94740D682F8AE5BE
:102C700094E00E9468146C01F801319780810E94F1
:102C8000740D682FC6010E946814E5CFC1958C2F82
:102C900082958F700E94740D682F8AE594E00E94DF
:102CA00068148C018C2F0E94740D682FC8010E943B
:102CB00068146AE0DF91CF911F910F91FF90EF9020
:102CC000DF90CF90BF90AF909F900C9468140F93BB
:102CD0001F93CF93DF93182FD92F062FC42F109255
:102CE00066046CE28AE594E00E946814C11119C080
:102CF00060E28AE594E00E946814E12FFD2F849140
:102D0000882331F0807C803809F0CF5F3196F7CF8F
:102D1000C01738F460E28AE594E00E946814CF5F3F
:102D2000F7CF612F7D2F8AE594E0DF91CF911F913E
:102D30000F910C944A13CF93C82F109266046AE740
:102D400072E08AE594E0C1110EC068EC8AE594E077
:102D50000E94681461E772E00E944A136CE20E94CC
:102D600068146CE572E00E944A134C2F65E087E519
:102D700092E00E9467164C2F67E08FE492E00E9479
:102D800067164C2F65E08CE492E00E9467164C2F8A
:102D900068E082E492E00E9467164C2F68E088E3C6
:102DA00092E00E9467166AE08AE594E0CF910C9465
:102DB00068140F931F93CF93DF93EC018E01CE0124
:102DC0000E94A8342196882359F010926604C80105
:102DD0000E94A834682F8AE594E00E946814EECF20
:102DE000DF91CF911F910F9108956AE08AE594E0F9
:102DF0000C94681481E0809390028091670488238A
:102E000021F08BE991E00C94F4120895809167040D
:102E1000882321F081EA91E00C94F4120895FF9246
:102E20000F931F93CF93DF93EC01F62E0881198146
:102E3000C8010E94A834F81621F06F2DC8010E9425
:102E4000B034CE01DF91CF911F910F91FF90089583
:102E5000AF92BF92CF92DF92EF92FF920F931F93A8
:102E6000CF93DF9300D0CDB7DEB78B016B0124E0A9
:102E7000C20ED11C7B015C01A61AB70AC5018E0DDA
:102E80009F1D9A838983F70161917F01CE0101968D
:102E90000E940F17EC14FD0489F7C8010F900F90E2
:102EA000DF91CF911F910F91FF90EF90DF90CF9026
:102EB000BF90AF900895EF92FF920F931F93CF931F
:102EC000DF9300D0CDB7DEB78C017B019A83898375
:102ED000FB016081CE0101960E940F170F5F1F4F0B
:102EE0001A830983F7016181CE0101960E940F17B1
:102EF000C7010F900F90DF91CF911F910F91FF901D
:102F0000EF9008958F929F92AF92BF92CF92DF92EF
:102F1000EF92FF920F93CF93DF93CDB7DEB72E974B
:102F20000FB6F894DEBF0FBECDBF5C01CB01BA0176
:102F300049012AE0AE014F5F5F4F7A010E9476346B
:102F4000F70101900020E9F731976F01CE18DF08F3
:102F5000F501638581E090E0611102C090E080E0BE
:102F60009401281B390BC216D30644F4602FC50107
:102F70000E94810E3FEFC31AD30AEACF662319F0ED
:102F8000C5010E94810EF5011386F70161917F0151
:102F9000C5010E94810E8111F8CF2E960FB6F894CC
:102FA000DEBF0FBECDBFDF91CF910F91FF90EF90AD
:102FB000DF90CF90BF90AF909F908F9008955F92D9
:102FC0006F927F928F929F92AF92BF92CF92DF9239
:102FD000EF92FF920F931F93CF93DF93EC016A015F
:102FE0007B010A8558846E807F80002309F459C0D4
:102FF00010E021E030E040E050E0F0E0E0E0AAE066
:10300000B0E00E94BE349B01AC013196E017F1079D
:10301000B4F3C701B6010E94083549015A0121E005
:1030200030E040E050E0F0E0E0E0AAE0B0E00E94F4
:10303000BE349B01AC013196E017F107B4F3C50132
:10304000B4010E94D834C61AD70AE80AF90A0F5FF9
:103050001F4F9301201B310B052DB501A401CE019B
:103060000E9482176EE2CE010E94810E2A8530E016
:1030700000E3B701A601CE010E9482171A86CE0195
:10308000DF91CF911F910F91FF90EF90DF90CF9044
:10309000BF90AF909F908F907F906F905F900C94B7
:1030A0001813052D93010E948217E9CFCF92DF926A
:1030B000EF92FF92CF93DF936B017C0161ED8AE584
:1030C00094E00E9468146BE770E00E944A13EC01E0
:1030D000C701B60128EE33E040E050E00E94083519
:1030E000BA01A901CE010E94DF1768E770E00E94D3
:1030F0004A1361ED0E9468146AE0DF91CF91FF905E
:10310000EF90DF90CF900C946814AB0170E060E01A
:103110000C94DF1761EA74E08AE594E00E944A1398
:103120006AEF70E00E9485186DE974E00C944A1310
:10313000CF93DF93EC0186E00E949713882309F177
:10314000BE0190E080E02CE0660F771F881F991F7A
:103150002A95D1F740E20E94250E61E086E00E94A8
:103160001C07BE018AE594E00E94851865EA71E0BB
:103170000E9453146AE00E946814DF91CF910C946E
:103180005F1380E0DF91CF91089577FF0EC02DE2AD
:10319000FC01238770956095509541955F4F6F4F67
:1031A0007F4FFC0111860C94DF17FC01218522233F
:1031B000C1F32BE22387F5CF8F929F92AF92BF92FC
:1031C000CF92EF920F93CF93DF934B015C01D42FFB
:1031D000C22F109266046CE28AE594E00E946814A3
:1031E000C1101FC060E28AE594E00E946814DD23EC
:1031F000D9F0C3E060E28AE594E00E946814CF5FF2
:103200000C13F8CF6CEA71E08AE594E0DF91CF917E
:103210000F91EF90CF90BF90AF909F908F900C94B4
:103220005314DD2361F0EECF60EC600F8AE594E08B
:103230000E946814EE2019F081E08093630460EB33
:103240006C0F8AE594E00E946814B501A401DF9137
:10325000CF910F91EF90CF90BF90AF909F908F90B4
:103260000C94C518AB01770F660B770B0C94C5183F
:103270001F93CF93DF93EC01162F82E090E09093A1
:1032800061048093600480E380936204109266047A
:10329000688170E06053784F8AE594E00E943219AB
:1032A0006DE20E946814698170E00E9432196DE23B
:1032B0000E9468146A8170E00E94321960E20E94E4
:1032C00068146B8170E00E9432196AE30E946814EE
:1032D0006C8170E00E9432196AE30E9468146D816B
:1032E00070E00E943219FC011782168280E2848706
:1032F00080871123B9F01092660460EB71E08AE5D3
:1033000094E00E94531421E0FC0121876091AA02FD
:103310007091AB020E94321969E2DF91CF911F9147
:103320000C946814DF91CF911F91089567E974E0C0
:103330008AE594E00E944A1361E084EA92E00E94E8
:1033400038190C94F5161F93CF93DF9300D000D05B
:1033500000D0CDB7DEB7142FAE014F5F5F4F0E9494
:103360001A0B612FCE0101960E94381926960FB6CE
:10337000F894DEBF0FBECDBFDF91CF911F910895AE
:103380004F925F926F927F928F929F92AF92BF9275
:10339000CF92DF92EF92FF92CF93DF9300D000D0D5
:1033A000CDB7DEB70E94EF11C12CD12C7601623966
:1033B00024E2720729E08207910558F422E9C22E1F
:1033C00024E2D22E29E0E22EF12CC61AD70AE80A0E
:1033D000F90A409045025090460260904702709072
:1033E0004802C301B2012CE330E040E050E00E940B
:1033F000083569837A838B839C83C701B6010E9459
:10340000D83420EA35E040E050E00E940835490118
:103410005A0129813A814B815C81C701B6010E9422
:10342000D83420E831E541E050E00E940835820EB2
:10343000931EA41EB51E6DEE73E08AE594E00E9413
:103440004A13B701A6010E94DF176FED73E00E94D7
:103450004A13B501A4010E94DF1767ED73E00E94D3
:103460004A13B301A2018AE594E00E94DF1764EDDC
:1034700073E00E944A1364EC73E0CD28CE28CF2875
:1034800049F08BE4881687E49806A104B104C0F0E3
:1034900068EA73E08AE594E00F900F900F900F9028
:1034A000DF91CF91FF90EF90DF90CF90BF90AF90E2
:1034B0009F908F907F906F905F904F900C944A13E5
:1034C0000E943E106FE973E08AE594E00E944A137F
:1034D000A501940160E871E581E090E00E94D83494
:1034E000C0909E02D0909F02E090A002F090A102B6
:1034F0006C0D7D1D8E1D9F1D41E00E94A3190F9034
:103500000F900F900F90DF91CF91FF90EF90DF9091
:10351000CF90BF90AF909F908F907F906F905F9073
:103520004F900C94F5162F923F924F925F926F92AC
:103530007F928F929F92AF92BF92CF92DF92EF9243
:10354000FF920F931F93CF93DF93CDB7DEB72C97E6
:103550000FB6F894DEBF0FBECDBF282E8BEA0E94B7
:1035600097130E94EF116D837E838F83988783EB7F
:1035700090E00E94CF126AE573E08F32904209F426
:1035800072C180919602882361F067E173E08AE559
:1035900094E00E944A1362EC72E08AE594E00E9493
:1035A0004A138D819E81AF81B885892B8A2B8B2B05
:1035B00009F457C13324339492E02912312C832D1E
:1035C0000E949B16A1E0412C512C320143942A12F7
:1035D00004C04D805E806F8078840E9448086987AF
:1035E0007A878B879C87AEE0B0E0A30192010E94AE
:1035F000BE344B015C012D813E814F8158852415DD
:1036000035054605570598F0C501B4016E5071099E
:10361000810991098114910430E8A306B10408F4EA
:1036200071C06FE772E08AE594E00E944A130E943D
:1036300048084B015C0129853A854B855C85821AD7
:10364000930AA40AB50A4D815E816F8178858AE567
:1036500094E00E94DF1763EB72E00E944A1362EB72
:103660000E9468147C01C501B4012AE030E040E00A
:1036700050E00E940835BA01A901C7010E94DF1776
:103680006BEA72E00E944A1381149104A104B10410
:10369000E1F064E372E08AE594E00E9453147C0157
:1036A000A8EEB3E02D813E814F8158850E94BE3443
:1036B000A50194010E940835BA01A901C7010E9421
:1036C000DF1767E972E00E944A130E94F5160E9414
:1036D000C5132C960FB6F894DEBF0FBECDBFDF9199
:1036E000CF911F910F91FF90EF90DF90CF90BF90FF
:1036F000AF909F908F907F906F905F904F903F9092
:103700002F90089504E010E020E030E0AE014F5F1C
:103710005F4F0E94400EC980DA80EB80FC8042E05F
:10372000241679F01092660468EC8AE594E00E9411
:103730006814B301A2010E94DF1766EB71E00E94DA
:10374000531440E0C701B6010E94A3191092660409
:10375000C501B4016A507109810991090E94680E7E
:103760006AE070E00E94F434072E000C880B990B7D
:10377000C32CE12C05E022E040E00E94DC18C501EA
:10378000B40168507109810991090E94680E41E0F5
:10379000811550E8950709F040E0BC01990F880BAE
:1037A000990BC32CEE24E39407E022E00E94DC187E
:1037B000C501B40166507109810991090E94680E22
:1037C000492F441F4427441FBC01990F880B990BB4
:1037D000E12C05E021E00E94DC18C501B401645031
:1037E0007109810991090E94680E41E08115A0E8E4
:1037F0009A0709F040E0BC01990F880B990BC32C84
:10380000EE24E39408E022E00E94DC18C501B40134
:1038100062507109810991090E94680E41E0811589
:10382000B0E89B0709F040E0BC01990F880B990BA9
:10383000C32CE12C08E023E00E94DC1860EC8AE550
:1038400094E00E9468146AE00E9468142FEF421A04
:10385000520A620A720A3EE0830E911CA11CB11C3E
:10386000CACE6CE872E08AE594E00E944A132FCF3A
:103870003F924F925F926F927F928F929F92AF9200
:10388000BF92CF92DF92EF92FF920F931F93CF934D
:10389000DF93CDB7DEB762970FB6F894DEBF0FBEE9
:1038A000CDBF30909602332001F167E072E08AE5E7
:1038B00094E00E944A13312C832D62960FB6F8943F
:1038C000DEBF0FBECDBFDF91CF911F910F91FF9053
:1038D000EF90DF90CF90BF90AF909F908F907F90B0
:1038E0006F905F904F903F9008950E94FD0C8BEA7F
:1038F0000E9497130E94EF116B017C010E94C0127D
:103900008C01C114D104E104F10409F450C0AEE00B
:10391000B0E0A70196010E94BE344B015C0180918A
:103920009E0290919F02A091A002B091A102898372
:103930009A83AB83BC831E830D8380919302909105
:10394000940298878F8380919102909192029A8736
:1039500089878091090190910A019C878B878091CA
:103960000101909102019E878D87D501C4010E96B9
:10397000A11DB11D0097A048B10570F16FE772E07D
:103980008AE594E00E944A1389EB0E94971310E0A5
:1039900000E0311090C088E00E94E80D68EE71E010
:1039A0008AE594E00E944A130E94C51385CF6EE910
:1039B00072E08CE790E00E9428178FE290E19A83F2
:1039C0008983BE016F5F7F4F83EB90E00E945B179E
:1039D000812C912C5401A3CFC4019F700097D1F585
:1039E000D501C4014CE0B695A795979587954A9562
:1039F000D1F78115E8E09E0738F60E9498188823D1
:103A000019F2CE0101967C013EE0432E512C612C2F
:103A1000712CC401992700E011E0081B190B401616
:103A2000510608F4820186E00E949713882309F466
:103A3000ABCF42E0C501B4010E94250E6701C00E64
:103A4000D11EEC14FD0401F1F70181917F010E9468
:103A50000B0EF7CFB0E0A0E00E96A11DB11D813096
:103A60009041A105B10568F2D501C4012CE0B695DD
:103A7000A795979587952A95D1F701968115F8E036
:103A80009F0708F081CFB9CF61E086E00E941C0754
:103A90000E945F13882309F477CF30E020E0800E86
:103AA000911EA21EB31E401A510A620A730A09F03F
:103AB000B0CF382E69CFBE01615F7F4FC8010E9431
:103AC00096118F859889A989BA89803523EC920748
:103AD000A105B105B0F40196A11DB11D8F87988B8A
:103AE000A98BBA8BBE01615F7F4FC8010E94281766
:103AF00080916704882309F457CF81E00E94931ACC
:103B000053CF0C5F1F4F08371105A9F66AED71E01E
:103B10008AE594E00E944A13EBCF4F925F926F9236
:103B20007F928F929F92AF92BF92CF92DF92EF924D
:103B3000FF920F931F93CF93DF9300D000D000D05C
:103B4000CDB7DEB70E943E104091A60250E06091D2
:103B5000A50270E08091A402F12CE12C10E000E0BD
:103B600030E020E090E00E94CD0B2B013C01209141
:103B7000A70230E0A0E1BEE00E94C9346B017C01E5
:103B80002091A80230E0ACE3B0E00E94C9346C0D93
:103B90007D1D8E1D9F1D2091A902620F711D811D2B
:103BA000911D8090450290904602A0904702B090EF
:103BB00048026B017C01C80CD91CEA1CFB1CA50146
:103BC00094010E940835A7019601261B370B480B6C
:103BD000590B29833A834B835C8332E0831691042B
:103BE000A104B10408F47BC04DE384169104A10440
:103BF000B10408F477C051E185165EE09506A10492
:103C0000B10408F472C088E08D83C980DA80EB804B
:103C1000FC80C40CD51CE61CF71C4CEB52E0C70121
:103C2000B6010E941A0B8D810E94CF0F2D812F307B
:103C300099F138E03E8389819A81AB81BC81880EFD
:103C4000991EAA1EBB1E480C591C6A1C7B1C4C18D2
:103C50005D086E087F080E943E1080919E02909140
:103C60009F02A091A002B091A1028C159D05AE0506
:103C7000BF0590F0C40CD51CE61CF71C4CEB52E0C1
:103C8000C701B6010E941A0B8D810E94CF0F9E8141
:103C900091509E839111DFCF6AE874E08AE594E049
:103CA0000E944A1361E08CEB92E00E94381926963C
:103CB0000FB6F894DEBF0FBECDBFDF91CF911F913D
:103CC0000F91FF90EF90DF90CF90BF90AF909F90BB
:103CD0008F907F906F905F904F900C94F5169FE0BF
:103CE0009D8393CFAEE0AD8390CFBCE0BD838DCFFD
:103CF0008F929F92AF92BF92CF92DF92EF92FF92FC
:103D00000F931F93CF93DF9300D000D0CDB7DEB7D2
:103D10004B019C01220F331FA9014F595E4F6A01CD
:103D2000FC01E45AFE4F5F018C010A5A1E4FC50187
:103D30008C559140881699060CF448C0F601E19024
:103D4000F1906F01F50181915F018E0D9F2D911D05
:103D50000E94D9166EEB71E08AE594E00E9453143C
:103D6000F80181918F01893649F4C7010E942F1211
:103D7000BC018AE594E00E9432190AC0853761F4DB
:103D8000C7010E94CF12BC018AE594E00E94851809
:103D90006AE00E946814CBCF853579F4BE016F5F6D
:103DA0007F4FC7010E94961149815A816B817C81A6
:103DB0008AE594E00E94DF17EBCF823609F0B7CF97
:103DC000C7010E94A834682F70E0D3CF0F900F90E6
:103DD0000F900F90DF91CF911F910F91FF90EF9077
:103DE000DF90CF90BF90AF909F908F900895CF922B
:103DF000DF92EF92FF920F931F93CF93DF930E9476
:103E0000961963E171E08AE594E00E944A134091BB
:103E100045025091460260914702709148020E940B
:103E2000DF1761EC71E00E94531461E071E08AE5F4
:103E300094E00E944A1361E08CEB92E00E943819F2
:103E40000E94F5160E94EF116B017C016EEE70E08E
:103E50008AE594E00E944A13B701A6010E94DF1789
:103E600068E20E946814EC01A4E6B0E0A7019601A4
:103E70000E94BE3422E934E249E050E00E94083555
:103E8000BA01A901CE010E94DF176AEC71E00E941D
:103E9000531442E954E269E070E00E94DF1762EED9
:103EA00071E00E9453140E94550F0E94E80E67EDC6
:103EB00070E08AE594E00E944A1380919302909109
:103EC00094028115904809F08DC062ED70E08AE59A
:103ED00094E00E944A1367EB70E08AE594E00E9448
:103EE0004A138091090190910A018115904809F0C7
:103EF00087C062EB70E08AE594E00E944A1363EAAF
:103F000070E08AE594E00E944A13809191029091BA
:103F1000920297FF83C06EE970E08AE594E00E9408
:103F20004A130E94941291E7E92E91E0F92E01E0E4
:103F300011E0D0E0C0E0C330F9F0F70180818823C0
:103F4000D9F0FE01EE0FFF1FE559FE4F6081718130
:103F50008AE594E00E944A136AE30E946814F8011B
:103F6000808191818115904809F068C069E970E00D
:103F70008AE594E00E944A132196FFEFEF1AFF0AA8
:103F80000E5F1F4FC430D105B1F60E94B812EC018C
:103F900062E970E08AE594E00E944A1362EB0E94B5
:103FA00068149C01CE016AE070E00E94F434C901FB
:103FB0000E94321962E372E00E9453148C01CE0118
:103FC0000E943F0CBC01C8010E94321961EE71E0F1
:103FD000DF91CF911F910F91FF90EF90DF90CF90E5
:103FE0000C94531462EB8AE594E00E94681460918B
:103FF0009302709194020E9432196DEC70E069CFC7
:1040000062EB8AE594E00E94681460910901709166
:104010000A010E9432196DEA70E06FCF61EB8AE508
:1040200094E00E94681460919102709192020E9443
:1040300032196CED71E00E94531473CF63EB8AE583
:1040400094E00E946814F801608171810E94321925
:104050006FED71E00E945314FE01ED5AFE4F808116
:1040600081110E948A186AE08AE594E00E9468142F
:1040700083CF1F920F920FB60F9211244F935F932D
:104080006F937F938F939F934091B8025091B902A1
:104090006091BA027091BB028091B7029091B60212
:1040A000983019F51092B6029091B602973008F147
:1040B000855E8D3700F18D574D5F5F4F6F4F7F4F9E
:1040C0008093B7024093B8025093B9026093BA024A
:1040D0007093BB029F918F917F916F915F914F91F0
:1040E0000F900FBE0F901F9018959F5F9093B60290
:1040F000DBCF845EDECF4E5F5F4F6F4F7F4FE0CFF1
:104100001F920F920FB60F9211242F933F934F934C
:104110005F936F937F938F939F93AF93BF93EF932F
:10412000FF93E0911D01F0911E010995FF91EF9120
:10413000BF91AF919F918F917F916F915F914F91BF
:104140003F912F910F900FBE0F901F9018951F92C7
:104150000F920FB60F9211242F933F934F935F93BB
:104160006F937F938F939F93AF93BF93EF93FF933F
:10417000E0911B01F0911C010995FF91EF91BF9116
:10418000AF919F918F917F916F915F914F913F91EF
:104190002F910F900FBE0F901F9018951F920F92A6
:1041A0000FB60F9211242F933F934F935F936F930A
:1041B0007F938F939F93AF93BF93EF93FF9381E18F
:1041C00093E00E94D608FF91EF91BF91AF919F912C
:1041D0008F917F916F915F914F913F912F910F90B0
:1041E0000FBE0F901F9018951F920F920FB60F924F
:1041F00011242F938F939F93EF93FF93E0912103CB
:10420000F09122038081E0912703F091280382FD41
:104210001BC0908180912A038F5F8F7320912B03A5
:10422000821741F0E0912A03F0E0EF5EFC4F958F9A
:1042300080932A03FF91EF919F918F912F910F907F
:104240000FBE0F901F9018958081F4CF1F920F9290
:104250000FB60F9211242F933F934F935F936F9359
:104260007F938F939F93AF93BF93EF93FF9380912F
:10427000B900887F803609F44AC0F0F5883209F425
:10428000A7C018F5803109F49BC0B8F4882309F45D
:1042900005C1883009F494C0FF91EF91BF91AF91AF
:1042A0009F918F917F916F915F914F913F912F914E
:1042B0000F900FBE0F901F901895883109F488C099
:1042C000803251F78093EA0214C0803409F4A5C00B
:1042D00040F48033B9F38833F9F68093EA0285EC31
:1042E000BCC0803509F489C0883509F49EC0883483
:1042F00099F60E949B09D0CF883909F494C038F50B
:10430000883729F050F4883611F0803729F683E099
:104310008093EC0210928B0257C0883809F483C056
:10432000803919F0803809F0B7CF80918B02803244
:1043300008F079C0E0918B0281E08E0F80938B02B0
:104340008091BB00F0E0E559FD4F80833DC0803B8C
:1043500039F0E0F4803A09F485C0883A09F09CCF3E
:1043600084E08093EC0210926A0210926902E0915C
:104370008E02F0918F0209958091690281110FC020
:1043800081E0809369021092490209C0803C09F4DF
:10439000A6CF883C09F4A3CF883B09F07DCFE091FC
:1043A0006A0281E08E0F80936A02F0E0E75BFD4FC6
:1043B00080818093BB0090916A028091690231C034
:1043C0008091E5028093BB0085EC8093BC0064CFB4
:1043D0009091E7028091E6029817B8F58091E80283
:1043E0009091E902E091E70221E02E0F2093E7028D
:1043F000E80FF92FF11D8081E5CF2091E80230917F
:10440000E902E091E70281E08E0F8093E70280915C
:10441000BB00E20FF32FF11D80839091E7028091A2
:10442000E602981788F285E8D0CF2091E802309113
:10443000E902E091E70281E08E0F8093E70280912C
:10444000BB00E20FF32FF11D80838091EB028111FD
:1044500050CF81E08093E40284EA8093BC00109204
:10446000EC021ACF85EC8093BC001092EC02809194
:104470008B02803230F4E0918B02F0E0E559FD4F81
:10448000108260918B0270E0E0918C02F0918D02BD
:104490008BE692E0099510928B02FECE1092EA0212
:1044A00028CF1F920F920FB60F9211248F930FB641
:1044B000F894A895809160008861809360001092C4
:1044C00060000FBE8F910F900FBE0F901F90189538
:1044D000CF93DF93C82F0E94FD0C81E080932101D0
:1044E00065E070E080E090E00E9415080E94120DE7
:1044F00081E1C33029F0EC2FF0E0E25CFE4F8081D7
:104500000E949C0CEC0183E08093210165E070E047
:1045100080E090E00E9415080E94F30CCE01DF912C
:10452000CF910895CF92DF92EF92FF926B017C01C1
:1045300081E193E00E944509C701B6010E9420066F
:1045400081E193E00E94B608892B29F081E193E094
:104550000E949408F5CF62E370E080E090E0FF9065
:10456000EF90DF90CF900C941508EF92FF920F938D
:104570001F93CF93DF9300D000D0CDB7DEB77B0180
:104580003C832B838B010E5F1F4F50E0FC01E40F37
:10459000F51F20812D33E9F4FC0101900020E9F79B
:1045A0003197E81BF90B4F5F5F4F4E175F0788F499
:1045B00063E00E941B117A836983BE016F5F7F4FA6
:1045C000C7010E945B17BE016D5F7F4FC8010E944B
:1045D0005B17C7010E942F12BC018AE594E00E947C
:1045E000321969EB71E00E9453147C01C8010E94EA
:1045F0002F12BC01C7010E9432196AE00E946814A0
:104600000F900F900F900F90DF91CF911F910F910E
:10461000FF90EF900895E1E1F3E01382128288EEBB
:1046200093E0A0E0B0E084839583A683B78328E776
:1046300031E03183208325EC30E03587248724EC7A
:1046400030E03787268720EC30E0318B208B21EC5F
:1046500030E0338B228B22EC30E0358B248B26EC40
:1046600030E0378B268B118E128E138E148EEEEA6D
:10467000F3E01382128284839583A683B7838AE84A
:1046800091E091838083EAE5F4E0AAEBB3E0B183A3
:10469000A08380EA90E0938382831582148217823C
:1046A000168280E28087118612861386848781E0D5
:1046B00085871C920895CF93DF93CDB7DEB7C95796
:1046C000D1090FB6F894DEBF0FBECDBF789484B584
:1046D000836084BD85B5836085BD80916E008160F7
:1046E00080936E0082E080938100809180008160E1
:1046F000809380008091B10084608093B1008091AC
:10470000B00081608093B00085E880937A001092B9
:10471000C1008091680490916904A0916A04B091ED
:104720006B0481309E4EAF4FB04C61F181E09EEE44
:10473000AFEFB0EC8093680490936904A0936A048F
:10474000B0936B0410927B0410927A041092790457
:1047500010927804109277041092760410927504E7
:1047600010927404109273041092720410927104E7
:104770001092700410926F0410926E0410926D04E7
:1047800010926C0462E082E00E94680761E08AE0B7
:104790000E94680760E08AE00E941C0761E085E0F3
:1047A0000E94680760E085E00E941C0760E086E0E8
:1047B0000E94680783E08093210160E087E00E9407
:1047C000680761E086E00E94680760E086E00E947A
:1047D0001C0761E084E00E94680760E084E00E94BA
:1047E0001C0760E083E00E94680760E083E00E94AD
:1047F0001C0760E08FE00E94680760E08FE00E9485
:104800001C0760E080E10E94680760E080E10E9490
:104810001C0760E081E10E94680760E081E10E947E
:104820001C0760E08EE00E94680780917E00816036
:1048300080937E0088B1817F88B987B18E6087B907
:1048400061E085E00E941C071092C3021092C20230
:104850001092EE02109210031092EC0281E080930D
:10486000EB021092E40261E082E10E941C0761E029
:1048700083E10E941C078091B9008E7F8093B9006C
:104880008091B9008D7F8093B9008CE18093B8004E
:1048900085E48093BC0086E598E090938F02809336
:1048A0008E0287E598E090938D0280938C020E949F
:1048B00065090E94CC130E943E100E948D1D60E08D
:1048C00072EC81E090E00E94200649E050E065EE45
:1048D00071E081E193E00E9458080E9496198BEAEA
:1048E0000E94971360E086E00E941C078FE90E94F7
:1048F0000B0E80E00E940B0E80E00E940B0E80E009
:104900000E940B0E482F50E030E020E061E070E0A4
:1049100080E090E0241735073CF4660F771F881F6E
:10492000991F2F5F3F4FF6CFE4E1F0E021E030E048
:1049300040E050E0220F331F441F551F3197D1F73D
:104940000E942A35122F022F61E086E00E941C0788
:10495000112309F42EC2612F70E08AE594E00E94D1
:10496000321964E277E00E944A1360E177E08AE559
:1049700094E00E944A13002309F453C00E94441596
:104980000E94120E082F60E086E00E941C0785E35B
:104990000E940B0E80E00E940B0E182F61E086E053
:1049A0000E941C0707FF06C06DE575E08AE594E0EC
:1049B0000E944A1310FF06C06CE275E08AE594E09D
:1049C0000E944A1311FD06C06FEF74E08AE594E07F
:1049D0000E944A13802F8C7331F066EC74E08AE5F4
:1049E00094E00E944A1360EB74E08AE594E00E9430
:1049F0004A13802F0E946815109266046FE28AE5C0
:104A000094E00E946814812F0E946815109261043E
:104A10001092600480E280936604809362040E9496
:104A2000F5160E94C5136CE077E08AE594E00E94D9
:104A30004A130E94011388E60E94C60A882309F4DB
:104A4000C2C10E94061764E077E08AE594E00E9404
:104A50004A130E94011380E40E94C60A882309F4C5
:104A6000B5C10E94061780E40E94D20682E090E061
:104A70000E94520A80E190E00E94520A90E080E099
:104A80000E94520A0E947A066CEF76E08AE594E072
:104A90000E944A130E94011388E40E94C60A8823D8
:104AA00009F497C10E94061780E294E00E94570A19
:104AB00073E5C72E71E0D72EEBE6EE2EE1E0FE2E79
:104AC00010E01330C9F0D6018C918823A9F066E775
:104AD00075E08AE594E00E944A13F70160817181D4
:104AE0000E944A136AE30E9468140E948A186AE0CE
:104AF0008AE594E00E9468141F5FFFEFCF1ADF0A77
:104B000022E0E20EF11C1430E1F683EB90E00E940B
:104B1000CF128C010E94EF11672B682B692B09F4CF
:104B20005BC10F3F100709F457C181E00F3240E12C
:104B3000140709F480E0809396020F3250E11507C4
:104B400009F058C180919E0290919F02A091A0020D
:104B5000B091A102873D9E4CAC41B243E8F511E013
:104B60001093B50263ED8AE594E00E9468146AE050
:104B70000E94681462EE76E08AE594E00E944A138F
:104B800065ED76E08AE594E00E944A1360919E020A
:104B900070919F028091A0029091A10241E00E9439
:104BA000A3190E94F51663EC76E08AE594E00E9472
:104BB0004A1341E067ED7EEC8CE192E30E94A31979
:104BC0000E94F51663ED8AE594E00E9468146AE09D
:104BD0000E946814109390028091A4026091A50233
:104BE00090E00E94EA0A2091A602820F911D909304
:104BF000A3028093A20280919E0290919F02A091B5
:104C0000A002B091A1028093970290939802A09382
:104C10009902B0939A0280919002882321F061E07A
:104C20008AE00E941C071E01F1E42F0E311C0E9435
:104C3000B8121816190664F066E87BE08AE594E07D
:104C40000E944A1369E77BE08AE594E00E944A13D8
:104C500080912001882309F42DC161E085E00E9444
:104C60001C070E94F71E8091B502882331F067E28D
:104C700077E08AE594E00E944A1360E375E780E0FC
:104C800090E00E94561860E3862E65E7962EA12CD0
:104C9000B12C0E9448082B013C010E94480864196D
:104CA000750986099709681579058A059B0508F035
:104CB000E1C581E193E00E94B608892B71F3AE0152
:104CC0004F5F5F4F7A01D12CC12C8A010E944808A6
:104CD0006093190370931A0380931B0390931C0332
:104CE00081E193E00E94940897FD02C00C94503437
:104CF0000E9448082091190330911A0340911B0328
:104D000050911C03621B730B840B950B20911503B0
:104D100030911603409117035091180362177307DF
:104D200084079507E8F2F801EC0DFD1D10822BE0D9
:104D300031E0A5963FAF2EAFA597A9963FAF2EAF16
:104D4000A997F12CE12C43E050E0A9966EAD7FAD20
:104D5000A997C8010E949835892B09F01FC1DE2C44
:104D60008091AA029091AB02A5969FAF8EAFA597B6
:104D7000CC809DE3C9125FC160E0C8010E941B1195
:104D800022E0E21611F40C9463342E1508F424C1C9
:104D900031E058E1852E912CA12CB12CE31609F4B9
:104DA00099C150E8852E51E5952EAA24A394B12CE3
:104DB00091C161E277E08AE594E00E944A1381E0C4
:104DC00080939002D2CD0E94FA163DCE0E94FA1630
:104DD0005BCE0E94FA166CCE8FE290E19A838983B3
:104DE000BE016F5F7F4F83EB90E00E945B171092D4
:104DF0009602A8CE0F3280E2180751F466E876E0FA
:104E00008AE594E00E944A1381E0809390029ACE52
:104E100063ED8AE594E00E9468146AE00E946814D9
:104E200062E776E08AE594E00E944A1368E676E05D
:104E30008AE594E00E944A137C010E94EF11AB01C5
:104E4000BC01C7010E94DF1765E576E00E944A13A6
:104E5000C8010E9490150E94F5166DE376E08AE580
:104E600094E00E944A138FE290E10E9490150E9404
:104E7000F51666E176E08AE594E00E944A1364EC58
:104E800075E08AE594E00E944A1362EA75E08AE5DB
:104E900094E00E944A1360E875E08AE594E00E947D
:104EA0004A1363ED8AE594E00E9468146AE00E9468
:104EB0006814AACF0E9448080091B1021091B20272
:104EC0002091B3023091B402DC01CB01801B910B25
:104ED000A20BB30B009721E0A207B10520F08FEFE2
:104EE0009FEFA0E0B0E090937B0480937A04209140
:104EF0007804309179042817390720F490937904C5
:104F0000809378040E9448086B017C010E94381C41
:104F1000182F0E944808DC01CB018C199D09AE09AD
:104F2000BF09009731E0A307B10520F08FEF9FEF95
:104F3000A0E0B0E09093770480937604209174040D
:104F4000309175042817390720F4909375048093E5
:104F500074040E9448086093AD027093AE0280937F
:104F6000AF029093B00281E08093AC02112391F0E4
:104F700061E085E00E941C0762E370E080E090E061
:104F80000E94150860E085E00E941C07812C912C8E
:104F900054017FCE83E00E94CA0DF8CFAFEFEA1A2A
:104FA000FA0AA996EEADFFADA9973396A996FFAF81
:104FB000EEAFA997F5E0EF16F10409F0C4CEB80101
:104FC00086E392E00E947A35892B09F0DCC00E94CA
:104FD0003E100E94381C68C043E0E41609F474C017
:104FE00054E0812C912C54018A94412C512C320193
:104FF000E512D7CE64157505860597050CF06FC0D0
:105000006DE677E08AE594E00E944A13B301A201BD
:105010000E94C5186AE677E00E944A13DC011C96DC
:105020001C92B501A4010E94C5186BE577E00E94AF
:105030004A130E94CC13B701C7010E94781EBDE33A
:10504000CB129AC0E2E0DE1297C00E943E1080911F
:10505000AA029091AB02A5962EAD3FADA597821BFB
:10506000930B20E13EE0829FB001839F700D929FE1
:10507000700D1124072E000C880B990B00919E02D5
:1050800010919F022091A0023091A102600F711F28
:10509000821F931FA1010E941A0BC1010E94BB1025
:1050A0000E9496190E948D1D10E00E9448082B0155
:1050B0003C0160EC862E64ED962EAA24A394B12CBC
:1050C0001111EBCD0C9433344DE6842E9924939436
:1050D000A12CB12C412C512C320143948BCF86163C
:1050E0009706A806B9060CF48BCFF701EA5AFE4FD3
:1050F0002081293671F4F10171836083F701EE0F8D
:10510000FF1FEF59FE4FB101808191810E945B1713
:1051100090CF253771F4D1016D937C93F701EE0F99
:10512000FF1FEF59FE4FB101808191810E945B17F3
:1051300080CF253581F4F10160837183828393836D
:10514000F701EE0FFF1FEF59FE4FB10180819181F2
:105150000E9428176ECF223609F06BCFF701EE0FB1
:10516000FF1FEF59FE4F20813181D1012D933C93D8
:10517000C1010E940F175DCFD11096CF0E948D1DE7
:105180000E94C01991CF44E050E0B8018FEE91E049
:105190000E949835892B09F02EC16DE370E0C8019B
:1051A0000E948D35A8EE8A2EA3E09A2EA12CB12C58
:1051B0000097E9F001960E944A0D4B015C0131E62F
:1051C00083163AEE9306A104B10430F010E6812E66
:1051D0001AEE912EA12CB12C48EC84169104A10456
:1051E000B10428F4B8EC8B2E912CA12CB12C109288
:1051F00066046CE977E08AE594E00E944A1360E275
:105200000E946814B501A4010E94DF1769E977E0E4
:105210000E944A136AE00E94681481E00E949B1673
:1052200080919D028F5F80939D020E94FD0C0E94E1
:1052300048082B013C010E94480864197509860939
:105240009709603C77428940910508F0BCC00E94F4
:105250003E100E94C0128C01109266046CE777E049
:105260008AE594E00E944A1360E20E94681460910B
:105270009E0270919F028091A0029091A10240E055
:105280000E94A31910926604C8016AE070E00E94AF
:10529000F434072E000C880B990BCC24C394E12C1A
:1052A00005E022E040E00E94DC18609193027091DA
:1052B000940241E0611580E8780709F040E0072E8C
:1052C000000C880B990BCC24C394EE24E39407E0E4
:1052D00022E00E94DC186091910270919202472FA7
:1052E000441F4427441F072E000C880B990BE12C08
:1052F00005E021E00E94DC186091090170910A012B
:1053000041E0611590E8790709F040E0072E000CB4
:10531000880B990BCC24C394EE24E39408E022E09C
:105320000E94DC18609101017091020141E0611559
:10533000A0E87A0709F040E0072E000C880B990BD3
:10534000CC24C394E12C08E023E00E94DC1860EC3C
:105350008AE594E00E9468146AE00E94681481E182
:1053600093E00E9445090E9448086B017C010E945D
:1053700048086C197D098E099F09681579058A0509
:105380009B0508F058CF81E193E00E94B608892B75
:1053900071F30E9448086B017C010E9448086C1957
:1053A0007D098E099F096C3371058105910508F50A
:1053B00081E193E00E94B608892B79F381E193E0C3
:1053C0000E949408E6CF10E080919D02882319F096
:1053D000815080939D020E94F30C6FE877E01111D9
:1053E00002C061E877E08AE594E00E944A1311E088
:1053F0005CCE11E0E9CF44E050E0B80184EF91E0E9
:105400000E949835892B09F075C0B5E0CB16D10400
:1054100008F45EC086E0F10111928A95E9F76E0109
:10542000F8E0CF0ED11C7101510125E0A20EB11C94
:10543000C6010E944A0DD7016D937D01B3E0CB0EEA
:10544000D11CAE14BF04A1F7F80101900020E9F7C8
:105450003197E01BF10B789748F08E898A3331F44D
:10546000CE0147960E944A0DF10165838D818D33EF
:10547000A1F58A858D3289F58D858D3271F5888902
:10548000803259F58B898A3341F5D1018C9189316C
:1054900020F111968C91119781508C30F0F4129676
:1054A0008C91129781508F31C0F413968C91139781
:1054B000893198F414968C9114978C3370F4159666
:1054C0008C918C3350F4C1010E94BB100E948D1D41
:1054D0000E943E100E949619E7CD6DEA77E08AE5BA
:1054E00094E00E944A13B8010E9453146AE00E949B
:1054F0006814EECFB80189EF91E00E947A35892BCC
:1055000009F0AAC10E94F71E8BEA0E9497130E941D
:1055100044150E94C5136DEC78E08AE594E00E9482
:105520004A1360919702709198028091990290912C
:105530009A0241E00E94A3190E94F51660919E0212
:1055400070919F028091A0029091A1020091970218
:10555000109198022091990230919A02601B710B70
:10556000820B930BF0E64F2EF3E05F2E612C712C33
:10557000A30192010E940835CA01B9012AE030E076
:1055800040E050E00E942A3569017A0169E08AE52D
:1055900094E00E94681461EB0E946814B701A601B0
:1055A0000E94C5186FEB78E00E944A1367EA78E022
:1055B0008AE594E00E944A135C010E94E0128C018B
:1055C0006FEF7FEF1816190674F50E94B8120E944B
:1055D0003F0C4C0160919E0270919F028091A0024D
:1055E0009091A102209197023091980240919902E6
:1055F00050919A02621B730B840B950BA3019201CD
:105600000E940835D4010E9458352B013C0124E644
:1056100030E0D8010E9451359B01AC01C301B201B9
:105620000E942A35B901C5010E9432196CE978E05F
:105630000E944A138C010E94E012BC01C8010E9422
:10564000321965E978E00E944A1361EB0E94681400
:10565000B701A6010E94C5186EE878E00E944A13BF
:105660006CE778E08AE594E00E944A13B10182E891
:1056700090E00E949611F10180819181A281B38115
:10568000883D9E4CAC41B24308F4CAC0B10182E8E7
:1056900090E00E949611D1016D917D918D919C9128
:1056A00041E00E94A3190E94F51664E678E08AE5BD
:1056B00094E00E944A138C0186E890E00E942F1229
:1056C000BC01C8010E9432196BEF71E00E945314B3
:1056D0008C0188E890E00E942F12BC01C8010E9452
:1056E000321964E578E00E944A1365E378E08AE5C0
:1056F00094E00E944A13FC01148660917A04709130
:105700007B040E9485186FEF71E00E945314609132
:105710007604709177040E9485186FEF71E00E9403
:10572000531460917204709173040E948518DC0117
:1057300017961C921E92169710E21C961C931C97AB
:1057400018961C936EE278E00E944A1320917A0426
:1057500030917B04409176045091770470E060E0D2
:10576000420F531F611D711D20917204309173040B
:10577000420F531F611D711D0E94DF176AE278E01E
:105780000E944A136BE078E08AE594E00E944A1395
:10579000FC01148660917804709179040E94851848
:1057A0006FEF71E00E94531460917404709175045E
:1057B0000E9485186FEF71E00E945314609170048D
:1057C000709171040E948518DC0117961C921E923C
:1057D00016971C961C931C9718961C936AE00E94BF
:1057E00068146CEE77E08AE594E00E944A13809199
:1057F0006C0490916D04892BD1F46BEB77E08AE512
:1058000094E00E944A136CEF77E08AE594E00E94EE
:105810004A1364E070E090E080E00E94781E44CC7F
:1058200066E778E08AE594E00E944A133CCF8091D5
:105830006E0490916F040E9490156AEE77E08AE5FD
:1058400094E00E944A1360916C0470916D040E9470
:10585000851866EC77E0D5CFB80181E092E00E9430
:105860007A35892B09F06CC163E072E08AE594E037
:105870000E94531480911F01811106C064EC7AE0EC
:105880008AE594E00E944A138091A4026091A502E7
:1058900090E00E94EA0A0091A602080F192F111D3C
:1058A0008091A2029091A3020817190709F461C020
:1058B00063ED8AE594E00E9468146AE00E9468142F
:1058C00061ED8AE594E00E9468146EEF7AE00E9430
:1058D0004A1361ED0E9468146AE00E94681463ED47
:1058E0008AE594E00E9468146AE00E9468148BE3E1
:1058F00091E00E94A834C82E8823B9F160919E02DD
:1059000070919F028091A0029091A10280909702D5
:1059100090909802A0909902B0909A026819790923
:105920008A099B0920E633E040E050E00E940835F8
:10593000CA01B90124E630E040E050E00E942A3577
:10594000D12CF12CE12CCA01B901A70196010E94CA
:105950000835672B682B692B41F410921F0164EC0A
:105960007AE08AE594E00E944A131093A302009320
:10597000A2021092200160E08AE00E941C0760E011
:1059800085E00E941C079FB7F89480919B028823B2
:1059900019F0815080939B0280919B02811103C07A
:1059A0008CB58F7B8CBD9FBF60E08BE00E941C0795
:1059B00060E08DE00E941C0761E084E00E941C070B
:1059C00061E086E00E941C0780B7806880BF0E946B
:1059D0008D1D61EF7AE08AE594E00E944A131092EF
:1059E000670480E294E00E94570A81E193E00E94FC
:1059F0004509E0912303F09124038081877480831B
:105A000080912B0380932A038091AC02882351F16B
:105A10000E9448080091AD021091AE022091AF02A1
:105A20003091B002DC01CB01801B910BA20BB30BB8
:105A3000009731E0A307B10520F08FEF9FEFA0E0C2
:105A4000B0E09093730480937204209170043091BD
:105A500071042817390720F490937104809370041F
:105A60001092AC0210929D020E94F30C85E598E022
:105A700090931C0180931B01809169008C7F80931F
:105A80006900E89A60E070E0CB010E94150830E000
:105A900020E050E040E06AE070E08CE992E00E9493
:105AA000780AE89884E598E090931C0180931B01A4
:105AB0000E9448086093B1027093B2028093B302CF
:105AC0009093B40260E070E0CB010E9415080E9440
:105AD000650960E072EC81E090E00E9420060E947F
